:020000040800F2
:1000000000000220611F0008B11F0008B11F000896
:10001000B11F0008B11F0008B11F00080000000058
:10002000000000000000000000000000B11F0008F8
:10003000B11F000800000000B11F000805050008FE
:10004000B11F0008B11F0008B11F0008B11F000850
:10005000B11F0008B11F0008B11F0008B11F000840
:10006000B11F0008B11F0008B11F0008B11F000830
:10007000B11F0008B11F0008B11F0008B11F000820
:10008000B11F0008B11F0008B11F000821050008BA
:1000900031050008B11F000841050008B11F000824
:1000A000B11F0008B11F0008B11F0008B11F0008F0
:1000B000B11F0008B11F0008B11F0008B11F0008E0
:1000C000B11F0008B11F0008B11F0008B11F0008D0
:1000D000B11F0008B11F0008B11F0008B11F0008C0
:1000E00051050008B11F0008B11F0008B11F00082A
:1000F000B11F0008B11F0008B11F0008B11F0008A0
:10010000B11F0008B11F0008B11F0008B11F00088F
:10011000B11F0008B11F000811050008B11F000839
:10012000B11F0008B11F0008B11F0008B11F00086F
:10013000B11F00080000000000000000B11F00080F
:10014000B11F0008B11F0008B11F0008B11F00084F
:10015000B11F0008B11F0008B11F0008B11F00083F
:10016000B11F0008B11F0008B11F0008B11F00082F
:10017000B11F0008B11F0008B11F000800000000F7
:1001800000000000B11F0008000000000000000097
:10019000B11F00080000000000000000B11F0008AF
:1001A000000000000000000000000000B11F000877
:1001B000B11F0008B11F0008B11F0008B11F0008DF
:0401C000B11F000863
:1001C40010B5054C237833B9044B13B10448AFF38D
:1001D40000800123237010BD1000002000000000E7
:1001E4000C20000808B5034B1BB103490348AFF3C7
:1001F400008008BD00000000140000200C2000084E
:1002040053B94AB9002908BF00281CBF4FF0FF3179
:100214004FF0FF3000F072B9ADF1080C6DE904CE77
:1002240000F006F8DDF804E0DDE9022304B07047CD
:100234002DE9F047089E04468846002B4BD18A429C
:10024400154667D9B2FA82F24AB1C2F1200701FA1F
:1002540002F320FA07F7954047EA030894404FEA6F
:10026400154E230CB8FBFEF71FFA85FC0EFB17880E
:1002740043EA084307FB0CF1994209D9EB1807F14B
:10028400FF3080F01B81994240F21881023F2B44D9
:100294005B1AA4B2B3FBFEF00EFB103344EA034432
:1002A40000FB0CFCA44509D92C1900F1FF3380F0A4
:1002B4000781A44540F2048102382C4440EA0740F7
:1002C400A4EB0C0400271EB1D4400023C6E900436C
:1002D4003946BDE8F0878B4209D9002E00F0EB8047
:1002E4000027C6E9000138463946BDE8F087B3FA6D
:1002F40083F7002F47D18B4202D3824200F2FA8067
:10030400841A61EB030301209846002EE0D0C6E96D
:100314000048DDE702B9FFDEB2FA82F2002A40F0BB
:100324008F80491B4FEA154E1FFA85F80127B1FB50
:10033400FEFC230C0EFB1C1143EA014308FB0CF1E9
:10034400994207D9EB180CF1FF3002D2994200F21E
:10035400CD808446591AA3B2B1FBFEF00EFB1014F3
:1003640043EA044408FB00F8A04507D92C1900F11E
:10037400FF3302D2A04500F2B6801846A4EB08046D
:1003840040EA0C409FE7C7F1200CBB4022FA0CFE68
:100394004EEA030E01FA07F420FA0CF521FA0CF3E5
:1003A4004FEA1E482543B3FBF8F92C0C08FB19331C
:1003B4001FFA8EFA44EA034309FB0AF49C4202FA48
:1003C40007F200FA07F10BD91EEB030309F1FF3022
:1003D40080F087809C4240F28480A9F10209734432
:1003E4001B1BADB2B3FBF8F008FB103345EA034422
:1003F40000FB0AFAA24508D91EEB040400F1FF33FE
:100404006BD2A24569D90238744440EA0940A0FB82
:100414000289A4EB0A044C45C2464B4654D351D03E
:10042400002E69D0B1EB0A0564EB030404FA0CFC5A
:10043400FD40FC404CEA0505C6E90054002747E7A7
:10044400C2F1200320FA03F7954001FA02F021FAE1
:1004540003F34FEA154E3843010CB3FBFEF71FFAC2
:1004640085F80EFB173341EA034107FB08F38B427F
:1004740004FA02F407D9691807F1FF3C2FD28B4222
:100484002DD9023F2944CB1A81B2B3FBFEF00EFBF7
:10049400103341EA034100FB08F38B4207D9691882
:1004A40000F1FF3C17D28B4215D902382944C91AEE
:1004B40040EA07473BE73746304609E70746E7E6A1
:1004C4001846FBE64145ABD2B8EB020A69EB0E02D3
:1004D40001381346A4E76046E9E7184695E76746FE
:1004E400D1E781467CE702382C4447E7ACF1020CA3
:1004F4002B442FE7384608E73746E9E6704700BF44
:1005040008B500F033FB00F082FF08BD08B50248CF
:1005140001F0E7FB08BD00BF3400002008B5024825
:1005240000F0CDFD08BD00BF7800002008B50248EA
:1005340000F0C5FD08BD00BF7800002008B50248E2
:1005440000F0BDFD08BD00BF7800002000B58BB0F1
:10055400082308932023049300230693022307937C
:1005640003AB01AA04A9084800F07CFC48B9074879
:1005740001F0A2FB4FF4005001F036F80BB05DF827
:1005840004FB00F06BF8F2E7780000203400002050
:10059400F0B589B0002400942B4B1A6B42F0010291
:1005A4001A631A6B02F001020092009A01941A6B0A
:1005B40042F004021A631A6B02F004020192019AD7
:1005C40002941A6B42F002021A631B6B03F00203DB
:1005D4000293029B2023039301250495059403A908
:1005E4001A4800F019FF4FF400730393049505941F
:1005F400174E03A9304600F00FFF4FF4807703979E
:100604000495059403A9304600F006FF40230393A4
:100614000495059403A9304600F0FEFE0397049563
:10062400059403A90B4800F0F7FE4FF4005303931D
:10063400094B0493059403A9304600F0EDFE2820ED
:1006440000F0B0FE09B0F0BD0038024000000240E6
:10065400000802400004024000002110FEE70000F0
:1006640010B594B004462C22002109A801F0C4FC62
:1006740000230293039304930593069301230793A2
:100684004FF4A023089302230D934FF480030E9399
:10069400542C5AD02FD9782C69D0B42C53D10023A0
:1006A40000933D4A116C41F080511164126C02F0C8
:1006B40080520092009A0193384A116841F44041F3
:1006C4001160126802F440420192019A344A0121F5
:1006D400116008220F92B4221092022211921392F6
:1006E40012920F2102910392049305934FF48053C5
:1006F4000693052411E0322C25D108230F9364239B
:10070400109302231193139312930F2202920393D3
:100714004FF4805305930693012407A801F0EAF8E7
:10072400002835D1214602A800F06CFF002831D101
:1007340001F018F81B4BA3FB0030800900F040FEC9
:10074400042000F053FE14B010BD08230F93A82317
:10075400109302241194139412940F23029303947C
:100764004FF4A05305934FF480530693D5E7082321
:100774000F93F023109302231193139312930F22D8
:10078400029203934FF48053059306930324C4E722
:10079400FFF764FFFFF762FF00380240007000407B
:1007A40040000E42D34D621008B50748074B036062
:1007B4000A23436049F6CB73C36001F0B3FB00B96D
:1007C40008BDFFF74BFF00BF3400002000100040BD
:1007D40008B50D480D4B0360002383600122427667
:1007E400C376827603770376437705224260C3603B
:1007F4004FF4602303614FF48013436100F0C8F9A0
:1008040000B908BDFFF72AFF78000020006400400B
:1008140000B58BB00122089200230493069307923B
:10082400059342F2A042009201934FF6E0720292C5
:1008340003936946044800F051FA10B90BB05DF80F
:1008440004FBFFF70BFF00BF7800002008B500F0A1
:1008540073F9B420FFF704FFFFF79AFEFFF7A4FF34
:10086400FFF7B6FFFFF7D4FF0F4800F0CDFA08B149
:10087400FFF7F4FE40F203410B4800F002FC08B11C
:10088400FFF7ECFE094908230B6121230B600023C9
:100894008B600223CB60064B064A034800F0E2FA61
:1008A40000B9FEE7FFF7DAFE78000020A000002080
:1008B400740000202C00002000B589B00A460138DD
:1008C40004280CD8DFE800F00315222F3C0008238D
:1008D40006934FF48873029300230493059301ABAA
:1008E40002A91E4800F0BEFA002835D109B05DF80F
:1008F40004FB082306934FF490730293002304939C
:1009040002230593164B03211970E8E70823069385
:100914004FF4907302930023049302230593104B26
:1009240004211970DBE7082306934FF490730293B4
:100934000023049302230593094B05211970CEE784
:10094400082306934FF49073029300230493022325
:10095400059303490B70C2E7FFF780FE780000207F
:100964000000002000B583B06946054B1878FFF7F6
:10097400A3FF2021034800F02DFE03B05DF804FB23
:10098400000000200000024000B583B06B460B4A13
:1009940000210B4800F0DBFA40B9084B1A6840F21A
:1009A40025139A4204D003B05DF804FBFFF756FE0A
:1009B40069460120FFF780FFF5E700BFB80000207B
:1009C4007800002008B5FFF7DFFF08BD08B5032055
:1009D40000F0A2FC0B4A536A43F4E0235362002262
:1009E40011466FF00B0000F0A9FC002211466FF0D5
:1009F4000A0000F0A3FC002211466FF0090000F089
:100A04009DFC08BD00ED00E010B582B00024019407
:100A1400094B1A6C42F010021A641B6C03F01003A9
:100A24000193019B362000F0BDFC22460F213620A5
:100A340000F084FC02B010BD0038024010B588B04C
:100A440000240194214B1A6C42F000721A641A6C4F
:100A540002F000720192019A02941A6B42F00102B0
:100A64001A631B6B03F001030293029B4FF4C05300
:100A7400039302230493059406930923079303A97C
:100A8400134800F0C9FC22460F21132000F056FC45
:100A940022460F21142000F051FC22460F2115207C
:100AA40000F04CFC22460F21162000F047FC1320D6
:100AB40000F078FC142000F075FC152000F072FCA6
:100AC400162000F06FFC08B010BD00BF00380240D3
:100AD40000000240054BD3F8882042F47002C3F8AA
:100AE40088204FF000629A60704700BF00ED00E07C
:100AF40010B504460E4B18784FF47A73B3FBF0F339
:100B04000C4A1068B0FBF3F000F05AFC68B90F2CE3
:100B140001D901200AE0002221464FF0FF3000F005
:100B24000DFC034B5C60002000E0012010BD00BF01
:100B3400080000200400002008B50B4B1A6842F49A
:100B440000721A601A6842F480621A601A6842F4E9
:100B540080721A60032000F0DFFB0020FFF7C8FF5B
:100B6400FFF734FF002008BD003C0240034A11682F
:100B7400034B1B780B441360704700BFD400002064
:100B840008000020014B1868704700BFD400002003
:100B9400002800F0A18038B5044690F82030D3B185
:100BA4002268136823F002031360FFF7EBFF054686
:100BB40023685A6812F0020F10D0FFF7E3FF401BBE
:100BC4000A28F5D9636A43F400336362052384F881
:100BD4002030012038BDFFF731FFE1E71A6842F009
:100BE40001021A60FFF7CEFF054623685A6812F027
:100BF400010F0DD1FFF7C6FF401B0A28F5D9636A20
:100C040043F400336362052384F820300120E1E7D4
:100C1400227E012A3DD01A6822F080021A60637E87
:100C2400012B3BD02268136823F040031360A37E9A
:100C3400012B39D02268136823F020031360E37E6C
:100C4400012B37D02268136843F010031360237F0D
:100C5400012B35D02268136823F008031360637FE7
:100C6400012B33D02268136823F004031360A368B4
:100C7400E268134322691343626913436268013AC9
:100C840021681343CB6100206062012384F8203083
:100C9400A0E71A6842F080021A60C0E7226813686D
:100CA40043F040031360C2E72268136843F0200353
:100CB4001360C4E72268136823F010031360C6E7C7
:100CC4002268136843F008031360C8E722681368B6
:100CD40043F004031360CAE70120704790F8203002
:100CE400013BDBB2012B05D9436A43F48023436201
:100CF4000120704770B4434BD3F8002242F0010244
:100D0400C3F80022D3F8002222F47C52C3F8002254
:100D1400D3F80022486A42EA0022C3F800224A6952
:100D240002F01F02012000FA02F2D3F81C42D04361
:100D34000440C3F81C42CB69B3B9324BD3F80C421C
:100D44000440C3F80C42CE688D884C6945EA0645D8
:100D5400483443F834508E680C884D6944EA06449C
:100D6400483503EBC5035C60CB69012B1DD08B694F
:100D7400002B32D1234CD4F804320340C4F804329B
:100D84000B698BBB1F4BD3F814422040C3F81402E9
:100D94000B6A012B2FD01B4AD2F8003223F0010337
:100DA400C2F80032002070BC7047164BD3F80C42D6
:100DB4001443C3F80C420E688D884C6945EA064515
:100DC400483443F834508E688C894D6944EA0644AB
:100DD400483503EBC5035C60C9E70A4CD4F8043218
:100DE4001343C4F80432CBE70648D0F81432134353
:100DF400C0F81432CCE70349D1F81C321A43C1F8C5
:100E04001C22C8E70064004038B590F82030DBB2FB
:100E1400012B05D0436A43F400234362012038BD0B
:100E24000446022380F820300268136823F001038B
:100E34001360FFF7A7FE054623685B6813F0010FF4
:100E44000DD0FFF79FFE401B0A28F5D9636A43F4CF
:100E540000336362052384F820300120DFE700209B
:100E64006062DCE770B490F820400568AD68013C2E
:100E7400E4B2012C06D9436A43F48023436201207F
:100E840070BC704715F0E05F5BD0C5F30165022DBF
:100E94003ED80124AC401C608B68002B3ED10E6808
:100EA400CB68046843EA465605F118031B01E65073
:100EB40003680C6905F1180603EB06135C600B7DEF
:100EC400012B36D0D17993791B0443EA016351791C
:100ED40043EA01231479016823432C012144C1F816
:100EE4008C31D17893781B0443EA0163517843EA47
:100EF4000123117802680B432244C2F88831026846
:100F040018352D01535943F0010353510020B7E71D
:100F1400436A43F4000343620120B1E74C6843EAA7
:100F2400C403CC680668234305F118042401335133
:100F3400BEE7036803EB0613596841F480715960F6
:100F4400C0E7436A43F400134362012098E730B4D6
:100F540090F82040013CE4B2012C06D9436A43F4E2
:100F640080234362012030BC704700296FD104689C
:100F7400E46814F0030F64D0056801F11B04240134
:100F84002C5904F004049460002C6BD1056801F121
:100F94001B0424012C59640D1460056801F11B0421
:100FA40024012D5905F00205D560056825446D68B6
:100FB40005F00F051561056825446D68C5F307251F
:100FC400956105682C446468240C546104680A0122
:100FD4001444D4F8B8411C7004681444D4F8B841DB
:100FE400C4F307245C7004681444D4F8B841C4F30F
:100FF40007449C7004681444D4F8B841240EDC708F
:1010040004681444D4F8BC411C7104681444D4F832
:10101400BC41C4F307245C7104681444D4F8BC4193
:10102400C4F307449C7104682244D2F8BC21120E14
:10103400DA71F9B90268D36843F02003D360002061
:1010440091E7436A43F40013436201208BE7046889
:10105400246914F0030F8FD1436A43F400134362ED
:10106400012080E7056801F11B0424012C59E408E0
:10107400546092E70268136943F02003136100206F
:1010840071E790F82030013BDBB2012B05D9436AAC
:1010940043F4802343620120704702685369194373
:1010A4005161002070477047704770477047704720
:1010B40070477047704770477047704770472DE915
:1010C400F84F054603685C695F689E68D3F80C9026
:1010D400D3F81080D3F818A014F0010F5AD016F0EA
:1010E400010F17D001229A6016F0020F08D116F0F2
:1010F400040F30D116F0080F07D04FF4805B0BE0DB
:10110400FFF7D1FF4FF0000B06E0FFF7CFFF4FF0E2
:10111400000B01E04FF0000B16F4807F0BD02B681E
:101124004FF480729A6016F4007F17D116F4806F22
:1011340018D04BF4005B16F4803F2DD02B684FF48D
:1011440080329A6016F4003F16D116F4802F17D01F
:101154004BF4004B20E04FF4006BDDE72846FFF72B
:10116400A3FFE8E716F4006F02D04BF4804BE2E7EC
:101174002846FFF79CFFDEE72846FFF796FF0BE0C3
:1011840016F4002F02D04BF4803B05E02846FFF70D
:101194008FFF01E04FF0000B14F0080F07D019F097
:1011A400100F04D04BF4007B2B681022DA6014F08B
:1011B400040F02D019F0080F60D114F0020F04D00C
:1011C4002B68DB6813F0030F5FD114F0400F07D0D6
:1011D40018F0100F04D04BF4806B2B6810221A61A6
:1011E40014F0200F02D018F0080F52D114F0100F91
:1011F40004D02B681B6913F0030F51D114F4003F82
:1012040002D017F0100F4FD114F4803F02D017F022
:10121400080F50D114F4004F67D017F0040F61D0B9
:1012240014F4807F04D01AF0010F01D04BF0010BAD
:1012340014F4007F04D01AF0020F01D04BF0020B1B
:1012440014F4806F04D01AF0040F01D04BF0040B97
:1012540014F4006F46D01AF0700A43D0BAF1300F7C
:1012640048D02FD9BAF1500F47D0BAF1600F47D008
:10127400BAF1400F31D14BF0400B2EE02B6808221D
:10128400DA602846FFF715FF97E72846FFF79AFB31
:101294009BE72B6808221A612846FFF70CFFA5E795
:1012A4002846FFF707FFA9E72B6810225A60284653
:1012B400FFF702FFA8E72B6808225A602846FFF7C9
:1012C400FCFEA7E7BAF1100F05D0BAF1200F04D144
:1012D4004BF0100B01E04BF0080B2A68936923F0E4
:1012E400700393612B6804225A60BBF1000F0AD18A
:1012F400BDE8F88F4BF0200BEFE74BF0800BECE7E9
:101304004BF4807BE9E76B6A43EA0B036B62284684
:10131400FFF7D4FEECE70000074AD36823F4E06348
:101324001B041B0C000200F4E060184340F0BF6093
:1013340040F40030D060704700ED00E030B4174B4B
:10134400DB68C3F30223C3F10704042C28BF04247D
:101354001D1D062D18D9033B4FF0FF3505FA04F483
:1013640021EA0401994005FA03F322EA030319432D
:1013740000280BDB0901C9B200F1604000F56140AF
:1013840080F8001330BC70470023E5E700F00F003D
:101394000901C9B2024B1954F4E700BF00ED00E0A3
:1013A40014ED00E0002807DB00F01F0240090123D0
:1013B4009340024A42F82030704700BF00E100E049
:1013C4000138B0F1807F0AD2064B5860064AF021FA
:1013D40082F823100020986007221A6070470120C9
:1013E400704700BF10E000E000ED00E0042805D0E5
:1013F400054A136823F0040313607047024A136814
:1014040043F004031360704710E000E0704708B530
:10141400FFF7FCFF08BD000000230F2B00F2D18072
:10142400F0B583B039E0062200E00022AA403A4336
:101434000234644D45F82420634A1468F24302EAF6
:1014440004054F6817F4803F01D046EA04055E4C5A
:101454002560646802EA04054F6817F4003F01D070
:1014640046EA0405584C6560A46802EA04054F681E
:1014740017F4801F01D046EA0405534CA560E468C4
:1014840022404D6815F4001F01D046EA04024E4C78
:10149400E26001330F2B00F2928001229A400C6823
:1014A40004EA0206B242F4D14C68651E012D03D948
:1014B400112C01D0122C12D185685F000324BC408A
:1014C40025EA0405CC68BC402C438460456825EAC1
:1014D40002054C68C4F300129A402A434260C4686F
:1014E4005F000322BA40D24314408D68BD402543B7
:1014F400C5604C68022C01D0122C13D1DD080835CC
:1015040050F825E003F007044FEA840C0F2404FA92
:101514000CF42EEA040E0C6904FA0CF444EA0E04EA
:1015240040F82540046822404C6804F00304BC40A1
:10153400224302604A6812F0805FAAD0002201921E
:10154400224A546C44F480445464526C02F4804241
:101554000192019A9C08A51C1A4A52F8257003F0BE
:10156400030295000F22AA4027EA0207184A904274
:101574003FF45BAF02F58062904216D002F58062C0
:10158400904214D002F58062904212D002F580623B
:10159400904210D002F5806290420ED002F5806233
:1015A40090423FF440AF072240E701223EE7022287
:1015B4003CE703223AE7042238E7052236E703B082
:1015C400F0BD704700380140003C01400038024043
:1015D40000000240436931EA030301D0816170478E
:1015E400090481617047704708B5054B5B69034284
:1015F40000D108BD024B5861FFF7F5FFF9E700BFC2
:10160400003C0140002800F09E8070B50446504B19
:101614001B6803F00F038B4209D2CBB24C4A137000
:10162400136803F00F038B4201D0012070BD2368BF
:1016340013F0020F17D013F0040F04D0454A936837
:1016440043F4E0539360236813F0080F04D0414A35
:10165400936843F4604393603E4A936823F0F00335
:10166400A068034393600D46236813F0010F32D042
:101674006368012B21D09A1E012A25D9354A1268A4
:1016840012F0020F61D033498A6822F00302134337
:101694008B60FFF777FA06462E4B9B6803F00C032A
:1016A4006268B3EB820F16D0FFF76CFA801B41F22D
:1016B40088339842F0D90320B8E7264A126812F416
:1016C400003FE0D10120B1E7224A126812F0007F06
:1016D400D9D10120AAE71E4B1B6803F00F03AB42CC
:1016E40009D9EAB21A4B1A701B6803F00F03AB4214
:1016F40001D001209AE7236813F0040F06D0154A9D
:10170400936823F4E053E1680B439360236813F078
:10171400080F07D00F4A936823F46043216943EA12
:10172400C103936000F024F80A4B9B68C3F30313CE
:10173400094AD35CD840094B1860094B1868FFF775
:10174400D7F9002072E70120704701206EE700BF3F
:10175400003C02400038024024200008040000201D
:101764000C000020014B1868704700BF04000020E3
:101774002DE9F04B5C4B9B6803F00C03082B07D05E
:101784000C2B5BD0042B00F0AD805848BDE8F08BE7
:10179400554B5A6802F03F025B6813F4800F2AD05D
:1017A400514B5B68C3F388131E4600275C01002578
:1017B400E41A65EB0705A90141EA9461A001001B45
:1017C40061EB0501CB0043EA5073C400A01943EB5D
:1017D40007014B0243EAD053440220461946002332
:1017E400FEF70EFD404B5B68C3F3014301335B001E
:1017F400B0FBF3F0CAE73C4B5B68C3F388131E46A7
:1018040000275C010025E41A65EB0705A90141EAFC
:101814009461A001001B61EB0501CB0043EA507306
:10182400C400A01943EB07018B0243EA90538402DE
:10183400204619460023FEF7E3FCD3E72A4B5A68F7
:1018440002F03F025B6813F4800F28D0264B5B68DC
:10185400C3F388131E4600275C010025E41A65EBD8
:101864000705A90141EA9461A001001B61EB050190
:10187400CB0043EA5073C400A01943EB07014B02A9
:1018840043EAD0534402204619460023FEF7B8FC2D
:10189400154B5B68C3F30273B0FBF3F076E7124BAE
:1018A4005B68C3F388131E4600275C010025E41A15
:1018B40065EB0705A90141EA9461A001001B61EBF6
:1018C4000501CB0043EA5073C400A01943EB0701A0
:1018D4008B0243EA90538402204619460023FEF704
:1018E4008FFCD5E7024851E7003802400024F40099
:1018F40000127A0070B582B00446036813F0010F39
:1019040041D0A64B9B6803F00C03042B32D0A34BAD
:101914009B6803F00C03082B27D0A04B9B6803F0B3
:101924000C030C2B59D06368B3F5803F5BD0B3F53F
:10193400A02F5ED0994B1A6822F480321A601A687C
:1019440022F480221A606368002B5CD0FFF71AF936
:101954000546924B1B6813F4003F14D1FFF712F9AC
:10196400401B6428F5D903209DE18C4B5B6813F47C
:10197400800FD2D0894B1B6813F4003F03D06368F7
:10198400002B00F08D81236813F0020F67D0834B86
:101994009B6813F00C0F4AD0804B9B6803F00C0338
:1019A400082B3FD07D4B9B6803F00C030C2B48D0D5
:1019B400E368002B74D07A4B01221A60FFF7E2F837
:1019C4000546764B1B6813F0020F60D1FFF7DAF877
:1019D400401B0228F5D9032065E1704B5B6813F4C2
:1019E400800FA0D0C6E76D4A136843F480331360B8
:1019F400A9E76A4B1A6842F480221A601A6842F412
:101A040080321A609FE7FFF7BDF80546634B1B68F9
:101A140013F4003FB7D0FFF7B5F8401B6428F5D99D
:101A2400032040E15D4B5B6813F4800FBAD15B4B3C
:101A34001B6813F0020F0AD0E368012B07D00120C2
:101A440031E1564B5B6813F4800FB1D1EFE7534A91
:101A5400136823F0F803216943EAC1031360236880
:101A640013F0080F40D0636963B34E4B01221A6030
:101A7400FFF788F80546494B5B6F13F0020F33D12B
:101A8400FFF780F8401B0228F5D903200BE1434AF5
:101A9400136823F0F803216943EAC1031360DEE706
:101AA4003F4B00221A60FFF76DF805463B4B1B685D
:101AB40013F0020FD3D0FFF765F8401B0228F5D9C5
:101AC4000320F0E0374B00221A60FFF75BF805466D
:101AD400324B5B6F13F0020F06D0FFF753F8401B35
:101AE4000228F5D90320DEE0236813F0040F79D02F
:101AF4002A4B1B6C13F0805F33D100230193274BD7
:101B04001A6C42F080521A641B6C03F080530193E8
:101B1400019B0125244B1B6813F4807F23D0A36809
:101B2400012B34D0052B41D01C4B1A6F22F001023B
:101B34001A671A6F22F004021A67A368002B3FD0B9
:101B4400FFF720F80646154B1B6F13F0020F48D120
:101B5400FFF718F8801B41F288339842F3D9032029
:101B6400A1E00025D6E7104A136843F4807313609C
:101B7400FFF708F806460C4B1B6813F4807FCED1A0
:101B8400FFF700F8801B0228F5D903208BE0034AF5
:101B9400136F43F001031367CFE700BF003802401F
:101BA40000004742800E474200700040404B1A6FCD
:101BB40042F004021A671A6F42F001021A67BCE786
:101BC400FEF7E0FF06463A4B1B6F13F0020F08D0F6
:101BD400FEF7D8FF801B41F288339842F3D90320E3
:101BE40061E0E5B9A369002B5CD0314A926802F048
:101BF4000C02082A59D0022B17D02E4B00221A604F
:101C0400FEF7C0FF04462A4B1B6813F0007F45D043
:101C1400FEF7B8FF001B0228F5D9032043E0244A4D
:101C2400136C23F080531364DCE7224B00221A6008
:101C3400FEF7A8FF05461E4B1B6813F0007F06D075
:101C4400FEF7A0FF401B0228F5D903202BE0E3692F
:101C5400226A1343626A43EA8213A26A5208013A6F
:101C640043EA0243E26A43EA0263226B43EA0273F1
:101C74000F4A53600F4B01221A60FEF783FF04469C
:101C84000B4B1B6813F0007F06D1FEF77BFF001B94
:101C94000228F5D9032006E0002004E0002002E039
:101CA400012000E0002002B070BD0120FBE700BF6E
:101CB40000380240600047420268D36843F00103E1
:101CC400D3600268936803F00703062B03D01368FC
:101CD40043F001031360002070477047704770475A
:101CE400704710B5044603681A6912F0020F11D048
:101CF400DA6812F0020F0DD06FF002021A610123AC
:101D0400037703689B6913F0030F70D0FFF7E6FFB6
:101D14000023237723681A6912F0040F12D0DA68BB
:101D240012F0040F0ED06FF004021A61022323771D
:101D340023689B6913F4407F5FD02046FFF7CEFFF2
:101D44000023237723681A6912F0080F12D0DA6887
:101D540012F0080F0ED06FF008021A6104232377E3
:101D64002368DB6913F0030F4ED02046FFF7B6FF5C
:101D74000023237723681A6912F0100F12D0DA684F
:101D840012F0100F0ED06FF010021A61082323779F
:101D94002368DB6913F4407F3DD02046FFF79EFFA4
:101DA4000023237723681A6912F0010F03D0DA683D
:101DB40012F0010F36D123681A6912F0800F03D094
:101DC400DA6812F0800F34D123681A6912F0400FD8
:101DD40003D0DA6812F0400F32D123681A6912F086
:101DE400200F03D0DA6812F0200F30D110BDFFF7B6
:101DF40074FF2046FFF773FF8AE72046FFF76DFF65
:101E04002046FFF76CFF9BE72046FFF766FF20465E
:101E1400FFF765FFACE72046FFF75FFF2046FFF7BB
:101E24005EFFBDE76FF001021A612046FEF79AFDDE
:101E3400C1E76FF080021A61204600F08DF8C3E715
:101E44006FF040021A612046FFF74AFFC5E76FF0C2
:101E540020021A61204600F07EF8C7E70368304A82
:101E6400904212D0B0F1804F0FD0A2F57C42904244
:101E74000BD002F58062904207D002F58062904256
:101E840003D002F57842904203D123F070034A68EC
:101E94001343234A90422AD0B0F1804F27D0A2F5B1
:101EA4007C42904223D002F5806290421FD002F51A
:101EB400806290421BD002F57842904217D002F51E
:101EC4007052904213D002F5806290420FD002F516
:101ED400806290420BD0A2F59832904207D002F56E
:101EE4008062904203D002F58062904203D123F4D1
:101EF4004073CA68134323F080034A6913430360A1
:101F04008B68C3620B688362054B984203D003F568
:101F14008063984201D10B690363012343617047D5
:101F240000000140A8B110B5044690F83D305BB103
:101F3400022384F83D30211D2068FFF78FFF012321
:101F440084F83D30002010BD80F83C30FEF75CFD85
:101F5400EEE701207047704770470000DFF834D087
:101F6400002103E00C4B5B58435004310B480C4BED
:101F740042189A42F6D30B4A02E0002342F8043B8B
:101F8400094B9A42F9D3FEF7A5FD00F011F8FEF7CC
:101F94005DFC7047000002204C2000080000002077
:101FA4001000002010000020D8000020FEE70000F0
:101FB40070B50D4E0D4CA41BA4100025A54209D1EB
:101FC4000B4E0C4C00F020F8A41BA4100025A542D5
:101FD40005D170BD56F8253098470135EEE756F81F
:101FE400253098470135F2E74420000844200008D2
:101FF400442000084820000802440346934200D1CC
:10200400704703F8011BF9E7F8B500BFF8BC08BC3A
:102014009E467047F8B500BFF8BC08BC9E467047A2
:102024000000000000000000010203040607080984
:0820340000000000010203049A
:08203C00F8E1FF7F0100000044
:04204400E9010008A6
:04204800C5010008C6
:10204C00020000000024F400010000001000000059
:0400000508001F616F
:00000001FF
