:020000040800F2
:1000000000300020C1230008B1070008B307000832
:10001000B5070008B7070008B9070008000000008E
:10002000000000000000000000000000BB07000806
:10003000BD07000800000000BF070008C107000856
:1000400011240008112400081124000811240008BC
:1000500011240008112400081124000811240008AC
:10006000112400081124000811240008112400089C
:10007000112400081124000811240008112400088C
:10008000112400081124000811240008112400087C
:10009000112400081124000811240008112400086C
:1000A000112400081124000811240008112400085C
:1000B0001124000811240008000000001124000889
:1000C00011240008000000000000000011240008B6
:1000D0000000000011240008112400081124000869
:1000E0001124000811240008000000000000000096
:1000F0000000000000000000000000000000000000
:1001000000000000000000000000000000000000EF
:100110000000000000000000112400081124000865
:1001200000000000000000000000000000000000CF
:1001300000000000000000000000000000000000BF
:100140001124000811240008000000000000000035
:10015000000000000000000000000000000000009F
:10016000000000000000000000000000000000008F
:10017000000000000000000000000000000000007F
:0801800000000000112400083A
:1001880010B5054C237833B9044B13B10448AFF3C9
:1001980000800123237010BD0C0000200000000027
:1001A8006C24000808B5034B1BB103490348AFF39F
:1001B800008008BD00000000100000206C2400082A
:1001C800034613F8012B002AFBD1181A013870478F
:1001D80030B589B0002403940494059406940794D8
:1001E800164B5A6942F480025A615A6902F4800235
:1001F8000092009A5A6942F400325A615A6902F42C
:1002080000320192019A5A6942F480225A615B696C
:1002180003F480230293029B094D2246E0212846DD
:1002280001F08AF8E02303930123049305940694CC
:1002380003A9284600F0BCFF09B030BD00100240F9
:1002480000040048FEE7000000B58BB000230793C8
:1002580008930993019302930393049305930693D8
:100268001A484FF0A04202604360836003614376FE
:1002780080F82030C36201228262C360C26180F8C4
:100288003030042242610376436300F043FBB8B97F
:100298000AA9002341F80C3D0C4800F0FDFD88B97F
:1002A8000123019302930023049303930593069378
:1002B80001A9064800F038FC30B90BB05DF804FB22
:1002C800FFF7C0FFFFF7BEFFFFF7BCFF08010020E4
:1002D80000B587B00023009301930293039304931E
:1002E80005931548154A02604360836003614376AD
:1002F80080F82030C36201228262C360C26180F844
:100308003030042242610376436300F003FB78B97E
:10031800012300930193002303930293049305930D
:100328006946054800F000FC20B907B05DF804FBF9
:10033800FFF788FFFFF786FF9000002000010050BC
:1003480008B50B480B4B0360102343600023836000
:10035800C36003614361037643768376C37603778C
:10036800437700F023FE00B908BDFFF76BFF00BF1D
:10037800E00000200064004000B585B00023019330
:10038800029303930D480E4A0260436083604FF660
:10039800FF72C260836101F047FD50B900230193E9
:1003A800039301A9054801F059FD20B905B05DF88E
:1003B80004FBFFF747FFFFF745FF00BFD801002008
:1003C8000010004008B50B480B4B03604FF4164370
:1003D800436000238360C36003610C224261836130
:1003E800C3610362436201F0B6FF00B908BDFFF7BD
:1003F80029FF00BF580100200038014008B50B480C
:100408000B4B03604FF41643436000238360C360C3
:1004180003610C2242618361C3610362436201F09C
:100428009AFF00B908BDFFF70DFF00BF18020020B2
:100438000044004000B597B0202200210DA802F02A
:1004480009F800230793089309930A930B930193E0
:100458000293039304930593069302230C930122BA
:1004680010921022119213934FF4601315930CA855
:1004780000F068FFD8B90F230793022108910023E1
:1004880009934FF480620A920B9307A801F0B4FA1B
:1004980078B981230193002303934FF48073059364
:1004A80001A801F0ADFB30B917B05DF804FBFFF708
:1004B800C9FEFFF7C7FEFFF7C5FE000008B500F04C
:1004C800B1F9FFF7B7FFFFF783FEFFF7BDFEFFF7B0
:1004D800FFFEFFF735FFFFF74FFFFFF773FFFFF74B
:1004E8008DFF0A4E34460A4D0FCD0FC42B6823707A
:1004F8003046FFF765FE4FF0FF3382B231460548BC
:1005080001F087FEC82000F0B1F9EAE728000020D2
:10051800BC2400085801002082B00A4B9A6942F0B6
:1005280001029A619A6902F001020092009ADA695E
:1005380042F08052DA61DB6903F080530193019B3A
:1005480002B070470010024010B58AB0002305932E
:1005580006930793089309930368B3F1A04F04D057
:100568002F4A934237D00AB010BD2E4A1368013380
:100578001360012B24D02C4B5A6942F400325A6183
:100588005A6902F400320192019A5A6942F48022AF
:100598005A615B6903F480230293029B0F2305933E
:1005A8000324069405A94FF0904000F001FE05943D
:1005B80006940023079305A91C4800F0F9FDD2E72B
:1005C800194B5A6942F080525A615B6903F08053B3
:1005D8000093009BCFE7134A136801331360012B84
:1005E80013D0114B5A6942F400325A615B6903F423
:1005F80000330493049BF02305930323069305A972
:100608004FF0904000F0D4FDADE7074B5A6942F037
:1006180080525A615B6903F080530393039BE0E7C0
:10062800000100508C000020001002400004004827
:1006380000B589B0002303930493059306930793A9
:100648000268144B9A4202D009B05DF804FB03F526
:10065800D633DA6942F00072DA61DA6902F00072C0
:100668000192019A5A6942F400325A615B6903F4B3
:1006780000330293029B4FF4C05303930223049365
:10068800032306930923079303A94FF0904000F032
:100698008FFDD9E7006400400268094B9A4200D0F8
:1006A800704782B003F50033DA6942F01002DA616C
:1006B800DB6903F010030193019B02B0704700BF90
:1006C8000010004070B58AB0002305930693079385
:1006D800089309930368304A934204D02F4A9342FF
:1006E80023D00AB070BD2E4B9A6942F480429A61B9
:1006F8009A6902F480420092009A5A6942F40032E0
:100708005A615B6903F400330193019B4FF4C063A2
:10071800059302230693032308930723099305A946
:100728004FF0904000F044FDDBE71D4BDA6942F4DE
:100738000032DA61DA6902F400320292029A5A69E6
:1007480042F400325A615A6902F400320392039A61
:100758005A6942F480225A615B6903F48023049346
:10076800049B4FF40043059302260696032508953B
:100778000724099405A94FF0904000F019FD0823BB
:1007880005930696002307930895099405A905483B
:1007980000F00EFDA5E700BF00380140004400400E
:1007A80000100240000400487047FEE7FEE7FEE73D
:1007B800FEE770477047704708B500F045F808BD78
:1007C800054BD3F8882042F47002C3F888204FF014
:1007D80000629A60704700BF00ED00E010B5044663
:1007E8000E4B18784FF47A73B3FBF0F30C4A106889
:1007F800B0FBF3F000F0C6FC68B90F2C01D901205A
:100808000AE0002221464FF0FF3000F087FC034B3E
:100818005C60002000E0012010BD00BF0400002043
:100828000000002008B5074A136843F0100313605E
:10083800032000F061FC0020FFF7D0FFFFF76CFEFB
:10084800002008BD00200240034A1168034B1B78B2
:100858000B441360704700BF98020020040000207A
:10086800014B1868704700BF9802002038B504464D
:10087800FFF7F6FF0546B4F1FF3F02D0044B1B78A3
:100888001C44FFF7EDFF401BA042FAD338BD00BF60
:100898000400002038B50268936803F00303012BB5
:1008A80001D0002038BD136813F0010F2FD09368D2
:1008B80003F00D03012B09D0036C43F0100303640C
:1008C800436C43F0010343640120EBE7044693685B
:1008D80043F002039360036803221A60FFF7C0FF26
:1008E800054623689B6813F0010F0ED0FFF7B8FF89
:1008F800401B0228F5D9236C43F010032364636C72
:1009080043F0010363640120CCE70020CAE700201C
:10091800C8E7000030B597B000230193002800F025
:10092800F7800446036C13F0100F52D1036CABB17F
:10093800002023689A6812F0805F03D09B6813F048
:10094800005F47D0236C23F0120343F010032364A5
:10095800636C43F00103636401203BE04364C364B8
:10096800836480F83C30FFF7EFFD23689B6813F041
:10097800805F01D00020DCE72046FFF78BFF236C67
:1009880013F0100FD5D10028D3D1236C23F488534A
:1009980023F0020343F0020323642268936823F0E0
:1009A800405393602268936843F080539360594B97
:1009B8001B68594AA2FB03239B0C03EB83035A00D1
:1009C800019202E0019B013B0193019B002BF9D1AD
:1009D800AFE70020236C13F0100F40F09080002840
:1009E80040F08D8023689A6812F0040240F08780F6
:1009F800216C21F4817141F002012164B3F1A04F0F
:100A080054D04FF0A0410291996801F003010129E7
:100A18004FD0029B23B1996801F0030101294DD001
:100A28003E498B6823F4403365682B438B60617EB5
:100A38004B03656B012D01D04FF480521343E268DC
:100A48001343A268134394F82020012A3BD0A26ADA
:100A5800012A02D0E16A0A4313432268916811F01F
:100A68000C0F0CD1D16821F4804121F00201D16032
:100A7800217E94F83020520042EA813213432168E3
:100A8800CD68274A2A401343CB602369012B2DD018
:100A98002268136B23F00F03136300236364236C32
:100AA80023F0030343F0010323642FE01D4902915F
:100AB800AAE71B6813F0010FB9D1AAE71B6813F066
:100AC800010FB4D1ACE731B9626A013A43EA424353
:100AD80043F48033BBE7226C22F0220242F020026A
:100AE8002264626C42F001026264B0E721680B6B19
:100AF80023F00F03E269013A13430B63CDE7236C3C
:100B080023F0120343F010032364012017B030BD13
:100B18000120FBE70000002083DE1B430003005098
:100B280007C0F0FF0001005030B496B000220192D7
:100B380090F83C20012A00F0A4810346012280F8A5
:100B48003C200068826812F0040F40F08F814A68E8
:100B5800042A31D8046B02EB420255001F22AA4036
:100B680024EA02020C68AC402243026318688268D7
:100B780012F00C0F68D10A68092A4ED9846902EB71
:100B880042021E3A0725954024EA05048D6805FAB5
:100B980002F22243826148691C68E268C2F3C1021A
:100BA800520000FA02F208690138032800F28B802B
:100BB800DFE800F04068737E092A0ED8446B02EB28
:100BC800420255001E3D1F22AA4024EA02020C6878
:100BD80004FA05F52A434263C8E70E2A0ED8846B47
:100BE80002EB420255003C3D1F22AA4024EA0202C1
:100BF8000C6804FA05F52A438263B7E7C46B02EB75
:100C0800420255005A3D1F22AA4024EA02020C68FB
:100C180004FA05F52A43C263A8E7446902EB4202D5
:100C28000725954024EA05048D6805FA02F2224357
:100C38004261B0E7206E944D0540086842EA806240
:100C4800154345F0004525661868826802F00302DE
:100C5800012A6BD0CA68012A6ED0D0F8B0200D687E
:100C68000124AC4022EA0402C0F8B0200A68102A25
:100C780000F08B80112A00F0A980122A00F0AC80C5
:100C88000020F8E0606E804D0540086842EA806206
:100C9800154345F000456566D6E7A06E7A4D0540D8
:100CA800086842EA8062154345F00045A566CBE72F
:100CB800E56E754828400D6842EA8562024342F0B5
:100CC8000042E266C0E7226E02F0F8420868B2EB22
:100CD800806F1CD01868426E02F0F8420C68B2EBC4
:100CE800846F19D01868826E02F0F8420C68B2EB73
:100CF800846F16D01868C26E02F0F8420C68B2EB26
:100D0800846FA1D1C26E22F00042C2669CE7226EB7
:100D180022F000422266DDE7426E22F0004242667F
:100D2800E0E7826E22F000428266E3E7026812F092
:100D3800010F8FD000209EE0D0F8B0200D6801246C
:100D4800AC402243C0F8B0200A68092A0ED91D68B1
:100D5800A86902EB42021B3A0724944020EA0400E7
:100D68008C6804FA02F20243AA617FE71D68686989
:100D7800013202EB42020724944020EA04008C6806
:100D880004FA02F202436A6170E74049896811F483
:100D9800000F7FF46FAF1868B0F1A04F23D04FF069
:100DA800A0410291816801F0030101291ED0029936
:100DB80021B18C6804F00304012C21D0102A24D01E
:100DC800112A42D0122A4AD0002054E02F498968BB
:100DD80011F0807FDFD050E72C49896811F4800F2B
:100DE800D9D0002047E02A490291DBE7016811F0D9
:100DF800010FDCD01A6C42F020021A6401203AE09C
:100E0800096811F0010FF5D1D8E7B0F1A04FD7D19B
:100E18001E498A6842F400028A601E4A1268A1F1DB
:100E28004E61A1F58421A1F27D41A1FB0212920C31
:100E380002EB82025100019102E0019A013A01920B
:100E4800019A002AF9D1002015E0B0F1A04FB9D1DC
:100E58000E498A6842F080728A6000200BE00B49D4
:100E68008A6842F480028A60002004E01A6C42F02A
:100E780020021A640120002283F83C2016B030BCFE
:100E880070470220FAE700BF00F0FF83000300501C
:100E9800000100500000002070B495B003460268BD
:100EA800B2F1A04F3AD04FF0A0400090009800282F
:100EB80073D093F83C40012C71D0012483F83C4056
:100EC800926812F0040F5DD1826812F0040F59D1B4
:100ED8000A68002A31D0334DAA6822F460424C686F
:100EE80093F8306044EA46342243AA601C68A2683A
:100EF80002F00302012A14D0826802F00302012AD8
:100F080015D0284CA26822F4716222F00F020868FA
:100F1800896801430A43A260002038E02248009013
:100F2800C4E7226812F0010FE6D000202FE0026823
:100F380012F0010FE5D0002029E01A498A6822F44E
:100F480060428A6019688A6802F00302012A0DD09B
:100F5800826802F00302012A0ED012498A6822F43C
:100F6800716222F00F028A60002010E00A6812F015
:100F7800010FEDD000200AE0026812F0010FECD05A
:100F8800002004E01A6C42F020021A6401200022BA
:100F980083F83C2015B070BC70470120FAE70220A6
:100FA800F8E700BF0003005000010050002800F0DF
:100FB800A18038B5044690F82030D3B12268136870
:100FC80023F002031360FFF74BFC054623685A68B9
:100FD80012F0020F10D0FFF743FC401B0A28F5D986
:100FE800636A43F400336362052384F820300120E8
:100FF80038BDFFF71DFBE1E71A6842F001021A60ED
:10100800FFF72EFC054623685A6812F0010F0DD130
:10101800FFF726FC401B0A28F5D9636A43F400331E
:101028006362052384F820300120E1E7227E012A4B
:101038003DD01A6822F080021A60637E012B3BD0F3
:101048002268136823F040031360A37E012B39D074
:101058002268136823F020031360E37E012B37D046
:101068002268136843F010031360237F012B35D0E7
:101078002268136823F008031360637F012B33D0C1
:101088002268136823F004031360A368E26813431B
:1010980022691343626913436268013A2168134362
:1010A800CB6100206062012384F82030A0E71A6831
:1010B80042F080021A60C0E72268136843F04003D8
:1010C8001360C2E72268136843F020031360C4E783
:1010D8002268136823F010031360C6E722681368B8
:1010E80043F008031360C8E72268136843F0040359
:1010F8001360CAE701207047074AD36823F4E06306
:101108001B041B0C000200F4E060184340F0BF60B1
:1011180040F40030D060704700ED00E030B4174B69
:10112800DB68C3F30223C3F10704042C28BF04249B
:101138001D1D062D18D9033B4FF0FF3505FA04F4A1
:1011480021EA0401994005FA03F322EA030319434B
:1011580000280BDB0901C9B200F1604000F56140CD
:1011680080F8001330BC70470023E5E700F00F005B
:101178000901C9B2024B1954F4E700BF00ED00E0C1
:1011880014ED00E00138B0F1807F0AD2064B5860B8
:10119800064AF02182F823100020986007221A607E
:1011A80070470120704700BF10E000E000ED00E04C
:1011B800F0B583B0002336E0032400E00024B440F7
:1011C8003C430235584E46F82540584C2568D443D0
:1011D80004EA05064F6817F4803F01D042EA050685
:1011E800524D2E606D6804EA05064F6817F4003FFB
:1011F80001D042EA05064D4D6E60AD6804EA050669
:101208004F6817F4801F01D042EA0506474DAE60CB
:10121800ED682C404E6816F4001F01D042EA050420
:10122800424AD46001330A6832FA03F479D00124BF
:101238009C402240F6D04D686E1E012E03D9112D18
:1012480001D0122D12D186685F000325BD4026EA21
:101258000506CD68BD4035438560466826EA040624
:101268004D68C5F300149C4034434460C5685F0072
:101278000324BC40E44325408E68BE402E43C6602C
:101288004D68022D01D0122D13D1DE08083650F812
:1012980026E003F007054FEA850C0F2505FA0CF543
:1012A8002EEA050E0D6905FA0CF545EA0E0540F81B
:1012B800265005682C404D6805F00305BD402C43B9
:1012C80004604C6814F0805FACD0194CA56945F0F7
:1012D8000105A561A46904F001040194019C9D081D
:1012E800AE1C114C54F8267003F00304A6000F241A
:1012F800B44027EA0407B0F1904F3FF45FAF0D4CBC
:10130800A0420AD004F58064A04208D004F58064A5
:10131800A0423FF451AF052451E701244FE70224CE
:101328004DE703B0F0BD00BF0000014000040140DC
:1013380000100240000400480AB9816270478161C8
:1013480070470000002800F00D8370B582B0044695
:10135800036813F0010F3BD0B54B5B6803F00C0337
:10136800042B1ED0B24B5B6803F00C03082B13D080
:101378006368B3F5803F68D0002B40F0928003F19A
:10138800804303F504331A6822F480321A601A681D
:1013980022F480221A605DE0A54B5B6813F4803F5D
:1013A800E6D04FF4003393FAA3F3A14B19684FF436
:1013B800003393FAA3F3B3FA83F303F01F03012274
:1013C80002FA03F30B4203D06368002B00F0CC82CF
:1013D800236813F0020F00F0C680954B5B6813F08A
:1013E8000C0F00F09C80924B5B6803F00C03082BF9
:1013F80000F08F802369002B00F0F380012292FA1D
:10140800A2F3B3FA83F303F1845303F584139B0027
:101418001A60FFF725FA0546022393FAA3F3844BD3
:101428001968022393FAA3F3B3FA83F303F01F03B3
:10143800012202FA03F30B4240F0C480FFF710FACE
:10144800401B0228E8D9032095E2794A136843F43F
:1014580080331360764AD36A23F00F03A1680B43E5
:10146800D3626368002B36D0FFF7FAF905464FF4CC
:10147800003393FAA3F36E4B19684FF4003393FAD1
:10148800A3F3B3FA83F303F01F03012202FA03F371
:101498000B429DD1FFF7E4F9401B6428E7D90320EC
:1014A80069E2B3F5A02F09D0614B1A6822F48032A3
:1014B8001A601A6822F480221A60CBE703F180438D
:1014C800A3F53C331A6842F480221A601A6842F481
:1014D80080321A60BEE7FFF7C3F905464FF40033C0
:1014E80093FAA3F3524B19684FF4003393FAA3F31A
:1014F800B3FA83F303F01F03012202FA03F30B424A
:101508003FF466AFFFF7ACF9401B6428E6D9032027
:1015180031E2474B5B6813F4803F7FF46BAF0223E3
:1015280093FAA3F3424B1968022393FAA3F3B3FA8D
:1015380083F303F01F03012202FA03F30B4204D0E2
:101548002369934201D0012015E23948036823F04A
:10155800F8036169F82292FAA2F2B2FA82F201FA69
:1015680002F213430360236813F0080F00F08C8025
:10157800A369002B60D0012191FAA1F2B2FA82F29C
:101588002C4B13449B001960FFF76AF905460223A8
:1015980093FAA3F293FAA3F293FAA3F2244A516AB4
:1015A80093FAA3F3B3FA83F303F01F03012202FAB9
:1015B80003F30B4268D1FFF753F9401B0228E6D921
:1015C8000320D8E11A48036823F0F8036169F82278
:1015D80092FAA2F2B2FA82F201FA02F2134303601B
:1015E800C1E7012393FAA3F3B3FA83F303F1845316
:1015F80003F584139B0000221A60FFF731F90546B2
:10160800022393FAA3F30A4B1968022393FAA3F36C
:10161800B3FA83F303F01F03012202FA03F30B4228
:10162800A1D0FFF71DF9401B0228E9D90320A2E148
:101638000010024020819010012292FAA2F2B2FA20
:1016480082F2BC4B13449B0000221A60FFF708F992
:101658000546022393FAA3F293FAA3F293FAA3F2AC
:10166800B54A516A93FAA3F3B3FA83F303F01F035D
:10167800012202FA03F30B4206D0FFF7F1F8401BF0
:101688000228E6D9032076E1236813F0040F00F05E
:10169800B380A94BDB6913F0805F20D1A64BDA69D0
:1016A80042F08052DA61DB6903F080530193019BB9
:1016B8000125A24B1B6813F4807F12D0E368012B2D
:1016C80023D073BB03F1804303F504331A6A22F075
:1016D80001021A621A6A22F004021A621AE000254C
:1016E800E7E7964A136843F480731360FFF7B8F886
:1016F8000646924B1B6813F4807FDFD1FFF7B0F8E2
:10170800801B6428F5D9032035E18B4A136A43F01E
:1017180001031362E368002B41D0FFF7A1F80646E6
:101728002BE0052B09D0844B1A6A22F001021A62B9
:101738001A6A22F004021A62ECE77F4B1A6A42F036
:1017480004021A621A6A42F001021A62E2E77A4B4C
:10175800196A022393FAA3F3B3FA83F303F01F037E
:10176800012202FA03F3194245D1FFF779F8801BE9
:1017780041F28833984200F2F980022393FAA3F2E7
:1017880093FAA3F3B3FA83F35B0943F00203022B42
:10179800DDD0022393FAA3F3674B596AD9E7FFF721
:1017A8005FF8064615E0644B196A022393FAA3F31F
:1017B800B3FA83F303F01F03012202FA03F3194279
:1017C80019D0FFF74DF8801B41F28833984200F298
:1017D800CF80022393FAA3F293FAA3F3B3FA83F325
:1017E8005B0943F00203022BDDD0022393FAA3F333
:1017F800514B596AD9E7B5BBE369002B00F0BA80B1
:101808004D4A526802F00C02082A00F09980022B17
:101818002FD04FF0807393FAA3F3B3FA83F303F155
:10182800845303F584139B0000221A60FFF718F80D
:1018380004464FF0007393FAA3F33F4B19684FF037
:10184800007393FAA3F3B3FA83F303F01F0301229F
:1018580002FA03F319426BD0FFF702F8001B0228C3
:10186800E7D9032087E0344AD36923F08053D36152
:10187800C2E74FF0807393FAA3F3B3FA83F303F14B
:10188800845303F584139B0000221A60FEF7E8FFD7
:1018980005464FF0007393FAA3F3274B19684FF0EE
:1018A800007393FAA3F3B3FA83F303F01F0301223F
:1018B80002FA03F3194206D0FEF7D2FF401B0228B2
:1018C800E7D9032057E01C494B6823F47413626A74
:1018D800206A024313434B604FF0807393FAA3F3DB
:1018E800B3FA83F303F1845303F584139B000122B5
:1018F8001A60FEF7B5FF04464FF0007393FAA3F39E
:101908000D4B19684FF0007393FAA3F3B3FA83F3FE
:1019180003F01F03012202FA03F3194206D1FEF76E
:101928009FFF001B0228E7D9032024E0002022E0C3
:10193800002020E02081901000100240007000403C
:10194800012B1AD00F4B5B6803F48031226A914255
:1019580001D001200FE003F47013626A93420ED0A5
:10196800012008E001207047012004E0032002E084
:10197800032000E0002002B070BD0120FBE700203A
:10198800F9E700BF0010024010B4174B5C6804F080
:101998000C03082B26D104F470124FF4701393FA39
:1019A800A3F3B3FA83F322FA03F31049C85C0E4B8E
:1019B800DB6A03F00F030F2292FAA2F2B2FA82F264
:1019C800D3400B441A7C14F4803F05D1084B03FB29
:1019D80000F05DF8044B7047064BB3FBF2F300FBD5
:1019E80003F0F6E70348F4E7001002409C240008DF
:1019F80000093D0000127A00002800F0C18070B58F
:101A08000446614B1B6803F007038B420CD25E4A05
:101A1800136823F007030B431360136803F00703ED
:101A28008B4201D0012070BD236813F0020F06D04D
:101A3800564A536823F0F003A068034353600D46E9
:101A4800236813F0010F5AD06368012B2DD0022BA5
:101A580040D0022292FAA2F24C4A1068022292FA6C
:101A6800A2F2B2FA82F202F01F02012101FA02F296
:101A7800104200F0878045494A6822F00302134368
:101A88004B60FEF7EDFE0646404B5B6803F00C0327
:101A98006268B3EB820F32D0FEF7E2FE801B41F2A0
:101AA80088339842F0D90320BDE74FF4003292FA08
:101AB800A2F2364A10684FF4003292FAA2F2B2FA51
:101AC80082F202F01F02012101FA02F20242D2D18F
:101AD8000120A8E74FF0007292FAA2F22B4A106890
:101AE8004FF0007292FAA2F2B2FA82F202F01F02EA
:101AF800012101FA02F21042BDD1012093E7224BE5
:101B08001B6803F00703AB420CD91F4A136823F084
:101B180007032B431360136803F00703AB4201D09C
:101B2800012080E7236813F0040F06D0174A536892
:101B380023F4E063E1680B435360236813F0080F54
:101B480007D0124A536823F46053216943EAC1035A
:101B58005360FFF719FF0D4B5B6803F0F003F022A9
:101B680092FAA2F2B2FA82F2D340094AD35CD84080
:101B7800084B1860084B1868FEF730FE002052E743
:101B88000120704701204EE700200240001002406B
:101B9800842400080000002008000020014B186879
:101BA800704700BF0000002008B5FFF7F7FF074B9C
:101BB8005B6803F4E0634FF4E06292FAA2F2B2FACF
:101BC80082F2D340024AD35CD84008BD00100240DC
:101BD8009424000808B5FFF7E1FF074B5B6803F49E
:101BE80060534FF4605292FAA2F2B2FA82F2D340F2
:101BF800024AD35CD84008BD001002409424000873
:101C0800F0B583B00446036813F4803F44D05F4BBB
:101C1800DB6913F0805F6ED15C4BDA6942F0805269
:101C2800DA61DB6903F080530193019B0125584B6E
:101C38001B6813F4807F60D0544B1B6A13F4407305
:101C480021D0626802F440729A421CD04F48016A5F
:101C580021F440764FF4803393FAA3F2B2FA82F279
:101C68004C4F3A4492004FF0010CC2F800C093FA6E
:101C7800A3F3B3FA83F33B449B0000221A60066285
:101C880011F0010F4DD1414A136A23F44073616882
:101C98000B431362002D6FD1236813F0010F06D098
:101CA8003A4A136B23F00303A1680B4313632368B9
:101CB80013F0200F06D0354A136B23F01003E168A8
:101CC8000B431363236813F0800F06D02F4AD36A9F
:101CD80023F4F87321690B43D362236813F4805FFC
:101CE80051D02A4A136B23F4807361690B43136341
:101CF800002003B0F0BD002599E7254A136843F496
:101D080080731360FEF7ACFD0646214B1B6813F485
:101D1800807F91D1FEF7A4FD801B6428F5D90320AC
:101D2800E7E7FEF79DFD064614E0184B196A022303
:101D380093FAA3F3B3FA83F303F01F03012202FA21
:101D480003F30B429FD1FEF78BFD801B41F28833D2
:101D5800984216D8022393FAA3F293FAA3F3B3FA9C
:101D680083F35B0943F00203022BDED0022393FACC
:101D7800A3F3064B596ADAE7D36923F08053D3619A
:101D88008AE70320B5E70020B3E700BF0010024050
:101D980000700040008190100368224A904206D0EB
:101DA800B0F1804F03D0A2F59432904203D123F0D2
:101DB80070034A6813431B4A904212D0B0F1804F17
:101DC8000FD0A2F5943290420BD002F59E32904289
:101DD80007D002F58062904203D002F580629042FB
:101DE80003D123F44073CA68134323F080034A697C
:101DF800134303608B68C3620B688362094B984284
:101E08000BD003F5A053984207D003F5806398429E
:101E180003D003F58063984201D10B690363012362
:101E280043617047002C0140A8B110B5044690F8F2
:101E38003D305BB1022384F83D30211D2068FFF757
:101E4800ABFF012384F83D30002010BD80F83C3002
:101E5800FEF722FCEEE701207047000090F83C30C6
:101E6800012B33D030B4012380F83C30022380F8B2
:101E78003D30026853689568154CA24221D023F082
:101E880070030C68234353600368114A93420AD0D5
:101E9800B3F1804F07D0A2F59432934203D002F5F4
:101EA8009E32934204D125F080058A6815439D60CF
:101EB800012380F83D30002380F83C30184630BCC0
:101EC800704723F470034C682343D8E70220704717
:101ED800002C014010B50446836802691343426927
:101EE8001343C2691343016808686C4A02401343EC
:101EF8000B602268536823F44053E1680B43536036
:101F0800A269236A1A4321688B6823F43063134358
:101F18008B602368624A934215D0624A934228D064
:101F280002F58062934220D01023E269B2F5004F97
:101F380021D0082B00F2AB80DFE803F06C818BA97D
:101F480096A9A9A9A000584B1B6B03F00303032B08
:101F580009D8DFE803F00204060C0023E5E70423B0
:101F6800E3E70823E1E71023DFE70023DDE70223A7
:101F7800DBE70023D9E7082B49D8DFE803F0051E83
:101F88002948344848483F00FFF70EFE6268530866
:101F980003EB4003B3FBF2F39BB20020A3F1100163
:101FA8004FF6EF72914275D89AB222F00F02C3F33E
:101FB800420313432268D3603DE0FFF70BFE6268DB
:101FC800530803EB4003B3FBF2F39BB20020E5E7B1
:101FD8006268530803F5740303F51053B3FBF2F377
:101FE8009BB20020DAE7FFF7CFFC6268530803EBE7
:101FF8004003B3FBF2F39BB20020CFE762685308BB
:1020080003F58033B3FBF2F39BB20020C6E701204F
:102018000023C3E7FFF7C8FD626800EB5203B3FB78
:10202800F2F39BB20020A3F110014FF6EF72914238
:1020380032D82268D36000232366636610BDFFF799
:10204800C9FD626800EB5203B3FBF2F39BB20020B8
:10205800E9E76268530803F5F40303F59053B3FB0B
:10206800F2F39BB20020DEE7FFF78EFC626800EB1C
:102078005203B3FBF2F39BB20020D4E76268530823
:1020880003F50043B3FBF2F39BB20020CBE701203A
:102098000023C8E70120CEE70120CCE7F369FFEF72
:1020A800003801400044004000100240436A13F029
:1020B800010F06D00268536823F40033816A0B438A
:1020C8005360436A13F0020F06D00268536823F482
:1020D8008033C16A0B435360436A13F0040F06D080
:1020E8000268536823F48023016B0B435360436AEF
:1020F80013F0080F06D00268536823F40043416BBD
:102108000B435360436A13F0100F06D002689368BC
:1021180023F48053816B0B439360436A13F0200FC1
:1021280006D00268936823F40053C16B0B43936095
:10213800436A13F0400F0AD00268536823F48013EF
:10214800016C0B435360036CB3F5801F0BD0436ADB
:1021580013F0800F06D00268536823F40023816CC3
:102168000B43536070470268536823F4C003416C03
:102178000B435360EBE72DE9F04104460F46164642
:102188009846069D2368DB6937EA03030CBF0123E1
:102198000023B3423AD1B5F1FF3FF3D0FEF760FB1D
:1021A800A0EB0800A8421FD8F5B123681A6812F0FE
:1021B800040FE7D0DA6912F4006FE3D04FF400623D
:1021C8001A622268136823F4D07313602268936834
:1021D80023F00103936020236367A367E367002369
:1021E80084F87030032012E02268136823F4D07357
:1021F80013602268936823F00103936020236367C8
:10220800A367002384F87030032000E00020BDE8B5
:10221800F0812DE9F04182B01E46436F202B55D145
:1022280004460D469046002955D0002A55D090F80E
:102238007030012B53D0012380F870300023C3671E
:1022480021234367FEF70CFB0746A4F85080A4F847
:102258005280A368B3F5805F02D04FF0000813E006
:10226800236913B14FF000080EE0A84600250BE0E3
:1022780038F8023B2268C3F308031385B4F85230D8
:10228800013B9BB2A4F85230B4F852309BB273B100
:1022980000963B46002280212046FFF76CFF00BBDA
:1022A800002DE5D0236815F8012B1A85E6E700967E
:1022B8003B46002240212046FFF75DFF034690B9C8
:1022C80020226267002284F8702000E0022318466A
:1022D80002B0BDE8F0810123F9E70123F7E7022303
:1022E800F5E70323F3E70323F1E730B583B00446AA
:1022F8000023C367FEF7B4FA054623681B6813F08A
:10230800080F0CD123681B6813F0040F15D1202384
:102318006367A367002084F8700003B030BD6FF0D6
:102328007E430093034600224FF400112046FFF736
:1023380022FF0028E6D00320EFE76FF07E430093EA
:102348002B4600224FF480012046FFF714FF002897
:10235800DDD00320E1E768B310B50446436F03B34B
:10236800242363672268136823F00103136020465F
:10237800FFF7B0FD012813D0636ABBB92268536820
:1023880023F4904353602268936823F02A039360F0
:102398002268136843F0010313602046FFF7A5FF86
:1023A80010BD80F87030FEF78DF9D9E72046FFF7A9
:1023B8007DFEE3E701207047DFF834D0002103E019
:1023C8000C4B5B58435004310B480C4B42189A4253
:1023D800F6D30B4A02E0002342F8043B094B9A4229
:1023E800F9D3FEF7EDF900F011F8FEF767F8FEE70C
:1023F80000300020D8240008000000200C00002035
:102408000C0000209C020020FEE7000070B50D4E75
:102418000D4CA41BA4100025A54209D10B4E0C4C51
:1024280000F020F8A41BA4100025A54205D170BD1A
:1024380056F8253098470135EEE756F82530984785
:102448000135F2E7D0240008D0240008D024000881
:10245800D424000802440346934200D1704703F88D
:10246800011BF9E7F8B500BFF8BC08BC9E467047E9
:0C247800F8B500BFF8BC08BC9E467047D9
:102484000000000000000000010203040607080920
:102494000000000001020304020304050607080902
:1024A4000A0B0C0D0E0F1010010203040506070899
:1024B400090A0B0C0D0E0F1048656C6C6F20576FDA
:0C24C400726C642120200D0A0000000052
:0424D000AD01000852
:0424D4008901000872
:0C24D80000127A0001000000100000005B
:04000005080023C10B
:00000001FF
