:020000040800F2
:10000000000008206DB20008BDB20008BDB20008B3
:10001000BDB20008BDB20008BDB20008000000007B
:10002000000000000000000000000000BDB2000859
:10003000BDB2000800000000BDB20008A5A800087D
:10004000BDB20008BDB20008BDB20008BDB20008D4
:10005000BDB20008BDB2000839A90008BDB2000851
:1000600041A90008BDB2000849A90008BDB20008B6
:10007000BDB20008BDB20008BDB20008BDB20008A4
:10008000BDB20008BDB20008BDB20008CDA800088E
:10009000D9A80008BDB20008E5A80008BDB2000854
:1000A000BDB20008BDB20008BDB20008BDB2000874
:1000B000BDB20008BDB20008BDB20008BDB2000864
:1000C000BDB20008BDB20008BDB20008BDB2000854
:1000D000BDB20008BDB20008BDB20008BDB2000844
:1000E00021A90008BDB20008BDB20008BDB20008D9
:1000F000BDB20008BDB20008BDB20008BDB2000824
:10010000BDB20008BDB20008BDB20008BDB2000813
:10011000BDB20008BDB20008B5A80008C1A800081B
:10012000BDB20008BDB20008BDB20008BDB20008F3
:10013000BDB2000815A90008BDB20008F1A800086A
:10014000BDB20008FDA8000809A90008BDB200085A
:10015000BDB20008BDB20008BDB20008BDB20008C3
:10016000BDB20008BDB20008BDB20008BDB20008B3
:10017000BDB20008BDB20008BDB20008000000001A
:10018000BDB20008BDB20008BDB20008BDB2000893
:10019000BDB20008BDB20008BDB20008BDB2000883
:1001A000BDB20008BDB20008BDB20008BDB2000873
:1001B000BDB20008BDB20008BDB20008BDB2000863
:1001C000BDB20008BDB2000800000000BDB20008CA
:1001D000BDB20008BDB20008BDB20008BDB2000843
:1001E000BDB20008BDB20008BDB20008BDB2000833
:0801F000BDB20008BDB2000819
:1002000010B5054C237833B9044B13B10448AFF350
:1002100000800123237010BD7C000020000000003E
:1002200090C1000808B5034B1BB103490348AFF365
:10023000008008BD000000008000002090C1000880
:1002400053B94AB9002908BF00281CBF4FF0FF313D
:100250004FF0FF3000F072B9ADF1080C6DE904CE3B
:1002600000F006F8DDF804E0DDE9022304B0704791
:100270002DE9F047089E04468846002B4BD18A4260
:10028000154667D9B2FA82F24AB1C2F1200701FAE3
:1002900002F320FA07F7954047EA030894404FEA33
:1002A000154E230CB8FBFEF71FFA85FC0EFB1788D2
:1002B00043EA084307FB0CF1994209D9EB1807F10F
:1002C000FF3080F01B81994240F21881023F2B449D
:1002D0005B1AA4B2B3FBFEF00EFB103344EA0344F6
:1002E00000FB0CFCA44509D92C1900F1FF3380F068
:1002F0000781A44540F2048102382C4440EA0740BB
:10030000A4EB0C0400271EB1D4400023C6E900432F
:100310003946BDE8F0878B4209D9002E00F0EB800A
:100320000027C6E9000138463946BDE8F087B3FA30
:1003300083F7002F47D18B4202D3824200F2FA802A
:10034000841A61EB030301209846002EE0D0C6E931
:100350000048DDE702B9FFDEB2FA82F2002A40F07F
:100360008F80491B4FEA154E1FFA85F80127B1FB14
:10037000FEFC230C0EFB1C1143EA014308FB0CF1AD
:10038000994207D9EB180CF1FF3002D2994200F2E2
:10039000CD808446591AA3B2B1FBFEF00EFB1014B7
:1003A00043EA044408FB00F8A04507D92C1900F1E2
:1003B000FF3302D2A04500F2B6801846A4EB080431
:1003C00040EA0C409FE7C7F1200CBB4022FA0CFE2C
:1003D0004EEA030E01FA07F420FA0CF521FA0CF3A9
:1003E0004FEA1E482543B3FBF8F92C0C08FB1933E0
:1003F0001FFA8EFA44EA034309FB0AF49C4202FA0C
:1004000007F200FA07F10BD91EEB030309F1FF30E5
:1004100080F087809C4240F28480A9F102097344F5
:100420001B1BADB2B3FBF8F008FB103345EA0344E5
:1004300000FB0AFAA24508D91EEB040400F1FF33C1
:100440006BD2A24569D90238744440EA0940A0FB46
:100450000289A4EB0A044C45C2464B4654D351D002
:10046000002E69D0B1EB0A0564EB030404FA0CFC1E
:10047000FD40FC404CEA0505C6E90054002747E76B
:10048000C2F1200320FA03F7954001FA02F021FAA5
:1004900003F34FEA154E3843010CB3FBFEF71FFA86
:1004A00085F80EFB173341EA034107FB08F38B4243
:1004B00004FA02F407D9691807F1FF3C2FD28B42E6
:1004C0002DD9023F2944CB1A81B2B3FBFEF00EFBBB
:1004D000103341EA034100FB08F38B4207D9691846
:1004E00000F1FF3C17D28B4215D902382944C91AB2
:1004F00040EA07473BE73746304609E70746E7E665
:100500001846FBE64145ABD2B8EB020A69EB0E0296
:1005100001381346A4E76046E9E7184695E76746C1
:10052000D1E781467CE702382C4447E7ACF1020C66
:100530002B442FE7384608E73746E9E6704700BF07
:10054000034613F8012B002AFBD1181A0138704713
:1005500001F0FF01102A2BDB10F0070F08D010F874
:10056000013B013A8B422DD010F0070F42B3F6D178
:10057000F0B441EA012141EA014122F007047FF091
:1005800000070023F0E80256083C85EA010586EAE8
:10059000010685FA47F5A3FA87F586FA47F6A5FA24
:1005A00087F68EB9EED1F0BC01F0FF0102F0070230
:1005B00032B110F8013B013A83EA010313B1F8D1DB
:1005C0000020704701387047002D06BF35460338BC
:1005D000073815F0010F07D1013015F4807F02BFF5
:1005E000013015F4C03F0130F0BC0138704700BF46
:1005F00038B50D4C4FF47A730C49054622780868DB
:10060000B3FBF2F3B0FBF3F000F018FC08B90F2DC8
:1006100001D9012038BD002229464FF0FF3000F0FB
:10062000CBFB6560002038BD0000002014000020D6
:1006300008B5032000F0ACFB0020FFF7D9FF0AF05B
:100640009DFC002008BD00BF034A044B11681B78C5
:100650000B441360704700BFAC0500200000002071
:10066000014B1868704700BFAC05002038B5044640
:10067000FFF7F6FF0546631C02D0044B1B781C44B1
:10068000FFF7EEFF401BA042FAD338BD0000002068
:1006900000287CD090F8203070B50446002B73D031
:1006A0002268136823F002031360FFF7D9FF0546A1
:1006B00004E0FFF7D5FF401B0A285CD823685A687E
:1006C0009107F6D41A6842F001021A60FFF7C8FFDA
:1006D000054604E0FFF7C4FF401B0A284BD82368F7
:1006E0005A68D207F6D5227E00250126012A1A680B
:1006F0000CBF42F0800222F080021A60627E012A62
:100700001A680CBF42F0400222F040021A60A27E3A
:10071000012A1A680CBF42F0200222F020021A605F
:10072000E27E012A1A680CBF22F0100242F0100289
:100730001A60227F012A1A680CBF42F0080222F0D8
:1007400008021A60627F012A1A680CBF42F0040294
:1007500022F004021A60E168A26860690A43216914
:100760000A4361680243013928460A43DA61656237
:1007700084F8206070BD636A0522012043F40033D1
:10078000636284F8202070BD0AF06CFC88E70120C9
:10079000704700BF90F820200346012A09D090F846
:1007A0002020022A05D0426A012042F480225A62A7
:1007B00070471B68434A9342F0B47BD002F5405225
:1007C000D2F80002134640F00100C2F80002D2F84D
:1007D000000220F47C50C2F80002D2F800024C6AF9
:1007E00040EA0420C2F8000248690122D3F81C52F2
:1007F0008240CE69D4432540C3F81C529EBB8E88EC
:1008000003EBC000D3F80C72D1E902C5274046EAD9
:1008100005460D88C3F80C7245EA0C45C0F84062E5
:10082000C0F844528869002836D1D3F80402204029
:10083000C3F804020869002836D1D3F81402044032
:10084000C3F81442096A012904D1D3F81C120A43DF
:10085000C3F81C22D3F80022002022F00102F0BCD1
:10086000C3F800227047012EDCD10D6803EBC000F5
:100870008E88D3F80C72D1F808C046EA05468D89F7
:10088000174345EA0C45C3F80C72C0F84062C0F843
:10089000445288690028C8D0D3F804021043C3F832
:1008A000040208690028C8D0D3F814021043C3F822
:1008B0001402C7E7D3F8002242F00102C3F8002275
:1008C00092E700BF0034004038B590F82030012B8B
:1008D00006D0426A012342F400224262184638BD23
:1008E00002680223044680F82030136823F00103D5
:1008F0001360FFF7B5FE054604E0FFF7B1FE401BAD
:100900000A2807D823685B6813F00103F5D16362F6
:10091000184638BD626A0521012342F40032626242
:1009200084F82010DAE700BF70B490F82040012C62
:100930000BD090F82040022C07D0436A012143F4E9
:1009400080234362084670BC70470468A5686D0147
:100950002ED5A0680125C0F3016085401D608B681D
:1009600093BB0E6800F11803CD681B0145EA46559C
:10097000E5500D690001097D23180129C3F8845150
:1009800005D1D3F8841141F48071C3F88411044473
:1009900050680021C4F88C0112680846C4F8882108
:1009A000D3F8802142F0010270BCC3F88021704767
:1009B000A5682E01CDD4A568ED00CAD4436A0121F3
:1009C00043F400134362BDE7CE6800F118053343DA
:1009D0004E682D0143EAC6036351CAE7F0B50446E9
:1009E00090F82000012809D094F82000022805D0B2
:1009F000636A012043F480236362F0BD2668002906
:100A000054D1F068850756D008013518D5F8B07173
:100A100007F004079760002F53D0D5F8B071FF0896
:100A20005760D5F8B0E10644D5F8B4C1D5F8B47133
:100A3000CEF3400ED5F8B4510CF00F0CD6F8B861D7
:100A4000C7F307272D0CC2E903ECC2E905571E7056
:100A500022680244D2F8B821120A5A70226802446D
:100A6000D2F8B821120C9A7022680244D2F8B82148
:100A7000120EDA7022680244D2F8BC211A71226880
:100A80000244D2F8BC21120A5A7122680244D2F8F8
:100A9000BC21120C9A7122681044D0F8BC21120EAD
:100AA000DA7199B1012918D00020F0BD0129ABD12C
:100AB00030698007A8D1636A012043F400136362A0
:100AC000F0BDD5F8B0717F0D1760AAE7226808461F
:100AD000D36843F02003D360F0BD2268002013697F
:100AE00043F020031361F0BD90F820200346012A53
:100AF00009D090F82020022A05D0426A012042F451
:100B000080225A6270471A68002053691943516164
:100B1000704700BF704700BF704700BF704700BFFD
:100B2000704700BF704700BF704700BF704700BFED
:100B3000704700BF704700BF704700BF704700BFDD
:100B40002DE9F84F036805465C69D3F8048014F07A
:100B500001069F68D3F80CB0D3F81090D3F818A012
:100B600025D017F0010640F09C804FF400524FF45E
:100B70008041F8050DD52B684FF480709860BB0557
:100B800000F1C780780500F1D7803A0540F1E88090
:100B90000E46FB030BD52B684FF48032B8039A60E6
:100BA00000F1B380790340F1C98046F40046230781
:100BB00002D51BF0100F6ED1670702D51BF0080F8E
:100BC0007FD1A00704D52B68DB68990740F08E80A1
:100BD000620602D519F0100F57D1A30603D519F0FC
:100BE000080F40F08780E70604D52B681B6998073B
:100BF00040F08780A10302D518F0100F68D1E203FE
:100C000002D518F0080F6AD1230435D518F0040F67
:100C10002B682FD0E70504D51AF0010F18BF46F056
:100C20000106A00504D51AF0020F18BF46F002060F
:100C3000610504D51AF0040F18BF46F0040622051A
:100C400018D51AF0700A15D0BAF1300F00F096805E
:100C500079D9BAF1500F00F08E80BAF1600F00F030
:100C60009080BAF1400F01D146F040069A6922F017
:100C700070029A6104225A602EB16B6A28461E43A4
:100C80006E62FFF75BFFBDE8F88F2B68102246F419
:100C900080661A61A1E72B68102246F40076DA60BC
:100CA0008AE701229A60BB0737D47E073DD417F04C
:100CB000080659D04FF440524FF4A0414FF48056EB
:100CC00057E72B6808222846DA60FFF72FFF78E7FE
:100CD0002B68102228465A60FFF72CFF8FE72B68FD
:100CE000082228465A60FFF727FF8DE7284609F0BB
:100CF0007FFA6DE72B68082228461A61FFF718FF74
:100D000071E7284609F0E8FA74E72846FFF706FF7E
:100D10004DE72846FFF700FF3BE7FFF7FBFE002605
:100D20004FF400524FF4804123E74FF420524FF428
:100D300090414FF400661CE716462AE73A030BD5AC
:100D400046F4803633E7BAF1100F1DD0BAF1200F08
:100D50008CD146F0100689E72846FFF7E5FE26E726
:100D60002846FFF7DFFE14E7FFF7DAFE4FF40052E4
:100D70004FF48041FDE646F0800677E746F0200616
:100D800074E746F4807671E746F008066EE700BF28
:100D900007490002074BCA6800F4E06010B44FF640
:100DA000FF0422405DF8044B13431843C8607047AA
:100DB00000ED00E00000FA05174BDB68C3F30223E7
:100DC00030B4C3F107051C1D042D28BF0425062CD3
:100DD00018D9033B4FF0FF349C4022EA04044FF043
:100DE000FF32002802FA05F221EA020101FA03F2B9
:100DF00042EA04024FEA0212D2B206DB074B1A544F
:100E000030BC704700242346E9E700F00F00044B94
:100E10001A5430BC704700BF00ED00E000E400E071
:100E200014ED00E000F01F010123034A40098B404C
:100E300042F82030704700BF00E100E00138B0F117
:100E4000807F0DD2074B0022072130B4F025064CDD
:100E50005860104684F823509A60196030BC70477F
:100E60000120704710E000E000ED00E0044A042893
:100E700013680CBF43F0040323F0040313607047AE
:100E800010E000E0704700BF08B5FFF7FBFF08BDAA
:100E9000F8B50446002964D1D0E902310B4343F48C
:100EA000007122680120E5691668324B002D41F27D
:100EB000180503EA06034FF0000643EA010314BFD6
:100EC00031464FF480610B4313601768FFF7CEFB88
:100ED0002368402201201F605A605F68FFF7C6FB4D
:100EE00023684FF6417101205F609E60DE609A6961
:100EF0000A4042F080029A619F69FFF7B7FB2368BE
:100F000001209F61DE61DE69FFF7B0FB23680120ED
:100F10001949DE615A591140184A0A435A515E591B
:100F2000FFF7A4FB23680120154A5E5103F58053A7
:100F30001A601D68FFF79AFB2368A26903F58051C8
:100F4000012A0D6005D141F21C010E4A5858024396
:100F50005A5063690C4998880C4A08601B681360F2
:100F6000F8BD4FF400624FF480434FF49441C0E960
:100F7000023296E70F8120FF233FDEF804002002B3
:100F80008020C102400001004080024044800240B5
:100F90002DE9F04190F84540012C7AD0012502243A
:100FA000C16280F8455080F84440B3B1C5695C1E09
:100FB0000DB3002C55D140F2F45601EB44154FF41B
:100FC000801706FB04220134AA602F6002F2F4525B
:100FD000A342E96005F12005F5D80568002341F238
:100FE00010020124A9501A4680F8444080F8453088
:100FF0001046BDE8F081C4B940F2F45601EB441547
:101000004FF4801706FB04222F6001342E68203530
:10101000A34245F8182C46F4400645F8141C02F289
:10102000F45245F8206CEFD8D7E79C4217464FF4AE
:10103000801E28BF1C46A0462C460D46C5F800E081
:1010400001342E68AC464445AF6046F4400607F2D2
:10105000F45745F8206BCCF80C50EFD3A342CBD813
:10106000BBE79C4216460D464FF4801C28BF1C4629
:10107000A64600240134AE60C5F800C02F46744572
:1010800005F1200506F2F456FD60F3D3A34292D891
:10109000A3E702221046BDE8F08100BF2DE9F04130
:1010A000964690F84520012A47D001240222816209
:1010B00080F8454080F84420B3B15D1E22D140F253
:1010C000F45601EB45144FF0004244F2F45706FB8E
:1010D00005E601352260E160AB42C4E9017606F223
:1010E000F45604F12004F4D80568002341F20C0200
:1010F0000124A9501A4680F8444080F84530104633
:10110000BDE8F0819D4276460C464FF0004C28BF6A
:101110001D4644F2F452A84600250135A660C4F8E5
:1011200000C027466260454504F1200406F2F456EB
:10113000FC60F2D3AB42C2D8D6E702221046BDE82B
:10114000F08100BF002800F0888090F844302DE93D
:10115000F04703F0FF0282B00446002B6FD0AE4A86
:101160002368516CAD4803F5805341F480415164CC
:10117000526C02F480420192019A426822F4000209
:1011800042604268216A0A4342601A6842F00102E2
:101190001A60FFF765FA054605E0FFF761FA401BA4
:1011A000B0F5FA7F50D8236803F580521268D10752
:1011B000F3D41D6900F098FF994B9A4A25F01C055D
:1011C000034493424BD9984B984A034493427AD8AC
:1011D00045F00C0521680D6194F84430422B24D071
:1011E0004222238A4FF4004084F84420DB020A693B
:1011F0009BB2486102F01C0242F0030213430B61F0
:10120000FFF72EFA064604E023681D6915F0010574
:1012100028D0FFF725FA801BB0F5803FF4D30122D8
:10122000002384F8442084F8453020460121FFF74C
:101230002FFE012084F8440002B0BDE8F08780F85A
:10124000452009F0C1F98AE70320002384F844000F
:1012500084F8453002B0BDE8F0870120704745F0C2
:101260000805B7E70127FF2084F84470FFF7FEF96F
:101270006368002B36D194F84430422BD5D02068D7
:101280004222238A84F84420A268DB020169E568CF
:10129000520801F01C019BB242EAD50241F0030161
:1012A00092B20B4342610361FFF7DAF9054603E0AE
:1012B00023681B69DB0773D5FFF7D2F9401BB0F534
:1012C000803FF5D3ABE75A4B5A4A0344934281D946
:1012D000594B5A4A0344934294BF45F0040545F0E4
:1012E000100577E7FFF7BCF9AA4680464FF0820960
:1012F00094F84430822B1ED0216884F84490238ACD
:101300000A69DB0202F01C029BB242F04102134365
:101310000B61FFF7A5F9064603E023681A69D207B7
:1013200039D5FFF79DF9801BB0F5803FF5D384F8E0
:10133000447084F845A0FFF793F941F28833A0EB9D
:10134000080098423CD86E07D2D594F84430422B1E
:101350003FF46BAF21684222238A4FF4805084F817
:1013600044200A69DB02486102F01C029BB242F091
:10137000030213430B61FFF773F9064604E0236889
:101380001B6913F0010327D0FFF76AF9801BB0F542
:10139000803FF4D343E75D6984F84470ADB2CAE797
:1013A000012340F6FF7084F84430FFF75FF92046D0
:1013B0000021FFF76DFD0123002084F8443049E748
:1013C00020460121FFF764FD01220023032084F859
:1013D000442084F845303DE74FF001091E464FF0A8
:1013E000820A84F84490FFF73BF9804694F8443031
:1013F000822B33D0216884F844A0238A0A69DB0257
:1014000002F01C029BB242F0410213430B61FFF752
:1014100027F9074618E000BF0038024000380140B5
:1014200000D3CEFEBFE1E40040F1E9FD3F787D014D
:1014300000796CFCFF596202001F0AFA7FF0FA0281
:1014400023681A69D00737D5FFF70AF9C01BB0F532
:10145000803FF5D384F8449084F84560FFF700F9A5
:1014600041F28833A0EB08009842A9D8A906BDD55F
:1014700094F84430822B3FF4D8AE20688221238A2E
:1014800040F2014284F844100169DB0201F01C01C2
:101490009BB20A4313430361FFF7E2F8054604E0F9
:1014A0002268136913F001030BD0FFF7D9F8401B32
:1014B000B0F5803FF4D3B2E65D6984F84490ADB2F4
:1014C000CCE75269012012F0040184F8440018BFEF
:1014D0004FF40061920758BF4FF48043E160A3606E
:1014E00065E700BF90F84530012B65D00246022326
:1014F000012082F8443082F84500002933D0D36AB5
:10150000F0B41C68002C59DB40F2F450814231D910
:10151000314DA5FB0145AD0A00FB151040B3013567
:1015200001F2F4512D4C002040F2F45604FB051159
:101530006F1EC1F30C011C6824F040541C6000288D
:1015400044D087425E6004D11C68596044F0005466
:101550001C601C68013044F00044A8421C60DB6839
:10156000E9D1D36213E082F8440082F84510704755
:10157000012DD5D11868C1F30C01DC6840F0405052
:1015800059601860196841F000411960D46213680D
:1015900041F214015858400705D5042541F20400D2
:1015A00000245D501C5000230121184682F844108D
:1015B00082F84530F0BC70470220704712210023AA
:1015C00082F8441082F84530F0BC70471C685E60B9
:1015D00044F080541C60BCE70BB002AC0CFAFFFF77
:1015E00090F84520012A3FD0826A0346022101205B
:1015F00070B483F84410116883F84500002923DB98
:101600001168D46811F4807117D0996B014481423C
:10161000996326D01D6B11680120AE680025C1F3C7
:101620000D419C621E64043983F8440083F84550E0
:1016300028465A63D96370BC70471568AD050BD452
:101640009A6B9C6201329A630120002283F8440065
:1016500083F8452070BC7047C3E90C2198639C62F5
:10166000F2E715461A63D6E702207047704700BFBD
:10167000704700BF704700BF70B5036841F21406A1
:1016800004469D5915F0400523D19A59D20716D426
:1016900041F214054FF480325A515B591B0400D4B7
:1016A00070BD2046FFF7E6FF21684FF4004001229D
:1016B0000023485184F8442084F8453070BDFFF77A
:1016C000D5FF012223689A5184F8442084F84550BC
:1016D000DEE7FFF7CDFF236840200121002298516B
:1016E00084F8441084F84520D2E700BF90F84430D5
:1016F000822B33D08B0170B50446154600688222D8
:1017000003F4F86384F84420228A43F0010301695A
:10171000D20201F01C0192B20B4313430361FEF7A6
:101720009FFF064604E02268136913F001030DD001
:10173000FEF796FF801BB0F5803FF4D30122002313
:10174000032084F8442084F8453070BD526901219B
:10175000184692B22A6084F8441070BD0220704787
:1017600038B590F84430422B30D004468B010068E5
:10177000422591B203F4F86384F84450228A43F07E
:1017800003030569D202416105F01C0592B22B43A7
:1017900013430361FEF764FF054604E023681B69F9
:1017A00013F001030DD0FEF75BFF401BB0F5803F47
:1017B000F4D301220023032084F8442084F8453028
:1017C00038BD0122184684F8442038BD022038BDB7
:1017D00090F84530012B42D003680222F0B5002674
:1017E00085B080F844200446039601271A6841F228
:1017F000180584F84570384642F008021A601B68E4
:101800000393FEF733FF039A384623681A60029663
:101810001A6842F004021A601B680293FEF726FF62
:10182000029A384623681A6001965A5942F4801287
:101830005A515B590193FEF719FF019A304623680C
:101840005A515A5942F400525A515A5942F002021E
:101850005A5184F8447084F8456005B0F0BD022008
:10186000704700BF2DE9F04FDFF82CC283B08E46E1
:101870000025DFF82892D1F8008003E00135102D13
:1018800000F0B6800123AB4008EA03018B42F5D19A
:10189000DEF8044024F01007022F40F0AC80EF087F
:1018A00005F0070A4FF00F0BDEF8102000EB87075A
:1018B0004FEA8A0A3E6A0BFA0AFB02FA0AF24FEA78
:1018C000450A26EA0B064FF0030B32430BFA0AFBDC
:1018D00004F003063A626FEA0B02076806FA0AF69A
:1018E00017403E4306608668C4F3001706EA020B01
:1018F000DEF80C60AF4006FA0AF646EA0B06866090
:10190000466826EA03031F434760C668E700DEF81F
:10191000083002EA060203FA0AF343EA0203C3604C
:10192000ACD5D9F8446025F0030705F003030F2276
:1019300046F4804607F180479B00C9F8446007F5EC
:101940009C37D9F8446002FA03FA06F480460196FF
:10195000484E019AB042BA6822EA0A0220D006F53F
:101960008066B0425ED0444EB04260D0434EB0423A
:1019700062D0434EB04264D0424EB0426BD0424E31
:10198000B0426DD0414EB04260D0414EB0426CD0BA
:10199000404EB0420CBF09260A2606FA03F31A434A
:1019A000BA60E603DCF800306FEA010205F10105D8
:1019B00054BF13400B43A703CCF80030DCF80430CD
:1019C00054BF13400B43E602CCF80430DCF8083077
:1019D00054BF13400B43A402CCF80830DCF80C30A1
:1019E00054BF13400B43102DCCF80C307FF44AAF9A
:1019F00003B0BDE8F08F4FEA450A0322D0F800B0EB
:101A0000013F04EA020602FA0AF2012F6FEA02021B
:101A100006FA0AF602EA0B0B46EA0B0606603FF6E8
:101A200074AF60E7012606FA03F31A43B8E702260B
:101A300006FA03F31A43B3E7032606FA03F31A433D
:101A4000AEE7042606FA03F31A43A9E7072606FAC7
:101A500003F31A43A4E7052606FA03F31A439FE7A4
:101A6000062606FA03F31A439AE7082606FA03F352
:101A70001A4395E70000024000080240000C0240B3
:101A8000001002400014024000180240001C0240F6
:101A90000020024000240240003C01400038024087
:101AA00002B9090481617047436959404161704737
:101AB000044A5169014200D1704708B5506109F0EC
:101AC0004BFA08BD003C0140024A136843F480739E
:101AD00013607047007000401B4A1C4B116C41F0B2
:101AE000805130B5116483B0126C1C4602F08052F4
:101AF0000192019A1A6842F480321A60FEF7B0FD32
:101B0000054605E0FEF7ACFD401BB0F57A7F17D81F
:101B10006368DA03F6D523680C4D43F40033236081
:101B2000FEF79EFD044605E0FEF79AFD001BB0F5AA
:101B30007A7F05D86B689B03F6D5002003B030BDD3
:101B4000032003B030BD00BF0038024000700040E9
:101B5000002800F0348103682DE9F041DD0782B0F0
:101B6000044635D5AB498A6802F00C02042A00F01D
:101B7000FE808A6802F00C02082A00F0F480636894
:101B8000B3F5803F10D0002B00F01B81B3F5A02FE0
:101B9000A04B1A6800F0628122F480321A601A6841
:101BA00022F480221A6004E09A4A136843F48033D6
:101BB0001360FEF755FD974D064605E0FEF750FD14
:101BC000801B642800F2EE802B689A03F6D5236808
:101BD0009F0742D41A0717D56369002B00F0B08025
:101BE0008C4B5A6F1D4642F001025A67FEF738FDD2
:101BF000064605E0FEF734FD801B022800F2D28085
:101C00006B6F9B07F6D523685D076BD5814B1A6C0C
:101C1000D00000F1ED801A6C012542F080521A6468
:101C20001B6C03F080530193019B7B4B1A68D10519
:101C300040F1A780A368012B39D0002B00F0DA8097
:101C4000052B744B1A6F00F0118122F001021A6704
:101C50001A6F22F004021A672EE06E4A916811F0A2
:101C60000C0F62D0916801F00C0108295AD0E3688A
:101C7000002B00F0DF80674B1A681D4642F001021E
:101C80001A60FEF7EDFC064605E0FEF7E9FC801B56
:101C9000022800F287802B689807F6D52B68226906
:101CA00023F0F80343EAC2032B60236892E7594A02
:101CB000136F43F001031367FEF7D2FC554E8046C5
:101CC00041F2883705E0FEF7CBFCA0EB0800B842F4
:101CD00068D8336F9B07F6D525B14E4A136C23F0B5
:101CE00080531364A369CBB14A4A916801F00C0197
:101CF000082921D0022B136800F0C08023F08073E4
:101D000014461360FEF7ACFC054604E0FEF7A8FCA1
:101D1000401B022846D823689B01F7D4002002B05C
:101D2000BDE8F08152685602A1D43A4A126895077C
:101D30003CD5E268012A39D0012002B0BDE8F0812B
:101D4000344B5A6F1D4622F001025A67FEF788FC99
:101D5000064604E0FEF784FC801B022822D86B6F45
:101D60009F07F7D44FE74A6850027FF508AF294A2A
:101D7000126891037FF52CAF6268002A7FF428AFC8
:101D8000DAE71A681E4642F480721A60FEF768FCB1
:101D900007463368DA053FF54DAFFEF761FCC01B1F
:101DA0006428F6D9032002B0BDE8F0811949206902
:101DB0000A6822F0F80242EAC0020A600AE701203B
:101DC0007047144B1A681D4622F480321A601A6854
:101DD00022F480221A60FEF743FC064604E0FEF778
:101DE0003FFC801B6428DDD82B689B03F7D4EEE60C
:101DF00000251AE7074B41F288381A6F1E4622F079
:101E000001021A671A6F22F004021A67FEF728FC13
:101E1000074608E00038024000700040FEF720FC52
:101E2000C01B4045BED8336F9807F7D4002D3FF450
:101E300059AF52E72C4B1A681D4622F001021A6076
:101E4000FEF70EFC064604E0FEF70AFC801B0228A3
:101E5000A8D82B689907F7D42368BBE642F4802200
:101E60001A601A6842F480321A60A2E642F0040254
:101E70001A671A6F42F001021A671DE723F0807398
:101E800015461360FEF7ECFB064604E0FEF7E8FBA0
:101E9000801B022886D82B689901F7D4D4E9073231
:101EA000616A1343D4E90A2043EA8113216B520883
:101EB0000D4C43EA0063013A43EA017343EA0243EB
:101EC0006B602B6843F080732B60FEF7C9FB0546FF
:101ED00005E0FEF7C5FB401B02283FF663AF236811
:101EE0009A01F6D51AE700BF0038024078B15E4A81
:101EF000136803F00F038B420BD2136823F00F0318
:101F00000B431360136803F00F038B4201D00120D1
:101F1000704703682DE9F0419D0714D55C0704D58F
:101F2000524CA26842F4E052A2601A0704D54F4C0A
:101F3000A26842F46042A2604C4C8568A26822F01C
:101F4000F0022A43A260DF0704460D4621D542680D
:101F5000464B012A1B6863D0022A78D0990728D5FE
:101F6000424941F288388B680E4623F0030313433D
:101F70008B60FEF775FB074604E0FEF771FBC01BA4
:101F8000404562D8B368626803F00C03B3EB820F7C
:101F9000F3D1354A136803F00F03AB420CD9136831
:101FA00023F00F032B431360136803F00F03AB42BE
:101FB00002D00120BDE8F08123685A0706D52B49DD
:101FC000E0688A6822F4E05202438A601B0707D562
:101FD000264A2169936823F4604343EAC10393606E
:101FE00022498B6803F00C03042B1CD0082B2AD148
:101FF0004A684B6802F03F02496813F4800329D114
:102000001B48C1F38811A1FB0001FEF719F9174B1A
:102010005B68C3F3014301335B00B0FBF3F303E000
:102020009E039DD4C5E7134B104A0020124C9268C2
:102030001249C2F30312A25CD3400B60FEF7D8FA38
:102040000020BDE8F0810A4BEEE70320B2E79801DB
:1020500086D4AEE70748C1F388110023A1FB000135
:10206000FEF7EEF8D3E700BF003C02400038024024
:102070000024F40000127A00D0C2000814000020EE
:10208000164908B58B6803F00C03042B1BD0082BF2
:1020900017D14A684B6802F03F02496813F4800385
:1020A00013D10F48C1F38811A1FB0001FEF7C8F856
:1020B0000A4B5B68C3F3014301335B00B0FBF3F0F1
:1020C00008BD074808BD074808BD0648C1F3881188
:1020D0000023A1FB0001FEF7B3F8E9E70038024056
:1020E0000024F40000127A00014B1868704700BF0A
:1020F00014000020044B054A9B680549C3F3822362
:102100000868D35CD840704700380240E0C200083D
:1021100014000020044B054A9B680549C3F3423371
:102120000868D35CD840704700380240E0C200081D
:102130001400002003682DE9F04313F0010683B07A
:1021400004460BD09F4A916821F400019160466BD0
:1021500091683143B6FA86F67609916013F400254A
:1021600010D09849E56BD1F88C20B5F5801F22F48A
:10217000401242EA0502C1F88C2000F0D481B5FA81
:1021800085F56D09D90210D58E48216CD0F88C20C8
:10219000B1F5800F22F4400242EA0102C0F88C201F
:1021A00000F0BF81002908BF012513F0807F18BF10
:1021B00001269A0600F16D81DA060CD5814AD2F823
:1021C0008C1021F08071C2F88C10D2F88C10A06BAA
:1021D0000143C2F88C105F0408D57A49606ED1F8CB
:1021E000902022F440320243C1F89020180408D510
:1021F0007449A06ED1F8902022F440220243C1F825
:102200009020D90308D56F49E06ED1F8902022F4D0
:1022100040120243C1F890209A0308D56949206F03
:10222000D1F8902022F440020243C1F890205F06CA
:1022300008D56449606CD1F8902022F00302024373
:10224000C1F89020180608D55E49A06CD1F89020FE
:1022500022F00C020243C1F89020D90508D5594953
:10226000E06CD1F8902022F030020243C1F89020B7
:102270009A0508D55349206DD1F8902022F0C0026C
:102280000243C1F890205F0508D54E49606DD1F832
:10229000902022F440720243C1F89020180508D51E
:1022A0004849A06DD1F8902022F440620243C1F861
:1022B0009020D90408D54349E06DD1F8902022F44C
:1022C00040520243C1F890209A0408D53D49206E3F
:1022D000D1F8902022F440420243C1F890205F02DE
:1022E00008D53849A06FD1F8902022F080620243CF
:1022F000C1F8902098020CD53249E06FD1F89020B7
:10230000B0F1006F22F0006208BF01250243C1F85E
:10231000902013F0080F18BF0125590308D529494B
:10232000606FD1F8902022F040720243C1F89020F3
:102330001A0209D52349D4F88000D1F8902022F060
:1023400080520243C1F890205F0109D51D49D4F89D
:102350008400D1F8902022F000520243C1F890206E
:10236000180109D51749D4F88800D1F88C2022F03B
:1023700000720243C1F88C20D9000BD4B3F1007F66
:1023800016D0F20714D4012D00F0D080002003B045
:10239000BDE8F0830B49B3F1007FD4F88C00D1F88D
:1023A0008C2022F0806242EA0002C1F88C20E8D141
:1023B000044B1A681E4622F080621A60FEF750F93C
:1023C000074606E000380240FEF74AF9C01B6428C1
:1023D0005BD833681B01F7D42368DF0712D5626B23
:1023E00082B9D6F88420D6F8847002F4403260684E
:1023F00007F07067A1683A4342EA801242EA01722C
:10240000C6F884201E0300F10F81D80204D5226C87
:10241000B2F5800F00F00D81D90111D5A44E60688E
:10242000D6F88420D6F8847002F07062216907F033
:10243000E0473A4342EA801242EA0142C6F8842069
:102440009A010DD5236962681B04D4E9021043EA9E
:102450008213974A43EA006343EA0173C2F8843067
:10246000934B1A681E4642F080621A60FEF7F8F835
:10247000074604E0FEF7F4F8C01B642805D833686B
:102480001B01F7D5012D81D150E0032003B0BDE839
:10249000F083874A874B116C1F4641F080511164CD
:1024A000126C02F080520192019A1A6842F4807212
:1024B0001A60FEF7D5F8804605E0FEF7D1F8A0EBEC
:1024C00008006428E1D83B68DB05F6D5784A236B21
:1024D000116F03F4407011F4407111D081420FD09C
:1024E000116F176F21F4407147F480371767176F2A
:1024F00027F4803717671167116FCF0700F1C3808A
:10250000B0F5407F00F0B18069498A6822F4F81282
:102510008A60674AC3F30B03116F0B431367236889
:102520004AE6012641E6002501262BE6604B1A68A3
:102530001D4622F080521A60FEF792F8064604E02B
:10254000FEF78EF8801B64289FD82B689F00F7D475
:1025500023681D0300F19280D8021DD5226CDAB9E0
:1025600053496569D1F88820D1F8886002F4403277
:10257000A06906F0E046324342EA851242EA006270
:10258000C1F88820D1F88C20A06A22F4F8520138D2
:1025900042EA0022C1F88C20990215D5E26FB2F10F
:1025A000006F11D142496569D1F88820D1F888605F
:1025B00002F07062206A06F0E046324342EA851279
:1025C00042EA0042C1F888201A0719D5384A6569DD
:1025D000D2F88810D2F8883001F07061E06903F415
:1025E00040330B4343EA851343EA0073C2F8883053
:1025F000D2F88C30E16A23F440330B43C2F88C30BC
:102600002B4B1A681C4642F080521A60FEF728F8DD
:10261000054605E0FEF724F8401B64283FF635AF79
:1026200023689B00F6D5B1E6E26BB2F5801F7FF41C
:10263000ECAE1F4E6068D6F88420D6F8847002F4A1
:102640004032E16807F0E0473A4342EA801242EA4A
:102650000162C6F88420D6F88C10626A21F01F014E
:10266000013A0A43C6F88C20D6E61148124982681E
:10267000194022F4F8120A4382604AE7E26B002A0A
:102680003FF46EAF68E7174641F28838FDF7E8FF80
:10269000814606E0FDF7E4FFA0EB090040453FF668
:1026A000F4AE3B6F9907F5D5236B03F4407027E731
:1026B0000038024000700040FFFCFF0F002865D08A
:1026C000F8B590F83D30044603F0FF02002B3BD0F4
:1026D00022680220364E374FB2F1804FA2EB060639
:1026E00084F83D00A2EB07071368B6FA86F6B7FA3E
:1026F00087F74FEA56164FEA57172AD04EBB2E4996
:102700008A4245D001F580618A4241D001F580615D
:102710008A4242D0002F40D128498A421ED001F57A
:1027200080618A421AD001F580618A4216D0A1F5F3
:1027300098318A4212D001F580618A420ED001F5AB
:1027400080618A420ED109E080F83C2008F04EFCFE
:10275000BEE723F07005A06845EA000323F4407348
:1027600020690343A16923F08003E0680B4361689B
:102770001360D062916236B92FB9012300205361F2
:1027800084F83D30F8BD63691363F6E701207047B4
:1027900023F07003A1680B43E0E7094923F07003BD
:1027A000A0688A4243EA0003D8D0002FD6D1B3E70D
:1027B00000000140000401400004004000400140CE
:1027C000000C004003680020DA6842F00102DA6081
:1027D0001A6842F001021A60704700BF036841F2B4
:1027E0001111DA6822F00102DA601A6A0A4208D18D
:1027F000196A40F24442114203D11A6822F00102E0
:102800001A600020704700BF704700BF704700BFCC
:10281000704700BF704700BF03681A69910710B581
:10282000044602D5DA68920768D41A69520702D5BD
:10283000DA6850074FD41A69110702D5DA6812070F
:1028400037D41A69D00602D5DA68D1061ED41A69BF
:10285000D20702D5DA68D00769D41A69110602D501
:10286000DA6812066BD41A69D00502D5DA68110647
:102870006DD41A69520602D5DA6850066FD41A6907
:10288000910602D5DA68920649D410BD6FF01001A6
:10289000082220461961DB69227713F4407F6FD14B
:1028A000FFF7B2FF2046FFF7B3FF0022236822772D
:1028B000CDE76FF00801042220461961DB69227719
:1028C0009B075AD1FFF7A0FF2046FFF7A1FF002288
:1028D00023682277B5E76FF00401022220461961D0
:1028E0009B69227713F4407F44D1FFF78DFF204688
:1028F000FFF78EFF0022236822779CE76FF002012A
:10290000012219619B690277990730D1FFF77CFF9B
:102910002046FFF77DFF00222368227785E76FF0CE
:10292000200220461A61BDE8104000F02DB86FF07B
:10293000010220461A6108F0F5FA23688DE76FF06E
:10294000800220461A6100F021F823688BE76FF0BF
:10295000800220461A6100F019F8236889E76FF0B9
:10296000400220461A61FFF755FF236887E7FFF70B
:102970004DFFD0E7FFF74AFFBCE7FFF747FFA6E7A9
:10298000FFF744FF91E700BF704700BF704700BFEB
:10299000436ADA0710B406D50168846A4A6822F4EB
:1029A000003222434A609C0706D50168C46A4A681F
:1029B00022F4803222434A60590706D50168046B2D
:1029C0004A6822F4802222434A601A0706D5016829
:1029D000446B4A6822F4004222434A60DC0606D572
:1029E0000168846B8A6822F4805222438A609906C7
:1029F00006D50168C46B8A6822F4005222438A60BB
:102A00005A060AD50168046C4A68B4F5801F22F49E
:102A1000801242EA04024A600BD01B0606D5026807
:102A2000816C536823F400230B4353605DF8044B1F
:102A300070474A68446C22F4C00222434A60ECE7C3
:102A4000002800F02981F8B590F86930044603F0B9
:102A5000FF02002B47D023682421206984F86910E5
:102A6000A26819680243606921F00101BB4D02436D
:102A7000E069196019680243E6680D40A1692A43BC
:102A8000256A1A6041EA05025968B54D21F44051A2
:102A9000AB4241EA06015960996821F4306142EA8B
:102AA00001029A6024D0AF4A934243D0AE4A934287
:102AB00000F0A280AD4A934245D0AD4A934200F067
:102AC000B280AC4A934200F03481AB4A934200F0AA
:102AD0006181AA4A934200F01981B0F5004F00F0DD
:102AE0006E810120F8BD80F8682008F061FBB2E734
:102AF000A34AA449D2F8902002F003028A5CB0F500
:102B0000004F2FD0082AECD801A151F822F000BFC5
:102B1000F32B00088D2B0008152C0008E32A000871
:102B20003F2C0008E32A0008E32A0008E32A0008F3
:102B3000452C00089249934AD1F8901001F00C01FD
:102B40000A441279DBE702F5F632D2F8902002F05F
:102B5000C002402A70D045D9802A58D0C02A00F03F
:102B6000A580BAE7082A00F22A81DFE812F0CC003B
:102B7000B000C7002801C400280128012801A200D4
:102B8000002AAAD1B0F5004F00F0A180FFF7C2FAE9
:102B9000D4E9003100EB5102B2FBF1F292B2DA60FB
:102BA000626A002A57D15A68002122F490425A6082
:102BB0009A6822F02A029A601A6842F001021A60AA
:102BC000E166FDF74DFD236806461A68120747D4F3
:102BD0002022002384F86920184684F86A2084F8AB
:102BE0006830F8BD002A7FF478AFB0F5004F00F0F0
:102BF0008A80FFF77FFACBE702F5F832D2F890200F
:102C000002F03002102A17D0ECD9202A70D1B0F58A
:102C1000004F73D061685C4A02EB5102B2FBF1F2E3
:102C200092B2DA60BCE702F5F432D2F8902002F4F6
:102C30004072B2F5807F31D1B0F5004F5BD0FFF725
:102C40001FFAA5E761684A0802F50042B2FBF1F2FB
:102C500092B2DA60A4E72046FFF79AFE2368A2E763
:102C60004A4FDD6915F40015B2D1FDF7F9FC801B60
:102C70002368B842F5D91A682021032022F4D072C3
:102C80001A609A6822F001029A6084F8691084F848
:102C9000685084F86A10F8BD01207047A2D9B2F5D7
:102CA000007FB4D0B2F5407F7FF417AFB0F5004F8E
:102CB000C8D161684A0802F58032B2FBF1F222F015
:102CC0000F01C2F3420289B20A43DA6068E7FFF7F4
:102CD00021FAD4E900314A0802EB4000B0FBF1F0E0
:102CE00020F00F02C0F3420092B21043D86057E7C1
:102CF000302ADBD0F1E6FFF7C3F9EAE76168244A3E
:102D000002EB5102D9E7FFF7F5F9E2E702F5DE320F
:102D1000D2F8902002F44042B2F5804F8CD07FF67A
:102D200061AFB2F5004F3FF472AFB2F5404FBDD086
:102D3000D3E602F59232D2F8902002F44062B2F566
:102D4000806F3FF479AF7FF61BAFB2F5006F3FF4B1
:102D50005EAFB2F5406FA9D0BFE600BFF369FFEFE9
:102D6000001001400044004000480040004C00407A
:102D7000005000400014014000780040007C0040FA
:102D800000380240A8C100080024F400FEFFFF0143
:102D90000048E80102F5E032D2F8902002F44052F7
:102DA000B2F5805F3FF448AF7FF61CAFB2F5005F2D
:102DB0003FF42DAFB2F5405F3FF478AF8DE60022CF
:102DC0000120DA60F8BD00BF40BA80B2704700BF92
:102DD00000BA704708B500F00DF800F0E1F900F016
:102DE0005BFA04F0F7FA01F08DF8BDE8084004F052
:102DF0004DBA00BF0A4B4FF4C8610A4A23F00303DF
:102E0000094830B400250124196059181D7183F850
:102E10004446C3F840069360C2E9003130BC7047B5
:102E2000CB0500209800002040064006002860D016
:102E3000F8B58307044650D1474D2B68A3423ED8CE
:102E40006A68A2423BD914F8042CA4F10806002AAF
:102E500050D0AA680021B24204F8041C88BFAE60BA
:102E60009E4250D36B689E4263D234F8082CB2F570
:102E7000C86F66D82B6899188E420FD0087968B948
:102E8000686881420AD0AA68F01A91420A8824F838
:102E9000082C098808BFAE601944488034F8060C35
:102EA00019188E420AD00F7947B91A52AF6834F810
:102EB000082CBE42134408BFA9605880F8BD274BB8
:102EC00040F2AF122649274808F040FA2B68A34287
:102ED000F4D86A689442B6D3F8BD1F4D4FF4D67249
:102EE0001E4B21491F4808F031FA2B68A342A7D98D
:102EF000E5E77047194B4FF4E0721C49194808F098
:102F000025FA2B68A5E7154B40F25D1218491548C4
:102F100008F01CFA6B689E420BD214F8043C002B9C
:102F2000A3D00E4B40F25F1212490E4808F00EFA81
:102F30009BE70A4B4FF4AF720F490A4808F006FAB4
:102F4000EBE74FF4B172054B0C49064808F0FEF967
:102F500034F8082C8EE700BF98000020E8C2000873
:102F600064C300083CC3000818C300087CC3000801
:102F700090C30008C4C30008A8C30008E0C3000849
:102F8000F8B503314FF6FC750D400B2D16D9B5F58C
:102F9000C86F6AD8364E04463368834202D87268D6
:102FA000824210D8334B4FF4FA723349334808F059
:102FB000CDF93368A34203D92046F8BD0C25E9E7D3
:102FC0007268A242F8D9A4F1080234F8080CD21AA7
:102FD000A0F1080192B2891A89B2A94221D3EBD09B
:102FE0001F1897F804C0BCF1000F23D10835B16851
:102FF00033F800C01544B9424FF00001ADB203EB05
:103000000500A0F800C04280017124F8085C028825
:1030100008BFB060B2F5C86FCED0134420465D80C3
:10302000F8BD144B40F206221549144808F08EF9F9
:103030000020F8BD05F114078F42BDD805F1080145
:10304000B768114489B25D18AF4228806A8088BF92
:10305000B56000262E7124F8081C2A88B2F5C86FC6
:10306000AAD0134420465980F8BD0020F8BD00BF07
:1030700098000020E8C200080CC400083CC3000807
:1030800024C40008002868D003302DE9F0474FF62B
:10309000FC7E00EA0E0EBEF10B0F22D84FF00C089A
:1030A00040F23467C646DFF8F490D9F808A0D9F8A2
:1030B0000050AAEB050083B2BB4218460ED26FF057
:1030C000070CEC18ACEB0301EA5A267911441346BD
:1030D0000EB941450CD297421046F2D80020BDE807
:1030E000F087BEF5C86FF9D8F046CEF5C867DAE7C5
:1030F00008F1140399421ED201232371A245D9F885
:10310000042033D008F10808A044424526D3A30781
:103110000DD01D4B40F2D6221C491D4808F016F96F
:10312000194B4FF436721B49194808F00FF904F196
:103130000800BDE8F0870EF10803012703449BB2A5
:10314000E9180E71EA52488023802771EA5AB2F5D5
:10315000C86FD3D02A445380D0E770470A4B4FF44E
:1031600035720D490A4808F0F1F8D0E79442234639
:1031700002D106E0934204D01B882B441979002920
:10318000F8D1C9F80830BDE7E8C2000874C40008E7
:103190003CC30008A4C4000844C4000898000020F0
:1031A000F0B5114F0425114B4FF0000E07F1240C20
:1031B0000F4C033357F8042BC4F800E023F003034B
:1031C00055B1002116880A4601329819196019462E
:1031D000AA4223600346F7D1BC4504D03B685D8812
:1031E000D3E90134E5E7F0BDBCC100081C3700207D
:1031F000A4000020082810B512D80E4B53F8203038
:103200009B681C6854B122681A60A30706D00A4B59
:1032100040F2491209490A4808F098F8204610BDC2
:10322000054B40F2871207490024054808F08EF844
:10323000F4E700BFBCC10008C8C400080CC5000802
:103240003CC3000830C50008082814D891B10D4BC4
:1032500070B553F820508B070C4606D00A4B40F24D
:103260009D120A490A4808F071F8AB681A68226092
:103270001C6070BD7047044B40F2DB1205490448E6
:1032800008F064B8BCC10008C8C4000850C50008F4
:103290003CC3000870C50008704700BF2DE9F04529
:1032A00083B004460E461746DDF82CA098460C9DC8
:1032B000BAF1000F5BD0344900230A9A032025613C
:1032C000E2610A78636084F82E20013284F82B30A2
:1032D0000A7084F82000C4E90233002E37D0336826
:1032E00003B307B13F68A760B8F1000F48D0D8F822
:1032F0000030E36033680193F3B1251D01A928462E
:1033000001F06CFD01A9284604F014FB33686360EA
:1033100093B194F82B301B070ED52946204605F0B3
:1033200025FC09E0019307B13F68A760B8F1000FE1
:1033300024D0D8F80030E3602046D04710BB134BB0
:1033400020461A6822601C6003B0BDE8F085104B6F
:103350001B680193002BE6D0251D01A9284601F02A
:103360003DFD01A9284604F0E5FA6660DBE7094B5C
:10337000FB220949094807F0E9FF9CE74346DAE7E1
:103380004346B6E70020DFE7C8000020D03A00201F
:10339000BCC200088CC50008C0C500083CC30008BA
:1033A000014B1860704700BFD43A002090F82B30D2
:1033B0000146DA0707D443F0010280F82B205A07B0
:1033C00001D5426802B970471B07FCD5043105F0EE
:1033D000CDBB00BF90F82B30D90705D523F00101F4
:1033E0001B0780F82B1000D4704704F0F5BB00BF1A
:1033F00008490022084B10B50C681A7014B908E08F
:10340000E46834B1206F0028FAD001F06DF8002391
:10341000236710BDE03A0020D83A002070B5049C24
:10342000BDF8145004281CD8DFE800F01915170364
:10343000030000200E18AE421CD800251D6004B108
:103440000444022601255C601846198159811A73CB
:103450005E73DD8170BD2420ECE71020EAE73820A0
:10346000E8E7054B40F2C5120449054807F06EFF36
:10347000002070BD002070BDD8C5000808C6000837
:103480003CC3000838B5044600283AD000290ED0C5
:103490008AB21CDB1046237B656853B1032B08D02E
:1034A000013B012B24D8002934DB012038BD08461C
:1034B00038BD691A04F110039942616015D363891C
:1034C0002189134400200A446381228138BD50427F
:1034D000638980B28342DED2114B40F24722114908
:1034E000114807F033FF012038BD6560012038BD69
:1034F0000B4B40F277220D490B4807F027FF0120C4
:1035000038BD074B40F23F220949074807F01EFF2C
:10351000204638BD63898342C7D3691A6160CFE70B
:10352000D8C5000838C600083CC3000858C60008C3
:103530002CC6000838B5044600283CD0002916D017
:103540008AB21EDB1046237B656893B1032B10D033
:10355000013B012B26D80029638935DB691A61609C
:103560002189134400200A446381228138BD084622
:1035700038BD691A04F11003994261600FD3638961
:10358000EEE75042638980B28342DCD2104B40F2B6
:1035900047221049104807F0D9FE012038BD656068
:1035A000012038BD0A4B40F277220C490A4807F047
:1035B000CDFE012038BD064B40F23F2208490648A7
:1035C00007F0C4FE204638BD9842C7D9012038BD57
:1035D000D8C5000838C600083CC3000858C6000813
:1035E0002CC600082DE9F8430446002851D0037B7F
:1035F000032B46D800252C4FDFF8C0802B4E08E067
:103600002369002B34D02046984701354C46EDB253
:10361000C4B1E389CBB1013B9BB2E38193B9637B36
:10362000D4F800909B07EBD4237B032B1BD0013BEA
:10363000012B13D9204601354C46FFF7F7FBEDB2BD
:10364000002CE6D12846BDE8F8833B4640F2EB2249
:103650004146304607F07AFEE389DCE72146072041
:10366000FFF7F2FDD1E721460820FFF7EDFDCCE79B
:103670003B4640F2F9220E49304607F067FE2369C7
:10368000C1E7094B40F2DE220A49084807F05EFE16
:10369000B0E70546044B40F2D2220749034807F041
:1036A00055FE2846BDE8F883D8C500083CC300088D
:1036B00098C6000868C600082CC6000880C6000826
:1036C0002DE9F84F0E461746042800F2D180DFE8B6
:1036D00000F0A08B9B03030010204FF414780446E5
:1036E000032F00F28680DFE807F0695656020820B3
:1036F000FFF780FD0546002800F0CD80032104443B
:10370000B04543460C4400F5187828BF3346017392
:1037100024F0030400219AB2068123444281984593
:10372000C0E900147AD3B61A0123002EEB813EDDE6
:103730002F46DFF86CA1DFF884B1DFF86C91082028
:10374000FFF758FD0023044603214FF6FF720028BF
:1037500000F0998096420173437303603860074616
:103760007ED0B2B204F11003B2F5147F114663604B
:1037700028BF4FF414719B072281618168D16A8947
:1037800001216B681344984553D36389E181F61A8C
:10379000002ED4DC0BE00720FFF72CFD05460028A7
:1037A00045D00023068146810773C0E9003301221A
:1037B0000023EA816B732846BDE8F88FF31C23F0E1
:1037C0000303184480B2984231D3FFF75BFC0546EF
:1037D00068B304440023068103344681036024F067
:1037E000030403734460E2E734204FF40B7832247F
:1037F00076E700252A4B4FF4C6722A492A4807F07B
:10380000A5FD2846BDE8F88F20204FF410781E242F
:1038100066E748204FF40678462461E74FF4987233
:103820001F4B2249204807F091FD6A897BE700255C
:10383000C1E7534640F255121C49484607F086FD41
:1038400062890123B61AE381002E3FF778AFAEE715
:1038500053464FF4A9721649484607F077FD8EE7A4
:1038600053464FF4A6725946484607F06FFD78E775
:1038700000250B4B4FF48B720E490B4807F066FD89
:103880002846BDE8F88F0C4B0122284625461A70C1
:10389000FFF7A8FE8FE7084B01221A708BE700BFE5
:1038A000D8C5000850C700083CC30008D8C60008A7
:1038B00020C70008BCC60008D83A00200CC7000882
:1038C0002DE9F8430D460446002867D0237B032BDF
:1038D0006ED82689AE422AD9AE1B4FF6FE739E42A1
:1038E0003DDCDFF8E090DFF8E480354F6389AB42E0
:1038F00011D22289EB1A32449DB222812468002C15
:10390000F4D14B4640F20F224146384607F01EFDE7
:103910006389AB42EDD3227B0AB9AB4209D120685F
:103920006581258108B1FFF75DFE00232360BDE8B6
:10393000F883637B9B07F2D4636820461C1B29191C
:1039400089B2FFF71DFB04460028E8D11D4B40F269
:103950001D221D491A4807F0F9FC6481FFDEDFF8DB
:103960006480DFF87490164F6389AB42D3D2ED1AAE
:1039700040F20B22434649463846ADB207F0E6FC1A
:103980002389334423812468002CEDD1434640F23F
:103990000F220E49384607F0D9FCE5E7094B40F203
:1039A000F3120B49064807F0D1FC237B032B90D977
:1039B000044B40F2F7120749014807F0C7FC88E7BB
:1039C0003CC30008D8C50008CCC70008A0C7000841
:1039D0006CC7000884C70008B8C7000838B10023C6
:1039E000013300689BB20028FAD11846704703469D
:1039F0001846704720B1C38901339BB2C38103B11C
:103A00007047034B40F239320249034807F09EBC2D
:103A1000D8C50008E8C700083CC3000870B538B333
:103A20000D4629B304680CB92BE014460389298993
:103A300022680B4403812046002AF6D1638922893B
:103A40009A4210D0124B40F255321249124807F0F8
:103A50007DFC236833B10E4B40F256320F490E48BD
:103A600007F074FC23892A8925601344238170BDE3
:103A7000074B40F24D320A490748BDE8704007F055
:103A800065BC0446638922899A42DBD1EBE700BF1B
:103A9000D8C5000834C800083CC3000864C8000842
:103AA000FCC7000870B50D46002835D0002933D07A
:103AB00004680CB93AE014460389298922680B444A
:103AC00003812046002AF6D1638922899A4210D0C8
:103AD000194B40F255321949194807F037FC236851
:103AE00033B1154B40F256321649154807F02EFCFB
:103AF00023892A89256013442381EB8901339BB2F2
:103B0000EB8103B170BD0C4B40F239320E490C48C9
:103B1000BDE8704007F01ABC074B40F24D320B492C
:103B2000074807F013FC002DE7D170BD04466389F8
:103B300022899A42CCD1DCE7D8C5000834C80008F5
:103B40003CC3000864C80008E8C70008FCC70008B8
:103B50002DE9F84F002800F09D80B1FA81F78846E2
:103B60007F09002F40F09680028906460B899A4211
:103B7000C0F0908042893D464C89DFF82CA1DFF8E7
:103B800040B1DFF82C91E31B521B70689A42D8F8C1
:103B900004102844A8BF9CB23944B8BF94B225444D
:103BA000224607F0C0FB7389ADB22744AB42BFB2D7
:103BB00049D3B8F80A309F423BD89F4202D3D8F885
:103BC000008000277389AB4215D0B8F1000F44D0B4
:103BD000B8F80A40B8F808309C421BD07289338983
:103BE0009342D0D13368002B3ED1B8F1000FCAD137
:103BF0000020BDE8F88F366816B9B8F1000F3ED145
:103C0000B8F1000F27D0B8F80A400025B8F80830FE
:103C10009C42E3D1D8F80030002BDFD0224B40F299
:103C2000DE322249224807F091FB6FF00500BDE823
:103C3000F88F534640F2CE321E49484607F086FBC5
:103C4000B8F80A30B9E7534640F2CD3259464846F3
:103C500007F07CFBADE7002ECAD0328973899A4207
:103C6000C6D130680028C4D00F4B40F2E3320F4970
:103C70000F4807F06BFB6FF00500BDE8F88F0A4BAB
:103C80004FF476720C490A4807F060FB6FF00F00A2
:103C9000BDE8F88F044B40F2BD320849044807F0F4
:103CA00055FB6FF00F00A4E7D8C5000824C9000831
:103CB0003CC30008F8C8000814C90008B0C80008D0
:103CC000E0C800082DE9F041054668B30F46002919
:103CD00035D09046002A3DD0002609E09342A3EB60
:103CE000020109D38BB22D68B8F1000F19D0C5B10C
:103CF000B8196A89002BF1D1D41A6968A4B21944A1
:103D0000444528BF444622462644A8EB040407F055
:103D10000AFBB6B200231FFA84F82D68B8F1000F31
:103D2000E5D13046BDE8F08106460C4B40F2FE324C
:103D30000B490C4807F00AFB3046BDE8F0813E46CF
:103D4000064B40F2FF320849064807F0FFFA3046BA
:103D5000BDE8F08116463046BDE8F081D8C50008C0
:103D600050C900083CC3000870C900082DE9F84F8D
:103D700000284CD00F4600293FD0038990460546C5
:103D8000934230D312B314460026DFF89CB0DFF81C
:103D9000ACA06B89B9196868A34228BF234699462D
:103DA0001A4607F0C0FA2D68A4EB09044E44A4B2E9
:103DB000B6B24CB1002DECD15B4640F28E4251467A
:103DC000184807F0C3FAE4E7B04502D10020BDE887
:103DD000F88F154B40F299421449124807F0B6FA91
:103DE0002046BDE8F88F104B40F2864210490D483E
:103DF00007F0ACFA4FF0FF30E9E70B4B40F2854299
:103E00000C49084807F0A2FA6FF00F00DFE7064BF5
:103E100040F284420849034807F098FA6FF00F0017
:103E2000D5E700BF3CC30008D8C5000800CA000899
:103E3000C8C90008ACC9000894C90008E8C900084E
:103E400070B50646406F18B1FFF7CCFB00237367CF
:103E5000346FBCB1636821460320256873B11846EE
:103E6000FFF7C0FB21460320FFF7EEF955B12C46C2
:103E70000320636821462568002BF0D1FFF7E4F9A1
:103E8000002DF4D100224FF6FF73B46E32673386F3
:103E9000BCB1636821460320256873B11846FFF75B
:103EA000A1FB21460320FFF7CFF955B12C46032093
:103EB000636821462568002BF0D1FFF7C5F9002D76
:103EC000F4D1F46EBCB1636821460320256873B158
:103ED0001846FFF787FB21460320FFF7B5F955B1D8
:103EE0002C460320636821462568002BF0D1FFF79C
:103EF000ABF9002DF4D10023C6E91A33A6F86430DB
:103F000070BD00BF704700BF38B5C16A0346048D5D
:103F10005A8E456A601AB2F5866F284494BF821A99
:103F2000A0F58662002A01DB5C8538BD6A1A002A8A
:103F300002DD0020588538BD4D1B1C46B5F5803F7D
:103F400002D20020658538BD034B4FF4427203490D
:103F5000034807F0FBF9F4E72CCA0008A8CA0008D8
:103F60003CC30008037D012B70B504460D463AD0D2
:103F7000218D294489B2B1F5066F21850FD861B929
:103F8000237D072B0BD0092B09D0224940F22D327B
:103F9000214B224807F0DAF9218D0B4604E04FF45B
:103FA0000662134611462285656AE06A628E2E1A01
:103FB000B2F5866F334494BF9A1AA3F58662002A3D
:103FC0000CDBB3F5067F61850CDBA37E204643F056
:103FD0000203A376BDE8704002F090BC002E0ADD1B
:103FE0000023638570BD0C4B4FF448720C490B489D
:103FF00007F0ACF9BCE7451BB5F5803F01D26585FC
:1040000070BD054B4FF442720649044807F09EF913
:10401000F5E700BFECCA00082CCA00083CC3000842
:10402000C4CA0008A8CA00082DE9F04FAF4F85B0F8
:10403000DFF8EC823A6898F800300132DFF8E4A249
:1040400001333A6088F80030A94B1C68002C00F05E
:104050008B804FF00009237D002B00F01881012B8D
:1040600000F020810A2B00F0288198F80020637F5F
:10407000934200F02F81237D6277022B94F8422037
:1040800000F02D810B2A40F2D28002214FF0010B6B
:10409000062B00F0F180267A16F0080600F07381F6
:1040A000042B05D0A3F10703B3FA83F35B09CBB16B
:1040B000D4F890508F4B3A682B44206A8E4E121AD7
:1040C000A6FB03C3B2EB531F00F2AF818B4994F8F8
:1040D000963001FB0353A6FB0313B2EB531F00F210
:1040E000D38100230393256F4DB13A68216AB4F957
:1040F0004030521A03EB4303B2EB430F5AD2237DF5
:10410000032B6BD0092B40F011813B68226A9B1A6C
:10411000F02B68D9D4F88C502046FFF791FE744BF1
:104120001B68B9F1000F00F013819C4200F0B981C7
:10413000E368C9F80C30039B002B40F0198121463D
:1041400001206F4ED4E9034BFFF77EF80023337054
:104150003DB158466FF00C01A8473378002B7FF42F
:1041600073AF002C7FF477AF664E3468DCB1002566
:10417000DFF8B091DFF8B0A1DFF89881237D0A2B3A
:1041800000F03B814B4640F2BD425F49404607F09C
:10419000DDF83B68226A9B1AF02B00F25E8125460F
:1041A000E468002CEAD105B0BDE8F08FFFF74CF8C9
:1041B0007EB135466B68294603202E68002BF5D06A
:1041C0001846FFF70FFA29460320FFF73DF8002EA7
:1041D000EFD100232367237D032B93D13B68226A11
:1041E0009B1A282B96D8BBF1000F93D1E37E227F38
:1041F0000133E568DBB29A42E37612D80023404EE1
:10420000D4F88820E3763370002A00F0128121462A
:10421000206990473378002B7FF416AF002800F018
:104220000881A1462C46002C7FF415AF9CE794F83A
:1042300095B0BBF1000F00F0A880344894F89420AA
:1042400083449BF80F108A42C0F0FC80204602F0A5
:104250005FFE002840F02D8194F8953084F894009A
:10426000062B00F228815A1C237D83460121062B50
:1042700084F895207FF40FAFA37EDB067FF531AF86
:104280003B68226A9B1A282B88BF8B4629E7534636
:104290004FF47C721E491F4807F058F8237D012B0C
:1042A0007FF4E0AE534640F2F1321B49194807F063
:1042B0004DF8237D0A2B7FF4D8AE534640F2F232FC
:1042C0001649144807F042F898F80020637F93429B
:1042D0007FF4D1AEE468002C7FF4BDAE44E7052A3C
:1042E000A5D900234FF0010B0393FCE6E43A00202C
:1042F000E03A0020B84C0A00D34D6210F8240100C7
:10430000DC3A0020F03A002020CC00084CC2000823
:1043100040CB00083CC300086CCB000898CB0008D9
:10432000C90000202CCA000878CC0008BBF1000F9F
:104330003FF45CAF0A2BD4F88C503FF4F0AE012B65
:104340003FF6EAAE624B1B68B9F1000F7FF4EDAEA9
:104350009C4206D0534640F28D425E495E4806F0CC
:10436000F5FFE3685A4A1360039B002B3FF4E7AE66
:10437000268B231D616A2246E06C0196E68A009630
:1043800002F072FCDBE60396ADE6B4F930100029CA
:1043900002DB013109B22186E06E002843D0B4F976
:1043A000400088423FDC022B0BD04C49B4F93C0062
:1043B0000A44B4F93E30127E03EBE0039340A4F8C4
:1043C0004030B4F848000022B4F85C30618E83427B
:1043D00022864FEA4102A4F8481028BF034620462F
:1043E00092B25B089342A4F84A3038BFA4F84A203E
:1043F00002F094FC237D01214AE63B68226A9B1A65
:10440000F02B7FF6CCAE336895B39C4257D0E3686F
:10441000EB60E36821461C460120FEF715FF002CE7
:104420007FF4ACAEBFE6012132E601238B46039355
:1044300059E62046A1462C4602F060FA002C7FF493
:104440000AAE91E60132D2B28A4284F89420BFF4D7
:10445000FDAE01214FF0000B1AE6237D012BD2D9CE
:104460000A2BD0D02046FFF7EBFC3368002DCCD1CF
:104470009C4206D04B4640F2CF425146404606F0A1
:1044800065FFE3683360C5E7204602F0DDFC0028E5
:104490007FF427AE94F896300390013384F8963079
:1044A00021E6534640F289420D490B4806F04EFF83
:1044B0003EE6237DCDE78346237D0121E8E54B469B
:1044C00040F2CB420749404606F040FF9FE700BF5D
:1044D000E03A0020F4CB00083CC300084CC20008BE
:1044E000C8CB000850CC0008D0B138B50446032032
:1044F00063682146256873B11846FFF773F82146B3
:104500000320FEF7A1FE55B12C4603206368214627
:104510002568002BF0D1FEF797FE002DF4D138BDB1
:10452000704700BF58B110B50446406808B1FFF7A6
:1045300059F821460320BDE81040FEF785BE7047BC
:1045400038B505460320FEF755FE044650B12868ED
:104550006968AA68EB6820606160A260E3606068D7
:10456000FFF748FA204638BD037D0A2B03D0012B04
:1045700001D9FFF765BC704702688A4210B50C4646
:1045800052D04AB1D36899424AD02BB1DA68A242DC
:1045900047D01346002BF9D10022237DE260B3F10E
:1045A0000A0218BF0122012B08D93AB12046FFF7B1
:1045B00047FC237DB3F10A0218BF0122012B29D049
:1045C00042B3A37EDA071ED4A36E33B1184B40F278
:1045D00053721849184806F0B9FEE36E33B1144B14
:1045E00040F254721549144806F0B0FE236F33B1FF
:1045F0000F4B40F2567212490F4806F0A7FE0023F7
:104600002375E38210BD43F002032046A37602F037
:1046100075F9237D012BF2D0A36E002BD6D1DCE7F8
:104620001346E268DA60B7E7CB680360B4E700BF1F
:104630002CCA000838CD00083CC3000850CD000843
:104640006CCD0008F8B5456F0023D0F880600446B3
:104650006F7B436756B101462A460069B04758B19F
:104660000D301DD06FF004006567F8BD2989FFF794
:1046700079FC2846FEF7B6FFBB060FD5238DB3F5B0
:10468000066F01D001332385D4F8805035B1002363
:10469000214620691A46A8470D3001D00020F8BDF8
:1046A0006FF00C00F8BD00BF2DE9F84F404F4FF000
:1046B000000ADFF804913B7801333B703D4B1C68E6
:1046C000002C36D03A78637F934234D0A37E627751
:1046D000D90747D41A0730D4656FE66835B3D4F8E4
:1046E000808095F80DB089F800A0C4F874A0B8F1E6
:1046F000000F54D000232A4621462069C0470028D5
:104700003BD11BF0200F0DD0238DB3F5066F01D0E8
:1047100001332385D4F8805025B100232146206938
:104720001A46A84799F80030002BC7D13446002C10
:10473000C8D1BDE8F88FE468C2E7227D23F0080302
:10474000042AA37603D0072A1BD0032AC4D120460B
:1047500001F09EFEC8B94FF005032375204602F014
:10476000CDF8B9E743F002032046A37602F0C6F87D
:10477000A37E03F0FC03A376ACE70D3018BF65679A
:10478000D0E7204601F084FE30B10130A4D1A37EF1
:1047900043F00803A3769FE709232375DEE720464D
:1047A0002989FFF7DFFB2846FEF71CFFA9E700BFBA
:1047B000C9000020E03A0020DC3A002008B5FFF7ED
:1047C00073FF064A53780133DBB25370DB0700D422
:1047D00008BDBDE80840FFF727BC00BFC9000020A6
:1047E000037D012B2DE9F04F054685B00F4600F003
:1047F000A2800A2B00F0AA80EA6CD5F824B00392BC
:10480000D5F88C60D5F81090B5F81680002B40F0E4
:104810008A80B8F1000F6CD11F46EC6EE4B162687B
:1048200021460320D4F800A08AB11046FEF7DAFE34
:1048300021460320FEF708FDBAF1000F0CD05446C4
:10484000032062682146D4F800A0002AEDD1FEF7CB
:10485000FBFCBAF1000FF2D1AC6EE4B16268214604
:104860000320D4F800A08AB11046FEF7BBFE214613
:104870000320FEF7E9FCBAF1000F0CD054460320E8
:1048800062682146D4F800A0002AEDD1FEF7DCFCD6
:10489000BAF1000FF2D12C6FE4B162682146032017
:1048A000D4F800A08AB11046FEF79CFE21460320F2
:1048B000FEF7CAFCBAF1000F0CD054460320626820
:1048C0002146D4F800A0002AEDD1FEF7BDFCBAF1D4
:1048D000000FF2D1E7B929460120FEF7B5FC002E02
:1048E0004AD048466FF00C01334605B0BDE8F04FA2
:1048F0001847234B1A68AA4233D0002A33D0D36812
:104900009D4235D07BB3DA68AA4232D01346F9E72C
:104910002B8B5946CDF800802A4601932B1D039816
:1049200002F0A2F9D7E729461648FFF725FE164BF5
:1049300001221A7071E7154B4FF4F07214491548B3
:1049400006F004FD2B7D0A2B7FF456AF2946124852
:10495000FFF712FE2946012005B0BDE8F04FFEF733
:1049600073BCEA681A6000239846EB601F4654E760
:104970001346EA68DA60F6E705B0BDE8F08F00BFDD
:10498000EC3A0020E03A0020DC3A00202CCA000873
:10499000A0CD00083CC30008F03A00200121FFF739
:1049A0001FBF00BFF8B504460120FEF723FC0346F5
:1049B00020B39822002118464B4D06F0BFFC4B4A0D
:1049C00003464FF486601168FF222E784FF00615DB
:1049D000196247495C75A3F86000464C46489962E5
:1049E0009A724649464A5E77C3F83E501C63986403
:1049F000C3F88010C3F890201846F8BD414B1B68DF
:104A000093B13A4A1846196A1568691ADB6843B1C6
:104A10001A6AAA1A8A42F9D31846DB681146002B93
:104A2000F6D10121FFF7DCFE0120FEF7E3FB034690
:104A30000028BED1344D296891B12C4A166801E096
:104A4000C96849B10A7D092AFAD10A6AB21A9042A4
:104A5000F6D810460B46F3E713B11846FFF7C0FE31
:104A60000120FEF7C7FB03460028A2D1296891B1B7
:104A70001E4A166801E0C96849B10A7D082AFAD1C0
:104A80000A6AB21A8242F6D310460B46F3E713B114
:104A90001846FFF7A5FE0120FEF7ACFB03460028F1
:104AA00087D114F0800F2A680CBF25467F25A2B15C
:104AB0000E4906460F68507D854206D3116A791A61
:104AC000B14202D305460E461346D268002AF2D1FF
:104AD0001BB118460121FFF783FE0120FEF78AFB78
:104AE0000346002888D064E7C9000020E43A00208B
:104AF00060086008FFFF1802010030040D4B000839
:104B000000DD6D00F03A0020E03A0020F0B50C46E0
:104B100083B01546002A39D1002B34D10A7D012AF1
:104B200000F0B3808B7E042A43F010038B7602D012
:104B3000072A40F09A80636F002B00F09180268B4B
:104B4000231DE58A2246616AE06CCDE9005602F039
:104B50008BF8217D012905D90A2903D02046FFF7CA
:104B60006FF9217D834B1A68944200F0D580002AAA
:104B700055D0D3689C424FD0002B50D0DA68944275
:104B80004BD01346F8E7002003B0F0BD0B7D16892B
:104B9000012B57D0238D33449BB2B3F5066F238589
:104BA00005D873BB237D072B01D0092B21D14FF4EE
:104BB00006631A462385666AE06A618E371AB1F584
:104BC000866F3A4494BF511AA2F5866100291ADB18
:104BD000B2F5067F638506DBA37E204643F0020321
:104BE000A37601F08BFE2846FEF7FCFC002003B004
:104BF000F0BD614B40F22D326049614806F0A6FBE2
:104C0000238D1A46D7E7002F24DD0023284663852D
:104C1000FEF7E8FC0020EAE71346E268DA600025C8
:104C2000584B01220429E5601A7000F08480564B2D
:104C30001B689C4273D021460120FEF705FB002033
:104C400003B0F0BD4C4B4FF4487250494C4806F04D
:104C50007DFB9FE7861BB6F5803F64D26685C2E781
:104C6000238DB3F5066F7FF46AAF3AB3022A41D1C0
:104C700021464048FFF780FC0123424A214618465E
:104C80001370FEF7E1FA00207EE7414800F10C05C1
:104C900050F8042B12682AB1916F8C4225D0D2684B
:104CA000002AF9D18542F3D121463A48FFF764FC46
:104CB00002202146FEF7C8FA002065E7E38A002BB0
:104CC000B9D0354B1A68944250D05AB1D3689C423F
:104CD00005D03BB1DA68944202D01346F9E7134697
:104CE000E268DA600023E360A5E79367D268002AF0
:104CF000D2D1D7E7042A04D0072A2FD0032A7FF481
:104D000042AF204601F0C4FBF8B9052323752046C5
:104D100001F0F4FD002037E7E2681A607FE701F058
:104D2000ADFB284630E7144B4FF442721B49144840
:104D300006F00CFB92E71A4B0A211A682175E26013
:104D40001C6002F041FA28461EE7431C7FF41CAFAA
:104D5000A37E002043F00803A37615E7204601F068
:104D600097FB0028F1D109232375D0E7E2681A6088
:104D7000B8E700BFE03A00202CCA0008ECCA0008DF
:104D80003CC30008DC3A0020F43A0020C4CA000802
:104D900050C20008E83A0020EC3A0020A8CA0008F7
:104DA000F03A0020034B044A5868126810445860D7
:104DB000704700BF08000020E43A002010B5044608
:104DC000084604F08FF830B1438C23B1283B9BB2E6
:104DD0009C4228BF1C46204610BD00BF08B1036896
:104DE00003B970471B4A70B5044610680E4678B187
:104DF0000268C5689A4206D055B128462368026801
:104E0000C5689A42F8D10121FFF7EAFC002DF4D1E0
:104E1000114B186810B90CE0284655B10268236898
:104E2000C5689A42F8D10121FFF7DAFC2846002D27
:104E3000F4D176B1336863B1084B1B684BB1186885
:104E40002168DA68884201D1316819601346002A66
:104E5000F5D170BDE03A0020EC3A0020E83A00209D
:104E6000F8B5C36805460C469889FDF7ADFFC30742
:104E700034D41D4EE1682389486837682A89034481
:104E80003A44D31A002B1EDB8889FDF79DFF10F0F2
:104E9000010F204605D12768FFF744FB87B13C4648
:104EA000E8E7EB6801209F89FDF78EFFEA6847EA93
:104EB0000003276820469381FFF734FB002FEED1D3
:104EC0003C462C60F8BD121A002AFADDC11B686846
:104ED00089B22981FEF7F4FC2C60F8BD204600243D
:104EE000FFF702FB2C60F8BDCC000020037D032BF4
:104EF0002DE9F04F044681B040F2DB80854E3379D6
:104F00003268DB0640F18680216DB4F85C508F1A60
:104F1000606DB368002FC0F2B480914200F0AD80A4
:104F2000984200F0F18029468446626C9F1A002F57
:104F300000F3C780378A27B961442844814200F0D2
:104F400026830022A36EDFF8D881DFF8DC91724F50
:104F500084F84320002B4ED0DB68B5685868FDF715
:104F600037FFA36E8246DA68B3F808B09089FDF780
:104F70002BFFA5EB0B0510F00300A5EB0A0518BFEE
:104F800001202D1A002D36DBB368E26C9B1A002B32
:104F900031DCA56E2B68A366002B00F0AA80B4F864
:104FA00062A06868FEF71AFD8245C0F09A806868C2
:104FB000FEF714FDB4F862202B89718A121A284674
:104FC0000B44A4F862207382FFF7ACFAB4F86230A5
:104FD000002B00F08480D4E91A32002ABAD1002BC9
:104FE000B8D1434640F2DD424C49384606F0AEF9AE
:104FF000A36E002BB0D1B4F86030718A626B0B44A1
:10500000A4F860302AB1A36BB1685B1A002BC0F220
:1050100003813268318A636AF1B1207D06281BD88A
:105020009F1A012F06D4591AC2F101000144002928
:1050300040F36381D11A0029C0F21781218DC1F19B
:1050400001011144C91A002940F31481204601B01E
:10505000BDE8F04F01F0DCBBD11A002906DBC3F13B
:105060000103218D5B1A1344002B03DDA37E43F063
:105070000203A37601B0BDE8F08FC11A0029BFF684
:105080004FAFF168C989B4F85E70A4F85C108F4224
:10509000C4E9142338BFA4F85E1094F8952059BBD6
:1050A000002A40F0E0804FF480729C46A4F89420DF
:1050B0003BE71B4B4FF481621A49174806F046F94B
:1050C0001CE7E26C9A1A002A30DD204601F0A0FBB2
:1050D000A36EDFF84C80DFF850900F4F3AE7A36ED5
:1050E00038E7434640F2D5424946384606F02EF9A5
:1050F0005DE7A4F8643052E7002A00F0B480002293
:105100009C4684F8952010E7F168C9898D42BFF468
:105110000AAFB8E7CC0000203CC30008CCCE0008A2
:1051200054CE000888CE0008A4CE0008A27E5707FF
:1051300006D522F00402B4F84A10A276A4F848106A
:10514000E28F0021B4F93C00636402EBE003227DAE
:1051500084F84210032AA4F8403084F843100FD991
:10516000B4F84820B4F84A10638E91429CBF5B4368
:1051700093FBF2F313449BB29A4201D2A4F8483055
:10518000E26EDFF8C482DFF8C492AC4F002A00F070
:105190005281D3685868FDF71BFEE36E8246DA68D9
:1051A0001D899089FDF710FEB36810F00300A5EB90
:1051B000030518BF012055442844002800F33A8114
:1051C000E56EB4F862A0D5E90030E366FEF706FCB0
:1051D000824540D36868FEF701FCB4F862202B8951
:1051E000718A121A28460B44A4F862207382FFF7D2
:1051F00099F9B4F86230E26E002BC7D0002AC5D10D
:10520000A36E002B00F08182B2FA82F200215209D3
:10521000E176524222865CE7894BB4F93C101B6868
:105220009B1AA3EBE1039BB2194418B209B2002800
:10523000A18701DA5B4218B2B4F93E300022A3EB39
:10524000A3036263326803449BB203EBE101E3878B
:10525000A4F84010DEE6434640F29E4249463846F6
:1052600006F074F8B6E79C465FE6A37E43F00203BF
:10527000A376EBE69A427AD0204601F0C9FA256F70
:10528000002D00F0BD81E86800273168436801F116
:10529000010E01F1FF388B42AEEB030C18D0002F4A
:1052A00000F0B381FA685268A8EB0202002A03DB1F
:1052B000BCF1000F40F390822A682F46002A00F0CC
:1052C000B0811546E86843688B42AEEB030CE6D12B
:1052D000B28B2B899A427FF6CDAE5A48FFF730F950
:1052E00000283FF4C7AE002F00F0DE823860294668
:1052F00001B0BDE8F04FFFF7B3BDB569B846002D6A
:1053000000F0768147F6FE739F4200F36981B06931
:105310001FFA87F94389BB4280F252810389BB425D
:10532000C0F20082A3EB09026B899F4292B208DDB2
:1053300000216981A8EB03082A812D686B89434508
:10534000F7DBC8F10001284609B2FEF79BF80028F8
:1053500040F0F281B18B3368626A0B44306A218D70
:105360009B1A3260B383426000293FF46FAE336A08
:10537000B58B9889FDF728FD10F00303228D18BF27
:1053800001232B449BB29A423382C0F0F381236FF6
:10539000002B64D0336A9889FDF716FDC2075BD4F1
:1053A000D6F800E0338A276F03EB0E02002F00F0DF
:1053B0007D82F8683989D0F804C0A2EB0C08A8EB0C
:1053C0000101002918DA20E23D683846FFF7AAF803
:1053D000338A2F46002D00F04982D6F800E0E868B5
:1053E00003EB0E022989D0F804C0A2EB0C08A8EB4D
:1053F00001010029C0F20A828089FDF7E5FCC3079C
:10540000E2D5336A9889FDF7DFFC8507DCD4336A7F
:1054100001209D89FDF7D8FC336A2843B58B80B203
:105420009881FDF7D1FC10F0030018BF012005445E
:105430003582C9E7E26EA36EE6E600BF3CC3000812
:10544000E43A0020E000002054CE0008A4CE00087A
:1054500003682367FFF766F8206F0028F8D1338AC6
:1054600032681A44218D6262994208D2B64B40F2EA
:10547000B952B649B64805F069FF218D338ACB1A77
:1054800020462385FEF740FDB3691A8912B1002238
:105490007362B261336A9889FDF796FCC20705D53D
:1054A00096F8283043F0200386F82830256F002D29
:1054B00000F02281EB68626A59688A4240F01C81E0
:1054C000DFF88492DFF8A882A14F3BE0EB68B5F8E3
:1054D00008A09889FDF778FC10F00303228D204680
:1054E00018BF01235344D31A2385FEF70DFD6968C5
:1054F0000B893BB1706A002800F0FC80FEF78EFA41
:1055000000236B60EB689889FDF75EFCC3070AD542
:1055100096F82830227D43F02003042A86F82830AC
:1055200001D1072323752B6828462367FEF7FAFF6E
:10553000256F002D00F0E080EB68616A5A688A42AE
:1055400040F0DA8032609889B5F808A0FDF73CFC9D
:10555000636A10F00300EA6818BF01209A44B4F8A7
:1055600028B05044B5F808A060629089FDF72CFC83
:1055700010F0030018BF012050448345A6D24B46CB
:1055800040F2DE524146384605F0E0FE9EE7218EAD
:10559000C90B7FF4D6AC9A427FF4D3AC94F8433075
:1055A000FF2B00F066810133DBB2032B84F843301C
:1055B00000F25F817FF48CAD204601F0F9FB87E5B6
:1055C000C9F1000109B2FDF75DFF00283FF4C2AE4A
:1055D0005D4B40F251525F495D4805F0B7FEB9E6B8
:1055E000594B40F23D525C49594805F0AFFE8EE6FA
:1055F000554B40F23C525949554805F0A7FE81E60B
:105600005748FEF79DFF206734E5CA1A002ABFF607
:1056100053AE5348FEF794FF00283FF42BAD2067AC
:1056200065E6CB1A002B7FF725AD8089FDF7CCFB13
:10563000C1073FF51FAD4A48FEF782FF28600028EA
:105640003FF418ADEB682A89596833680A44D21AC6
:10565000002A05DD5B1A686899B22981FEF730F9E6
:105660003268338A616A1344228D5B1A9B1A002BBD
:105670007FF700AD2B68DB689889FDF7A5FBC207B3
:105680002B680ED5DB689F89384627F47C57FDF7D9
:105690009BFB00F03E00FDF797FB2B680743DA68A1
:1056A00097813068218D626A091A5868114489B25D
:1056B0001981FEF705F92B68DA681D899089FDF7D5
:1056C00083FB10F00303316818BF0123228D606A49
:1056D0002B4402449BB21944338291423FF4CAAC3A
:1056E000194B40F27B621F49194801B0BDE8F04FE9
:1056F00005F02CBE716203E7A37ED8070ED523F018
:10570000010343F00203A376B4E440F2A742434608
:105710001549384605F01AFEE26E37E543F00103FD
:10572000A376A7E4084B40F23F521049084805F021
:105730000DFEB3691B89F5E5034B40F24C52054958
:10574000034805F003FE05E654CE0008A4CF000888
:105750003CC300081CCF0008FCCE0008ECCE0008BB
:10576000E000002030CF0008CCCE00080CCF0008AD
:10577000C4CF0008336A9889FDF726FBC507336A52
:1057800000F183809889238DB383FDF71DFB80078B
:10579000B18B02D5013989B2B183B069FEF790F8B7
:1057A000336AB58B9889FDF70FFB10F0030331685E
:1057B00018BF0123228D606A2B4402449BB2194416
:1057C000338291423FF4E3AD394B40F27F52394985
:1057D000394805F0BBFDDAE53848FEF7B1FE04466E
:1057E00000283FF447ACFB683A89596833680A449B
:1057F000D21A002A05DD5B1A786899B23981FEF762
:105800005FF83C602946204672E53D46B8F1000F3E
:1058100001DC256726E6ACEB0E0C336AA6F81CC04B
:105820009889FDF7D1FA8007B18B02D5013989B289
:10583000B183B069FEF744F8336AB78B9889FDF7F6
:10584000C3FA10F00303326818BF01233B449BB234
:105850009918EA68338252689142DAD0144B40F2C8
:10586000AF521749144805F071FD338A32681A4463
:10587000CFE7B4F84820638E13449BB29A42BFF43A
:1058800027ACA4F84830A36E23E49D89284625F46C
:105890007C55FDF799FA00F03E00FDF795FA284394
:1058A000336A80B298816EE7206720E53D46B0E715
:1058B00054CE000830CF00083CC30008E0000020B0
:1058C00068CF000810B5837E0446DB0606D4D0F806
:1058D0008C301BB16FF00E010069984721460448D7
:1058E000FEF74AFE21460120FDF7AEFC012010BD67
:1058F000E03A00202DE9F047DFF824E10023BEF86C
:1059000034C01D461A46BEF82C905FFA8CFADEF8B9
:105910003070DEF80C80AEF82A30002F46D002F14D
:10592000140416464444A6EB0A01531C9145C9B21F
:105930009BB268D9B4458CBF25787D5C012D4DD0D4
:1059400065D3022D2AD1591C89B2002F4BD09C451A
:1059500049D8A3EB0A02D2B2BA5C042A5AD14A1C33
:105960004A4557DA9C1C0333A4B29AB2002F3ED0AA
:105970008C4542D8A1EB0A01C9B27B5C1B02A4454D
:1059800038D8A4EB0A04E4B2395D0B43591EB1F5D3
:10599000067F28BF4FF4067303801DE0AFB19C451E
:1059A00013D8A3EB0A01C9B2795C11E002F113012B
:1059B0004144531C4A459BB225D211F8014F0125A1
:1059C000AC421ED023D3022CBDD008EB0301097DCD
:1059D00001291BD90A4492B201259EE70136013400
:1059E0001A46B6B29FE708EB0302127DB5E74144C1
:1059F0000B7D1B024444217DC7E741440B7D1B0204
:105A0000BDE71A46D5E745B9BDE8F0870133AEF8E2
:105A10002A30F9E7AEF82A10F6E7AEF82A20F3E7C5
:105A2000CC00002043894268132B2DE9F04FA24D92
:105A300083B00446EA6006D9A04E3168706903F06D
:105A40006BFC074628B1204603B0BDE8F04FFDF7D8
:105A5000C9BD736903F0F003E02BF4D0EB689889BB
:105A6000FDF7B2F9800A00F0FC001328EBD980B2F0
:105A700023898342E7D3A0F1140362892F639BB289
:105A80008242AB8580F06C812368002B00F003829A
:105A90006FF013012046FDF7F5FC6389AF8D2046BA
:105AA0005942AB86FF1A09B2FDF7ECFC2068BFB281
:105AB0004389BB42C7D37942436809B22B63FDF7E0
:105AC000E1FC23896289DB1B9BB22381002A40F021
:105AD000D982226812899A4205D0794BD02279491D
