:020000040800F2
:1000000000300020312A0008812A0008812A0008D7
:10001000812A0008812A0008812A000800000000C7
:10002000000000000000000000000000812A00081D
:10003000812A000800000000812A0008C901000888
:10004000812A0008812A0008812A0008812A0008E4
:10005000812A0008812A0008812A0008812A0008D4
:10006000812A0008812A0008812A0008812A0008C4
:10007000812A0008812A0008812A0008812A0008B4
:10008000812A0008812A0008812A0008D501000879
:10009000E5010008812A0008F501000805020008B2
:1000A000812A0008812A0008812A0008812A000884
:1000B000812A0008812A000800000000812A000827
:1000C000812A00080000000000000000812A0008CA
:1000D00000000000812A0008812A0008812A000807
:1000E000812A0008812A00080000000000000000AA
:1000F0000000000000000000000000000000000000
:1001000000000000000000000000000000000000EF
:100110000000000000000000812A0008812A000879
:1001200000000000000000000000000000000000CF
:1001300000000000000000000000000000000000BF
:10014000812A0008812A0008000000000000000049
:10015000000000000000000000000000000000009F
:10016000000000000000000000000000000000008F
:10017000000000000000000000000000000000007F
:0801800000000000812A0008C4
:1001880010B5054C237833B9044B13B10448AFF3C9
:1001980000800123237010BD0C0000200000000027
:1001A800CC2A000808B5034B1BB103490348AFF339
:1001B800008008BD0000000010000020CC2A0008C4
:1001C80008B500F0A5FB01F01AFC08BD08B5024807
:1001D80001F07DFA08BD00BF9001002008B5024873
:1001E80001F075FA08BD00BF9001002008B502486B
:1001F80001F06DFA08BD00BF9001002008B540204D
:1002080001F0D4FC08BD000070B584B01D4B5A69DC
:1002180042F480025A615A6902F480020192019AFA
:100228005A6942F400325A615A6902F40032029261
:10023800029A5A6942F480225A615B6903F4802366
:100248000393039B104D00220921284601F0A0FCCE
:100258000E4C09232360012363600026A660E66034
:100268002146284601F0D0FB40232360084B6360F9
:10027800A6602146284601F0C7FB172001F09AFB2B
:1002880004B070BD0010024000040048280000209F
:100298000000111008B50821084801F07EFC084B41
:1002A8009B8AB3F5006F04D8054A01211162938433
:1002B80008BD034A012191619383F9E700040048CE
:1002C80028000020FEE7000008B51E4802238362CC
:1002D800012282631022C2634364002383644FF4C3
:1002E8006013C364283001F06FFCC8B915480F23A8
:1002F8004365022181650023C3654FF4806202666D
:100308004366543001F0BAFF80B90E4880238366F3
:100318004FF480738367683002F0B4F860B908BDA1
:10032800084B012283F85020FFF7CCFF054B02222F
:1003380083F85020FFF7C6FF024B032283F85020B2
:10034800FFF7C0FF2800002008B51D481D4BC0F866
:1003580080300023C0F88430C0F88830C0F890306E
:1003680080F8993080F8A030C0F8AC300122C0F88D
:10037800A820C0F88C30C0F89C2080F8B030042247
:10038800C0F8942080F89830C0F8B430803000F07D
:100398004DFB78B90A4B0122C3F8D020C3F8D4200A
:1003A8000022C3F8DC20C3F8D820C3F8E020C3F843
:1003B800E42008BD024B042283F85020FFF782FF97
:1003C800280000200001005008B5144800F1D001B1
:1003D800803000F045FD70B9114800F031FC80B95B
:1003E8004FF0FF310E4800F0ADFC80B90C4800F02A
:1003F80033FD80B208BD0D20084B83F85000FFF78D
:1004080061FF064B0E2283F85020FFF75BFF034B7A
:100418000F2283F85020FFF755FF00BF2800002067
:10042800A800002008B51248124BC0F8E8304FF475
:100438001643C0F8EC300023C0F8F030C0F8F430B0
:10044800C0F8F8300C22C0F8FC20C0F80031C0F821
:100458000431C0F80831C0F80C31E83002F0B3FAC2
:1004680000B908BD024B052283F85020FFF72AFF88
:10047800280000200044004008B51648164BC0F874
:1004880068310023C0F87031012280F8812180F89A
:10049800833180F8822180F8843180F8803180F8B7
:1004A80085310222C0F86C21C0F874314FF4402322
:1004B800C0F878314FF48013C0F87C3100F5B4707F
:1004C80000F086FE00B908BD024B062283F85020D2
:1004D800FFF7F8FE280000200064004008B5144823
:1004E8000122C0F8B0210023C0F8A031C0F8A8311B
:1004F800C0F8AC21C0F8B431C0F8A4314FF41052A0
:10050800C0F89021C0F894314FF6E072C0F89821F5
:10051800C0F89C3100F5C87100F5B47000F0FEFE1B
:1005280000B908BD024B072283F85020FFF7CAFE26
:100538002800002008B500F0D9F9FFF7C5FEFFF73D
:1005480071FFFFF761FEFFF7FFFEFFF795FFFFF76B
:10055800C5FF1D4800F060FF28B11C4B0B2283F833
:100568005020FFF7AFFE40F20341174801F091F821
:1005780018BB01224FF480614FF0904001F008FB56
:10058800124C0123C4F8D030FFF71EFFA0820223CB
:10059800C4F8D030FFF718FFA4F8B8010323C4F853
:1005A800D030FFF711FFA4F8BA0100224FF48061A0
:1005B8004FF0904001F0ECFADBE7044B0C2283F893
:1005C8005020FFF77FFE00BF900100202800002088
:1005D80008B51B48838A1A0A80F8BC2180F8BD3107
:1005E800B0F8B8311A0A80F8BE2180F8BF31B0F9E6
:1005F800BA311A1280F8C02180F8C131002380F87E
:10060800C23180F8C3310622C0F8D42140F2251245
:10061800C0F8C421C0F8CC31C0F8D03100F5EE7371
:1006280000F5DE7200F5E27100F5B47000F022FF0B
:1006380000B908BD024B112283F85020FFF742FE93
:100648002800002008B50D4800F5F07300F5F47295
:10065800002100F5B47000F082FF30B9074BD3F8E1
:10066800E831B3F5907F06D008BD044B102283F81B
:100678005020FFF727FEFFF7ABFFF5E72800002023
:1006880008B5FFF7DFFF0821014801F086FA08BD29
:100698000004004800B583B0032001F045F9164A6C
:1006A800536A43F4E0235362002211466FF00B00B3
:1006B80001F04CF9002211466FF00A0001F046F9EA
:1006C800002211466FF0090001F040F90B4B9A69BE
:1006D80042F001029A619A6902F001020092009ABE
:1006E800DA6942F08052DA61DB6903F080530193E2
:1006F800019B03B05DF804FB00ED00E00010024030
:1007080000B589B0002303930493059306930793D8
:100718000268114B9A4202D009B05DF804FB0F4BF6
:100728005A6942F080525A615A6902F08052019225
:10073800019A5A6942F400325A615B6903F4003342
:100748000293029B702303930323049303A94FF09E
:10075800904001F059F9DFE7000100500010024015
:1007680070B588B000230393049305930693079309
:1007780002682A4B9A4201D008B070BD03F5D633FF
:10078800DA6942F00072DA61DA6902F00072019205
:10079800019A5A6942F400325A615B6903F40033E2
:1007A8000293029B4FF400630393022404940326EC
:1007B80006960925079503A94FF0904001F024F902
:1007C8004FF48053039304940024059406960795E8
:1007D80003A94FF0904001F017F922460F2113208A
:1007E80001F0B4F822460F21142001F0AFF8224698
:1007F8000F21152001F0AAF822460F21162001F03A
:10080800A5F8132001F0D6F8142001F0D3F815202C
:1008180001F0D0F8162001F0CDF8ADE700640040F3
:1008280000B589B0002303930493059306930793B7
:100838000268144B9A4202D009B05DF804FB03F534
:10084800E633DA6942F40032DA61DA6902F4003236
:100858000192019A5A6942F400325A615B6903F4C1
:1008680000330293029B48F2040303930223049388
:10087800032306930723079303A94FF0904001F041
:10088800C3F8D9E700440040054BD3F8882042F468
:100898007002C3F888204FF000629A60704700BF6A
:1008A80000ED00E010B504460E4B18784FF47A734B
:1008B800B3FBF0F30C4A1068B0FBF3F001F088F8D2
:1008C80068B90F2C01D901200AE0002221464FF017
:1008D800FF3001F03BF8034B5C60002000E0012092
:1008E80010BD00BF040000200000002008B5074A22
:1008F800136843F010031360032001F015F800207B
:10090800FFF7D0FFFFF7C6FE002008BD0020024019
:10091800034A1168034B1B780B441360704700BFF0
:100928009002002004000020014B1868704700BFA7
:100938009002002038B50268936803F00303012B86
:1009480001D0002038BD136813F0010F2FD0936831
:1009580003F00D03012B09D0036C43F0100303646B
:10096800436C43F0010343640120EBE704469368BA
:1009780043F002039360036803221A60FFF7D4FF71
:10098800054623689B6813F0010F0ED0FFF7CCFFD4
:10099800401B0228F5D9236C43F010032364636CD1
:1009A80043F0010363640120CCE70020CAE700207C
:1009B800C8E7000038B50268936803F00303012B09
:1009C8000DD09168184B19420FD0036C43F01003F7
:1009D8000364436C43F001034364012038BD13688A
:1009E80013F0010FEDD00020F8E70446936843F0B8
:1009F80001039360FFF798FF054623681B6813F00F
:100A0800010F0ED1FFF790FF401B0228F5D9236C88
:100A180043F010032364636C43F001036364012013
:100A2800DCE70020DAE700BF3F00008030B597B070
:100A380000230193002800F0F7800446036C13F0AC
:100A4800100F52D1036CABB1002023689A6812F0E2
:100A5800805F03D09B6813F0005F47D0236C23F0BE
:100A6800120343F010032364636C43F001036364CF
:100A780001203BE04364C364836480F83C30FFF7A3
:100A88003FFE23689B6813F0805F01D00020DCE7FD
:100A98002046FFF74FFF236C13F0100FD5D1002825
:100AA800D3D1236C23F4885323F0020343F00203C9
:100AB80023642268936823F0405393602268936804
:100AC80043F080539360594B1B68594AA2FB032398
:100AD8009B0C03EB83035A00019202E0019B013B4C
:100AE8000193019B002BF9D1AFE70020236C13F091
:100AF800100F40F09080002840F08D8023689A689D
:100B080012F0040240F08780216C21F4817141F0D9
:100B180002012164B3F1A04F54D04FF0A0410291DB
:100B2800996801F0030101294FD0029B23B199680C
:100B380001F0030101294DD03E498B6823F440336D
:100B480065682B438B60617E4B03656B012D01D07B
:100B58004FF480521343E2681343A268134394F896
:100B68002020012A3BD0A26A012A02D0E16A0A4366
:100B780013432268916811F00C0F0CD1D16821F44D
:100B8800804121F00201D160217E94F8302052008A
:100B980042EA813213432168CD68274A2A40134329
:100BA800CB602369012B2DD02268136B23F00F0330
:100BB800136300236364236C23F0030343F00103EE
:100BC80023642FE01D490291AAE71B6813F0010F67
:100BD800B9D1AAE71B6813F0010FB4D1ACE731B95A
:100BE800626A013A43EA424343F48033BBE7226C2A
:100BF80022F0220242F020022264626C42F00102DA
:100C08006264B0E721680B6B23F00F03E269013AD5
:100C180013430B63CDE7236C23F0120343F0100357
:100C28002364012017B030BD0120FBE7000000203D
:100C380083DE1B430003005007C0F0FF0001005093
:100C480003689B6813F0040F72D190F83C30012BB5
:100C580071D010B50446012380F83C30FFF7AAFE96
:100C6800034600285FD1226C22F4706222F0010250
:100C780042F480722264314A926812F01F0F17D032
:100C88002168B1F1A04F13D0226C42F48012226483
:100C98002B4A91421BD14FF0A042D26812F0007F3C
:100CA80015D0226C22F4405242F4805222640EE0A5
:100CB800226C22F4801222642268D26812F0007F2B
:100CC80005D0226C22F4405242F480522264226CF5
:100CD80012F4805F24D0626C22F006026264002263
:100CE80084F83C2022681C211160144A926812F092
:100CF8001F0F0FD0114A926802F01F02052A09D06F
:100D08000E4A926802F01F02092A03D02268B2F143
:100D1800A04F0BD121688A6842F004028A6005E07E
:100D280000226264DBE7002284F83C20184610BDEC
:100D38000223184670470223FBE700BF0003005058
:100D4800000100502DE9F0414369082B24D0414BA4
:100D58009B6813F01F0F0FD10368DB6813F0010FB6
:100D680001D10C2619E0036C43F02003036400232F
:100D780080F83C30012068E0364B9B6813F4404F04
:100D880001D10C2609E0036C43F02003036400231F
:100D980080F83C30012058E008262E4B9B6813F061
:100DA8001F0F07D00368B3F1A04F03D04FF0A04343
:100DB800DF6801E00368DF680D460446FFF7B4FD0D
:100DC800804623681A68324212D1B5F1FF3FF8D045
:100DD8002DB1FFF7A9FDA0EB0800A842F1D9236CBB
:100DE80043F004032364002384F83C3003202CE000
:100DF800226C42F400722264DA6812F4406F1FD148
:100E080017F4005F1CD11A6812F0080F18D09A68FE
:100E180012F0040F0CD1226C22F480722264226C2E
:100E280012F4805F0CD1226C42F00102226407E0C8
:100E3800226C42F020022264626C42F00102626479
:100E480017F4804F03D11E600020BDE8F081002018
:100E5800FBE700BF000300500368186C70470000F0
:100E680030B496B00022019290F83C20012A00F09C
:100E7800A4810346012280F83C200068826812F0B1
:100E8800040F40F08F814A68042A31D8046B02EBC2
:100E9800420255001F22AA4024EA02020C68AC4014
:100EA800224302631868826812F00C0F68D10A683E
:100EB800092A4ED9846902EB42021E3A0725954059
:100EC80024EA05048D6805FA02F222438261486922
:100ED8001C68E268C2F3C102520000FA02F2086913
:100EE8000138032800F28B80DFE800F04068737E49
:100EF800092A0ED8446B02EB420255001E3D1F2200
:100F0800AA4024EA02020C6804FA05F52A4342635F
:100F1800C8E70E2A0ED8846B02EB420255003C3D0E
:100F28001F22AA4024EA02020C6804FA05F52A43A3
:100F38008263B7E7C46B02EB420255005A3D1F2299
:100F4800AA4024EA02020C6804FA05F52A43C2639F
:100F5800A8E7446902EB42020725954024EA050404
:100F68008D6805FA02F222434261B0E7206E944D83
:100F78000540086842EA8062154345F00045256649
:100F88001868826802F00302012A6BD0CA68012A35
:100F98006ED0D0F8B0200D680124AC4022EA0402DB
:100FA800C0F8B0200A68102A00F08B80112A00F0DF
:100FB800A980122A00F0AC800020F8E0606E804D15
:100FC8000540086842EA8062154345F000456566B9
:100FD800D6E7A06E7A4D0540086842EA806215435C
:100FE80045F00045A566CBE7E56E754828400D68D5
:100FF80042EA8562024342F00042E266C0E7226E9E
:1010080002F0F8420868B2EB806F1CD01868426E94
:1010180002F0F8420C68B2EB846F19D01868826E3F
:1010280002F0F8420C68B2EB846F16D01868C26EF2
:1010380002F0F8420C68B2EB846FA1D1C26E22F0C4
:101048000042C2669CE7226E22F000422266DDE77B
:10105800426E22F000424266E0E7826E22F00042D1
:101068008266E3E7026812F0010F8FD000209EE04D
:10107800D0F8B0200D680124AC402243C0F8B0205D
:101088000A68092A0ED91D68A86902EB42021B3AB0
:101098000724944020EA04008C6804FA02F2024310
:1010A800AA617FE71D686869013202EB42020724E2
:1010B800944020EA04008C6804FA02F202436A6150
:1010C80070E74049896811F4000F7FF46FAF186822
:1010D800B0F1A04F23D04FF0A0410291816801F0F8
:1010E800030101291ED0029921B18C6804F0030480
:1010F800012C21D0102A24D0112A42D0122A4AD0F9
:10110800002054E02F49896811F0807FDFD050E734
:101118002C49896811F4800FD9D0002047E02A496A
:101128000291DBE7016811F0010FDCD01A6C42F084
:1011380020021A6401203AE0096811F0010FF5D184
:10114800D8E7B0F1A04FD7D11E498A6842F400020F
:101158008A601E4A1268A1F14E61A1F58421A1F2AC
:101168007D41A1FB0212920C02EB82025100019117
:1011780002E0019A013A0192019A002AF9D100206D
:1011880015E0B0F1A04FB9D10E498A6842F08072DB
:101198008A6000200BE00B498A6842F480028A606A
:1011A800002004E01A6C42F020021A640120002298
:1011B80083F83C2016B030BC70470220FAE700BF25
:1011C80000F0FF83000300500001005000000020E1
:1011D800002800F0A18038B5044690F82030D3B13B
:1011E8002268136823F002031360FFF79DFB05468E
:1011F80023685A6812F0020F10D0FFF795FB401BC6
:101208000A28F5D9636A43F400336362052384F836
:101218002030012038BDFFF7A3FAE1E71A6842F051
:1012280001021A60FFF780FB054623685A6812F02E
:10123800010F0DD1FFF778FB401B0A28F5D9636A27
:1012480043F400336362052384F820300120E1E78A
:10125800227E012A3DD01A6822F080021A60637E3D
:10126800012B3BD02268136823F040031360A37E50
:10127800012B39D02268136823F020031360E37E22
:10128800012B37D02268136843F010031360237FC3
:10129800012B35D02268136823F008031360637F9D
:1012A800012B33D02268136823F004031360A3686A
:1012B800E268134322691343626913436268013A7F
:1012C80021681343CB6100206062012384F8203039
:1012D800A0E71A6842F080021A60C0E72268136823
:1012E80043F040031360C2E72268136843F0200309
:1012F8001360C4E72268136823F010031360C6E77D
:101308002268136843F008031360C8E7226813686B
:1013180043F004031360CAE701207047036890F89C
:101328002020013AD2B2012A05D9436A43F4802326
:1013380043620120704770B4D3F8002242F00102E2
:10134800C3F800224A6902F01F02012000FA02F2E3
:10135800D3F81C42D0430440C3F81C42CC69ACB952
:10136800D3F80C420440C3F80C42CE688D884C690F
:1013780045EA0645483443F834508E680D884C6970
:1013880045EA0645483403EBC4046560CC69012C82
:1013980019D08C6974BBD3F804420440C3F80442E2
:1013A8000C696CBBD3F814422040C3F81402096AD4
:1013B80001292BD0D3F8002222F00102C3F8002221
:1013C800002070BC7047D3F80C421443C3F80C4299
:1013D8000E688D884C6945EA0645483443F8345010
:1013E8008E688D894C6945EA0645483403EBC40488
:1013F8006560CEE7D3F804421443C3F80442CFE74C
:10140800D3F814021043C3F81402D0E7D3F81C121F
:101418000A43C3F81C22CDE738B590F82030DBB278
:10142800012B05D0436A43F400234362012038BDF1
:101438000446022380F820300268136823F0010371
:101448001360FFF771FA054623685B6813F0010F14
:101458000DD0FFF769FA401B0A28F5D9636A43F4EF
:1014680000336362052384F820300120DFE7002081
:101478006062DCE770B490F820400568AD68013C14
:10148800E4B2012C06D9436A43F480234362012065
:1014980070BC704715F0E05F5BD0C5F30165022DA5
:1014A8003ED80124AC401C608B68002B3ED10E68EE
:1014B800CB68046843EA465605F118031B01E65059
:1014C80003680C6905F1180603EB06135C600B7DD5
:1014D800012B36D0D17993791B0443EA0163517902
:1014E80043EA01231479016823432C012144C1F8FC
:1014F8008C31D17893781B0443EA0163517843EA2D
:101508000123117802680B432244C2F8883102682B
:1015180018352D01535943F0010353510020B7E703
:10152800436A43F4000343620120B1E74C6843EA8D
:10153800C403CC680668234305F118042401335119
:10154800BEE7036803EB0613596841F480715960DC
:10155800C0E7436A43F400134362012098E730B4BC
:1015680090F82040013CE4B2012C06D9436A43F4C8
:1015780080234362012030BC704700296FD1046882
:10158800E46814F0030F64D0056801F11B0424011A
:101598002C5904F004049460002C6BD1056801F107
:1015A8001B0424012C59640D1460056801F11B0407
:1015B80024012D5905F00205D560056825446D689C
:1015C80005F00F051561056825446D68C5F3072505
:1015D800956105682C446468240C546104680A0108
:1015E8001444D4F8B8411C7004681444D4F8B841C1
:1015F800C4F307245C7004681444D4F8B841C4F3F5
:1016080007449C7004681444D4F8B841240EDC7074
:1016180004681444D4F8BC411C7104681444D4F818
:10162800BC41C4F307245C7104681444D4F8BC4179
:10163800C4F307449C7104682244D2F8BC21120EFA
:10164800DA71F9B90268D36843F02003D360002047
:1016580091E7436A43F40013436201208BE704686F
:10166800246914F0030F8FD1436A43F400134362D3
:10167800012080E7056801F11B0424012C59E408C6
:10168800546092E70268136943F020031361002055
:1016980071E790F82030013BDBB2012B05D9436A92
:1016A80043F4802343620120704702685369194359
:1016B8005161002070477047704770477047704706
:1016C80070477047704770477047704770472DE9FB
:1016D800F84F054603685C695F689E68D3F80C900C
:1016E800D3F81080D3F818A014F0010F5AD016F0D0
:1016F800010F17D001229A6016F0020F08D116F0D8
:10170800040F30D116F0080F07D04FF4805B0BE0C0
:10171800FFF7D1FF4FF0000B06E0FFF7CFFF4FF0C8
:10172800000B01E04FF0000B16F4807F0BD02B6804
:101738004FF480729A6016F4007F17D116F4806F08
:1017480018D04BF4005B16F4803F2DD02B684FF473
:1017580080329A6016F4003F16D116F4802F17D005
:101768004BF4004B20E04FF4006BDDE72846FFF711
:10177800A3FFE8E716F4006F02D04BF4804BE2E7D2
:101788002846FFF79CFFDEE72846FFF796FF0BE0A9
:1017980016F4002F02D04BF4803B05E02846FFF7F3
:1017A8008FFF01E04FF0000B14F0080F07D019F07D
:1017B800100F04D04BF4007B2B681022DA6014F071
:1017C800040F02D019F0080F60D114F0020F04D0F2
:1017D8002B68DB6813F0030F5FD114F0400F07D0BC
:1017E80018F0100F04D04BF4806B2B6810221A618C
:1017F80014F0200F02D018F0080F52D114F0100F77
:1018080004D02B681B6913F0030F51D114F4003F67
:1018180002D017F0100F4FD114F4803F02D017F008
:10182800080F50D114F4004F67D017F0040F61D09F
:1018380014F4807F04D01AF0010F01D04BF0010B93
:1018480014F4007F04D01AF0020F01D04BF0020B01
:1018580014F4806F04D01AF0040F01D04BF0040B7D
:1018680014F4006F46D01AF0700A43D0BAF1300F62
:1018780048D02FD9BAF1500F47D0BAF1600F47D0EE
:10188800BAF1400F31D14BF0400B2EE02B68082203
:10189800DA602846FFF715FF97E72846FEF7F0FEBF
:1018A8009BE72B6808221A612846FFF70CFFA5E77B
:1018B8002846FFF707FFA9E72B6810225A60284639
:1018C800FFF702FFA8E72B6808225A602846FFF7AF
:1018D800FCFEA7E7BAF1100F05D0BAF1200F04D12A
:1018E8004BF0100B01E04BF0080B2A68936923F0CA
:1018F800700393612B6804225A60BBF1000F0AD170
:10190800BDE8F88F4BF0200BEFE74BF0800BECE7CE
:101918004BF4807BE9E76B6A43EA0B036B6228466A
:10192800FFF7D4FEECE70000074AD36823F4E0632E
:101938001B041B0C000200F4E060184340F0BF6079
:1019480040F40030D060704700ED00E030B4174B31
:10195800DB68C3F30223C3F10704042C28BF042463
:101968001D1D062D18D9033B4FF0FF3505FA04F469
:1019780021EA0401994005FA03F322EA0303194313
:1019880000280BDB0901C9B200F1604000F5614095
:1019980080F8001330BC70470023E5E700F00F0023
:1019A8000901C9B2024B1954F4E700BF00ED00E089
:1019B80014ED00E0002807DB00F01F0240090123B6
:1019C8009340024A42F82030704700BF00E100E02F
:1019D8000138B0F1807F0AD2064B5860064AF021E0
:1019E80082F823100020986007221A6070470120AF
:1019F800704700BF10E000E000ED00E0704708B558
:101A0800FFF7FCFF08BD0000F0B583B0002336E007
:101A1800032400E00024B4403C430235584E46F805
:101A28002540584C2568D44304EA05064F6817F446
:101A3800803F01D042EA0506524D2E606D6804EAE7
:101A480005064F6817F4003F01D042EA05064D4DE0
:101A58006E60AD6804EA05064F6817F4801F01D070
:101A680042EA0506474DAE60ED682C404E6816F414
:101A7800001F01D042EA0504424AD46001330A68D3
:101A880032FA03F479D001249C402240F6D04D6804
:101A98006E1E012E03D9112D01D0122D12D1866888
:101AA8005F000325BD4026EA0506CD68BD403543E5
:101AB8008560466826EA04064D68C5F300149C4014
:101AC80034434460C5685F000324BC40E4432540B8
:101AD8008E68BE402E43C6604D68022D01D0122D7F
:101AE80013D1DE08083650F826E003F007054FEA60
:101AF800850C0F2505FA0CF52EEA050E0D6905FA79
:101B08000CF545EA0E0540F8265005682C404D684E
:101B180005F00305BD402C4304604C6814F0805F59
:101B2800ACD0194CA56945F00105A561A46904F07C
:101B380001040194019C9D08AE1C114C54F82670B8
:101B480003F00304A6000F24B44027EA0407B0F109
:101B5800904F3FF45FAF0D4CA0420AD004F580646B
:101B6800A04208D004F58064A0423FF451AF052498
:101B780051E701244FE702244DE703B0F0BD00BF51
:101B88000000014000040140001002400004004829
:101B98000AB98162704781617047436901EA0302AB
:101BA80021EA030141EA02418161704708B5054B0A
:101BB8005B69034200D108BD024B5861FEF76AFB1E
:101BC800F9E700BF00040140002800F00D8370B55C
:101BD80082B00446036813F0010F3BD0B54B5B6835
:101BE80003F00C03042B1ED0B24B5B6803F00C030C
:101BF800082B13D06368B3F5803F68D0002B40F002
:101C0800928003F1804303F504331A6822F480328A
:101C18001A601A6822F480221A605DE0A54B5B689E
:101C280013F4803FE6D04FF4003393FAA3F3A14BAB
:101C380019684FF4003393FAA3F3B3FA83F303F06C
:101C48001F03012202FA03F30B4203D06368002B3F
:101C580000F0CC82236813F0020F00F0C680954B89
:101C68005B6813F00C0F00F09C80924B5B6803F0EC
:101C78000C03082B00F08F802369002B00F0F38001
:101C8800012292FAA2F3B3FA83F303F1845303F522
:101C980084139B001A60FEF747FE0546022393FA59
:101CA800A3F3844B1968022393FAA3F3B3FA83F3DB
:101CB80003F01F03012202FA03F30B4240F0C48031
:101CC800FEF732FE401B0228E8D9032095E2794A44
:101CD800136843F480331360764AD36A23F00F0302
:101CE800A1680B43D3626368002B36D0FEF71CFE55
:101CF80005464FF4003393FAA3F36E4B19684FF47B
:101D0800003393FAA3F3B3FA83F303F01F0301221A
:101D180002FA03F30B429DD1FEF706FE401B64282E
:101D2800E7D9032069E2B3F5A02F09D0614B1A68FF
:101D380022F480321A601A6822F480221A60CBE7F3
:101D480003F18043A3F53C331A6842F480221A60F9
:101D58001A6842F480321A60BEE7FEF7E5FD0546D0
:101D68004FF4003393FAA3F3524B19684FF400333E
:101D780093FAA3F3B3FA83F303F01F03012202FAE1
:101D880003F30B423FF466AFFEF7CEFD401B642819
:101D9800E6D9032031E2474B5B6813F4803F7FF4B8
:101DA8006BAF022393FAA3F3424B1968022393FA09
:101DB800A3F3B3FA83F303F01F03012202FA03F338
:101DC8000B4204D02369934201D0012015E239481F
:101DD800036823F0F8036169F82292FAA2F2B2FAD2
:101DE80082F201FA02F213430360236813F0080F2A
:101DF80000F08C80A369002B60D0012191FAA1F238
:101E0800B2FA82F22C4B13449B001960FEF78CFD4A
:101E18000546022393FAA3F293FAA3F293FAA3F2E4
:101E2800244A516A93FAA3F3B3FA83F303F01F0326
:101E3800012202FA03F30B4268D1FEF775FD401B3D
:101E48000228E6D90320D8E11A48036823F0F803EA
:101E58006169F82292FAA2F2B2FA82F201FA02F267
:101E680013430360C1E7012393FAA3F3B3FA83F39F
:101E780003F1845303F584139B0000221A60FEF7D4
:101E880053FD0546022393FAA3F30A4B196802236C
:101E980093FAA3F3B3FA83F303F01F03012202FAC0
:101EA80003F30B42A1D0FEF73FFD401B0228E9D9FE
:101EB8000320A2E10010024020819010012292FA32
:101EC800A2F2B2FA82F2BC4B13449B0000221A60C1
:101ED800FEF72AFD0546022393FAA3F293FAA3F22A
:101EE80093FAA3F2B54A516A93FAA3F3B3FA83F3C8
:101EF80003F01F03012202FA03F30B4206D0FEF798
:101F080013FD401B0228E6D9032076E1236813F06D
:101F1800040F00F0B380A94BDB6913F0805F20D178
:101F2800A64BDA6942F08052DA61DB6903F080532C
:101F38000193019B0125A24B1B6813F4807F12D0EB
:101F4800E368012B23D073BB03F1804303F504330B
:101F58001A6A22F001021A621A6A22F004021A624C
:101F68001AE00025E7E7964A136843F48073136084
:101F7800FEF7DAFC0646924B1B6813F4807FDFD12C
:101F8800FEF7D2FC801B6428F5D9032035E18B4A83
:101F9800136A43F001031362E368002B41D0FEF794
:101FA800C3FC06462BE0052B09D0844B1A6A22F0A5
:101FB80001021A621A6A22F004021A62ECE77F4BE5
:101FC8001A6A42F004021A621A6A42F001021A629C
:101FD800E2E77A4B196A022393FAA3F3B3FA83F37D
:101FE80003F01F03012202FA03F3194245D1FEF759
:101FF8009BFC801B41F28833984200F2F98002234F
:1020080093FAA3F293FAA3F3B3FA83F35B0943F0C9
:102018000203022BDDD0022393FAA3F3674B596A1C
:10202800D9E7FEF781FC064615E0644B196A0223DE
:1020380093FAA3F3B3FA83F303F01F03012202FA1E
:1020480003F3194219D0FEF76FFC801B41F2883365
:10205800984200F2CF80022393FAA3F293FAA3F3F3
:10206800B3FA83F35B0943F00203022BDDD00223AA
:1020780093FAA3F3514B596AD9E7B5BBE369002B2F
:1020880000F0BA804D4A526802F00C02082A00F0AB
:102098009980022B2FD04FF0807393FAA3F3B3FAF1
:1020A80083F303F1845303F584139B0000221A6021
:1020B800FEF73AFC04464FF0007393FAA3F33F4B44
:1020C80019684FF0007393FAA3F3B3FA83F303F09C
:1020D8001F03012202FA03F319426BD0FEF724FC16
:1020E800001B0228E7D9032087E0344AD36923F08C
:1020F8008053D361C2E74FF0807393FAA3F3B3FA26
:1021080083F303F1845303F584139B0000221A60C0
:10211800FEF70AFC05464FF0007393FAA3F3274B2A
:1021280019684FF0007393FAA3F3B3FA83F303F03B
:102138001F03012202FA03F3194206D0FEF7F4FB4B
:10214800401B0228E7D9032057E01C494B6823F4B9
:102158007413626A206A024313434B604FF0807322
:1021680093FAA3F3B3FA83F303F1845303F58413C7
:102178009B0001221A60FEF7D7FB04464FF000735C
:1021880093FAA3F30D4B19684FF0007393FAA3F376
:10219800B3FA83F303F01F03012202FA03F319428F
:1021A80006D1FEF7C1FB001B0228E7D9032024E073
:1021B800002022E0002020E0208190100010024042
:1021C80000700040012B1AD00F4B5B6803F480317C
:1021D800226A914201D001200FE003F47013626A71
:1021E80093420ED0012008E001207047012004E04E
:1021F800032002E0032000E0002002B070BD0120AF
:10220800FBE70020F9E700BF0010024010B4174BAD
:102218005C6804F00C03082B26D104F470124FF408
:10222800701393FAA3F3B3FA83F322FA03F3104972
:10223800C85C0E4BDB6A03F00F030F2292FAA2F27E
:10224800B2FA82F2D3400B441A7C14F4803F05D1D1
:10225800084B03FB00F05DF8044B7047064BB3FBDB
:10226800F2F300FB03F0F6E70348F4E7001002403E
:10227800FC2A000800093D0000127A00002800F03E
:10228800C18070B50446614B1B6803F007038B429D
:102298000CD25E4A136823F007030B4313601368DC
:1022A80003F007038B4201D0012070BD236813F0AF
:1022B800020F06D0564A536823F0F003A068034380
:1022C80053600D46236813F0010F5AD06368012B41
:1022D8002DD0022B40D0022292FAA2F24C4A10686A
:1022E800022292FAA2F2B2FA82F202F01F0201214D
:1022F80001FA02F2104200F0878045494A6822F04C
:10230800030213434B60FEF70FFB0646404B5B6826
:1023180003F00C036268B3EB820F32D0FEF704FBC4
:10232800801B41F288339842F0D90320BDE74FF46F
:10233800003292FAA2F2364A10684FF4003292FA4A
:10234800A2F2B2FA82F202F01F02012101FA02F2AD
:102358000242D2D10120A8E74FF0007292FAA2F20D
:102368002B4A10684FF0007292FAA2F2B2FA82F287
:1023780002F01F02012101FA02F21042BDD1012030
:1023880093E7224B1B6803F00703AB420CD91F4AA3
:10239800136823F007032B431360136803F0070344
:1023A800AB4201D0012080E7236813F0040F06D068
:1023B800174A536823F4E063E1680B4353602368CA
:1023C80013F0080F07D0124A536823F460532169A9
:1023D80043EAC1035360FFF719FF0D4B5B6803F035
:1023E800F003F02292FAA2F2B2FA82F2D340094A3A
:1023F800D35CD840084B1860084B1868FEF752FAAF
:10240800002052E70120704701204EE700200240DB
:1024180000100240E42A0008000000200800002004
:10242800014B1868704700BF0000002008B5FFF78F
:10243800F7FF074B5B6803F4E0634FF4E06292FA3E
:10244800A2F2B2FA82F2D340024AD35CD84008BD65
:1024580000100240F42A000808B5FFF7E1FF074B17
:102468005B6803F460534FF4605292FAA2F2B2FA36
:1024780082F2D340024AD35CD84008BD0010024023
:10248800F42A0008F0B583B00446036813F4803FCB
:1024980044D05F4BDB6913F0805F6ED15C4BDA6927
:1024A80042F08052DA61DB6903F080530193019BAB
:1024B8000125584B1B6813F4807F60D0544B1B6A6E
:1024C80013F4407321D0626802F440729A421CD01F
:1024D8004F48016A21F440764FF4803393FAA3F20F
:1024E800B2FA82F24C4F3A4492004FF0010CC2F813
:1024F80000C093FAA3F3B3FA83F33B449B00002292
:102508001A60066211F0010F4DD1414A136A23F493
:10251800407361680B431362002D6FD1236813F079
:10252800010F06D03A4A136B23F00303A1680B434B
:102538001363236813F0200F06D0354A136B23F07A
:102548001003E1680B431363236813F0800F06D070
:102558002F4AD36A23F4F87321690B43D3622368A3
:1025680013F4805F51D02A4A136B23F48073616996
:102578000B431363002003B0F0BD002599E7254AFB
:10258800136843F480731360FEF7CEF90646214BB7
:102598001B6813F4807F91D1FEF7C6F9801B64286D
:1025A800F5D90320E7E7FEF7BFF9064614E0184B14
:1025B800196A022393FAA3F3B3FA83F303F01F0310
:1025C800012202FA03F30B429FD1FEF7ADF9801BFB
:1025D80041F28833984216D8022393FAA3F293FA69
:1025E800A3F3B3FA83F35B0943F00203022BDED0B3
:1025F800022393FAA3F3064B596ADAE7D36923F067
:102608008053D3618AE70320B5E70020B3E700BF12
:1026180000100240007000400081901010B5044680
:1026280083680269134342691343C269134301680B
:1026380008686C4A024013430B602268536823F40D
:102648004053E1680B435360A269236A1A43216827
:102658008B6823F4306313438B602368624A934288
:1026680015D0624A934228D002F58062934220D066
:102678001023E269B2F5004F21D0082B00F2AB809D
:10268800DFE803F06C818BA996A9A9A9A000584B93
:102698001B6B03F00303032B09D8DFE803F00204E4
:1026A800060C0023E5E70423E3E70823E1E710230A
:1026B800DFE70023DDE70223DBE70023D9E7082B68
:1026C80049D8DFE803F0051E2948344848483F0048
:1026D800FFF7ACFE6268530803EB4003B3FBF2F369
:1026E8009BB20020A3F110014FF6EF72914275D80A
:1026F8009AB222F00F02C3F3420313432268D36055
:102708003DE0FFF7A9FE6268530803EB4003B3FB03
:10271800F2F39BB20020E5E76268530803F57403FF
:1027280003F51053B3FBF2F39BB20020DAE7FFF78F
:102738006DFD6268530803EB4003B3FBF2F39BB2F1
:102748000020CFE76268530803F58033B3FBF2F348
:102758009BB20020C6E701200023C3E7FFF766FE0F
:10276800626800EB5203B3FBF2F39BB20020A3F1C3
:1027780010014FF6EF72914232D82268D3600023DD
:102788002366636610BDFFF767FE626800EB5203BD
:10279800B3FBF2F39BB20020E9E76268530803F544
:1027A800F40303F59053B3FBF2F39BB20020DEE78A
:1027B800FFF72CFD626800EB5203B3FBF2F39BB208
:1027C8000020D4E76268530803F50043B3FBF2F333
:1027D8009BB20020CBE701200023C8E70120CEE709
:1027E8000120CCE7F369FFEF0038014000440040C6
:1027F80000100240436A13F0010F06D002685368C4
:1028080023F40033816A0B435360436A13F0020FC9
:1028180006D00268536823F48033C16A0B435360BF
:10282800436A13F0040F06D00268536823F4802328
:10283800016B0B435360436A13F0080F06D002681C
:10284800536823F40043416B0B435360436A13F00E
:10285800100F06D00268936823F48053816B0B43F2
:102868009360436A13F0200F06D00268936823F43C
:102878000053C16B0B439360436A13F0400F0AD0B7
:102888000268536823F48013016C0B435360036C94
:10289800B3F5801F0BD0436A13F0800F06D002688F
:1028A800536823F40023816C0B435360704702681C
:1028B800536823F4C003416C0B435360EBE72DE9E5
:1028C800F04104460F4616469846069D2368DB6984
:1028D80037EA03030CBF01230023B3423AD1B5F111
:1028E800FF3FF3D0FEF720F8A0EB0800A8421FD85E
:1028F800F5B123681A6812F0040FE7D0DA6912F408
:10290800006FE3D04FF400621A622268136823F460
:10291800D07313602268936823F001039360202327
:102928006367A367E367002384F87030032012E02D
:102938002268136823F4D07313602268936823F025
:102948000103936020236367A367002384F8703032
:10295800032000E00020BDE8F08130B583B00446D4
:102968000023C367FDF7E0FF054623681B6813F0E3
:10297800080F0CD123681B6813F0040F15D120230E
:102988006367A367002084F8700003B030BD6FF060
:102998007E430093034600224FF400112046FFF7C0
:1029A8008EFF0028E6D00320EFE76FF07E43009308
:1029B8002B4600224FF480012046FFF780FF0028B5
:1029C800DDD00320E1E768B310B50446436F03B3D5
:1029D800242363672268136823F0010313602046E9
:1029E800FFF71CFE012813D0636ABBB9226853683D
:1029F80023F4904353602268936823F02A0393607A
:102A08002268136843F0010313602046FFF7A5FF0F
:102A180010BD80F87030FDF703FFD9E72046FFF7B7
:102A2800E9FEE3E701207047DFF834D0002103E036
:102A38000C4B5B58435004310B480C4B42189A42DC
:102A4800F6D30B4A02E0002342F8043B094B9A42B2
:102A5800F9D3FDF719FF00F011F8FDF76BFDFEE75C
:102A680000300020242B0008000000200C0000206B
:102A78000C00002094020020FEE7000070B50D4E07
:102A88000D4CA41BA4100025A54209D10B4E0C4CDB
:102A980000F018F8A41BA4100025A54205D170BDAC
:102AA80056F8253098470135EEE756F8253098470F
:102AB8000135F2E71C2B00081C2B00081C2B000812
:102AC800202B0008F8B500BFF8BC08BC9E4670472C
:0C2AD800F8B500BFF8BC08BC9E46704773
:102AE40000000000000000000102030406070809BA
:102AF400000000000102030402030405060708099C
:102B04000A0B0C0D0E0F1010010203040506070832
:082B1400090A0B0C0D0E0F1055
:042B1C00AD010008FF
:042B2000890100081F
:0C2B240000127A00010000001000000008
:0400000508002A3194
:00000001FF
