:020000040800F2
:1000000000300020C91C0008191D0008191D000837
:10001000191D0008191D0008191D00080000000026
:10002000000000000000000000000000191D000892
:10003000191D000800000000191D00081D16000809
:10004000191D0008191D0008191D0008191D0008B8
:10005000191D0008191D0008191D0008191D0008A8
:10006000191D0008191D0008191D0008191D000898
:10007000191D0008191D0008191D0008191D000888
:10008000191D0008191D0008191D0008291600086F
:1000900039160008191D000849160008191D000826
:1000A000191D0008191D0008191D0008191D000858
:1000B000191D0008191D000800000000191D000886
:1000C000191D00080000000000000000191D0008B4
:1000D00000000000191D0008191D0008191D000866
:1000E000191D0008191D0008000000000000000094
:1000F0000000000000000000000000000000000000
:1001000000000000000000000000000000000000EF
:100110000000000000000000191D0008191D000863
:1001200000000000000000000000000000000000CF
:1001300000000000000000000000000000000000BF
:10014000191D0008191D0008000000000000000033
:10015000000000000000000000000000000000009F
:10016000000000000000000000000000000000008F
:10017000000000000000000000000000000000007F
:0801800000000000191D000839
:1001880010B5054C237833B9044B13B10448AFF3C9
:1001980000800123237010BD0C0000200000000027
:1001A800641D000808B5034B1BB103490348AFF3AE
:1001B800008008BD0000000010000020641D000839
:1001C80010B504460E4B18784FF47A73B3FBF0F36E
:1001D8000C4A1068B0FBF3F000F03AFC68B90F2C39
:1001E80001D901200AE0002221464FF0FF3000F03B
:1001F800EDFB034B5C60002000E0012010BD00BF58
:10020800000000200800002008B5074A136843F0E2
:1002180010031360032000F0C7FB0020FFF7D0FF96
:1002280001F0B4FC002008BD00200240034A116818
:10023800034B1B780B441360704700BF80000020FD
:1002480000000020014B1868704700BF80000020A4
:10025800002800F0A18038B5044690F82030D3B1CA
:100268002268136823F002031360FFF7EBFF0546CB
:1002780023685A6812F0020F10D0FFF7E3FF401B03
:100288000A28F5D9636A43F400336362052384F8C6
:100298002030012038BD01F0AFFCE1E71A6842F0D8
:1002A80001021A60FFF7CEFF054623685A6812F06C
:1002B800010F0DD1FFF7C6FF401B0A28F5D9636A65
:1002C80043F400336362052384F820300120E1E71A
:1002D800227E012A3DD01A6822F080021A60637ECD
:1002E800012B3BD02268136823F040031360A37EE0
:1002F800012B39D02268136823F020031360E37EB2
:10030800012B37D02268136843F010031360237F52
:10031800012B35D02268136823F008031360637F2C
:10032800012B33D02268136823F004031360A368F9
:10033800E268134322691343626913436268013A0E
:1003480021681343CB6100206062012384F82030C8
:10035800A0E71A6842F080021A60C0E722681368B2
:1003680043F040031360C2E72268136843F0200398
:100378001360C4E72268136823F010031360C6E70C
:100388002268136843F008031360C8E722681368FB
:1003980043F004031360CAE701207047036890F82C
:1003A8002020013AD2B2012A05D9436A43F48023B6
:1003B80043620120704770B4D3F8002242F0010272
:1003C800C3F800224A6902F01F02012000FA02F273
:1003D800D3F81C42D0430440C3F81C42CC69ACB9E2
:1003E800D3F80C420440C3F80C42CE688D884C699F
:1003F80045EA0645483443F834508E680D884C6900
:1004080045EA0645483403EBC4046560CC69012C11
:1004180019D08C6974BBD3F804420440C3F8044271
:100428000C696CBBD3F814422040C3F81402096A63
:1004380001292BD0D3F8002222F00102C3F80022B0
:10044800002070BC7047D3F80C421443C3F80C4228
:100458000E688D884C6945EA0645483443F834509F
:100468008E688D894C6945EA0645483403EBC40417
:100478006560CEE7D3F804421443C3F80442CFE7DB
:10048800D3F814021043C3F81402D0E7D3F81C12AF
:100498000A43C3F81C22CDE738B590F82030DBB208
:1004A800012B05D0436A43F400234362012038BD81
:1004B8000446022380F820300268136823F0010301
:1004C8001360FFF7BFFE054623685B6813F0010F52
:1004D8000DD0FFF7B7FE401B0A28F5D9636A43F42D
:1004E80000336362052384F820300120DFE7002011
:1004F8006062DCE770B490F820400568AD68013CA4
:10050800E4B2012C06D9436A43F4802343620120F4
:1005180070BC704715F0E05F5BD0C5F30165022D34
:100528003ED80124AC401C608B68002B3ED10E687D
:10053800CB68046843EA465605F118031B01E650E8
:1005480003680C6905F1180603EB06135C600B7D64
:10055800012B36D0D17993791B0443EA0163517991
:1005680043EA01231479016823432C012144C1F88B
:100578008C31D17893781B0443EA0163517843EABC
:100588000123117802680B432244C2F888310268BB
:1005980018352D01535943F0010353510020B7E793
:1005A800436A43F4000343620120B1E74C6843EA1D
:1005B800C403CC680668234305F1180424013351A9
:1005C800BEE7036803EB0613596841F4807159606C
:1005D800C0E7436A43F400134362012098E730B44C
:1005E80090F82040013CE4B2012C06D9436A43F458
:1005F80080234362012030BC704700296FD1046812
:10060800E46814F0030F64D0056801F11B042401A9
:100618002C5904F004049460002C6BD1056801F196
:100628001B0424012C59640D1460056801F11B0496
:1006380024012D5905F00205D560056825446D682B
:1006480005F00F051561056825446D68C5F3072594
:10065800956105682C446468240C546104680A0197
:100668001444D4F8B8411C7004681444D4F8B84150
:10067800C4F307245C7004681444D4F8B841C4F384
:1006880007449C7004681444D4F8B841240EDC7004
:1006980004681444D4F8BC411C7104681444D4F8A8
:1006A800BC41C4F307245C7104681444D4F8BC4109
:1006B800C4F307449C7104682244D2F8BC21120E8A
:1006C800DA71F9B90268D36843F02003D3600020D7
:1006D80091E7436A43F40013436201208BE70468FF
:1006E800246914F0030F8FD1436A43F40013436263
:1006F800012080E7056801F11B0424012C59E40856
:10070800546092E70268136943F0200313610020E4
:1007180071E790F82030013BDBB2012B05D9436A21
:1007280043F48023436201207047026853691943E8
:100738005161002070477047704770477047704795
:1007480070477047704770477047704770472DE98A
:10075800F84F054603685C695F689E68D3F80C909B
:10076800D3F81080D3F818A014F0010F5AD016F05F
:10077800010F17D001229A6016F0020F08D116F067
:10078800040F30D116F0080F07D04FF4805B0BE050
:10079800FFF7D1FF4FF0000B06E0FFF7CFFF4FF058
:1007A800000B01E04FF0000B16F4807F0BD02B6894
:1007B8004FF480729A6016F4007F17D116F4806F98
:1007C80018D04BF4005B16F4803F2DD02B684FF403
:1007D80080329A6016F4003F16D116F4802F17D095
:1007E8004BF4004B20E04FF4006BDDE72846FFF7A1
:1007F800A3FFE8E716F4006F02D04BF4804BE2E762
:100808002846FFF79CFFDEE72846FFF796FF0BE038
:1008180016F4002F02D04BF4803B05E02846FFF782
:100828008FFF01E04FF0000B14F0080F07D019F00C
:10083800100F04D04BF4007B2B681022DA6014F000
:10084800040F02D019F0080F60D114F0020F04D081
:100858002B68DB6813F0030F5FD114F0400F07D04B
:1008680018F0100F04D04BF4806B2B6810221A611B
:1008780014F0200F02D018F0080F52D114F0100F06
:1008880004D02B681B6913F0030F51D114F4003FF7
:1008980002D017F0100F4FD114F4803F02D017F098
:1008A800080F50D114F4004F67D017F0040F61D02F
:1008B80014F4807F04D01AF0010F01D04BF0010B23
:1008C80014F4007F04D01AF0020F01D04BF0020B91
:1008D80014F4806F04D01AF0040F01D04BF0040B0D
:1008E80014F4006F46D01AF0700A43D0BAF1300FF2
:1008F80048D02FD9BAF1500F47D0BAF1600F47D07E
:10090800BAF1400F31D14BF0400B2EE02B68082292
:10091800DA602846FFF715FF97E7284601F0D4F874
:100928009BE72B6808221A612846FFF70CFFA5E70A
:100938002846FFF707FFA9E72B6810225A602846C8
:10094800FFF702FFA8E72B6808225A602846FFF73E
:10095800FCFEA7E7BAF1100F05D0BAF1200F04D1B9
:100968004BF0100B01E04BF0080B2A68936923F059
:10097800700393612B6804225A60BBF1000F0AD1FF
:10098800BDE8F88F4BF0200BEFE74BF0800BECE75E
:100998004BF4807BE9E76B6A43EA0B036B622846FA
:1009A800FFF7D4FEECE70000074AD36823F4E063BE
:1009B8001B041B0C000200F4E060184340F0BF6009
:1009C80040F40030D060704700ED00E030B4174BC1
:1009D800DB68C3F30223C3F10704042C28BF0424F3
:1009E8001D1D062D18D9033B4FF0FF3505FA04F4F9
:1009F80021EA0401994005FA03F322EA03031943A3
:100A080000280BDB0901C9B200F1604000F5614024
:100A180080F8001330BC70470023E5E700F00F00B2
:100A28000901C9B2024B1954F4E700BF00ED00E018
:100A380014ED00E0002807DB00F01F024009012345
:100A48009340024A42F82030704700BF00E100E0BE
:100A58000138B0F1807F0AD2064B5860064AF0216F
:100A680082F823100020986007221A60704701203E
:100A7800704700BF10E000E000ED00E0704708B5E7
:100A8800FFF7FCFF08BD0000F0B583B0002336E097
:100A9800032400E00024B4403C430235584E46F895
:100AA8002540584C2568D44304EA05064F6817F4D6
:100AB800803F01D042EA0506524D2E606D6804EA77
:100AC80005064F6817F4003F01D042EA05064D4D70
:100AD8006E60AD6804EA05064F6817F4801F01D000
:100AE80042EA0506474DAE60ED682C404E6816F4A4
:100AF800001F01D042EA0504424AD46001330A6863
:100B080032FA03F479D001249C402240F6D04D6893
:100B18006E1E012E03D9112D01D0122D12D1866817
:100B28005F000325BD4026EA0506CD68BD40354374
:100B38008560466826EA04064D68C5F300149C40A3
:100B480034434460C5685F000324BC40E443254047
:100B58008E68BE402E43C6604D68022D01D0122D0E
:100B680013D1DE08083650F826E003F007054FEAEF
:100B7800850C0F2505FA0CF52EEA050E0D6905FA08
:100B88000CF545EA0E0540F8265005682C404D68DE
:100B980005F00305BD402C4304604C6814F0805FE9
:100BA800ACD0194CA56945F00105A561A46904F00C
:100BB80001040194019C9D08AE1C114C54F8267048
:100BC80003F00304A6000F24B44027EA0407B0F199
:100BD800904F3FF45FAF0D4CA0420AD004F58064FB
:100BE800A04208D004F58064A0423FF451AF052428
:100BF80051E701244FE702244DE703B0F0BD00BFE1
:100C080000000140000401400010024000040048B8
:100C1800436901EA030221EA030141EA02418161D1
:100C280070470000002800F00D8370B582B00446BC
:100C3800036813F0010F3BD0B54B5B6803F00C035E
:100C4800042B1ED0B24B5B6803F00C03082B13D0A7
:100C58006368B3F5803F68D0002B40F0928003F1C1
:100C6800804303F504331A6822F480321A601A6844
:100C780022F480221A605DE0A54B5B6813F4803F84
:100C8800E6D04FF4003393FAA3F3A14B19684FF45D
:100C9800003393FAA3F3B3FA83F303F01F0301229B
:100CA80002FA03F30B4203D06368002B00F0CC82F6
:100CB800236813F0020F00F0C680954B5B6813F0B1
:100CC8000C0F00F09C80924B5B6803F00C03082B20
:100CD80000F08F802369002B00F0F380012292FA44
:100CE800A2F3B3FA83F303F1845303F584139B004F
:100CF8001A60FFF7A7FA0546022393FAA3F3844B79
:100D08001968022393FAA3F3B3FA83F303F01F03DA
:100D1800012202FA03F30B4240F0C480FFF792FA73
:100D2800401B0228E8D9032095E2794A136843F466
:100D380080331360764AD36A23F00F03A1680B430C
:100D4800D3626368002B36D0FFF77CFA05464FF470
:100D5800003393FAA3F36E4B19684FF4003393FAF8
:100D6800A3F3B3FA83F303F01F03012202FA03F398
:100D78000B429DD1FFF766FA401B6428E7D9032090
:100D880069E2B3F5A02F09D0614B1A6822F48032CA
:100D98001A601A6822F480221A60CBE703F18043B4
:100DA800A3F53C331A6842F480221A601A6842F4A8
:100DB80080321A60BEE7FFF745FA05464FF4003364
:100DC80093FAA3F3524B19684FF4003393FAA3F341
:100DD800B3FA83F303F01F03012202FA03F30B4271
:100DE8003FF466AFFFF72EFA401B6428E6D90320CC
:100DF80031E2474B5B6813F4803F7FF46BAF02230B
:100E080093FAA3F3424B1968022393FAA3F3B3FAB4
:100E180083F303F01F03012202FA03F30B4204D009
:100E28002369934201D0012015E23948036823F071
:100E3800F8036169F82292FAA2F2B2FA82F201FA90
:100E480002F213430360236813F0080F00F08C804C
:100E5800A369002B60D0012191FAA1F2B2FA82F2C3
:100E68002C4B13449B001960FFF7ECF9054602234D
:100E780093FAA3F293FAA3F293FAA3F2244A516ADB
:100E880093FAA3F3B3FA83F303F01F03012202FAE0
:100E980003F30B4268D1FFF7D5F9401B0228E6D9C6
:100EA8000320D8E11A48036823F0F8036169F8229F
:100EB80092FAA2F2B2FA82F201FA02F21343036042
:100EC800C1E7012393FAA3F3B3FA83F303F184533D
:100ED80003F584139B0000221A60FFF7B3F9054657
:100EE800022393FAA3F30A4B1968022393FAA3F394
:100EF800B3FA83F303F01F03012202FA03F30B4250
:100F0800A1D0FFF79FF9401B0228E9D90320A2E1ED
:100F18000010024020819010012292FAA2F2B2FA47
:100F280082F2BC4B13449B0000221A60FFF78AF937
:100F38000546022393FAA3F293FAA3F293FAA3F2D3
:100F4800B54A516A93FAA3F3B3FA83F303F01F0384
:100F5800012202FA03F30B4206D0FFF773F9401B94
:100F68000228E6D9032076E1236813F0040F00F085
:100F7800B380A94BDB6913F0805F20D1A64BDA69F7
:100F880042F08052DA61DB6903F080530193019BE0
:100F98000125A24B1B6813F4807F12D0E368012B54
:100FA80023D073BB03F1804303F504331A6A22F09C
:100FB80001021A621A6A22F004021A621AE0002573
:100FC800E7E7964A136843F480731360FFF73AF92A
:100FD8000646924B1B6813F4807FDFD1FFF732F986
:100FE800801B6428F5D9032035E18B4A136A43F046
:100FF80001031362E368002B41D0FFF723F906468B
:101008002BE0052B09D0844B1A6A22F001021A62E0
:101018001A6A22F004021A62ECE77F4B1A6A42F05D
:1010280004021A621A6A42F001021A62E2E77A4B73
:10103800196A022393FAA3F3B3FA83F303F01F03A5
:10104800012202FA03F3194245D1FFF7FBF8801B8E
:1010580041F28833984200F2F980022393FAA3F20E
:1010680093FAA3F3B3FA83F35B0943F00203022B69
:10107800DDD0022393FAA3F3674B596AD9E7FFF748
:10108800E1F8064615E0644B196A022393FAA3F3C4
:10109800B3FA83F303F01F03012202FA03F31942A0
:1010A80019D0FFF7CFF8801B41F28833984200F23D
:1010B800CF80022393FAA3F293FAA3F3B3FA83F34C
:1010C8005B0943F00203022BDDD0022393FAA3F35A
:1010D800514B596AD9E7B5BBE369002B00F0BA80D8
:1010E8004D4A526802F00C02082A00F09980022B3F
:1010F8002FD04FF0807393FAA3F3B3FA83F303F17D
:10110800845303F584139B0000221A60FFF79AF8B2
:1011180004464FF0007393FAA3F33F4B19684FF05E
:10112800007393FAA3F3B3FA83F303F01F030122C6
:1011380002FA03F319426BD0FFF784F8001B022868
:10114800E7D9032087E0344AD36923F08053D36179
:10115800C2E74FF0807393FAA3F3B3FA83F303F172
:10116800845303F584139B0000221A60FFF76AF882
:1011780005464FF0007393FAA3F3274B19684FF015
:10118800007393FAA3F3B3FA83F303F01F03012266
:1011980002FA03F3194206D0FFF754F8401B02285D
:1011A800E7D9032057E01C494B6823F47413626A9B
:1011B800206A024313434B604FF0807393FAA3F302
:1011C800B3FA83F303F1845303F584139B000122DC
:1011D8001A60FFF737F804464FF0007393FAA3F349
:1011E8000D4B19684FF0007393FAA3F3B3FA83F326
:1011F80003F01F03012202FA03F3194206D1FFF795
:1012080021F8001B0228E7D9032024E0002022E06F
:10121800002020E020819010001002400070004063
:10122800012B1AD00F4B5B6803F48031226A91427C
:1012380001D001200FE003F47013626A93420ED0CC
:10124800012008E001207047012004E0032002E0AB
:10125800032000E0002002B070BD0120FBE7002061
:10126800F9E700BF0010024010B4174B5C6804F0A7
:101278000C03082B26D104F470124FF4701393FA60
:10128800A3F3B3FA83F322FA03F31049C85C0E4BB5
:10129800DB6A03F00F030F2292FAA2F2B2FA82F28B
:1012A800D3400B441A7C14F4803F05D1084B03FB50
:1012B80000F05DF8044B7047064BB3FBF2F300FBFC
:1012C80003F0F6E70348F4E7001002407C1D00082D
:1012D80000093D0000127A00002800F0C18070B5B6
:1012E8000446614B1B6803F007038B420CD25E4A2D
:1012F800136823F007030B431360136803F0070315
:101308008B4201D0012070BD236813F0020F06D074
:10131800564A536823F0F003A068034353600D4610
:10132800236813F0010F5AD06368012B2DD0022BCC
:1013380040D0022292FAA2F24C4A1068022292FA93
:10134800A2F2B2FA82F202F01F02012101FA02F2BD
:10135800104200F0878045494A6822F0030213438F
:101368004B60FEF76FFF0646404B5B6803F00C03CB
:101378006268B3EB820F32D0FEF764FF801B41F244
:1013880088339842F0D90320BDE74FF4003292FA2F
:10139800A2F2364A10684FF4003292FAA2F2B2FA78
:1013A80082F202F01F02012101FA02F20242D2D1B6
:1013B8000120A8E74FF0007292FAA2F22B4A1068B7
:1013C8004FF0007292FAA2F2B2FA82F202F01F0211
:1013D800012101FA02F21042BDD1012093E7224B0C
:1013E8001B6803F00703AB420CD91F4A136823F0AC
:1013F80007032B431360136803F00703AB4201D0C4
:10140800012080E7236813F0040F06D0174A5368B9
:1014180023F4E063E1680B435360236813F0080F7B
:1014280007D0124A536823F46053216943EAC10381
:101438005360FFF719FF0D4B5B6803F0F003F022D0
:1014480092FAA2F2B2FA82F2D340094AD35CD840A7
:10145800084B1860084B1868FEF7B2FE002052E7E8
:101468000120704701204EE7002002400010024092
:101478009C1D00080800002004000020F0B583B07F
:101488000446036813F4803F44D05F4BDB6913F0D4
:10149800805F6ED15C4BDA6942F08052DA61DB69B9
:1014A80003F080530193019B0125584B1B6813F4EB
:1014B800807F60D0544B1B6A13F4407321D062685C
:1014C80002F440729A421CD04F48016A21F44076D7
:1014D8004FF4803393FAA3F2B2FA82F24C4F3A44B3
:1014E80092004FF0010CC2F800C093FAA3F3B3FACC
:1014F80083F33B449B0000221A60066211F0010F3F
:101508004DD1414A136A23F4407361680B43136257
:10151800002D6FD1236813F0010F06D03A4A136BE0
:1015280023F00303A1680B431363236813F0200F10
:1015380006D0354A136B23F01003E1680B4313639D
:10154800236813F0800F06D02F4AD36A23F4F87368
:1015580021690B43D362236813F4805F51D02A4A70
:10156800136B23F4807361690B431363002003B08A
:10157800F0BD002599E7254A136843F4807313608A
:10158800FEF760FE0646214B1B6813F4807F91D15D
:10159800FEF758FE801B6428F5D90320E7E7FEF71D
:1015A80051FE064614E0184B196A022393FAA3F376
:1015B800B3FA83F303F01F03012202FA03F30B4289
:1015C8009FD1FEF73FFE801B41F28833984216D820
:1015D800022393FAA3F293FAA3F3B3FA83F35B0912
:1015E80043F00203022BDED0022393FAA3F3064B47
:1015F800596ADAE7D36923F08053D3618AE7032075
:10160800B5E70020B3E700BF0010024000700040BB
:101618000081901008B5FEF709FEFFF730FA08BD03
:1016280008B50248FFF793F808BD00BF8400002002
:1016380008B50248FFF78BF808BD00BF84000020FA
:1016480008B50248FFF783F808BD00BF84000020F2
:1016580030B589B0214B5A6942F400325A615A694F
:1016680002F400320192019A5A6942F480225A61C6
:101678005B6903F480230293029B082303930125EB
:1016880004950024059403A91548FFF7FDF92023C4
:1016980003930495059403A94FF09040FFF7F4F9DC
:1016A800102303930495059403A94FF09040FFF786
:1016B800EBF9402303930495059403A94FF0904058
:1016C800FFF7E2F9802303930495059403A94FF0EB
:1016D8009040FFF7D9F909B030BD00BF00100240B3
:1016E80000040048FEE7000008B51848022303601C
:1016F8000122026110224261C361002303624FF498
:1017080060134362FFF78EFAC8B910480F2383624B
:101718000221C162002303634FF480624263836342
:101728002830FFF7D9FD60B908488023C3634FF418
:101738008073C3643C30FFF7A1FE20B908BDFFF7F2
:10174800D1FFFFF7CFFFFFF7CDFF00BF2800002034
:10175800F0B58BB00138092828D8DFE810F00A0066
:10176800460064008200A000BE00DC00FA001801F8
:101778003601A64B93F8543003F1010C5FFA8CFC48
:101788009F1CFFB2DE1CF6B21D1DEDB25C1DE4B25B
:10179800991DC9B2DA1DD2B20833DBB2082008900D
:1017A80040F2052004900020069007908DF804C0B0
:1017B8008DF805708DF806608DF807508DF8084093
:1017C8008DF809108DF80A208DF80B3003AB01AAAB
:1017D80004A98F48FEF78EFE002840F014818B4A3A
:1017E800536D083353650BB0F0BD884B93F85430F4
:1017F80003F1010C5FFA8CFC9F1CFFB2DE1CF6B2F1
:101808001D1DEDB25C1DE4B2991DC9B2DA1DD2B23C
:101818000833DBB20820089040F21520049000201D
:1018280006900790C2E7794B93F8543003F1010C06
:101838005FFA8CFC9F1CFFB2DE1CF6B21D1DEDB2D8
:101848005C1DE4B2991DC9B2DA1DD2B20833DBB20D
:101858000820089040F22520049000200690079068
:10186800A4E76A4B93F8543003F1010C5FFA8CFC3F
:101878009F1CFFB2DE1CF6B21D1DEDB25C1DE4B26A
:10188800991DC9B2DA1DD2B20833DBB2082008901C
:1018980040F23520049000200690079086E75B4BC5
:1018A80093F8543003F1010C5FFA8CFC9F1CFFB2D3
:1018B800DE1CF6B21D1DEDB25C1DE4B2991DC9B265
:1018C800DA1DD2B20833DBB20820089040F2452076
:1018D800049000200690079068E74C4B93F854302A
:1018E80003F1010C5FFA8CFC9F1CFFB2DE1CF6B200
:1018F8001D1DEDB25C1DE4B2991DC9B2DA1DD2B24C
:101908000833DBB20820089040F2552004900020EC
:10191800069007904AE73D4B93F8543003F1010CC9
:101928005FFA8CFC9F1CFFB2DE1CF6B21D1DEDB2E7
:101938005C1DE4B2991DC9B2DA1DD2B20833DBB21C
:101948000820089040F26520049000200690079037
:101958002CE72E4B93F8543003F1010C5FFA8CFC02
:101968009F1CFFB2DE1CF6B21D1DEDB25C1DE4B279
:10197800991DC9B2DA1DD2B20833DBB2082008902B
:1019880040F2752004900020069007900EE71F4B48
:1019980093F8543003F1010C5FFA8CFC9F1CFFB2E2
:1019A800DE1CF6B21D1DEDB25C1DE4B2991DC9B274
:1019B800DA1DD2B20833DBB20820089040F2852045
:1019C8000490002006900790F0E6104B93F85430EE
:1019D80003F1010C5FFA8CFC9F1CFFB2DE1CF6B20F
:1019E8001D1DEDB25C1DE4B2991DC9B2DA1DD2B25B
:1019F8000833DBB20820089040F2952004900020BC
:101A080006900790D2E6FFF76DFE00BF2800002081
:101A18008400002000B58BB008AB01AA002129483A
:101A2800FEF7DDFD90B9019BB3F5107F39D00FD9D2
:101A3800B3F51C7F3DD022D8B3F5147F35D0B3F56C
:101A4800187F19D10720FFF783FE15E0FFF74AFE3C
:101A5800B3F5047F1DD009D9B3F5087F1DD0B3F5C0
:101A68000C7F09D10420FFF773FE05E0B3F5007F72
:101A780002D10120FFF76CFE0BB05DF804FBB3F553
:101A8800207F1AD0B3F5247FF6D10A20FFF760FE35
:101A9800F2E70220FFF75CFEEEE70320FFF758FEAF
:101AA800EAE70520FFF754FEE6E70620FFF750FEB9
:101AB800E2E70820FFF74CFEDEE70920FFF748FEC3
:101AC800DAE700BF8400002008B508210248FFF7C4
:101AD8009FF8FFF79FFF08BD0004004808B50D48B0
:101AE8000D4B03600023836001224276C376827621
:101AF80003770376437702224260C3604FF44023A2
:101B080003614FF480134361FEF7A2FB00B908BDDF
:101B1800FFF7E8FD840000200064004000B58BB0AA
:101B28000122089200230493069307920993042242
:101B38000592009301930293039369460448FEF7C4
:101B48002DFC10B90BB05DF804FBFFF7CBFD00BF0F
:101B58008400002008B5FEF757FBFFF7C5FDFFF727
:101B680077FDFFF7BBFFFFF7D9FF0748FEF794FCA7
:101B780008B1FFF7B7FD40F203410348FEF7C9FD7E
:101B880000B9FEE7FFF7AEFD8400002000B583B082
:101B98000320FEF709FF164A536A43F4E023536211
:101BA800002211466FF00B00FEF710FF00221146CD
:101BB8006FF00A00FEF70AFF002211466FF00900D5
:101BC800FEF704FF0B4B9A6942F001029A619A6989
:101BD80002F001020092009ADA6942F08052DA615A
:101BE800DB6903F080530193019B03B05DF804FBAC
:101BF80000ED00E000100240F0B589B0284BDA692A
:101C080042F00072DA61DA6902F000720192019A18
:101C18005A6942F400325A615B6903F40033029353
:101C2800029B4FF400630393022704970024059452
:101C3800032606960925079503A94FF09040FEF75D
:101C480023FF4FF480530393049705940696079552
:101C580003A94FF09040FEF717FF22460F211320EB
:101C6800FEF7B4FE22460F211420FEF7AFFE2246EF
:101C78000F211520FEF7AAFE22460F211620FEF797
:101C8800A5FE1320FEF7D6FE1420FEF7D3FE15207E
:101C9800FEF7D0FE1620FEF7CDFE09B0F0BD00BF5E
:101CA80000100240054BD3F8882042F47002C3F8B4
:101CB80088204FF000629A60704700BF00ED00E096
:101CC800DFF834D0002103E00C4B5B58435004315B
:101CD8000B480C4B42189A42F6D30B4A02E00023F9
:101CE80042F8043B094B9A42F9D3FFF7DBFF00F0B7
:101CF80011F8FFF72FFFFEE700300020BC1D000899
:101D0800000000200C0000200C000020EC00002047
:101D1800FEE7000070B50D4E0D4CA41BA410002565
:101D2800A54209D10B4E0C4C00F018F8A41BA410C6
:101D38000025A54205D170BD56F8253098470135D4
:101D4800EEE756F8253098470135F2E7B41D00084C
:101D5800B41D0008B41D0008B81D0008F8B500BF80
:101D6800F8BC08BC9E467047F8B500BFF8BC08BC74
:041D78009E467047CC
:101D7C0002030405060708090A0B0C0D0E0F1010C0
:101D8C000102030405060708090A0B0C0D0E0F10BF
:101D9C00000000000000000001020304060708090F
:081DAC00000000000102030425
:041DB400AD01000875
:041DB8008901000895
:0C1DBC00010000001000000000127A007E
:0400000508001CC90A
:00000001FF
