:020000040800F2
:10000000000008202D9E0008AD9D0008B19D00084D
:10001000B59D0008B99D0008BD9D000800000000C6
:10002000000000000000000000000000C19D00086A
:10003000C59D000800000000C99D0008CD9D000876
:100040007D9E00087D9E00087D9E00087D9E000824
:100050007D9E00087D9E00087D9E00087D9E000814
:100060007D9E00087D9E00087D9E00087D9E000804
:100070007D9E00087D9E00087D9E00087D9E0008F4
:100080007D9E00087D9E00087D9E00087D9E0008E4
:100090007D9E00087D9E00087D9E00087D9E0008D4
:1000A0007D9E00087D9E00087D9E00087D9E0008C4
:1000B0007D9E00087D9E00087D9E00087D9E0008B4
:1000C0007D9E00087D9E00087D9E00087D9E0008A4
:1000D0007D9E00087D9E00087D9E00087D9E000894
:1000E0007D9E00087D9E00087D9E00087D9E000884
:1000F0007D9E00087D9E00087D9E00087D9E000874
:100100007D9E00087D9E00087D9E00087D9E000863
:100110007D9E00087D9E00087D9E00087D9E000853
:100120007D9E00087D9E00087D9E00087D9E000843
:100130007D9E0008D19D00087D9E00087D9E0008E0
:100140007D9E00087D9E00087D9E00087D9E000823
:100150007D9E00087D9E00087D9E00087D9E000813
:100160007D9E00087D9E00087D9E00087D9E000803
:100170007D9E00087D9E00087D9E00080000000016
:100180007D9E00087D9E00087D9E00087D9E0008E3
:100190007D9E00087D9E00087D9E00087D9E0008D3
:1001A0007D9E00087D9E00087D9E00087D9E0008C3
:1001B0007D9E00087D9E00087D9E00087D9E0008B3
:1001C0007D9E00087D9E0008000000007D9E0008C6
:1001D0007D9E00087D9E00087D9E00087D9E000893
:1001E0007D9E00087D9E00087D9E00087D9E000883
:0801F0007D9E00087D9E0008C1
:1002000010B5054C237833B9044B13B10448AFF350
:1002100000800123237010BD780000200000000042
:1002200050AD000808B5034B1BB103490348AFF3B9
:10023000008008BD000000007C00002050AD0008D8
:1002400053B94AB9002908BF00281CBF4FF0FF313D
:100250004FF0FF3000F072B9ADF1080C6DE904CE3B
:1002600000F006F8DDF804E0DDE9022304B0704791
:100270002DE9F047089E04468846002B4BD18A4260
:10028000154667D9B2FA82F24AB1C2F1200701FAE3
:1002900002F320FA07F7954047EA030894404FEA33
:1002A000154E230CB8FBFEF71FFA85FC0EFB1788D2
:1002B00043EA084307FB0CF1994209D9EB1807F10F
:1002C000FF3080F01B81994240F21881023F2B449D
:1002D0005B1AA4B2B3FBFEF00EFB103344EA0344F6
:1002E00000FB0CFCA44509D92C1900F1FF3380F068
:1002F0000781A44540F2048102382C4440EA0740BB
:10030000A4EB0C0400271EB1D4400023C6E900432F
:100310003946BDE8F0878B4209D9002E00F0EB800A
:100320000027C6E9000138463946BDE8F087B3FA30
:1003300083F7002F47D18B4202D3824200F2FA802A
:10034000841A61EB030301209846002EE0D0C6E931
:100350000048DDE702B9FFDEB2FA82F2002A40F07F
:100360008F80491B4FEA154E1FFA85F80127B1FB14
:10037000FEFC230C0EFB1C1143EA014308FB0CF1AD
:10038000994207D9EB180CF1FF3002D2994200F2E2
:10039000CD808446591AA3B2B1FBFEF00EFB1014B7
:1003A00043EA044408FB00F8A04507D92C1900F1E2
:1003B000FF3302D2A04500F2B6801846A4EB080431
:1003C00040EA0C409FE7C7F1200CBB4022FA0CFE2C
:1003D0004EEA030E01FA07F420FA0CF521FA0CF3A9
:1003E0004FEA1E482543B3FBF8F92C0C08FB1933E0
:1003F0001FFA8EFA44EA034309FB0AF49C4202FA0C
:1004000007F200FA07F10BD91EEB030309F1FF30E5
:1004100080F087809C4240F28480A9F102097344F5
:100420001B1BADB2B3FBF8F008FB103345EA0344E5
:1004300000FB0AFAA24508D91EEB040400F1FF33C1
:100440006BD2A24569D90238744440EA0940A0FB46
:100450000289A4EB0A044C45C2464B4654D351D002
:10046000002E69D0B1EB0A0564EB030404FA0CFC1E
:10047000FD40FC404CEA0505C6E90054002747E76B
:10048000C2F1200320FA03F7954001FA02F021FAA5
:1004900003F34FEA154E3843010CB3FBFEF71FFA86
:1004A00085F80EFB173341EA034107FB08F38B4243
:1004B00004FA02F407D9691807F1FF3C2FD28B42E6
:1004C0002DD9023F2944CB1A81B2B3FBFEF00EFBBB
:1004D000103341EA034100FB08F38B4207D9691846
:1004E00000F1FF3C17D28B4215D902382944C91AB2
:1004F00040EA07473BE73746304609E70746E7E665
:100500001846FBE64145ABD2B8EB020A69EB0E0296
:1005100001381346A4E76046E9E7184695E76746C1
:10052000D1E781467CE702382C4447E7ACF1020C66
:100530002B442FE7384608E73746E9E6704700BF07
:1005400001F0FF01102A2BDB10F0070F08D010F884
:10055000013B013A8B422DD010F0070F42B3F6D188
:10056000F0B441EA012141EA014122F007047FF0A1
:1005700000070023F0E80256083C85EA010586EAF8
:10058000010685FA47F5A3FA87F586FA47F6A5FA34
:1005900087F68EB9EED1F0BC01F0FF0102F0070240
:1005A00032B110F8013B013A83EA010313B1F8D1EB
:1005B0000020704701387047002D06BF35460338CC
:1005C000073815F0010F07D1013015F4807F02BF05
:1005D000013015F4C03F0130F0BC0138704700BF56
:1005E00038B50D4C4FF47A730C49054622780868EB
:1005F000B3FBF2F3B0FBF3F000F01AF908B90F2DDA
:1006000001D9012038BD002229464FF0FF3000F00B
:10061000CDF86560002038BD0000002010000020EB
:1006200008B5032000F0AEF80020FFF7D9FF09F06D
:100630007FFA002008BD00BF034A044B11681B78F5
:100640000B441360704700BF180200200000002018
:10065000014B1868704700BF1802002038B50446E7
:10066000FFF7F6FF0546631C02D0044B1B781C44C1
:10067000FFF7EEFF401BA042FAD338BD0000002078
:1006800000287CD090F8203070B50446002B73D041
:100690002268136823F002031360FFF7D9FF0546B1
:1006A00004E0FFF7D5FF401B0A285CD823685A688E
:1006B0009107F6D41A6842F001021A60FFF7C8FFEA
:1006C000054604E0FFF7C4FF401B0A284BD8236807
:1006D0005A68D207F6D5227E00250126012A1A681B
:1006E0000CBF42F0800222F080021A60627E012A72
:1006F0001A680CBF42F0400222F040021A60A27E4B
:10070000012A1A680CBF42F0200222F020021A606F
:10071000E27E012A1A680CBF22F0100242F0100299
:100720001A60227F012A1A680CBF42F0080222F0E8
:1007300008021A60627F012A1A680CBF42F00402A4
:1007400022F004021A60E168A26860690A43216924
:100750000A4361680243013928460A43DA61656247
:1007600084F8206070BD636A0522012043F40033E1
:10077000636284F8202070BD09F0F2F988E7012057
:10078000704700BF07490002074BCA6800F4E060E9
:1007900010B44FF6FF0422405DF8044B1343184396
:1007A000C860704700ED00E00000FA05174BDB68F9
:1007B000C3F3022330B4C3F107051C1D042D28BF69
:1007C0000425062C18D9033B4FF0FF349C4022EA45
:1007D00004044FF0FF32002802FA05F221EA020178
:1007E00001FA03F242EA04024FEA0212D2B206DB35
:1007F000074B1A5430BC704700242346E9E700F049
:100800000F00044B1A5430BC704700BF00ED00E0ED
:1008100000E400E014ED00E000F01F010123034AB2
:1008200040098B4042F82030704700BF00E100E0F3
:100830000138B0F1807F0DD2074B0022072130B480
:10084000F025064C5860104684F823509A601960D1
:1008500030BC70470120704710E000E000ED00E080
:10086000F8B50446002964D1D0E902310B4343F4C2
:10087000007122680120E5691668324B002D41F2B3
:10088000180503EA06034FF0000643EA010314BF0C
:1008900031464FF480610B4313601768FFF7DEFEAB
:1008A0002368402201201F605A605F68FFF7D6FE70
:1008B00023684FF6417101205F609E60DE609A6997
:1008C0000A4042F080029A619F69FFF7C7FE2368E1
:1008D00001209F61DE61DE69FFF7C0FE2368012011
:1008E0001949DE615A591140184A0A435A515E5952
:1008F000FFF7B4FE23680120154A5E5103F58053CB
:100900001A601D68FFF7AAFE2368A26903F58051EB
:10091000012A0D6005D141F21C010E4A58580243CC
:100920005A5063690C4998880C4A08601B68136028
:10093000F8BD4FF400624FF480434FF49441C0E996
:10094000023296E70F8120FF233FDEF804002002E9
:100950008020C102400001004080024044800240EB
:100960002DE9F04190F84540012C7AD00125022470
:10097000C16280F8455080F84440B3B1C5695C1E3F
:100980000DB3002C55D140F2F45601EB44154FF451
:10099000801706FB04220134AA602F6002F2F45291
:1009A000A342E96005F12005F5D80568002341F26E
:1009B00010020124A9501A4680F8444080F84530BE
:1009C0001046BDE8F081C4B940F2F45601EB44157D
:1009D0004FF4801706FB04222F6001342E68203567
:1009E000A34245F8182C46F4400645F8141C02F2C0
:1009F000F45245F8206CEFD8D7E79C4217464FF4E5
:100A0000801E28BF1C46A0462C460D46C5F800E0B7
:100A100001342E68AC464445AF6046F4400607F208
:100A2000F45745F8206BCCF80C50EFD3A342CBD849
:100A3000BBE79C4216460D464FF4801C28BF1C465F
:100A4000A64600240134AE60C5F800C02F467445A8
:100A500005F1200506F2F456FD60F3D3A34292D8C7
:100A6000A3E702221046BDE8F08100BF2DE9F04166
:100A7000964690F84520012A47D00124022281623F
:100A800080F8454080F84420B3B15D1E22D140F289
:100A9000F45601EB45144FF0004244F2F45706FBC4
:100AA00005E601352260E160AB42C4E9017606F259
:100AB000F45604F12004F4D80568002341F20C0236
:100AC0000124A9501A4680F8444080F84530104669
:100AD000BDE8F0819D4276460C464FF0004C28BFA1
:100AE0001D4644F2F452A84600250135A660C4F81C
:100AF00000C027466260454504F1200406F2F45622
:100B0000FC60F2D3AB42C2D8D6E702221046BDE861
:100B1000F08100BF002800F0888090F844302DE973
:100B2000F04703F0FF0282B00446002B6FD0AE4ABC
:100B30002368516CAD4803F5805341F48041516402
:100B4000526C02F480420192019A426822F400023F
:100B500042604268216A0A4342601A6842F0010218
:100B60001A60FFF775FD054605E0FFF771FD401BB4
:100B7000B0F5FA7F50D8236803F580521268D10788
:100B8000F3D41D6901F034F9994B9A4A25F01C05FC
:100B9000034493424BD9984B984A034493427AD8E2
:100BA00045F00C0521680D6194F84430422B24D0A7
:100BB0004222238A4FF4004084F84420DB020A6971
:100BC0009BB2486102F01C0242F0030213430B6126
:100BD000FFF73EFD064604E023681D6915F0010598
:100BE00028D0FFF735FD801BB0F5803FF4D30122FC
:100BF000002384F8442084F8453020460121FFF783
:100C00002FFE012084F8440002B0BDE8F08780F890
:100C1000452008F0E7FC8AE70320002384F844001D
:100C200084F8453002B0BDE8F0870120704745F0F8
:100C30000805B7E70127FF2084F84470FFF70EFD91
:100C40006368002B36D194F84430422BD5D020680D
:100C50004222238A84F84420A268DB020169E56805
:100C6000520801F01C019BB242EAD50241F0030197
:100C700092B20B4342610361FFF7EAFC054603E0D1
:100C800023681B69DB0773D5FFF7E2FC401BB0F557
:100C9000803FF5D3ABE75A4B5A4A0344934281D97C
:100CA000594B5A4A0344934294BF45F0040545F01A
:100CB000100577E7FFF7CCFCAA4680464FF0820983
:100CC00094F84430822B1ED0216884F84490238A03
:100CD0000A69DB0202F01C029BB242F0410213439C
:100CE0000B61FFF7B5FC064603E023681A69D207DB
:100CF00039D5FFF7ADFC801BB0F5803FF5D384F804
:100D0000447084F845A0FFF7A3FC41F28833A0EBC0
:100D1000080098423CD86E07D2D594F84430422B54
:100D20003FF46BAF21684222238A4FF4805084F84D
:100D300044200A69DB02486102F01C029BB242F0C7
:100D4000030213430B61FFF783FC064604E02368AC
:100D50001B6913F0010327D0FFF77AFC801BB0F565
:100D6000803FF4D343E75D6984F84470ADB2CAE7CD
:100D7000012340F6FF7084F84430FFF76FFC2046F3
:100D80000021FFF76DFD0123002084F8443049E77E
:100D900020460121FFF764FD01220023032084F88F
:100DA000442084F845303DE74FF001091E464FF0DE
:100DB000820A84F84490FFF74BFC804694F8443054
:100DC000822B33D0216884F844A0238A0A69DB028D
:100DD00002F01C029BB242F0410213430B61FFF789
:100DE00037FC074618E000BF0038024000380140D9
:100DF00000D3CEFEBFE1E40040F1E9FD3F787D0184
:100E000000796CFCFF596202001F0AFA7FF0FA02B7
:100E100023681A69D00737D5FFF71AFCC01BB0F555
:100E2000803FF5D384F8449084F84560FFF710FCC8
:100E300041F28833A0EB08009842A9D8A906BDD595
:100E400094F84430822B3FF4D8AE20688221238A64
:100E500040F2014284F844100169DB0201F01C01F8
:100E60009BB20A4313430361FFF7F2FB054604E01C
:100E70002268136913F001030BD0FFF7E9FB401B55
:100E8000B0F5803FF4D3B2E65D6984F84490ADB22A
:100E9000CCE75269012012F0040184F8440018BF25
:100EA0004FF40061920758BF4FF48043E160A360A4
:100EB00065E700BF90F84530012B65D0024602235C
:100EC000012082F8443082F84500002933D0D36AEB
:100ED000F0B41C68002C59DB40F2F450814231D947
:100EE000314DA5FB0145AD0A00FB151040B301359E
:100EF00001F2F4512D4C002040F2F45604FB051190
:100F00006F1EC1F30C011C6824F040541C600028C3
:100F100044D087425E6004D11C68596044F000549C
:100F20001C601C68013044F00044A8421C60DB686F
:100F3000E9D1D36213E082F8440082F8451070478B
:100F4000012DD5D11868C1F30C01DC6840F0405088
:100F500059601860196841F000411960D462136843
:100F600041F214015858400705D5042541F2040008
:100F700000245D501C5000230121184682F84410C3
:100F800082F84530F0BC70470220704712210023E0
:100F900082F8441082F84530F0BC70471C685E60EF
:100FA00044F080541C60BCE70BB002AC0CFAFFFFAD
:100FB000704700BF704700BF704700BF70B503683F
:100FC00041F2140604469D5915F0400523D19A5963
:100FD000D20716D441F214054FF480325A515B59AE
:100FE0001B0400D470BD2046FFF7E6FF21684FF4D4
:100FF000004001220023485184F8442084F8453001
:1010000070BDFFF7D5FF012223689A5184F8442070
:1010100084F84550DEE7FFF7CDFF2368402001212B
:101020000022985184F8441084F84520D2E700BF8C
:1010300090F84430822B33D08B0170B504461546AE
:101040000068822203F4F86384F84420228A43F083
:1010500001030169D20201F01C0192B20B43134358
:101060000361FFF7F5FA064604E02268136913F0FE
:1010700001030DD0FFF7ECFA801BB0F5803FF4D3ED
:1010800001220023032084F8442084F8453070BDF9
:1010900052690121184692B22A6084F8441070BD4A
:1010A0000220704738B590F84430422B30D00446C7
:1010B0008B010068422591B203F4F86384F8445030
:1010C000228A43F003030569D202416105F01C0541
:1010D00092B22B4313430361FFF7BAFA054604E0CB
:1010E00023681B6913F001030DD0FFF7B1FA401B11
:1010F000B0F5803FF4D301220023032084F844207C
:1011000084F8453038BD0122184684F8442038BDA3
:10111000022038BD90F84530012B42D003680222EE
:10112000F0B5002685B080F84420044603960127D8
:101130001A6841F2180584F84570384642F00802F2
:101140001A601B680393FFF789FA039A38462368ED
:101150001A6002961A6842F004021A601B68029331
:10116000FFF77CFA029A384623681A6001965A59AA
:1011700042F480125A515B590193FFF76FFA019ABA
:10118000304623685A515A5942F400525A515A591A
:1011900042F002025A5184F8447084F8456005B068
:1011A000F0BD0220704700BF2DE9F04FDFF82CC2E0
:1011B00083B08E460025DFF82892D1F8008003E046
:1011C0000135102D00F0B6800123AB4008EA030181
:1011D0008B42F5D1DEF8044024F01007022F40F0D6
:1011E000AC80EF0805F0070A4FF00F0BDEF8102077
:1011F00000EB87074FEA8A0A3E6A0BFA0AFB02FAFB
:101200000AF24FEA450A26EA0B064FF0030B324377
:101210000BFA0AFB04F003063A626FEA0B02076856
:1012200006FA0AF617403E4306608668C4F30017C4
:1012300006EA020BDEF80C60AF4006FA0AF646EA50
:101240000B068660466826EA03031F434760C668AC
:10125000E700DEF8083002EA060203FA0AF343EA7E
:101260000203C360ACD5D9F8446025F0030705F04C
:1012700003030F2246F4804607F180479B00C9F81C
:10128000446007F59C37D9F8446002FA03FA06F483
:1012900080460196484E019AB042BA6822EA0A0294
:1012A00020D006F58066B0425ED0444EB04260D099
:1012B000434EB04262D0434EB04264D0424EB04240
:1012C0006BD0424EB0426DD0414EB04260D0414EE4
:1012D000B0426CD0404EB0420CBF09260A2606FA36
:1012E00003F31A43BA60E603DCF800306FEA010248
:1012F00005F1010554BF13400B43A703CCF80030A0
:10130000DCF8043054BF13400B43E602CCF8043041
:10131000DCF8083054BF13400B43A402CCF808306B
:10132000DCF80C3054BF13400B43102DCCF80C30BC
:101330007FF44AAF03B0BDE8F08F4FEA450A0322BD
:10134000D0F800B0013F04EA020602FA0AF2012FC7
:101350006FEA020206FA0AF602EA0B0B46EA0B06ED
:1013600006603FF674AF60E7012606FA03F31A43FE
:10137000B8E7022606FA03F31A43B3E7032606FA90
:1013800003F31A43AEE7042606FA03F31A43A9E768
:10139000072606FA03F31A43A4E7052606FA03F321
:1013A0001A439FE7062606FA03F31A439AE708262C
:1013B00006FA03F31A4395E70000024000080240D2
:1013C000000C0240001002400014024000180240CD
:1013D000001C02400020024000240240003C01406A
:1013E0000038024002B909048161704743695940DD
:1013F00041617047002800F0CE8190F8BD332DE99F
:10140000F04F03F0FF028DB00446002B00F0BE81C8
:1014100003272646206804F1040984F8BD730025DB
:1014200001F0F8FA56F810EBEC464FF0010840F2E4
:10143000071A4FF4837B0FCEACE80F000FCEACE859
:101440000F0096E803008CE803007046CDF82C905E
:1014500099E80E0001F082FA294620684FF481795C
:1014600001F0E0FA4FF4827C40F205104FF48073F3
:1014700040F2011240F2031EA4F874904FF00209EA
:10148000A4F8ACC04FF0040CA4F8C8004FF005005D
:10149000A4F896704FF48471A3870923A4F8582008
:1014A0004FF48572A4F87A9040F20B19A4F890E0FA
:1014B0004FF00B0EA4F8B2C04FF4867CA4F8CE0017
:1014C0000C20A4F8425084F83F50256584F85B5006
:1014D000E56684F87750C4F8885084F89350C4F8CF
:1014E000A45084F8AF50C4F8C050A4F85E80C4E99A
:1014F0001155C4E91855C4E91F55C4E92655C4E976
:101500002D5584F8CB50A4F800A14FF0070AA4F899
:10151000E4B04FF0060BA4F806A14FF0080AA4F8B7
:1015200054214FF00A02A4F8EAB040F20D1BA4F8CF
:101530001C110D21A4F822A14FF4877A84F83831C8
:10154000A4F83E31A4F85A210E22C4F8DC5084F8E5
:10155000E750C4F8F85084F80351C4F80851C4F8AF
:101560000C51C4F8145184F81F51C4F82451C4F824
:101570002851C4F8305184F8398184F83B51C4F8BB
:101580004051C4F84451C4F84C5184F85751C4F840
:101590005C51C4E93455C4E93B55C4F86051A4F822
:1015A00070914FF00209A4F876E1A4F88CC1A4462A
:1015B000A4F89201A4F8A8B14FF0060BA4F8AE115C
:1015C000A4F8C4A14FF0070AA4F8CA21C4F86851CE
:1015D00084F87351C4F87851C4F87C51C4F884512C
:1015E00084F88F51C4F89451C4F89851C4F8A051AC
:1015F00084F8AB51C4F8B051C4F8B451C4F8BC512C
:1016000084F8C751C4F8CC51C4F8D051C4F8D851AB
:10161000A4F8FC5184F8FF51C4F80452C4F80852ED
:10162000C4F81052A4F8188284F81B52C4F820524F
:10163000A4F834924FF00409A4F8C0A24FF0080AAD
:10164000A4F86C924FF00509A4F850726F46C4F8E4
:101650002452C4F82C5284F83752C4F83C52C4F8CF
:101660004052C4F8485284F85352C4F85852C4F84F
:101670005C52C4F8645284F86F52C4F87452C4F8CF
:101680007852C4F88052A4F8889284F88B52C4F837
:101690009052C4F89452C4F89C52A4F8A4B284F8AE
:1016A000A752C4F8AC52C4F8B052C4F8B85284F887
:1016B000C352C4F8C852C4F8CC52C4F8D452A4F8E7
:1016C000DCA2A4F8F8324FF00A03A4F830E3A4F83F
:1016D0001433A4F84C03A4F86813A4F8842384F802
:1016E000DF52C4F8E452C4F8E852C4F8F05284F867
:1016F000FB52C4F80053C4F80453C4F80C5384F8E4
:101700001753C4F81C53C4F82053C4F8285384F862
:101710003353C4F83853C4F83C53C4F8445384F8E2
:101720004F53C4F85453C4F85853C4F8605384F862
:101730006B53C4F87053C4F87453C4F87C5384F8E2
:101740008753C4F88C53C4F890535CF810EBC4F87A
:101750009853BCE80F000FC7BCE80F000FC796E80E
:10176000030087E803000B9B70460ECB01F072F973
:10177000636A84F83850434584F8BD830DD02068EF
:1017800001F05AFA00200DB0BDE8F08F80F8BC23BC
:1017900008F0C4FA3CE601207047204600F002F849
:1017A000EDE700BF03680121084A30B4C0F8F81320
:1017B00004469969002541F0006184F8F0532846F9
:1017C0009961596D0A4330BC5A6570470300001097
:1017D000024A136843F4807313607047007000403E
:1017E0001B4A1C4B116C41F0805130B5116483B021
:1017F000126C1C4602F080520192019A1A6842F45F
:1018000080321A60FEF724FF054605E0FEF720FF50
:10181000401BB0F57A7F17D86368DA03F6D52368E2
:101820000C4D43F400332360FEF712FF044605E03D
:10183000FEF70EFF001BB0F57A7F05D86B689B039F
:10184000F6D5002003B030BD032003B030BD00BF8B
:101850000038024000700040002800F03481036826
:101860002DE9F041DD0782B0044635D5AB498A68E1
:1018700002F00C02042A00F0FE808A6802F00C02DA
:10188000082A00F0F4806368B3F5803F10D0002B85
:1018900000F01B81B3F5A02FA04B1A6800F0628105
:1018A00022F480321A601A6822F480221A6004E05E
:1018B0009A4A136843F480331360FEF7C9FE974DCC
:1018C000064605E0FEF7C4FE801B642800F2EE80A9
:1018D0002B689A03F6D523689F0742D41A0717D5B9
:1018E0006369002B00F0B0808C4B5A6F1D4642F0AC
:1018F00001025A67FEF7ACFE064605E0FEF7A8FEB9
:10190000801B022800F2D2806B6F9B07F6D52368FC
:101910005D076BD5814B1A6CD00000F1ED801A6C1D
:10192000012542F080521A641B6C03F0805301932E
:10193000019B7B4B1A68D10540F1A780A368012B5E
:1019400039D0002B00F0DA80052B744B1A6F00F0B1
:10195000118122F001021A671A6F22F004021A673D
:101960002EE06E4A916811F00C0F62D0916801F080
:101970000C0108295AD0E368002B00F0DF80674B88
:101980001A681D4642F001021A60FEF761FE064623
:1019900005E0FEF75DFE801B022800F287802B68C1
:1019A0009807F6D52B68226923F0F80343EAC203AF
:1019B0002B60236892E7594A136F43F001031367C2
:1019C000FEF746FE554E804641F2883705E0FEF7A9
:1019D0003FFEA0EB0800B84268D8336F9B07F6D5EE
:1019E00025B14E4A136C23F080531364A369CBB125
:1019F0004A4A916801F00C01082921D0022B136892
:101A000000F0C08023F0807314461360FEF720FEC0
:101A1000054604E0FEF71CFE401B022846D823685A
:101A20009B01F7D4002002B0BDE8F0815268560255
:101A3000A1D43A4A126895073CD5E268012A39D008
:101A4000012002B0BDE8F081344B5A6F1D4622F0F0
:101A500001025A67FEF7FCFD064604E0FEF7F8FDBA
:101A6000801B022822D86B6F9F07F7D44FE74A6884
:101A700050027FF508AF294A126891037FF52CAF19
:101A80006268002A7FF428AFDAE71A681E4642F43B
:101A900080721A60FEF7DCFD07463368DA053FF511
:101AA0004DAFFEF7D5FDC01B6428F6D9032002B068
:101AB000BDE8F081194920690A6822F0F80242EA7B
:101AC000C0020A600AE701207047144B1A681D46DD
:101AD00022F480321A601A6822F480221A60FEF71B
:101AE000B7FD064604E0FEF7B3FD801B6428DDD891
:101AF0002B689B03F7D4EEE600251AE7074B41F26B
:101B000088381A6F1E4622F001021A671A6F22F0F7
:101B100004021A67FEF79CFD074608E00038024001
:101B200000700040FEF794FDC01B4045BED8336FE7
:101B30009807F7D4002D3FF459AF52E72C4B1A68A1
:101B40001D4622F001021A60FEF782FD064604E0FF
:101B5000FEF77EFD801B0228A8D82B689907F7D4D2
:101B60002368BBE642F480221A601A6842F480328D
:101B70001A60A2E642F004021A671A6F42F00102EC
:101B80001A671DE723F0807315461360FEF760FDAA
:101B9000064604E0FEF75CFD801B022886D82B6811
:101BA0009901F7D4D4E90732616A1343D4E90A20D2
:101BB00043EA8113216B52080D4C43EA0063013A5A
:101BC00043EA017343EA02436B602B6843F080737E
:101BD0002B60FEF73DFD054605E0FEF739FD401B95
:101BE00002283FF663AF23689A01F6D51AE700BFD3
:101BF0000038024078B15E4A136803F00F038B424D
:101C00000BD2136823F00F030B431360136803F028
:101C10000F038B4201D00120704703682DE9F0418A
:101C20009D0714D55C0704D5524CA26842F4E052DB
:101C3000A2601A0704D54F4CA26842F46042A26029
:101C40004C4C8568A26822F0F0022A43A260DF07AC
:101C500004460D4621D54268464B012A1B6863D0D5
:101C6000022A78D0990728D5424941F288388B68F2
:101C70000E4623F0030313438B60FEF7E9FC07468F
:101C800004E0FEF7E5FCC01B404562D8B36862681B
:101C900003F00C03B3EB820FF3D1354A136803F062
:101CA0000F03AB420CD9136823F00F032B431360CF
:101CB000136803F00F03AB4202D00120BDE8F081AE
:101CC00023685A0706D52B49E0688A6822F4E05257
:101CD00002438A601B0707D5264A2169936823F4CB
:101CE000604343EAC103936022498B6803F00C030D
:101CF000042B1CD0082B2AD14A684B6802F03F0203
:101D0000496813F4800329D11B48C1F38811A1FB52
:101D10000001FEF795FA174B5B68C3F301430133EB
:101D20005B00B0FBF3F303E09E039DD4C5E7134BC8
:101D3000104A0020124C92681249C2F30312A25CAE
:101D4000D3400B60FEF74CFC0020BDE8F0810A4B4D
:101D5000EEE70320B2E7980186D4AEE70748C1F367
:101D600088110023A1FB0001FEF76AFAD3E700BF48
:101D7000003C0240003802400024F40000127A00C7
:101D800090AE000810000020164908B58B6803F0DB
:101D90000C03042B1BD0082B17D14A684B6802F0A8
:101DA0003F02496813F4800313D10F48C1F388112F
:101DB000A1FB0001FEF744FA0A4B5B68C3F3014341
:101DC00001335B00B0FBF3F008BD074808BD0748CE
:101DD00008BD0648C1F388110023A1FB0001FEF7EE
:101DE0002FFAE9E7003802400024F40000127A00DC
:101DF000014B1868704700BF10000020044B054AD3
:101E00009B680549C3F382230868D35CD8407047B8
:101E100000380240A0AE000810000020044B054A24
:101E20009B680549C3F342330868D35CD8407047C8
:101E300000380240A0AE00081000002003682DE921
:101E4000F04313F0010683B004460BD09F4A91681B
:101E500021F400019160466B91683143B6FA86F631
:101E60007609916013F4002510D09849E56BD1F8FC
:101E70008C20B5F5801F22F4401242EA0502C1F819
:101E80008C2000F0D481B5FA85F56D09D90210D502
:101E90008E48216CD0F88C20B1F5800F22F44002DE
:101EA00042EA0102C0F88C2000F0BF81002908BF7F
:101EB000012513F0807F18BF01269A0600F16D817D
:101EC000DA060CD5814AD2F88C1021F08071C2F864
:101ED0008C10D2F88C10A06B0143C2F88C105F04F8
:101EE00008D57A49606ED1F8902022F4403202433E
:101EF000C1F89020180408D57449A06ED1F890203C
:101F000022F440220243C1F89020D90308D56F493A
:101F1000E06ED1F8902022F440120243C1F89020E4
:101F20009A0308D56949206FD1F8902022F4400225
:101F30000243C1F890205F0608D56449606CD1F86F
:101F4000902022F003020243C1F89020180608D521
:101F50005E49A06CD1F8902022F00C020243C1F837
:101F60009020D90508D55949E06CD1F8902022F08D
:101F700030020243C1F890209A0508D55349206DDC
:101F8000D1F8902022F0C0020243C1F890205F05F2
:101F900008D54E49606DD1F8902022F4407202437A
:101FA000C1F89020180508D54849A06DD1F89020B7
:101FB00022F440620243C1F89020D90408D5434975
:101FC000E06DD1F8902022F440520243C1F89020F5
:101FD0009A0408D53D49206ED1F8902022F4404261
:101FE0000243C1F890205F0208D53849A06FD1F8AC
:101FF000902022F080620243C1F8902098020CD514
:102000003249E06FD1F89020B0F1006F22F0006209
:1020100008BF01250243C1F8902013F0080F18BF34
:102020000125590308D52949606FD1F8902022F085
:1020300040720243C1F890201A0209D52349D4F80E
:102040008000D1F8902022F080520243C1F8902005
:102050005F0109D51D49D4F88400D1F8902022F001
:1020600000520243C1F89020180109D51749D4F84D
:102070008800D1F88C2022F000720243C1F88C2035
:10208000D9000BD4B3F1007F16D0F20714D4012D80
:1020900000F0D080002003B0BDE8F0830B49B3F11D
:1020A000007FD4F88C00D1F88C2022F0806242EAC4
:1020B0000002C1F88C20E8D1044B1A681E4622F0B9
:1020C00080621A60FEF7C4FA074606E00038024054
:1020D000FEF7BEFAC01B64285BD833681B01F7D437
:1020E0002368DF0712D5626B82B9D6F88420D6F850
:1020F000847002F44032606807F07067A1683A4368
:1021000042EA801242EA0172C6F884201E0300F1FE
:102110000F81D80204D5226CB2F5800F00F00D813A
:10212000D90111D5A44E6068D6F88420D6F8847001
:1021300002F07062216907F0E0473A4342EA8012F8
:1021400042EA0142C6F884209A010DD523696268EB
:102150001B04D4E9021043EA8213974A43EA00635E
:1021600043EA0173C2F88430934B1A681E4642F06A
:1021700080621A60FEF76CFA074604E0FEF768FA20
:10218000C01B642805D833681B01F7D5012D81D108
:1021900050E0032003B0BDE8F083874A874B116C01
:1021A0001F4641F080511164126C02F0805201927E
:1021B000019A1A6842F480721A60FEF749FA804662
:1021C00005E0FEF745FAA0EB08006428E1D83B687B
:1021D000DB05F6D5784A236B116F03F4407011F4D8
:1021E000407111D081420FD0116F176F21F44071EF
:1021F00047F480371767176F27F480371767116721
:10220000116FCF0700F1C380B0F5407F00F0B180BF
:1022100069498A6822F4F8128A60674AC3F30B039B
:10222000116F0B43136723684AE6012641E6002538
:1022300001262BE6604B1A681D4622F080521A6078
:10224000FEF706FA064604E0FEF702FA801B642851
:102250009FD82B689F00F7D423681D0300F192805C
:10226000D8021DD5226CDAB953496569D1F88820A6
:10227000D1F8886002F44032A06906F0E0463243AB
:1022800042EA851242EA0062C1F88820D1F88C2027
:10229000A06A22F4F852013842EA0022C1F88C20E8
:1022A000990215D5E26FB2F1006F11D1424965690B
:1022B000D1F88820D1F8886002F07062206A06F0B8
:1022C000E046324342EA851242EA0042C1F88820E1
:1022D0001A0719D5384A6569D2F88810D2F88830BB
:1022E00001F07061E06903F440330B4343EA851366
:1022F00043EA0073C2F88830D2F88C30E16A23F4E4
:1023000040330B43C2F88C302B4B1A681C4642F00A
:1023100080521A60FEF79CF9054605E0FEF798F931
:10232000401B64283FF635AF23689B00F6D5B1E625
:10233000E26BB2F5801F7FF4ECAE1F4E6068D6F8FA
:102340008420D6F8847002F44032E16807F0E04758
:102350003A4342EA801242EA0162C6F88420D6F883
:102360008C10626A21F01F01013A0A43C6F88C20E2
:10237000D6E6114812498268194022F4F8120A433D
:1023800082604AE7E26B002A3FF46EAF68E71746C7
:1023900041F28838FEF75CF9814606E0FEF758F90D
:1023A000A0EB090040453FF6F4AE3B6F9907F5D529
:1023B000236B03F4407027E70038024000700040B0
:1023C000FFFCFF0F002865D0F8B590F83D300446BB
:1023D00003F0FF02002B3BD022680220364E374F1D
:1023E000B2F1804FA2EB060684F83D00A2EB07078E
:1023F0001368B6FA86F6B7FA87F74FEA56164FEA29
:1024000057172AD04EBB2E498A4245D001F580612C
:102410008A4241D001F580618A4242D0002F40D1EA
:1024200028498A421ED001F580618A421AD001F5FE
:1024300080618A4216D0A1F598318A4212D001F506
:1024400080618A420ED001F580618A420ED109E096
:1024500080F83C2007F004FCBEE723F07005A0687C
:1024600045EA000323F4407320690343A16923F084
:102470008003E0680B4361681360D062916236B9F3
:102480002FB901230020536184F83D30F8BD636902
:102490001363F6E70120704723F07003A1680B4334
:1024A000E0E7094923F07003A0688A4243EA000389
:1024B000D8D0002FD6D1B3E700000140000401407E
:1024C0000004004000400140000C004090F83C3007
:1024D000012B70B41FD00268114D5368AA42946852
:1024E00014D005F58065AA4210D00E6800258968D1
:1024F00024F0800423F07003214333432E465360BD
:10250000916080F83C50304670BC704723F47003F3
:102510004D682B43E9E70226304670BC704700BF88
:1025200000000140436ADA0710B406D50168846AE6
:102530004A6822F4003222434A609C0706D50168AB
:10254000C46A4A6822F4803222434A60590706D599
:102550000168046B4A6822F4802222434A601A0709
:1025600006D50168446B4A6822F4004222434A605F
:10257000DC0606D50168846B8A6822F48052224307
:102580008A60990606D50168C46B8A6822F40052F5
:1025900022438A605A060AD50168046C4A68B4F579
:1025A000801F22F4801242EA04024A600BD01B060C
:1025B00006D50268816C536823F400230B435360F3
:1025C0005DF8044B70474A68446C22F4C002224311
:1025D0004A60ECE7002800F02981F8B590F86930EE
:1025E000044603F0FF02002B47D023682421206912
:1025F00084F86910A26819680243606921F001013A
:10260000BB4D0243E069196019680243E6680D405A
:10261000A1692A43256A1A6041EA05025968B54D45
:1026200021F44051AB4241EA06015960996821F416
:10263000306142EA01029A6024D0AF4A934243D00B
:10264000AE4A934200F0A280AD4A934245D0AD4AD3
:10265000934200F0B280AC4A934200F03481AB4A1E
:10266000934200F06181AA4A934200F01981B0F5CB
:10267000004F00F06E810120F8BD80F8682007F05F
:1026800017FBB2E7A34AA449D2F8902002F0030254
:102690008A5CB0F5004F2FD0082AECD801A151F880
:1026A00022F000BF8727000821270008A92700087B
:1026B00077260008D3270008772600087726000829
:1026C00077260008D92700089249934AD1F890103C
:1026D00001F00C010A441279DBE702F5F632D2F878
:1026E000902002F0C002402A70D045D9802A58D0EC
:1026F000C02A00F0A580BAE7082A00F22A81DFE8A4
:1027000012F0CC00B000C7002801C4002801280145
:102710002801A200002AAAD1B0F5004F00F0A18044
:10272000FFF77CFBD4E9003100EB5102B2FBF1F280
:1027300092B2DA60626A002A57D15A68002122F404
:1027400090425A609A6822F02A029A601A6842F00F
:1027500001021A60E166FDF77BFF236806461A68EE
:10276000120747D42022002384F86920184684F8F1
:102770006A2084F86830F8BD002A7FF478AFB0F59D
:10278000004F00F08A80FFF739FBCBE702F5F83203
:10279000D2F8902002F03002102A17D0ECD9202A6B
:1027A00070D1B0F5004F73D061685C4A02EB510202
:1027B000B2FBF1F292B2DA60BCE702F5F432D2F881
:1027C000902002F44072B2F5807F31D1B0F5004F15
:1027D0005BD0FFF7D9FAA5E761684A0802F5004225
:1027E000B2FBF1F292B2DA60A4E72046FFF79AFE5C
:1027F0002368A2E74A4FDD6915F40015B2D1FDF751
:1028000027FF801B2368B842F5D91A6820210320CE
:1028100022F4D0721A609A6822F001029A6084F859
:10282000691084F8685084F86A10F8BD0120704778
:10283000A2D9B2F5007FB4D0B2F5407F7FF417AFD4
:10284000B0F5004FC8D161684A0802F58032B2FB8A
:10285000F1F222F00F01C2F3420289B20A43DA60B8
:1028600068E7FFF7DBFAD4E900314A0802EB4000E1
:10287000B0FBF1F020F00F02C0F3420092B210431F
:10288000D86057E7302ADBD0F1E6FFF77DFAEAE7B8
:102890006168244A02EB5102D9E7FFF7AFFAE2E799
:1028A00002F5DE32D2F8902002F44042B2F5804FB9
:1028B0008CD07FF661AFB2F5004F3FF472AFB2F546
:1028C000404FBDD0D3E602F59232D2F8902002F408
:1028D0004062B2F5806F3FF479AF7FF61BAFB2F57F
:1028E000006F3FF45EAFB2F5406FA9D0BFE600BF06
:1028F000F369FFEF00100140004400400048004031
:10290000004C00400050004000140140007800409E
:10291000007C00400038024068AD00080024F4004C
:10292000FEFFFF010048E80102F5E032D2F89020F6
:1029300002F44052B2F5805F3FF448AF7FF61CAF1F
:10294000B2F5005F3FF42DAFB2F5405F3FF478AFD2
:102950008DE600220120DA60F8BD00BF84B030B4FB
:10296000089D03AC012D84E80E0030D1826B274B0B
:1029700022F480320F9982630129C26803EA0203BC
:10298000C360C36823F44013C3603AD0204B01E016
:10299000013B0DD00269002AFADA02691C4B42F0B1
:1029A0000102026101E0013B02D00269D107FAD4C1
:1029B000069B012B07D1836843F00603836083687D
:1029C00043F020038360002030BC04B07047C2682D
:1029D0000F4B42F04002C26001E0013B0DD00269A2
:1029E000002AFADA02690A4B42F00102026101E0B0
:1029F000013B02D00269D207FAD44FF480338363DB
:102A0000D6E7C36843F48013C360BFE7BFFFBDFFD1
:102A1000400D030002460020936823F001039360F9
:102A2000704700BF08B5C368012923F0C043C360E5
:102A30000BD041B9C36843F08043C3603220FDF737
:102A40000DFE002008BD012008BDC36843F00053FF
:102A5000C360F3E784B08C462DE9F043002408AE50
:102A6000129DC0F80441C0F80841C0F80C41C0F8FC
:102A70001041C0F81441C0F81841C0F81C41C0F81A
:102A80002041C0F82441C0F82841C0F82C41C0F8CA
:102A90003041C0F83441C0F83841C0F83C41846B43
:102AA00044F4001486E80E0084630D9BDDE90A17E8
:102AB0005DB9826B22F400128263026842F0400228
:102AC0000260026842F0800202600022012B00F5E1
:102AD0000066C0F8002ED0F80028C0F8002800F0EA
:102AE0008480032BD0F8003837D043F00303C0F8BC
:102AF00000384FF484624B4B026101E0013B02D08D
:102B000002699106FAD41022464B026101E0013BB2
:102B100002D00269D206FAD4002232617261F261F7
:102B2000BCF1000F20D000F510634FF090484FF03B
:102B3000006914464FF67F3E07E01C6001321C61BD
:102B4000C3F808E02033624533D019680029F4DA6D
:102B5000002A60D0C3F80080F0E70029C7D043F016
:102B60000103C0F80038C4E73369012F23F48073F0
:102B7000336144D000226FF08043826143611FB90A
:102B8000836943F0100383618169274B0E9A0B43DD
:102B900083611AB1836943F008038361012D03D176
:102BA0008269224B134383610020BDE8F04304B0E7
:102BB0007047002100F530634FF090484FF00069F6
:102BC0008C464FF67F3E09E0C3F800C00131C3F8E0
:102BD00010C0C3F808E020339142C5D01C68002C17
:102BE000F2DAD9B1C3F80080F0E7D0F80038002954
:102BF0003FF47DAF43F00103C0F8003879E70C4A99
:102C000000210C4B32636FF08042346B23433363FB
:102C100081614261B8E7C3F800908FE7C3F8009084
:102C2000D4E700BF400D030000383C8004000040A2
:102C3000000180000300010000F50062032008B5D8
:102C4000536843F002035360FDF708FD002008BD00
:102C500040BA80B2704700BF00BA704708B500F0B4
:102C60000DF800F0E1F900F05BFA04F0EBF900F088
:102C7000B7FFBDE8084004F077B900BF0A4B4FF436
:102C8000C8610A4A23F00303094830B4002501242F
:102C9000196059181D7183F84446C3F840069360C3
:102CA000C2E9003130BC7047370200209400002098
:102CB00040064006002860D0F8B58307044650D18E
:102CC000474D2B68A3423ED86A68A2423BD914F80C
:102CD000042CA4F10806002A50D0AA680021B242B0
:102CE00004F8041C88BFAE609E4250D36B689E42BD
:102CF00063D234F8082CB2F5C86F66D82B689918DF
:102D00008E420FD0087968B9686881420AD0AA68F3
:102D1000F01A91420A8824F8082C098808BFAE608E
:102D20001944488034F8060C19188E420AD00F79DD
:102D300047B91A52AF6834F8082CBE42134408BF92
:102D4000A9605880F8BD274B40F2AF1226492748AA
:102D500007F0DCF82B68A342F4D86A689442B6D333
:102D6000F8BD1F4D4FF4D6721E4B21491F4807F086
:102D7000CDF82B68A342A7D9E5E77047194B4FF46C
:102D8000E0721C49194807F0C1F82B68A5E7154BFC
:102D900040F25D121849154807F0B8F86B689E427A
:102DA0000BD214F8043C002BA3D00E4B40F25F1260
:102DB00012490E4807F0AAF89BE70A4B4FF4AF728E
:102DC0000F490A4807F0A2F8EBE74FF4B172054B40
:102DD0000C49064807F09AF834F8082C8EE700BF33
:102DE00094000020A8AE000824AF0008FCAE000844
:102DF000D8AE00083CAF000850AF000884AF000810
:102E000068AF0008A0AF0008F8B503314FF6FC75B5
:102E10000D400B2D16D9B5F5C86F6AD8364E04464D
:102E20003368834202D87268824210D8334B4FF421
:102E3000FA723349334807F069F83368A34203D97B
:102E40002046F8BD0C25E9E77268A242F8D9A4F142
:102E5000080234F8080CD21AA0F1080192B2891ABB
:102E600089B2A94221D3EBD01F1897F804C0BCF156
:102E7000000F23D10835B16833F800C01544B942BA
:102E80004FF00001ADB203EB0500A0F800C0428096
:102E9000017124F8085C028808BFB060B2F5C86F01
:102EA000CED0134420465D80F8BD144B40F206227C
:102EB0001549144807F02AF80020F8BD05F1140759
:102EC0008F42BDD805F10801B768114489B25D1879
:102ED000AF4228806A8088BFB56000262E7124F832
:102EE000081C2A88B2F5C86FAAD01344204659801E
:102EF000F8BD0020F8BD00BF94000020A8AE000877
:102F0000CCAF0008FCAE0008E4AF0008002868D091
:102F100003302DE9F0474FF6FC7E00EA0E0EBEF1BD
:102F20000B0F22D84FF00C0840F23467C646DFF88A
:102F3000F490D9F808A0D9F80050AAEB050083B2A4
:102F4000BB4218460ED26FF0070CEC18ACEB030135
:102F5000EA5A2679114413460EB941450CD29742DC
:102F60001046F2D80020BDE8F087BEF5C86FF9D84A
:102F7000F046CEF5C867DAE708F1140399421ED28D
:102F800001232371A245D9F8042033D008F10808A1
:102F9000A044424526D3A3070DD01D4B40F2D622B4
:102FA0001C491D4806F0B2FF194B4FF436721B49FD
:102FB000194806F0ABFF04F10800BDE8F0870EF1F8
:102FC0000803012703449BB2E9180E71EA524880B6
:102FD00023802771EA5AB2F5C86FD3D02A445380B0
:102FE000D0E770470A4B4FF435720D490A4806F096
:102FF0008DFFD0E79442234602D106E0934204D0ED
:103000001B882B4419790029F8D1C9F80830BDE78D
:10301000A8AE000834B00008FCAE000864B0000898
:1030200004B0000894000020F0B5114F0425114BA6
:103030004FF0000E07F1240C0F4C033357F8042B0C
:10304000C4F800E023F0030355B1002116880A46B6
:103050000132981919601946AA4223600346F7D134
:10306000BC4504D03B685D88D3E90134E5E7F0BD99
:103070007CAD000888330020A0000020082810B58F
:1030800012D80E4B53F820309B681C6854B122684C
:103090001A60A30706D00A4B40F2491209490A48B0
:1030A00006F034FF204610BD054B40F28712074959
:1030B0000024054806F02AFFF4E700BF7CAD0008B5
:1030C00088B00008CCB00008FCAE0008F0B00008E2
:1030D000082814D891B10D4B70B553F820508B07C8
:1030E0000C4606D00A4B40F29D120A490A4806F0E7
:1030F0000DFFAB681A6822601C6070BD7047044BFE
:1031000040F2DB120549044806F000BF7CAD000820
:1031100088B0000810B10008FCAE000830B100080B
:10312000704700BF2DE9F04583B004460E461746B0
:10313000DDF82CA098460C9DBAF1000F5BD0344905
:1031400000230A9A03202561E2610A78636084F80B
:103150002E20013284F82B300A7084F82000C4E954
:103160000233002E37D0336803B307B13F68A7603E
:10317000B8F1000F48D0D8F80030E360336801930D
:10318000F3B1251D01A9284601F096FC01A92846A6
:1031900004F03AF83368636093B194F82B301B075E
:1031A0000ED52946204605F04BF909E0019307B1F9
:1031B0003F68A760B8F1000F24D0D8F80030E36072
:1031C0002046D04710BB134B20461A6822601C6073
:1031D00003B0BDE8F085104B1B680193002BE6D0CF
:1031E000251D01A9284601F067FC01A9284604F025
:1031F0000BF86660DBE7094BFB220949094806F03A
:1032000085FE9CE74346DAE74346B6E70020DFE762
:10321000C40000203C3700207CAE00084CB1000800
:1032200080B10008FCAE0008014B1860704700BF79
:103230004037002090F82B300146DA0707D443F0DE
:10324000010280F82B205A0701D5426802B9704765
:103250001B07FCD5043105F0F3B800BF90F82B3004
:10326000D90705D523F001011B0780F82B1000D4E6
:10327000704704F01BB900BF70B5049CBDF8145032
:1032800004281CD8DFE800F01915170303000020FC
:103290000E18AE421CD800251D6004B1044402265D
:1032A00001255C601846198159811A735E73DD81AE
:1032B00070BD2420ECE71020EAE73820E8E7054B52
:1032C00040F2C5120449054806F020FE002070BDFA
:1032D000002070BD98B10008C8B10008FCAE00081D
:1032E00038B5044600283AD000290ED08AB21CDB3B
:1032F0001046237B656853B1032B08D0013B012B9B
:1033000024D8002934DB012038BD084638BD691AAD
:1033100004F110039942616015D363892189134434
:1033200000200A446381228138BD5042638980B203
:103330008342DED2114B40F247221149114806F078
:10334000E5FD012038BD6560012038BD0B4B40F222
:1033500077220D490B4806F0D9FD012038BD074BF7
:1033600040F23F220949074806F0D0FD204638BD0B
:1033700063898342C7D3691A6160CFE798B10008B7
:10338000F8B10008FCAE000818B20008ECB1000863
:1033900038B5044600283CD0002916D08AB21EDB7E
:1033A0001046237B656893B1032B10D0013B012BA2
:1033B00026D80029638935DB691A616021891344A5
:1033C00000200A446381228138BD084638BD691A4D
:1033D00004F11003994261600FD36389EEE7504214
:1033E000638980B28342DCD2104B40F247221049FD
:1033F000104806F08BFD012038BD6560012038BD06
:103400000A4B40F277220C490A4806F07FFD012062
:1034100038BD064B40F23F220849064806F076FDCB
:10342000204638BD9842C7D9012038BD98B1000860
:10343000F8B10008FCAE000818B20008ECB10008B2
:103440002DE9F8430446002851D0037B032B46D8CE
:1034500000252C4FDFF8C0802B4E08E02369002B9D
:1034600034D02046984701354C46EDB2C4B1E389CB
:10347000CBB1013B9BB2E38193B9637BD4F800905D
:103480009B07EBD4237B032B1BD0013B012B13D9D0
:10349000204601354C46FFF70DFCEDB2002CE6D17D
:1034A0002846BDE8F8833B4640F2EB2241463046D1
:1034B00006F02CFDE389DCE721460720FFF708FE34
:1034C000D1E721460820FFF703FECCE73B4640F258
:1034D000F9220E49304606F019FD2369C1E7094B70
:1034E00040F2DE220A49084806F010FDB0E7054622
:1034F000044B40F2D2220749034806F007FD284654
:10350000BDE8F88398B10008FCAE000858B2000886
:1035100028B20008ECB1000840B200082DE9F84FCD
:103520000E461746042800F2D180DFE800F0A08B99
:103530009B03030010204FF414780446032F00F27D
:103540008680DFE807F0695656020820FFF796FDEF
:103550000546002800F0CD8003210444B0454346D1
:103560000C4400F5187828BF3346017324F0030497
:1035700000219AB20681234442819845C0E9001493
:103580007AD3B61A0123002EEB813EDD2F46DFF8F9
:103590006CA1DFF884B1DFF86C910820FFF76EFDB5
:1035A0000023044603214FF6FF72002800F09980A3
:1035B0009642017343730360386007467ED0B2B20F
:1035C00004F11003B2F5147F1146636028BF4FF475
:1035D00014719B072281618168D16A8901216B681E
:1035E0001344984553D36389E181F61A002ED4DC45
:1035F0000BE00720FFF742FD0546002845D00023D9
:10360000068146810773C0E9003301220023EA8165
:103610006B732846BDE8F88FF31C23F003031844AE
:1036200080B2984231D3FFF771FC054668B3044479
:103630000023068103344681036024F003040373EE
:103640004460E2E734204FF40B78322476E700251B
:103650002A4B4FF4C6722A492A4806F057FC2846DE
:10366000BDE8F88F20204FF410781E2466E748202C
:103670004FF40678462461E74FF498721F4B2249B5
:10368000204806F043FC6A897BE70025C1E75346E2
:1036900040F255121C49484606F038FC6289012365
:1036A000B61AE381002E3FF778AFAEE753464FF4EA
:1036B000A9721649484606F029FC8EE753464FF496
:1036C000A6725946484606F021FC78E700250B4BC8
:1036D0004FF48B720E490B4806F018FC2846BDE8E3
:1036E000F88F0C4B0122284625461A70FFF7A8FEDA
:1036F0008FE7084B01221A708BE700BF98B10008D2
:1037000010B30008FCAE000898B20008E0B2000850
:103710007CB2000844370020CCB200082DE9F84301
:103720000D460446002867D0237B032B6ED82689DC
:10373000AE422AD9AE1B4FF6FE739E423DDCDFF847
:10374000E090DFF8E480354F6389AB4211D22289E3
:10375000EB1A32449DB222812468002CF4D14B46EE
:1037600040F20F224146384606F0D0FB6389AB4257
:10377000EDD3227B0AB9AB4209D12068658125814E
:1037800008B1FFF75DFE00232360BDE8F883637B8B
:103790009B07F2D4636820461C1B291989B2FFF7E6
:1037A00033FB04460028E8D11D4B40F21D221D4981
:1037B0001A4806F0ABFB6481FFDEDFF86480DFF8B7
:1037C0007490164F6389AB42D3D2ED1A40F20B22AC
:1037D000434649463846ADB206F098FB2389334448
:1037E00023812468002CEDD1434640F20F220E497C
:1037F000384606F08BFBE5E7094B40F2F3120B4924
:10380000064806F083FB237B032B90D9044B40F240
:10381000F7120749014806F079FB88E7FCAE00087B
:1038200098B100088CB3000860B300082CB30008FE
:1038300044B3000878B3000838B1002301330068AE
:103840009BB20028FAD118467047034618467047C5
:1038500020B1C38901339BB2C38103B17047034BCD
:1038600040F239320249034806F050BB98B10008D3
:10387000A8B30008FCAE000870B538B30D4629B3F4
:1038800004680CB92BE014460389298922680B448B
:1038900003812046002AF6D1638922899A4210D0FA
:1038A000124B40F255321249124806F02FFB2368A2
:1038B00033B10E4B40F256320F490E4806F026FB4C
:1038C00023892A8925601344238170BD074B40F268
:1038D0004D320A490748BDE8704006F017BB044660
:1038E000638922899A42DBD1EBE700BF98B10008D7
:1038F000F4B30008FCAE000824B40008BCB3000810
:103900002DE9F84F002800F09D80B1FA81F7884634
:103910007F09002F40F09680028906460B899A4263
:10392000C0F0908042893D464C89DFF82CA1DFF839
:1039300040B1DFF82C91E31B521B70689A42D8F813
:1039400004102844A8BF9CB23944B8BF94B225449F
:10395000224606F0C8FA7389ADB22744AB42BFB223
:1039600049D3B8F80A309F423BD89F4202D3D8F8D7
:10397000008000277389AB4215D0B8F1000F44D006
:10398000B8F80A40B8F808309C421BD072893389D5
:103990009342D0D13368002B3ED1B8F1000FCAD189
:1039A0000020BDE8F88F366816B9B8F1000F3ED197
:1039B000B8F1000F27D0B8F80A400025B8F8083051
:1039C0009C42E3D1D8F80030002BDFD0224B40F2EC
:1039D000DE322249224806F099FA6FF00500BDE870
:1039E000F88F534640F2CE321E49484606F08EFA12
:1039F000B8F80A30B9E7534640F2CD325946484646
:103A000006F084FAADE7002ECAD0328973899A4253
:103A1000C6D130680028C4D00F4B40F2E3320F49C2
:103A20000F4806F073FA6FF00500BDE8F88F0A4BF7
:103A30004FF476720C490A4806F068FA6FF00F00EE
:103A4000BDE8F88F044B40F2BD320849044806F047
:103A50005DFA6FF00F00A4E798B10008E4B4000825
:103A6000FCAE0008B8B40008D4B4000870B4000874
:103A7000A0B400082DE9F041054668B30F460029BF
:103A800035D09046002A3DD0002609E09342A3EBB2
:103A9000020109D38BB22D68B8F1000F19D0C5B15E
:103AA000B8196A89002BF1D1D41A6968A4B21944F3
:103AB000444528BF444622462644A8EB040406F0A9
:103AC00012FAB6B200231FFA84F82D68B8F1000F7D
:103AD000E5D13046BDE8F08106460C4B40F2FE329F
:103AE0000B490C4806F012FA3046BDE8F0813E461C
:103AF000064B40F2FF320849064806F007FA304606
:103B0000BDE8F08116463046BDE8F08198B1000866
:103B100010B50008FCAE000830B5000870B50646C8
:103B2000406F18B1FFF78CFC00237367346FBCB192
:103B3000636821460320256873B11846FFF780FCAF
:103B400021460320FFF7C4FA55B12C4603206368D1
:103B500021462568002BF0D1FFF7BAFA002DF4D1E9
:103B600000224FF6FF73B46E32673386BCB16368D0
:103B700021460320256873B11846FFF761FC2146F2
:103B80000320FFF7A5FA55B12C46032063682146B0
:103B90002568002BF0D1FFF79BFA002DF4D1F46ECD
:103BA000BCB1636821460320256873B11846FFF74E
:103BB00047FC21460320FFF78BFA55B12C46032022
:103BC000636821462568002BF0D1FFF781FA002DAC
:103BD000F4D10023C6E91A33A6F8643070BD00BFE3
:103BE000704700BF38B5C16A0346048D5A8E456AD6
:103BF000601AB2F5866F284494BF821AA0F58662D7
:103C0000002A01DB5C8538BD6A1A002A02DD00202B
:103C1000588538BD4D1B1C46B5F5803F02D20020AB
:103C2000658538BD034B4FF442720349034806F0E3
:103C30006DF9F4E7ECB5000868B60008FCAE0008C2
:103C4000037D012B70B504460D463AD0218D2944E1
:103C500089B2B1F5066F21850FD861B9237D072B95
:103C60000BD0092B09D0224940F22D32214B22489A
:103C700006F04CF9218D0B4604E04FF40662134622
:103C800011462285656AE06A628E2E1AB2F5866F49
:103C9000334494BF9A1AA3F58662002A0CDBB3F56D
:103CA000067F61850CDBA37E204643F00203A376EA
:103CB000BDE8704002F090BC002E0ADD0023638551
:103CC00070BD0C4B4FF448720C490B4806F01EF9BE
:103CD000BCE7451BB5F5803F01D2658570BD054B3E
:103CE0004FF442720649044806F010F9F5E700BFA8
:103CF000ACB60008ECB50008FCAE000884B60008BD
:103D000068B600082DE9F04FAF4F85B0DFF8EC82C0
:103D10003A6898F800300132DFF8E4A201333A60E3
:103D200088F80030A94B1C68002C00F08B804FF005
:103D30000009237D002B00F01881012B00F0208169
:103D40000A2B00F0288198F80020637F934200F04E
:103D50002F81237D6277022B94F8422000F02D8181
:103D60000B2A40F2D28002214FF0010B062B00F00B
:103D7000F180267A16F0080600F07381042B05D036
:103D8000A3F10703B3FA83F35B09CBB1D4F89050E6
:103D90008F4B3A682B44206A8E4E121AA6FB03C33F
:103DA000B2EB531F00F2AF818B4994F8963001FBC0
:103DB0000353A6FB0313B2EB531F00F2D38100237E
:103DC0000393256F4DB13A68216AB4F94030521A15
:103DD00003EB4303B2EB430F5AD2237D032B6BD08B
:103DE000092B40F011813B68226A9B1AF02B68D99D
:103DF000D4F88C502046FFF791FE744B1B68B9F144
:103E0000000F00F013819C4200F0B981E368C9F80B
:103E10000C30039B002B40F01981214601206F4E8E
:103E2000D4E9034BFFF754F9002333703DB15846F2
:103E30006FF00C01A8473378002B7FF473AF002C90
:103E40007FF477AF664E3468DCB10025DFF8B091BF
:103E5000DFF8B0A1DFF89881237D0A2B00F03B81C9
:103E60004B4640F2BD425F49404606F04FF83B6882
:103E7000226A9B1AF02B00F25E812546E468002C32
:103E8000EAD105B0BDE8F08FFFF722F97EB13546E3
:103E90006B68294603202E68002BF5D01846FFF7E3
:103EA000CFFA29460320FFF713F9002EEFD10023A4
:103EB0002367237D032B93D13B68226A9B1A282B0F
:103EC00096D8BBF1000F93D1E37E227F0133E568E2
:103ED000DBB29A42E37612D80023404ED4F8882011
:103EE000E3763370002A00F0128121462069904762
:103EF0003378002B7FF416AF002800F00881A1462C
:103F00002C46002C7FF415AF9CE794F895B0BBF1DC
:103F1000000F00F0A880344894F8942083449BF864
:103F20000F108A42C0F0FC80204602F05FFE00289D
:103F300040F02D8194F8953084F89400062B00F21F
:103F400028815A1C237D83460121062B84F8952065
:103F50007FF40FAFA37EDB067FF531AF3B68226AAB
:103F60009B1A282B88BF8B4629E753464FF47C7257
:103F70001E491F4805F0CAFF237D012B7FF4E0AEE8
:103F8000534640F2F1321B49194805F0BFFF237D2B
:103F90000A2B7FF4D8AE534640F2F2321649144849
:103FA00005F0B4FF98F80020637F93427FF4D1AE10
:103FB000E468002C7FF4BDAE44E7052AA5D90023B0
:103FC0004FF0010B0393FCE6503700204C370020E4
:103FD000B84C0A00D34D6210F82401004837002085
:103FE0005C370020E0B700080CAE000800B70008FE
:103FF000FCAE00082CB7000858B70008C500002028
:10400000ECB5000838B80008BBF1000F3FF45CAF16
:104010000A2BD4F88C503FF4F0AE012B3FF6EAAEF9
:10402000624B1B68B9F1000F7FF4EDAE9C4206D0E5
:10403000534640F28D425E495E4805F067FFE368F3
:104040005A4A1360039B002B3FF4E7AE268B231DD7
:10405000616A2246E06C0196E68A009602F072FCE4
:10406000DBE60396ADE6B4F93010002902DB01313E
:1040700009B22186E06E002843D0B4F9400088429E
:104080003FDC022B0BD04C49B4F93C000A44B4F994
:104090003E30127E03EBE0039340A4F84030B4F8C6
:1040A00048000022B4F85C30618E834222864FEAD9
:1040B0004102A4F8481028BF0346204692B25B088C
:1040C0009342A4F84A3038BFA4F84A2002F094FC86
:1040D000237D01214AE63B68226A9B1AF02B7FF67A
:1040E000CCAE336895B39C4257D0E368EB60E3688D
:1040F00021461C460120FEF7EBFF002C7FF4ACAEFE
:10410000BFE6012132E601238B46039359E62046A0
:10411000A1462C4602F060FA002C7FF40AAE91E62C
:104120000132D2B28A4284F89420BFF4FDAE01215C
:104130004FF0000B1AE6237D012BD2D90A2BD0D0E9
:104140002046FFF7EBFC3368002DCCD19C4206D013
:104150004B4640F2CF425146404605F0D7FEE36859
:104160003360C5E7204602F0DDFC00287FF427AE6F
:1041700094F896300390013384F8963021E6534644
:1041800040F289420D490B4805F0C0FE3EE6237D12
:10419000CDE78346237D0121E8E54B4640F2CB4243
:1041A0000749404605F0B2FE9FE700BF4C370020AC
:1041B000B4B70008FCAE00080CAE000888B70008D1
:1041C00010B80008D0B138B5044603206368214612
:1041D000256873B11846FFF733F921460320FEF72F
:1041E00077FF55B12C460320636821462568002BD4
:1041F000F0D1FEF76DFF002DF4D138BD704700BF40
:1042000058B110B50446406808B1FFF719F92146C6
:104210000320BDE81040FEF75BBF704738B5054688
:104220000320FEF72BFF044650B128686968AA688E
:10423000EB6820606160A260E3606068FFF708FBE4
:10424000204638BD037D0A2B03D0012B01D9FFF78F
:1042500065BC704702688A4210B50C4652D04AB11C
:10426000D36899424AD02BB1DA68A24247D01346AC
:10427000002BF9D10022237DE260B3F10A0218BFBE
:104280000122012B08D93AB12046FFF747FC237DD4
:10429000B3F10A0218BF0122012B29D042B3A37E39
:1042A000DA071ED4A36E33B1184B40F2537218498B
:1042B000184805F02BFEE36E33B1144B40F25472F4
:1042C0001549144805F022FE236F33B10F4B40F21D
:1042D000567212490F4805F019FE00232375E38238
:1042E00010BD43F002032046A37602F075F9237D4A
:1042F000012BF2D0A36E002BD6D1DCE71346E26887
:10430000DA60B7E7CB680360B4E700BFECB500083C
:10431000F8B80008FCAE000810B900082CB9000875
:10432000F8B5456F0023D0F8806004466F7B436783
:1043300056B101462A460069B04758B10D301DD02C
:104340006FF004006567F8BD2989FFF779FC2846FE
:10435000FFF776F8BB060FD5238DB3F5066F01D0B6
:1043600001332385D4F8805035B1002321462069DC
:104370001A46A8470D3001D00020F8BD6FF00C00A0
:10438000F8BD00BF2DE9F84F404F4FF0000ADFF8AD
:1043900004913B7801333B703D4B1C68002C36D0B8
:1043A0003A78637F934234D0A37E6277D90747D4AB
:1043B0001A0730D4656FE66835B3D4F8808095F875
:1043C0000DB089F800A0C4F874A0B8F1000F54D063
:1043D00000232A4621462069C04700283BD11BF014
:1043E000200F0DD0238DB3F5066F01D00133238547
:1043F000D4F8805025B10023214620691A46A847E9
:1044000099F80030002BC7D13446002CC8D1BDE844
:10441000F88FE468C2E7227D23F00803042AA3761C
:1044200003D0072A1BD0032AC4D1204601F09EFEE8
:10443000C8B94FF005032375204602F0CDF8B9E75F
:1044400043F002032046A37602F0C6F8A37E03F0F1
:10445000FC03A376ACE70D3018BF6567D0E72046B4
:1044600001F084FE30B10130A4D1A37E43F00803F3
:10447000A3769FE709232375DEE720462989FFF706
:10448000DFFB2846FEF7DCFFA9E700BFC5000020E0
:104490004C3700204837002008B5FFF773FF064A65
:1044A00053780133DBB25370DB0700D408BDBDE89D
:1044B0000840FFF727BC00BFC5000020037D012B8B
:1044C0002DE9F04F054685B00F4600F0A2800A2B7B
:1044D00000F0AA80EA6CD5F824B00392D5F88C607D
:1044E000D5F81090B5F81680002B40F08A80B8F10E
:1044F000000F6CD11F46EC6EE4B1626821460320C8
:10450000D4F800A08AB11046FEF79AFF2146032096
:10451000FEF7DEFDBAF1000F0CD0544603206268AE
:104520002146D4F800A0002AEDD1FEF7D1FDBAF162
:10453000000FF2D1AC6EE4B1626821460320D4F8DA
:1045400000A08AB11046FEF77BFF21460320FEF74C
:10455000BFFDBAF1000F0CD054460320626821461B
:10456000D4F800A0002AEDD1FEF7B2FDBAF1000F99
:10457000F2D12C6FE4B1626821460320D4F800A088
:104580008AB11046FEF75CFF21460320FEF7A0FD2E
:10459000BAF1000F0CD05446032062682146D4F8CB
:1045A00000A0002AEDD1FEF793FDBAF1000FF2D181
:1045B000E7B929460120FEF78BFD002E4AD0484678
:1045C0006FF00C01334605B0BDE8F04F1847234BA0
:1045D0001A68AA4233D0002A33D0D3689D4235D01E
:1045E0007BB3DA68AA4232D01346F9E72B8B5946DF
:1045F000CDF800802A4601932B1D039802F0A2F902
:10460000D7E729461648FFF725FE164B01221A70F8
:1046100071E7154B4FF4F0721449154805F076FC1C
:104620002B7D0A2B7FF456AF29461248FFF712FE66
:104630002946012005B0BDE8F04FFEF749BDEA6804
:104640001A6000239846EB601F4654E71346EA6859
:10465000DA60F6E705B0BDE8F08F00BF58370020FC
:104660004C37002048370020ECB5000860B900083E
:10467000FCAE00085C3700200121FFF71FBF00BF20
:10468000F8B504460120FEF7F9FC034620B3982252
:10469000002118464B4D05F031FC4B4A03464FF4C0
:1046A00086601168FF222E784FF00615196247497F
:1046B0005C75A3F86000464C464899629A72464978
:1046C000464A5E77C3F83E501C639864C3F8801076
:1046D000C3F890201846F8BD414B1B6893B13A4A85
:1046E0001846196A1568691ADB6843B11A6AAA1A6A
:1046F0008A42F9D31846DB681146002BF6D1012116
:10470000FFF7DCFE0120FEF7B9FC03460028BED10E
:10471000344D296891B12C4A166801E0C96849B145
:104720000A7D092AFAD10A6AB21A9042F6D81046CE
:104730000B46F3E713B11846FFF7C0FE0120FEF762
:104740009DFC03460028A2D1296891B11E4A166833
:1047500001E0C96849B10A7D082AFAD10A6AB21A89
:104760008242F6D310460B46F3E713B11846FFF723
:10477000A5FE0120FEF782FC0346002887D114F035
:10478000800F2A680CBF25467F25A2B10E49064638
:104790000F68507D854206D3116A791AB14202D35F
:1047A00005460E461346D268002AF2D11BB11846C0
:1047B0000121FFF783FE0120FEF760FC034600287D
:1047C00088D064E7C50000205037002060086008EA
:1047D000FFFF180201003004E947000800DD6D000A
:1047E0005C3700204C370020F0B50C4683B01546EE
:1047F000002A39D1002B34D10A7D012A00F0B38080
:104800008B7E042A43F010038B7602D0072A40F0F7
:104810009A80636F002B00F09180268B231DE58A20
:104820002246616AE06CCDE9005602F08BF8217DEA
:10483000012905D90A2903D02046FFF76FF9217D08
:10484000834B1A68944200F0D580002A55D0D36873
:104850009C424FD0002B50D0DA6894424BD0134684
:10486000F8E7002003B0F0BD0B7D1689012B57D06F
:10487000238D33449BB2B3F5066F238505D873BBF4
:10488000237D072B01D0092B21D14FF406631A4653
:104890002385666AE06A618E371AB1F5866F3A44FD
:1048A00094BF511AA2F5866100291ADBB2F5067F82
:1048B000638506DBA37E204643F00203A37601F066
:1048C0008BFE2846FEF7BCFD002003B0F0BD614B17
:1048D00040F22D326049614805F018FB238D1A46DD
:1048E000D7E7002F24DD002328466385FEF7A8FDC7
:1048F0000020EAE71346E268DA600025584B0122FF
:104900000429E5601A7000F08480564B1B689C42B5
:1049100073D021460120FEF7DBFB002003B0F0BD81
:104920004C4B4FF4487250494C4805F0EFFA9FE762
:10493000861BB6F5803F64D26685C2E7238DB3F54A
:10494000066F7FF46AAF3AB3022A41D1214640484C
:10495000FFF780FC0123424A214618461370FEF7F8
:10496000B7FB00207EE7414800F10C0550F8042B0E
:1049700012682AB1916F8C4225D0D268002AF9D1F1
:104980008542F3D121463A48FFF764FC02202146D4
:10499000FEF79EFB002065E7E38A002BB9D0354B7C
:1049A0001A68944250D05AB1D3689C4205D03BB1AA
:1049B000DA68944202D01346F9E71346E268DA60F7
:1049C0000023E360A5E79367D268002AD2D1D7E736
:1049D000042A04D0072A2FD0032A7FF442AF2046AE
:1049E00001F0C4FBF8B905232375204601F0F4FD5E
:1049F000002037E7E2681A607FE701F0ADFB284648
:104A000030E7144B4FF442721B49144805F07EFA0C
:104A100092E71A4B0A211A682175E2601C6002F0C5
:104A200041FA28461EE7431C7FF41CAFA37E0020FA
:104A300043F00803A37615E7204601F097FB002812
:104A4000F1D109232375D0E7E2681A60B8E700BF07
:104A50004C370020ECB50008ACB60008FCAE0008EE
:104A6000483700206037002084B6000810AE0008E8
:104A7000543700205837002068B600085C37002003
:104A8000034B044A5868126810445860704700BFCE
:104A9000080000205037002010B50446084603F0F7
:104AA0008BFE30B1438C23B1283B9BB29C4228BF84
:104AB0001C46204610BD00BF08B1036803B970470B
:104AC0001B4A70B5044610680E4678B10268C56886
:104AD0009A4206D055B1284623680268C5689A42B2
:104AE000F8D10121FFF7EAFC002DF4D1114B186831
:104AF00010B90CE0284655B102682368C5689A428F
:104B0000F8D10121FFF7DAFC2846002DF4D176B167
:104B1000336863B1084B1B684BB118682168DA68C9
:104B2000884201D1316819601346002AF5D170BD61
:104B30004C3700205837002054370020F8B5C368A0
:104B400005460C469889FEF783F8C30734D41D4EFA
:104B5000E1682389486837682A8903443A44D31AAC
:104B6000002B1EDB8889FEF773F810F0010F20463A
:104B700005D12768FFF744FB87B13C46E8E7EB68BF
:104B800001209F89FEF764F8EA6847EA0003276876
:104B900020469381FFF734FB002FEED13C462C607A
:104BA000F8BD121A002AFADDC11B686889B2298192
:104BB000FEF7B4FD2C60F8BD20460024FFF702FB91
:104BC0002C60F8BDC8000020037D032B2DE9F04FB9
:104BD000044681B040F2DB80854E33793268DB06D3
:104BE00040F18680216DB4F85C508F1A606DB36817
:104BF000002FC0F2B480914200F0AD80984200F0E6
:104C0000F18029468446626C9F1A002F00F3C7800A
:104C1000378A27B961442844814200F02683002264
:104C2000A36EDFF8D881DFF8DC91724F84F843205F
:104C3000002B4ED0DB68B5685868FEF70DF8A36E00
:104C40008246DA68B3F808B09089FEF701F8A5EB60
:104C50000B0510F00300A5EB0A0518BF01202D1A63
:104C6000002D36DBB368E26C9B1A002B31DCA56E9D
:104C70002B68A366002B00F0AA80B4F862A06868D5
:104C8000FEF7DAFD8245C0F09A806868FEF7D4FD31
:104C9000B4F862202B89718A121A28460B44A4F8B2
:104CA00062207382FFF7ACFAB4F86230002B00F098
:104CB0008480D4E91A32002ABAD1002BB8D14346F5
:104CC00040F2DD424C49384605F020F9A36E002B36
:104CD000B0D1B4F86030718A626B0B44A4F86030D4
:104CE0002AB1A36BB1685B1A002BC0F20381326852
:104CF000318A636AF1B1207D06281BD89F1A012FE3
:104D000006D4591AC2F101000144002940F363811D
:104D1000D11A0029C0F21781218DC1F1010111447E
:104D2000C91A002940F31481204601B0BDE8F04FB4
:104D300001F0DCBBD11A002906DBC3F10103218D90
:104D40005B1A1344002B03DDA37E43F00203A3761A
:104D500001B0BDE8F08FC11A0029BFF64FAFF1686E
:104D6000C989B4F85E70A4F85C108F42C4E91423BA
:104D700038BFA4F85E1094F8952059BB002A40F083
:104D8000E0804FF480729C46A4F894203BE71B4BD4
:104D90004FF481621A49174805F0B8F81CE7E26C35
:104DA0009A1A002A30DD204601F0A0FBA36EDFF83E
:104DB0004C80DFF850900F4F3AE7A36E38E7434638
:104DC00040F2D5424946384605F0A0F85DE7A4F820
:104DD000643052E7002A00F0B48000229C4684F838
:104DE000952010E7F168C9898D42BFF40AAFB8E792
:104DF000C8000020FCAE00088CBA000814BA0008F5
:104E000048BA000864BA0008A27E570706D522F007
:104E10000402B4F84A10A276A4F84810E28F0021E8
:104E2000B4F93C00636402EBE003227D84F8421095
:104E3000032AA4F8403084F843100FD9B4F848206E
:104E4000B4F84A10638E91429CBF5B4393FBF2F32C
:104E500013449BB29A4201D2A4F84830E26EDFF8C4
:104E6000C482DFF8C492AC4F002A00F05281D368AC
:104E70005868FDF7F1FEE36E8246DA681D89908975
:104E8000FDF7E6FEB36810F00300A5EB030518BFBD
:104E9000012055442844002800F33A81E56EB4F817
:104EA00062A0D5E90030E366FEF7C6FC824540D338
:104EB0006868FEF7C1FCB4F862202B89718A121A67
:104EC00028460B44A4F862207382FFF799F9B4F8DE
:104ED0006230E26E002BC7D0002AC5D1A36E002B32
:104EE00000F08182B2FA82F200215209E176524248
:104EF00022865CE7894BB4F93C101B689B1AA3EB34
:104F0000E1039BB2194418B209B20028A18701DA63
:104F10005B4218B2B4F93E300022A3EBA3036263F4
:104F2000326803449BB203EBE101E387A4F840102D
:104F3000DEE6434640F29E424946384604F0E6FF2C
:104F4000B6E79C465FE6A37E43F00203A376EBE65A
:104F50009A427AD0204601F0C9FA256F002D00F060
:104F6000BD81E86800273168436801F1010E01F155
:104F7000FF388B42AEEB030C18D0002F00F0B3814A
:104F8000FA685268A8EB0202002A03DBBCF1000FAA
:104F900040F390822A682F46002A00F0B08115461F
:104FA000E86843688B42AEEB030CE6D1B28B2B89E9
:104FB0009A427FF6CDAE5A48FFF730F900283FF409
:104FC000C7AE002F00F0DE823860294601B0BDE890
:104FD000F04FFFF7B3BDB569B846002D00F07681FC
:104FE00047F6FE739F4200F36981B0691FFA87F9A3
:104FF0004389BB4280F252810389BB42C0F20082E6
:10500000A3EB09026B899F4292B208DD00216981FE
:10501000A8EB03082A812D686B894345F7DBC8F1AB
:105020000001284609B2FEF75BF9002840F0F28142
:10503000B18B3368626A0B44306A218D9B1A3260EF
:10504000B383426000293FF46FAE336AB58B988911
:10505000FDF7FEFD10F00303228D18BF01232B4442
:105060009BB29A423382C0F0F381236F002B64D04D
:10507000336A9889FDF7ECFDC2075BD4D6F800E0EF
:10508000338A276F03EB0E02002F00F07D82F86851
:105090003989D0F804C0A2EB0C08A8EB0101002963
:1050A00018DA20E23D683846FFF7AAF8338A2F461F
:1050B000002D00F04982D6F800E0E86803EB0E020C
:1050C0002989D0F804C0A2EB0C08A8EB0101002943
:1050D000C0F20A828089FDF7BBFDC307E2D5336ABF
:1050E0009889FDF7B5FD8507DCD4336A01209D89D9
:1050F000FDF7AEFD336A2843B58B80B29881FDF78A
:10510000A7FD10F0030018BF012005443582C9E750
:10511000E26EA36EE6E600BFFCAE0008503700204A
:10512000DC00002014BA000864BA00080368236792
:10513000FFF766F8206F0028F8D1338A32681A44E6
:10514000218D6262994208D2B64B40F2B952B649FB
:10515000B64804F0DBFE218D338ACB1A2046238526
:10516000FEF740FDB3691A8912B100227362B26181
:10517000336A9889FDF76CFDC20705D596F828308B
:1051800043F0200386F82830256F002D00F022819F
:10519000EB68626A59688A4240F01C81DFF88492A9
:1051A000DFF8A882A14F3BE0EB68B5F808A098892A
:1051B000FDF74EFD10F00303228D204618BF01239A
:1051C0005344D31A2385FEF70DFD69680B893BB163
:1051D000706A002800F0FC80FEF74EFB00236B6035
:1051E000EB689889FDF734FDC3070AD596F8283097
:1051F000227D43F02003042A86F8283001D10723BA
:1052000023752B6828462367FEF7FAFF256F002DCC
:1052100000F0E080EB68616A5A688A4240F0DA8008
:1052200032609889B5F808A0FDF712FD636A10F0A6
:105230000300EA6818BF01209A44B4F828B050442B
:10524000B5F808A060629089FDF702FD10F0030038
:1052500018BF012050448345A6D24B4640F2DE528F
:105260004146384604F052FE9EE7218EC90B7FF47A
:10527000D6AC9A427FF4D3AC94F84330FF2B00F0C5
:1052800066810133DBB2032B84F8433000F25F8187
:105290007FF48CAD204601F0F9FB87E5C9F10001F0
:1052A00009B2FEF71DF800283FF4C2AE5D4B40F294
:1052B00051525F495D4804F029FEB9E6594B40F26E
:1052C0003D525C49594804F021FE8EE6554B40F2B0
:1052D0003C525949554804F019FE81E65748FEF7FB
:1052E0009DFF206734E5CA1A002ABFF653AE534823
:1052F000FEF794FF00283FF42BAD206765E6CB1A3C
:10530000002B7FF725AD8089FDF7A2FCC1073FF593
:105310001FAD4A48FEF782FF286000283FF418AD11
:10532000EB682A89596833680A44D21A002A05DDD5
:105330005B1A686899B22981FEF7F0F93268338AFE
:10534000616A1344228D5B1A9B1A002B7FF700AD14
:105350002B68DB689889FDF77BFCC2072B680ED5AC
:10536000DB689F89384627F47C57FDF771FC00F015
:105370003E00FDF76DFC2B680743DA6897813068C3
:10538000218D626A091A5868114489B21981FEF7A1
:10539000C5F92B68DA681D899089FDF759FC10F072
:1053A0000303316818BF0123228D606A2B44024435
:1053B0009BB21944338291423FF4CAAC194B40F27C
:1053C0007B621F49194801B0BDE8F04F04F09EBD53
:1053D000716203E7A37ED8070ED523F0010343F0E3
:1053E0000203A376B4E440F2A74243461549384687
:1053F00004F08CFDE26E37E543F00103A376A7E4E9
:10540000084B40F23F521049084804F07FFDB36951
:105410001B89F5E5034B40F24C520549034804F063
:1054200075FD05E614BA000864BB0008FCAE000870
:10543000DCBA0008BCBA0008ACBA0008DC000020E6
:10544000F0BA00088CBA0008CCBA000884BB000887
:10545000336A9889FDF7FCFBC507336A00F1838046
:105460009889238DB383FDF7F3FB8007B18B02D5B9
:10547000013989B2B183B069FEF750F9336AB58B4F
:105480009889FDF7E5FB10F00303316818BF01238D
:10549000228D606A2B4402449BB2194433829142AC
:1054A0003FF4E3AD394B40F27F523949394804F0BB
:1054B0002DFDDAE53848FEF7B1FE044600283FF43A
:1054C00047ACFB683A89596833680A44D21A002A03
:1054D00005DD5B1A786899B23981FEF71FF93C60E7
:1054E0002946204672E53D46B8F1000F01DC2567EC
:1054F00026E6ACEB0E0C336AA6F81CC09889FDF7C3
:10550000A7FB8007B18B02D5013989B2B183B0699D
:10551000FEF704F9336AB78B9889FDF799FB10F011
:105520000303326818BF01233B449BB29918EA6811
:10553000338252689142DAD0144B40F2AF5217498D
:10554000144804F0E3FC338A32681A44CFE7B4F815
:105550004820638E13449BB29A42BFF427ACA4F850
:105560004830A36E23E49D89284625F47C55FDF739
:105570006FFB00F03E00FDF76BFB2843336A80B2FF
:1055800098816EE7206720E53D46B0E714BA000831
:10559000F0BA0008FCAE0008DC00002028BB0008C0
:1055A00010B5837E0446DB0606D4D0F88C301BB1E0
:1055B0006FF00E010069984721460448FEF74AFE45
:1055C00021460120FDF784FD012010BD4C3700204D
:1055D0002DE9F047DFF824E10023BEF834C01D4672
:1055E0001A46BEF82C905FFA8CFADEF83070DEF8BE
:1055F0000C80AEF82A30002F46D002F11404164673
:105600004444A6EB0A01531C9145C9B29BB268D928
:10561000B4458CBF25787D5C012D4DD065D3022D1E
:105620002AD1591C89B2002F4BD09C4549D8A3EBF5
:105630000A02D2B2BA5C042A5AD14A1C4A4557DA45
:105640009C1C0333A4B29AB2002F3ED08C4542D8A2
:10565000A1EB0A01C9B27B5C1B02A44538D8A4EBBC
:105660000A04E4B2395D0B43591EB1F5067F28BF29
:105670004FF4067303801DE0AFB19C4513D8A3EB34
:105680000A01C9B2795C11E002F113014144531CD3
:105690004A459BB225D211F8014F0125AC421ED0DC
:1056A00023D3022CBDD008EB0301097D01291BD9AE
:1056B0000A4492B201259EE7013601341A46B6B279
:1056C0009FE708EB0302127DB5E741440B7D1B0207
:1056D0004444217DC7E741440B7D1B02BDE71A46C8
:1056E000D5E745B9BDE8F0870133AEF82A30F9E7D0
:1056F000AEF82A10F6E7AEF82A20F3E7C80000203B
:1057000043894268132B2DE9F04FA24D83B0044624
:10571000EA6006D9A04E3168706903F0E7F90746E0
:1057200028B1204603B0BDE8F04FFDF789BE73698C
:1057300003F0F003E02BF4D0EB689889FDF788FACA
:10574000800A00F0FC001328EBD980B22389834241
:10575000E7D3A0F1140362892F639BB28242AB8529
:1057600080F06C812368002B00F003826FF013013E
:105770002046FDF7B5FD6389AF8D20465942AB86C3
:10578000FF1A09B2FDF7ACFD2068BFB24389BB42E6
:10579000C7D37942436809B22B63FDF7A1FD238982
:1057A0006289DB1B9BB22381002A40F0D9822268E8
:1057B00012899A4205D0794BD0227949794804F070
:1057C000A5FBEF683888FDF743FA3880EF687888E2
:1057D000FDF73EFA7880EF687868FDF73DFAD5F876
:1057E0000C8078602860D8F80800FDF735FAEF687B
:1057F000C8F80800A860F889FDF72AFAEB68F88174
:105800009889FDF725FA2289C0B210F0030300F051
:105810003F0018BF012328711344634A17682B8285
:10582000002F00F0A9804FF00008DFF870A1DFF82A
:1058300088B1DFF8709105E0FB68B846002B00F0F6
:105840009B801F463B7D002B7FD00A2B00F085807C
:10585000012B00F08A80EB68398B1A889142EBD1DA
:105860005B88FA8A9A42E7D17A6833699A42E3D12F
:105870003A6873699A42DFD1FB68BB4200F07283D9
:10588000B8F1000F09D04849C8F80C300A680F6019
:10589000FA60FB68BB4200F05E83EA6800232E7961
:1058A00021892A6232076B6285F828306B82A983CE
:1058B000C5E9053403D5637B43F0010363737B6F54
:1058C00063B13846FEF72CFD0D3000F04B817B6F45
:1058D0001BB12B8A002B40F045812E79DFF8DC804C
:1058E0007407C8F8007040F14B81397D022900F03F
:1058F000A9827A6A2B689A4200F0E7839B1A04D443
:105900003A8D9B1A002B40F3048395F828301E072C
:1059100040F14282D7F88C301BB16FF00D0138692D
:10592000984739462048FEF795FC39460120FDF797
:10593000CFFB0024A869C8F800406C6210B1FDF7E5
:105940007FFDAC6103B0BDE8F08F5346E2225946BB
:10595000484604F0DBFA3B7D77E75346E3221349E0
:10596000484604F0D3FA3B7D72E75346E4221049DF
:10597000484604F0CBFA6EE70E4B1F68002F00F08C
:105980005E82DFF818A0A346DFF83490DFF81480B9
:105990001BE000BFC80000201C02002014BA000851
:1059A000C8BB0008FCAE00084C37002010BC000843
:1059B0003CBC00085C370020E8BB000860370020D2
:1059C000BCBC0008FF68002F3ED0387D5346FE2245
:1059D00049460A28404601D004F098FAEB68398B12
:1059E0001A888A42EED1F98A58888842EAD1346905
:1059F0007968A142E6D174693968A142E2D12B7974
:105A00005C465E073FF58DAE99072E8A40F15683BE
:105A100029687B6ACB1A06D4B7F828C0A3EB0C031D
:105A2000002B40F32983002E3FF47BAEBB7E38462B
:105A300043F00203BB7600F0CFFD72E64142204600
:105A4000AB86FDF74DFCBCE69C465C46DFF8408328
:105A5000D8F800E0BEF1000F00F09E80BCF8020014
:105A60007746D6F81490002105E0FB6839461F46BA
:105A7000002B00F09180FA8A8242F6D13B680BB18C
:105A80004B45F2D129B1FB68C8F80070CB60C7F86C
:105A90000CE02B7958073FF544AED90600F13B8264
:105AA0009B077FF53EAE787DFEF7EAFD8046002835
:105AB00000F04682E9684FF0030C2B680A784978B9
:105AC0000133B7F816E042EA01224362C36202835F
:105AD000D6E90412A0F816E080F814C0C0E900214D
