:020000040800F2
:1000000000300020F1390008413A0008413A000868
:10001000413A0008413A0008413A00080000000057
:10002000000000000000000000000000413A00084D
:10003000413A000800000000413A0008010C0008A5
:10004000413A0008413A0008413A0008413A0008A4
:10005000413A0008413A0008413A0008413A000894
:10006000413A0008413A0008413A0008413A000884
:10007000413A0008413A0008413A0008413A000874
:10008000413A0008413A0008413A00080D0C0008C6
:100090001D0C0008413A00082D0C0008413A0008E8
:1000A000413A0008413A0008413A0008413A000844
:1000B000413A0008413A000800000000413A0008B7
:1000C000413A00080000000000000000413A00082A
:1000D00000000000413A0008413A0008413A000897
:1000E000413A0008413A000800000000000000000A
:1000F0000000000000000000000000000000000000
:1001000000000000000000000000000000000000EF
:100110000000000000000000413A0008413A0008D9
:1001200000000000000000000000000000000000CF
:1001300000000000000000000000000000000000BF
:10014000413A0008413A00080000000000000000A9
:10015000000000000000000000000000000000009F
:10016000000000000000000000000000000000008F
:10017000000000000000000000000000000000007F
:0801800000000000413A0008F4
:1001900010B5054C237833B9044B13B10448AFF3C1
:1001A00000800123237010BD7400002000000000B7
:1001B0007047000808B5034B1BB103490348AFF370
:1001C000008008BD00000000780000207047000893
:1001D00081F0004102E000BF83F0004330B54FEAF8
:1001E00041044FEA430594EA050F08BF90EA020F65
:1001F0001FBF54EA000C55EA020C7FEA645C7FEAF8
:10020000655C00F0E2804FEA5454D4EB5555B8BF1A
:100210006D420CDD2C4480EA020281EA030382EA8B
:10022000000083EA010180EA020281EA0303362D1D
:1002300088BF30BD11F0004F4FEA01314FF4801CF0
:100240004CEA113102D0404261EB410113F0004F02
:100250004FEA03334CEA133302D0524263EB4303B9
:1002600094EA050F00F0A780A4F10104D5F1200E57
:100270000DDB02FA0EFC22FA05F2801841F10001B2
:1002800003FA0EF2801843FA05F359410EE0A5F186
:1002900020050EF1200E012A03FA0EFC28BF4CF0B7
:1002A000020C43FA05F3C01851EBE37101F000456D
:1002B00007D54FF0000EDCF1000C7EEB00006EEB7A
:1002C0000101B1F5801F1BD3B1F5001F0CD3490804
:1002D0005FEA30004FEA3C0C04F101044FEA44525B
:1002E00012F5800F80F09A80BCF1004F08BF5FEAE2
:1002F000500C50F1000041EB045141EA050130BDC2
:100300005FEA4C0C404141EB010111F4801FA4F164
:100310000104E9D191F0000F04BF01460020B1FAB9
:1003200081F308BF2033A3F10B03B3F120020CDAF1
:100330000C3208DD02F1140CC2F10C0201FA0CF0CF
:1003400021FA02F10CE002F11402D8BFC2F1200C34
:1003500001FA02F120FA0CFCDCBF41EA0C019040EA
:10036000E41AA2BF01EB0451294330BD6FEA040433
:100370001F3C1CDA0C340EDC04F11404C4F120021E
:1003800020FA04F001FA02F340EA030021FA04F330
:1003900045EA030130BDC4F10C04C4F1200220FA87
:1003A00002F001FA04F340EA0300294630BD21FAC5
:1003B00004F0294630BD94F0000F83F4801306BF8B
:1003C00081F480110134013D4EE77FEA645C18BF7F
:1003D0007FEA655C29D094EA050F08BF90EA020F16
:1003E00005D054EA000C04BF1946104630BD91EA0E
:1003F000030F1EBF0021002030BD5FEA545C05D111
:100400004000494128BF41F0004130BD14F580044F
:100410003CBF01F5801130BD01F0004545F0FE41C3
:1004200041F470014FF0000030BD7FEA645C1ABFF8
:10043000194610467FEA655C1CBF0B46024650EA2F
:10044000013406BF52EA033591EA030F41F400215B
:1004500030BD00BF90F0000F04BF0021704730B5E1
:100460004FF4806404F132044FF000054FF00001B6
:1004700050E700BF90F0000F04BF0021704730B577
:100480004FF4806404F1320410F0004548BF40424C
:100490004FF000013EE700BF42004FEAE2014FEAA1
:1004A00031014FEA02701FBF12F07F4393F07F4F7C
:1004B00081F06051704732F07F4208BF704793F07F
:1004C0007F4F04BF41F40021704730B54FF4607492
:1004D00001F0004521F000411CE700BF50EA010295
:1004E00008BF704730B54FF000050AE050EA01023E
:1004F00008BF704730B511F0004502D5404261EBAE
:1005000041014FF4806404F132045FEA915C3FF4EE
:10051000D8AE4FF003025FEADC0C18BF03325FEA8B
:10052000DC0C18BF033202EBDC02C2F1200300FA3C
:1005300003FC20FA02F001FA03FE40EA0E0021FA61
:1005400002F11444BDE600BF70B54FF0FF0C4CF44F
:10055000E06C1CEA11541DBF1CEA135594EA0C0F01
:1005600095EA0C0F00F0DEF82C4481EA030621EA3C
:100570004C5123EA4C5350EA013518BF52EA033577
:1005800041F4801143F4801338D0A0FB02CE4FF029
:100590000005E1FB02E506F00042E0FB03E54FF059
:1005A0000006E1FB03569CF0000F18BF4EF0010E51
:1005B000A4F1FF04B6F5007F64F5407404D25FEA4D
:1005C0004E0E6D4146EB060642EAC62141EA555100
:1005D0004FEAC52040EA5E504FEACE2EB4F1FD0C42
:1005E00088BFBCF5E06F1ED8BEF1004F08BF5FEAC0
:1005F000500E50F1000041EB045170BD06F0004672
:1006000046EA010140EA020081EA0301B4EB5C041E
:10061000C2BFD4EB0C0541EA045170BD41F4801116
:100620004FF0000E013C00F3AB8014F1360FDEBF3B
:10063000002001F0004170BDC4F10004203C35DA17
:100640000C341BDC04F11404C4F1200500FA05F39A
:1006500020FA04F001FA05F240EA020001F000423B
:1006600021F0004110EBD37021FA04F642EB0601B1
:100670005EEA430E08BF20EAD37070BDC4F10C04DB
:10068000C4F1200500FA04F320FA05F001FA04F29F
:1006900040EA020001F0004110EBD37041F100018B
:1006A0005EEA430E08BF20EAD37070BDC4F1200596
:1006B00000FA05F24EEA020E20FA04F301FA05F2FE
:1006C00043EA020321FA04F001F0004121FA04F2A6
:1006D00020EA020000EBD3705EEA430E08BF20EA76
:1006E000D37070BD94F0000F0FD101F000464000B0
:1006F00041EB010111F4801F08BF013CF7D041EA32
:10070000060195F0000F18BF704703F00046520035
:1007100043EB030313F4801F08BF013DF7D043EA06
:100720000603704794EA0C0F0CEA135518BF95EABC
:100730000C0F0CD050EA410618BF52EA4306D1D143
:1007400081EA030101F000414FF0000070BD50EA62
:10075000410606BF1046194652EA430619D094EAEC
:100760000C0F02D150EA013613D195EA0C0F05D1D6
:1007700052EA03361CBF104619460AD181EA03012A
:1007800001F0004141F0FE4141F470014FF00000E2
:1007900070BD41F0FE4141F4780170BD70B54FF07D
:1007A000FF0C4CF4E06C1CEA11541DBF1CEA1355FD
:1007B00094EA0C0F95EA0C0F00F0A7F8A4EB0504DF
:1007C00081EA030E52EA03354FEA013100F08880D6
:1007D0004FEA03334FF0805545EA131343EA12639F
:1007E0004FEA022245EA111545EA10654FEA002654
:1007F0000EF000419D4208BF964244F1FD0404F50D
:10080000407402D25B084FEA3202B61A65EB030568
:100810005B084FEA32024FF480104FF4002CB6EB25
:10082000020E75EB030E22BFB61A754640EA0C00A5
:100830005B084FEA3202B6EB020E75EB030E22BFE5
:10084000B61A754640EA5C005B084FEA3202B6EB26
:10085000020E75EB030E22BFB61A754640EA9C00E5
:100860005B084FEA3202B6EB020E75EB030E22BFB5
:10087000B61A754640EADC0055EA060E18D04FEA73
:10088000051545EA16754FEA06164FEAC30343EA13
:1008900052734FEAC2025FEA1C1CC0D111F4801FE0
:1008A0000BD141EA00014FF000004FF0004CB6E7D9
:1008B00011F4801F04BF01430020B4F1FD0C88BF78
:1008C000BCF5E06F3FF6AFAEB5EB030C04BFB6EB83
:1008D000020C5FEA500C50F1000041EB045170BD76
:1008E0000EF0004E4EEA113114EB5C04C2BFD4EBA3
:1008F0000C0541EA045170BD41F480114FF0000E27
:10090000013C90E645EA060E8DE60CEA135594EAA2
:100910000C0F08BF95EA0C0F3FF43BAF94EA0C0FA5
:100920000AD150EA01347FF434AF95EA0C0F7FF41A
:1009300025AF104619462CE795EA0C0F06D152EA6E
:1009400003353FF4FDAE1046194622E750EA410652
:1009500018BF52EA43067FF4C5AE50EA41047FF463
:100960000DAF52EA43057FF4EBAE12E74FF0FF3CC8
:1009700006E000BF4FF0010C02E000BF4FF0010C99
:100980004DF804CD4FEA410C7FEA6C5C4FEA430C12
:1009900018BF7FEA6C5C1BD001B050EA410C0CBF61
:1009A00052EA430C91EA030F02BF90EA020F0020C3
:1009B000704710F1000F91EA030F58BF994208BF2A
:1009C00090422CBFD8176FEAE37040F001007047E7
:1009D0004FEA410C7FEA6C5C02D150EA013C07D13E
:1009E0004FEA430C7FEA6C5CD6D152EA033CD3D089
:1009F0005DF8040B704700BF8446104662468C4683
:100A00001946634600E000BF01B5FFF7B7FF0028B5
:100A100048BF10F1000F01BD4DF808EDFFF7F4FFDE
:100A20000CBF012000205DF808FB00BF4DF808ED69
:100A3000FFF7EAFF34BF012000205DF808FB00BF8C
:100A40004DF808EDFFF7E0FF94BF012000205DF8AE
:100A500008FB00BF4DF808EDFFF7CEFF94BF012063
:100A600000205DF808FB00BF4DF808EDFFF7C4FF5C
:100A700034BF012000205DF808FB00BF4FEA410CA5
:100A80007FEA6C5C02D150EA013C0AD14FEA430C88
:100A90007FEA6C5C02D152EA033C02D14FF00000C5
:100AA00070474FF0010070474FEA4102B2F1E04356
:100AB00024BFB3F5001CDCF1FE5C0DD901F0004C45
:100AC0004FEAC0024CEA5070B2F1004F40EB830095
:100AD00008BF20F00100704711F0804F21D113F1C1
:100AE0003872BCBF01F00040704741F480114FEAFA
:100AF0005252C2F11802C2F1200C10FA0CF320FA83
:100B000002F018BF40F001004FEAC1234FEAD3239F
:100B100003FA0CFC40EA0C0023FA02F34FEA430309
:100B2000CCE77FEA625307D150EA01331EBF4FF092
:100B3000FE4040F44000704701F0004040F0FE40AD
:100B400040F40000704700BF034613F8012B002A51
:100B5000FBD1181A013870470000000000000000A7
:100B600001F0FF01102A2BDB10F0070F08D010F85E
:100B7000013B013A8B422DD010F0070F42B3F6D162
:100B8000F0B441EA012141EA014122F007047FF07B
:100B900000070023F0E80256083C85EA010586EAD2
:100BA000010685FA47F5A3FA87F586FA47F6A5FA0E
:100BB00087F68EB9EED1F0BC01F0FF0102F007021A
:100BC00032B110F8013B013A83EA010313B1F8D1C5
:100BD0000020704701387047002D06BF35460338A6
:100BE000073815F0010F07D1013015F4807F02BFDF
:100BF000013015F4C03F0130F0BC0138704700BF30
:100C000008B500F06DFD01F080FE08BD08B5024892
:100C100001F0E3FC08BD00BF3401002008B5024824
:100C200001F0DBFC08BD00BF3401002008B502481C
:100C300001F0D3FC08BD00BF3401002070B5134C97
:100C4000022525600123236110236361E5610026ED
:100C500026624FF460136362204601F02DFF0F23DC
:100C6000A362E56226634FF480636363A66329464B
:100C700004F1280002F07AFA8023E3634FF48073D2
:100C8000E36404F13C0002F075FB70BD90000020AD
:100C900010B582B00E4B5A6942F480225A615B69EA
:100CA00003F480230193019B0A4C00227821204603
:100CB00001F0F4FE084978234B6501238B6500237E
:100CC000CB650B665431204601F024FE02B010BD06
:100CD000001002400004004890000020F8B5174CB6
:100CE0004FF0A043236000256560A560256165760F
:100CF00084F82050E5620127A762E560E76184F887
:100D000030500423636125766563204600F08AFD38
:100D10000B4E314641F8685F204601F055F9776780
:100D2000B767C6F88050F567C6F88450C6F8885093
:100D300006F17401204600F08FFFF8BDB8020020D4
:100D40009000002070B5154C154B236000256560A0
:100D5000A5602561657684F82050E5620126A662CB
:100D6000E560E66184F830500423636125766563AD
:100D7000204600F057FD0B49C1F88C60C1F8906027
:100D8000C1F89850C1F89450C1F89C50C1F8A050D7
:100D90008C31204600F060FF70BD00BF680200206B
:100DA000000100509000002010B5012803D0022857
:100DB00013D0002010E0124C1249204600F04CFFE6
:100DC000204600F039FE4FF0FF31204600F0B6FE1D
:100DD000204600F03DFF80B210BD0B4C0B49204671
:100DE00000F03AFF204600F027FE4FF0FF3120468A
:100DF00000F0A4FE204600F02BFF80B2ECE700BF1D
:100E0000B802002004010020680200201C0100201C
:100E100008B507EE900AB8EE677ADFED197A67EE4B
:100E2000277A17EE900AFFF737FB0FA3D3E90023C9
:100E3000FFF78AFB41EC100B02F004FE0CA3D3E990
:100E4000002351EC100BFFF77FFB0BA3D3E900232A
:100E5000FFF7C4F9FFF728FE07EE900AFCEEE77AE9
:100E600017EE903A98B208BD6666666666660A40F6
:100E7000295C8FC2F5A83EC00AD7A3703D0AE73FA0
:100E8000000080390000000008B507EE900AB8EEB7
:100E9000677ADFED0F7A67EE277A17EE900AFFF791
:100EA000FBFA09A3D3E90023FFF74EFB0022094B0D
:100EB000FFF74AFBFFF7F8FD07EE900AFCEEE77A32
:100EC00017EE903A98B208BD6666666666660A4096
:100ED000000080390000594008B50948094B0360FB
:100EE0004FF41643436000238360C36003610C2208
:100EF00042618361C3610362436202F048FD08BD41
:100F0000080300200044004008B51548154BC0F800
:100F1000A4300023C0F8AC30012280F8BD2080F856
:100F2000BF3080F8BE2080F8C03080F8BC3080F838
:100F3000C1300222C0F8A820C0F8B0304FF44023DE
:100F4000C0F8B4304FF48013C0F8B830A43001F0CA
:100F5000C5F818B1024B062283F8CC2008BD00BFAB
:100F6000900000200064004008B520480122C0F82D
:100F7000F0200023C0F8E030C0F8E830C0F8EC20E2
:100F8000C0F8F430C0F8E4304FF48042C0F8D0200C
:100F9000C0F8D4304FF6E072C0F8D820C0F8DC308A
:100FA00000F1D001A43001F03FF918B10F4B072236
:100FB00083F8CC200D480123C0F8E4304FF484437B
:100FC000C0F8D0300023C0F8D4304FF6E072C0F83B
:100FD000D820C0F8DC3000F1D001A43001F024F9B1
:100FE00018B1024B082283F8CC2008BD90000020E5
:100FF00080B500F063FBFFF721FEFFF76DFFFFF701
:1010000047FEFFF76BFEFFF79DFEFFF77DFFFFF743
:10101000ABFF9B4801F086F918B19A4B0B2283F87D
:10102000CC2040F20341964801F0B9FA18B1954B33
:101030000C2283F8CC20012240214FF0904001F097
:101040002DFD904C0126666784F8F8603046FFF766
:10105000ABFE80B2A4F8FA00FFF7DAFE83B2A4F880
:10106000FC3004F58075B4F8FA208749284602F070
:1010700079FF2846FFF768FDDFF830824FF0FF3335
:1010800082B22946404602F0E0FB0227676784F8F7
:10109000F8603046FFF788FE80B2A4F86401FFF7DD
:1010A000B7FE83B2A4F86631B4F8642177492846C4
:1010B00002F058FF2846FFF747FD4FF0FF3382B29A
:1010C0002946404602F0C1FB4FF0040AC4F874A060
:1010D00084F8F8603046FFF767FE80B2A4F8680134
:1010E000FFF796FE03B2A4F86A31B4F868216849A4
:1010F000284602F037FF2846FFF726FD4FF0FF3362
:1011000082B22946404602F0A0FB0B23636784F8B5
:10111000F8603046FFF748FE80B2A4F86C01FFF794
:1011200077FE83B2A4F86E31B4F86C215949284691
:1011300002F018FF2846FFF707FD4FF0FF3382B299
:101140002946404602F081FB0C23636784F8F8606F
:101150003046FFF729FE1FFA80F9A4F8709148463F
:10116000FFF792FE83B2A4F872314A464A492846F4
:1011700002F0F8FE2846FFF7E7FC4FF0FF3382B29B
:101180002946404602F061FBC4F88C6084F8F87090
:101190003846FFF709FE1FFA80F9A4F87491484613
:1011A000FFF772FE83B2A4F876314A463B492846DF
:1011B00002F0D8FE2846FFF7C7FC4FF0FF3382B29B
:1011C0002946404602F041FBC4F88C7084F8F87060
:1011D0003846FFF7E9FD1FFA80F9A4F878914846F0
:1011E000FFF752FE83B2A4F87A314A462C492846CA
:1011F00002F0B8FE2846FFF7A7FC4FF0FF3382B29B
:101200002946404602F021FBC4F88CA084F8F8700F
:101210003846FFF7C9FD87B2A4F87C713846FFF75E
:1012200033FE83B2A4F87E313A461E49284602F0C6
:1012300099FE2846FFF788FC4FF0FF3382B229461B
:10124000404602F002FB2C46174F0FCF0FC40FCFC2
:101250000FC43B6823702846FFF776FC4FF0FF333E
:1012600082B22946404602F0F0FA002240214FF0B7
:10127000904001F013FC304600F044FADBE600BF7A
:101280003401002090000020C0470008F04700080B
:10129000204800085048000884480008B448000866
:1012A000E4480008144900084849000808030020E1
:1012B00008B5012810D0022832D02B4800F5CC7395
:1012C0000A4600F5C071A43001F05AF818B1264B57
:1012D000112283F8CC2008BD234BB3F8FC20120A5E
:1012E0000A70B3F8FC204A70B3F86621100A8870BF
:1012F000CA70B3F96A21101208714A71B3F86E21ED
:10130000100A8871CA710822C3F8902140F20522A0
:10131000C3F880210022C3F88821C3F88C21CCE7D0
:10132000114BB3F87221120A0A70B3F872214A7095
:10133000B3F87621100A8870CA70B3F87A21100ABF
:1013400008714A71B3F87E21100A8871CA710822A7
:10135000C3F8902140F21522C3F880210022C3F87F
:101360008821C3F88C21A8E79000002008B5114817
:1013700000F5CE7300F5D2720021A43001F075F8AB
:1013800018B10C4B102283F8CC200A4BD3F8A431AF
:10139000B3F5007F03D0B3F5047F05D008BD06493F
:1013A0000120FFF785FFF9E703490220FFF780FFDF
:1013B000F4E700BF900000202C02002008B50821AF
:1013C000024801F070FBFFF7D1FF08BD00040048A0
:1013D00000B583B0032001F02DFA164A536A43F496
:1013E000E0235362002211466FF00B0001F034FA43
:1013F000002211466FF00A0001F02EFA0022114679
:101400006FF0090001F028FA0B4B9A6942F00102D3
:101410009A619A6902F001020092009ADA6942F038
:101420008052DA61DB6903F080530193019B03B0C2
:101430005DF804FB00ED00E00010024010B58AB03A
:101440000023059306930793089309930368B3F168
:10145000A04F04D0294A934232D00AB010BD03F104
:10146000704303F504335A6942F080525A615A6955
:1014700002F080520092009A5A6942F400325A6196
:101480005A6902F400320192019A5A6942F48022A8
:101490005A615B6903F480230293029B0B2305933B
:1014A0000324069405A94FF0904001F033FA059407
:1014B00006940023079305A9114801F02BFACCE705
:1014C000104B5A6942F080525A615A6902F08052B8
:1014D0000392039A5A6942F400325A615B6903F439
:1014E00000330493049BB02305930323069305A9BB
:1014F0004FF0904001F00EFAAFE700BF000100503E
:101500000004004800100240F0B589B0284BDA69A9
:1015100042F00072DA61DA6902F000720192019A17
:101520005A6942F400325A615B6903F40033029352
:10153000029B4FF400630393022704970024059451
:10154000032606960925079503A94FF0904001F060
:10155000E1F94FF480530393049705940696079599
:1015600003A94FF0904001F0D5F922460F21132036
:1015700001F072F922460F21142001F06DF9224684
:101580000F21152001F068F922460F21162001F0E5
:1015900063F9132001F094F9142001F091F915205A
:1015A00001F08EF9162001F08BF909B0F0BD00BFF3
:1015B0000010024000B589B0002303930493059303
:1015C000069307930268144B9A4202D009B05DF863
:1015D00004FB03F5E633DA6942F40032DA61DA69D2
:1015E00002F400320192019A5A6942F400325A61BF
:1015F0005B6903F400330293029B48F204030393F4
:1016000002230493032306930723079303A94FF0B0
:10161000904001F07FF9D9E70044004008B5034647
:101620000B4A126842B10A4A106803446A46934260
:1016300006D8074A136008BD054A06491160F2E75B
:1016400002F066FC0C2303604FF0FF30F3E700BFAD
:101650005802002090030020054BD3F8882042F464
:101660007002C3F888204FF000629A60704700BF94
:1016700000ED00E010B504460E4B18784FF47A7375
:10168000B3FBF0F30C4A1068B0FBF3F001F026F95D
:1016900068B90F2C01D901200AE0002221464FF041
:1016A000FF3001F0D9F8034B5C60002000E001201E
:1016B00010BD00BF040000200000002008B5074A4C
:1016C000136843F010031360032001F0B3F8002007
:1016D000FFF7D0FFFFF77CFE002008BD002002408E
:1016E000034A1168034B1B780B441360704700BF1B
:1016F0008803002004000020014B1868704700BFD9
:101700008803002038B50446FFF7F6FF0546B4F11C
:10171000FF3F02D0044B1B781C44FFF7EDFF401B3A
:10172000A042FAD338BD00BF0400002038B50268DB
:10173000936803F00303012B01D0002038BD136828
:1017400013F0010F2FD0936803F00D03012B09D084
:10175000036C43F010030364436C43F001034364E0
:101760000120EBE70446936843F0020393600368AB
:1017700003221A60FFF7C0FF054623689B6813F039
:10178000010F0ED0FFF7B8FF401B0228F5D9236CDC
:1017900043F010032364636C43F00103636401208E
:1017A000CCE70020CAE70020C8E7000038B502688F
:1017B000936803F00303012B0DD09168184B194275
:1017C0000FD0036C43F010030364436C43F0010338
:1017D0004364012038BD136813F0010FEDD00020E1
:1017E000F8E70446936843F001039360FFF784FF32
:1017F000054623681B6813F0010F0ED1FFF77CFF2D
:10180000401B0228F5D9236C43F010032364636C5A
:1018100043F0010363640120DCE70020DAE700BF46
:101820003F00008030B597B000230193002800F0FE
:10183000F7800446036C13F0100F52D1036CABB168
:10184000002023689A6812F0805F03D09B6813F031
:10185000005F47D0236C23F0120343F0100323648E
:10186000636C43F00103636401203BE04364C364A1
:10187000836480F83C30FFF7E1FD23689B6813F038
:10188000805F01D00020DCE72046FFF74FFF236C8C
:1018900013F0100FD5D10028D3D1236C23F4885333
:1018A00023F0020343F0020323642268936823F0C9
:1018B000405393602268936843F080539360594B80
:1018C0001B68594AA2FB03239B0C03EB83035A00BA
:1018D000019202E0019B013B0193019B002BF9D196
:1018E000AFE70020236C13F0100F40F09080002829
:1018F00040F08D8023689A6812F0040240F08780DF
:10190000216C21F4817141F002012164B3F1A04FF7
:1019100054D04FF0A0410291996801F003010129D0
:101920004FD0029B23B1996801F0030101294DD0EA
:101930003E498B6823F4403365682B438B60617E9E
:101940004B03656B012D01D04FF480521343E268C5
:101950001343A268134394F82020012A3BD0A26AC3
:10196000012A02D0E16A0A4313432268916811F008
:101970000C0F0CD1D16821F4804121F00201D1601B
:10198000217E94F83020520042EA813213432168CC
:10199000CD68274A2A401343CB602369012B2DD001
:1019A0002268136B23F00F03136300236364236C1B
:1019B00023F0030343F0010323642FE01D49029148
:1019C000AAE71B6813F0010FB9D1AAE71B6813F04F
:1019D000010FB4D1ACE731B9626A013A43EA42433C
:1019E00043F48033BBE7226C22F0220242F0200253
:1019F0002264626C42F001026264B0E721680B6B02
:101A000023F00F03E269013A13430B63CDE7236C24
:101A100023F0120343F010032364012017B030BDFC
:101A20000120FBE70000002083DE1B430003005081
:101A300007C0F0FF0001005003689B6813F0040F1B
:101A400072D190F83C30012B71D010B504460123BF
:101A500080F83C30FFF7AAFE034600285FD1226CD5
:101A600022F4706222F0010242F480722264314A50
:101A7000926812F01F0F17D02168B1F1A04F13D058
:101A8000226C42F4801222642B4A91421BD14FF007
:101A9000A042D26812F0007F15D0226C22F440528E
:101AA00042F4805222640EE0226C22F480122264FE
:101AB0002268D26812F0007F05D0226C22F44052D6
:101AC00042F480522264226C12F4805F24D0626C53
:101AD00022F006026264002284F83C2022681C2165
:101AE0001160144A926812F01F0F0FD0114A9268C9
:101AF00002F01F02052A09D00E4A926802F01F0266
:101B0000092A03D02268B2F1A04F0BD121688A685C
:101B100042F004028A6005E000226264DBE70022F2
:101B200084F83C20184610BD022318467047022353
:101B3000FBE700BF00030050000100502DE9F04119
:101B40004369082B24D0414B9B6813F01F0F0FD122
:101B50000368DB6813F0010F01D10C2619E0036C58
:101B600043F020030364002380F83C30012068E048
:101B7000364B9B6813F4404F01D10C2609E0036CEF
:101B800043F020030364002380F83C30012058E038
:101B900008262E4B9B6813F01F0F07D00368B3F184
:101BA000A04F03D04FF0A043DF6801E00368DF6877
:101BB0000D460446FFF7A0FD804623681A683242AE
:101BC00012D1B5F1FF3FF8D02DB1FFF795FDA0EB95
:101BD0000800A842F1D9236C43F0040323640023D6
:101BE00084F83C3003202CE0226C42F40072226422
:101BF000DA6812F4406F1FD117F4005F1CD11A6825
:101C000012F0080F18D09A6812F0040F0CD1226C51
:101C100022F480722264226C12F4805F0CD1226C58
:101C200042F00102226407E0226C42F020022264AA
:101C3000626C42F00102626417F4804F03D11E60AF
:101C40000020BDE8F0810020FBE700BF000300504A
:101C50000368186C7047000030B496B000220192FF
:101C600090F83C20012A00F0A4810346012280F86C
:101C70003C200068826812F0040F40F08F814A68AF
:101C8000042A31D8046B02EB420255001F22AA40FD
:101C900024EA02020C68AC4022430263186882689E
:101CA00012F00C0F68D10A68092A4ED9846902EB38
:101CB00042021E3A0725954024EA05048D6805FA7C
:101CC00002F22243826148691C68E268C2F3C102E1
:101CD000520000FA02F208690138032800F28B80F2
:101CE000DFE800F04068737E092A0ED8446B02EBEF
:101CF000420255001E3D1F22AA4024EA02020C683F
:101D000004FA05F52A434263C8E70E2A0ED8846B0D
:101D100002EB420255003C3D1F22AA4024EA020287
:101D20000C6804FA05F52A438263B7E7C46B02EB3B
:101D3000420255005A3D1F22AA4024EA02020C68C2
:101D400004FA05F52A43C263A8E7446902EB42029C
:101D50000725954024EA05048D6805FA02F222431E
:101D60004261B0E7206E944D0540086842EA806207
:101D7000154345F0004525661868826802F00302A5
:101D8000012A6BD0CA68012A6ED0D0F8B0200D6845
:101D90000124AC4022EA0402C0F8B0200A68102AEC
:101DA00000F08B80112A00F0A980122A00F0AC808C
:101DB0000020F8E0606E804D0540086842EA8062CD
:101DC000154345F000456566D6E7A06E7A4D05409F
:101DD000086842EA8062154345F00045A566CBE7F6
:101DE000E56E754828400D6842EA8562024342F07C
:101DF0000042E266C0E7226E02F0F8420868B2EBE9
:101E0000806F1CD01868426E02F0F8420C68B2EB8A
:101E1000846F19D01868826E02F0F8420C68B2EB39
:101E2000846F16D01868C26E02F0F8420C68B2EBEC
:101E3000846FA1D1C26E22F00042C2669CE7226E7E
:101E400022F000422266DDE7426E22F00042426646
:101E5000E0E7826E22F000428266E3E7026812F059
:101E6000010F8FD000209EE0D0F8B0200D68012433
:101E7000AC402243C0F8B0200A68092A0ED91D6878
:101E8000A86902EB42021B3A0724944020EA0400AE
:101E90008C6804FA02F20243AA617FE71D68686950
:101EA000013202EB42020724944020EA04008C68CD
:101EB00004FA02F202436A6170E74049896811F44A
:101EC000000F7FF46FAF1868B0F1A04F23D04FF030
:101ED000A0410291816801F0030101291ED00299FD
:101EE00021B18C6804F00304012C21D0102A24D0E5
:101EF000112A42D0122A4AD0002054E02F49896882
:101F000011F0807FDFD050E72C49896811F4800FF1
:101F1000D9D0002047E02A490291DBE7016811F09F
:101F2000010FDCD01A6C42F020021A6401203AE062
:101F3000096811F0010FF5D1D8E7B0F1A04FD7D162
:101F40001E498A6842F400028A601E4A1268A1F1A2
:101F50004E61A1F58421A1F27D41A1FB0212920CF8
:101F600002EB82025100019102E0019A013A0192D2
:101F7000019A002AF9D1002015E0B0F1A04FB9D1A3
:101F80000E498A6842F080728A6000200BE00B499B
:101F90008A6842F480028A60002004E01A6C42F0F1
:101FA00020021A640120002283F83C2016B030BCC5
:101FB00070470220FAE700BF00F0FF8300030050E3
:101FC000000100500000002070B495B00346026884
:101FD000B2F1A04F3AD04FF0A040009000980028F6
:101FE00073D093F83C40012C71D0012483F83C401D
:101FF000926812F0040F5DD1826812F0040F59D17B
:102000000A68002A31D0334DAA6822F460424C6835
:1020100093F8306044EA46342243AA601C68A26800
:1020200002F00302012A14D0826802F00302012A9E
:1020300015D0284CA26822F4716222F00F020868C1
:10204000896801430A43A260002038E022480090DA
:10205000C4E7226812F0010FE6D000202FE00268EA
:1020600012F0010FE5D0002029E01A498A6822F415
:1020700060428A6019688A6802F00302012A0DD062
:10208000826802F00302012A0ED012498A6822F403
:10209000716222F00F028A60002010E00A6812F0DC
:1020A000010FEDD000200AE0026812F0010FECD021
:1020B000002004E01A6C42F020021A640120002281
:1020C00083F83C2015B070BC70470120FAE702206D
:1020D000F8E700BF0003005000010050002800F0A6
:1020E000A18038B5044690F82030D3B12268136837
:1020F00023F002031360FFF7FFFA054623685A68CE
:1021000012F0020F10D0FFF7F7FA401B0A28F5D99A
:10211000636A43F400336362052384F820300120AE
:1021200038BDFFF7F1F9E1E71A6842F001021A60E1
:10213000FFF7E2FA054623685A6812F0010F0DD145
:10214000FFF7DAFA401B0A28F5D9636A43F4003333
:102150006362052384F820300120E1E7227E012A12
:102160003DD01A6822F080021A60637E012B3BD0BA
:102170002268136823F040031360A37E012B39D03B
:102180002268136823F020031360E37E012B37D00D
:102190002268136843F010031360237F012B35D0AE
:1021A0002268136823F008031360637F012B33D088
:1021B0002268136823F004031360A368E2681343E2
:1021C00022691343626913436268013A2168134329
:1021D000CB6100206062012384F82030A0E71A68F8
:1021E00042F080021A60C0E72268136843F040039F
:1021F0001360C2E72268136843F020031360C4E74A
:102200002268136823F010031360C6E7226813687E
:1022100043F008031360C8E72268136843F004031F
:102220001360CAE701207047036890F82020013A44
:10223000D2B2012A05D9436A43F4802343620120C4
:10224000704770B4D3F8002242F00102C3F80022B4
:102250004A6902F01F02012000FA02F2D3F81C4280
:10226000D0430440C3F81C42CC69ACB9D3F80C424B
:102270000440C3F80C42CE688D884C6945EA064597
:10228000483443F834508E680D884C6945EA064559
:10229000483403EBC4046560CC69012C19D08C6907
:1022A00074BBD3F804420440C3F804420C696CBB0D
:1022B000D3F814422040C3F81402096A01292BD034
:1022C000D3F8002222F00102C3F80022002070BCE3
:1022D0007047D3F80C421443C3F80C420E688D8843
:1022E0004C6945EA0645483443F834508E688D8978
:1022F0004C6945EA0645483403EBC4046560CEE703
:10230000D3F804421443C3F80442CFE7D3F81402CD
:102310001043C3F81402D0E7D3F81C120A43C3F8E1
:102320001C22CDE738B590F82030DBB2012B05D068
:10233000436A43F400234362012038BD044602236C
:1023400080F820300268136823F001031360FFF760
:10235000D3F9054623685B6813F0010F0DD0FFF732
:10236000CBF9401B0A28F5D9636A43F40033636252
:10237000052384F820300120DFE700206062DCE7DD
:1023800070B490F820400568AD68013CE4B2012CBF
:1023900006D9436A43F480234362012070BC70472E
:1023A00015F0E05F5BD0C5F30165022D3ED8012436
:1023B000AC401C608B68002B3ED10E68CB68046873
:1023C00043EA465605F118031B01E65003680C6901
:1023D00005F1180603EB06135C600B7D012B36D06C
:1023E000D17993791B0443EA0163517943EA0123CC
:1023F0001479016823432C012144C1F88C31D17830
:1024000093781B0443EA0163517843EA012311786E
:1024100002680B432244C2F88831026818352D0146
:10242000535943F0010353510020B7E7436A43F483
:10243000000343620120B1E74C6843EAC403CC685F
:102440000668234305F1180424013351BEE70368ED
:1024500003EB0613596841F480715960C0E7436A81
:1024600043F400134362012098E730B490F8204011
:10247000013CE4B2012C06D9436A43F48023436251
:10248000012030BC704700296FD10468E46814F063
:10249000030F64D0056801F11B0424012C5904F0DA
:1024A00004049460002C6BD1056801F11B04240125
:1024B0002C59640D1460056801F11B0424012D5989
:1024C00005F00205D560056825446D6805F00F0527
:1024D0001561056825446D68C5F307259561056894
:1024E0002C446468240C546104680A011444D4F830
:1024F000B8411C7004681444D4F8B841C4F30724EC
:102500005C7004681444D4F8B841C4F307449C7068
:1025100004681444D4F8B841240EDC7004681444F0
:10252000D4F8BC411C7104681444D4F8BC41C4F311
:1025300007245C7104681444D4F8BC41C4F3074414
:102540009C7104682244D2F8BC21120EDA71F9B9E8
:102550000268D36843F02003D360002091E7436A08
:1025600043F40013436201208BE70468246914F0EC
:10257000030F8FD1436A43F400134362012080E7C5
:10258000056801F11B0424012C59E408546092E70A
:102590000268136943F020031361002071E790F88B
:1025A0002030013BDBB2012B05D9436A43F4802381
:1025B000436201207047026853691943516100204A
:1025C0007047704770477047704770477047704753
:1025D000704770477047704770472DE9F84F0546C0
:1025E00003685C695F689E68D3F80C90D3F810802C
:1025F000D3F818A014F0010F5AD016F0010F17D01D
:1026000001229A6016F0020F08D116F0040F30D1A3
:1026100016F0080F07D04FF4805B0BE0FFF7D1FFF7
:102620004FF0000B06E0FFF7CFFF4FF0000B01E08B
:102630004FF0000B16F4807F0BD02B684FF48072A4
:102640009A6016F4007F17D116F4806F18D04BF4FF
:10265000005B16F4803F2DD02B684FF480329A60D7
:1026600016F4003F16D116F4802F17D04BF4004B10
:1026700020E04FF4006BDDE72846FFF7A3FFE8E713
:1026800016F4006F02D04BF4804BE2E72846FFF7C8
:102690009CFFDEE72846FFF796FF0BE016F4002FBD
:1026A00002D04BF4803B05E02846FFF78FFF01E0A6
:1026B0004FF0000B14F0080F07D019F0100F04D0E2
:1026C0004BF4007B2B681022DA6014F0040F02D068
:1026D00019F0080F60D114F0020F04D02B68DB68EA
:1026E00013F0030F5FD114F0400F07D018F0100F54
:1026F00004D04BF4806B2B6810221A6114F0200F69
:1027000002D018F0080F52D114F0100F04D02B682B
:102710001B6913F0030F51D114F4003F02D017F0DE
:10272000100F4FD114F4803F02D017F0080F50D192
:1027300014F4004F67D017F0040F61D014F4807FB9
:1027400004D01AF0010F01D04BF0010B14F4007FFC
:1027500004D01AF0020F01D04BF0020B14F4806F7A
:1027600004D01AF0040F01D04BF0040B14F4006FE6
:1027700046D01AF0700A43D0BAF1300F48D02FD9A2
:10278000BAF1500F47D0BAF1600F47D0BAF1400FFD
:1027900031D14BF0400B2EE02B680822DA6028463E
:1027A000FFF715FF97E72846FEF708FE9BE72B6823
:1027B00008221A612846FFF70CFFA5E72846FFF715
:1027C00007FFA9E72B6810225A602846FFF702FF8F
:1027D000A8E72B6808225A602846FFF7FCFEA7E707
:1027E000BAF1100F05D0BAF1200F04D14BF0100B45
:1027F00001E04BF0080B2A68936923F070039361A2
:102800002B6804225A60BBF1000F0AD1BDE8F88F93
:102810004BF0200BEFE74BF0800BECE74BF4807BA9
:10282000E9E76B6A43EA0B036B622846FFF7D4FEC5
:10283000ECE70000074AD36823F4E0631B041B0C99
:10284000000200F4E060184340F0BF6040F4003044
:10285000D060704700ED00E030B4174BDB68C3F385
:102860000223C3F10704042C28BF04241D1D062DD8
:1028700018D9033B4FF0FF3505FA04F421EA0401AF
:10288000994005FA03F322EA0303194300280BDBFE
:102890000901C9B200F1604000F5614080F8001301
:1028A00030BC70470023E5E700F00F000901C9B212
:1028B000024B1954F4E700BF00ED00E014ED00E016
:1028C000002807DB00F01F02400901239340024A61
:1028D00042F82030704700BF00E100E00138B0F15D
:1028E000807F0AD2064B5860064AF02182F82310F6
:1028F0000020986007221A6070470120704700BFCF
:1029000010E000E000ED00E0704708B5FFF7FCFFC5
:1029100008BD0000F0B583B0002336E0032400E0DA
:102920000024B4403C430235584E46F82540584CEC
:102930002568D44304EA05064F6817F4803F01D0A8
:1029400042EA0506524D2E606D6804EA05064F689E
:1029500017F4003F01D042EA05064D4D6E60AD68A8
:1029600004EA05064F6817F4801F01D042EA050605
:10297000474DAE60ED682C404E6816F4001F01D044
:1029800042EA0504424AD46001330A6832FA03F489
:1029900079D001249C402240F6D04D686E1E012E55
:1029A00003D9112D01D0122D12D186685F000325A5
:1029B000BD4026EA0506CD68BD40354385604668C2
:1029C00026EA04064D68C5F300149C403443446075
:1029D000C5685F000324BC40E44325408E68BE40C8
:1029E0002E43C6604D68022D01D0122D13D1DE0892
:1029F000083650F826E003F007054FEA850C0F254E
:102A000005FA0CF52EEA050E0D6905FA0CF545EAF6
:102A10000E0540F8265005682C404D6805F003056A
:102A2000BD402C4304604C6814F0805FACD0194C5E
:102A3000A56945F00105A561A46904F001040194AC
:102A4000019C9D08AE1C114C54F8267003F0030441
:102A5000A6000F24B44027EA0407B0F1904F3FF4DA
:102A60005FAF0D4CA0420AD004F58064A04208D0AC
:102A700004F58064A0423FF451AF052451E70124DE
:102A80004FE702244DE703B0F0BD00BF0000014056
:102A90000004014000100240000400480AB98162AD
:102AA000704781617047436901EA030221EA03012B
:102AB00041EA024181617047002800F00D8370B542
:102AC00082B00446036813F0010F3BD0B54B5B683E
:102AD00003F00C03042B1ED0B24B5B6803F00C0315
:102AE000082B13D06368B3F5803F68D0002B40F00B
:102AF000928003F1804303F504331A6822F4803294
:102B00001A601A6822F480221A605DE0A54B5B68A7
:102B100013F4803FE6D04FF4003393FAA3F3A14BB4
:102B200019684FF4003393FAA3F3B3FA83F303F075
:102B30001F03012202FA03F30B4203D06368002B48
:102B400000F0CC82236813F0020F00F0C680954B92
:102B50005B6813F00C0F00F09C80924B5B6803F0F5
:102B60000C03082B00F08F802369002B00F0F3800A
:102B7000012292FAA2F3B3FA83F303F1845303F52B
:102B800084139B001A60FEF7B7FD0546022393FAF3
:102B9000A3F3844B1968022393FAA3F3B3FA83F3E4
:102BA00003F01F03012202FA03F30B4240F0C4803A
:102BB000FEF7A2FD401B0228E8D9032095E2794ADE
:102BC000136843F480331360764AD36A23F00F030B
:102BD000A1680B43D3626368002B36D0FEF78CFDEF
:102BE00005464FF4003393FAA3F36E4B19684FF484
:102BF000003393FAA3F3B3FA83F303F01F03012224
:102C000002FA03F30B429DD1FEF776FD401B6428C8
:102C1000E7D9032069E2B3F5A02F09D0614B1A6808
:102C200022F480321A601A6822F480221A60CBE7FC
:102C300003F18043A3F53C331A6842F480221A6002
:102C40001A6842F480321A60BEE7FEF755FD054669
:102C50004FF4003393FAA3F3524B19684FF4003347
:102C600093FAA3F3B3FA83F303F01F03012202FAEA
:102C700003F30B423FF466AFFEF73EFD401B6428B2
:102C8000E6D9032031E2474B5B6813F4803F7FF4C1
:102C90006BAF022393FAA3F3424B1968022393FA12
:102CA000A3F3B3FA83F303F01F03012202FA03F341
:102CB0000B4204D02369934201D0012015E2394828
:102CC000036823F0F8036169F82292FAA2F2B2FADB
:102CD00082F201FA02F213430360236813F0080F33
:102CE00000F08C80A369002B60D0012191FAA1F241
:102CF000B2FA82F22C4B13449B001960FEF7FCFCE5
:102D00000546022393FAA3F293FAA3F293FAA3F2ED
:102D1000244A516A93FAA3F3B3FA83F303F01F032F
:102D2000012202FA03F30B4268D1FEF7E5FC401BD7
:102D30000228E6D90320D8E11A48036823F0F803F3
:102D40006169F82292FAA2F2B2FA82F201FA02F270
:102D500013430360C1E7012393FAA3F3B3FA83F3A8
:102D600003F1845303F584139B0000221A60FEF7DD
:102D7000C3FC0546022393FAA3F30A4B1968022306
:102D800093FAA3F3B3FA83F303F01F03012202FAC9
:102D900003F30B42A1D0FEF7AFFC401B0228E9D998
:102DA0000320A2E10010024020819010012292FA3B
:102DB000A2F2B2FA82F2BC4B13449B0000221A60CA
:102DC000FEF79AFC0546022393FAA3F293FAA3F2C4
:102DD00093FAA3F2B54A516A93FAA3F3B3FA83F3D1
:102DE00003F01F03012202FA03F30B4206D0FEF7A1
:102DF00083FC401B0228E6D9032076E1236813F008
:102E0000040F00F0B380A94BDB6913F0805F20D181
:102E1000A64BDA6942F08052DA61DB6903F0805335
:102E20000193019B0125A24B1B6813F4807F12D0F4
:102E3000E368012B23D073BB03F1804303F5043314
:102E40001A6A22F001021A621A6A22F004021A6255
:102E50001AE00025E7E7964A136843F4807313608D
:102E6000FEF74AFC0646924B1B6813F4807FDFD1C5
:102E7000FEF742FC801B6428F5D9032035E18B4A1C
:102E8000136A43F001031362E368002B41D0FEF79D
:102E900033FC06462BE0052B09D0844B1A6A22F03E
:102EA00001021A621A6A22F004021A62ECE77F4BEE
:102EB0001A6A42F004021A621A6A42F001021A62A5
:102EC000E2E77A4B196A022393FAA3F3B3FA83F386
:102ED00003F01F03012202FA03F3194245D1FEF762
:102EE0000BFC801B41F28833984200F2F9800223E8
:102EF00093FAA3F293FAA3F3B3FA83F35B0943F0D3
:102F00000203022BDDD0022393FAA3F3674B596A25
:102F1000D9E7FEF7F1FB064615E0644B196A022378
:102F200093FAA3F3B3FA83F303F01F03012202FA27
:102F300003F3194219D0FEF7DFFB801B41F28833FF
:102F4000984200F2CF80022393FAA3F293FAA3F3FC
:102F5000B3FA83F35B0943F00203022BDDD00223B3
:102F600093FAA3F3514B596AD9E7B5BBE369002B38
:102F700000F0BA804D4A526802F00C02082A00F0B4
:102F80009980022B2FD04FF0807393FAA3F3B3FAFA
:102F900083F303F1845303F584139B0000221A602A
:102FA000FEF7AAFB04464FF0007393FAA3F33F4BDE
:102FB00019684FF0007393FAA3F3B3FA83F303F0A5
:102FC0001F03012202FA03F319426BD0FEF794FBB0
:102FD000001B0228E7D9032087E0344AD36923F095
:102FE0008053D361C2E74FF0807393FAA3F3B3FA2F
:102FF00083F303F1845303F584139B0000221A60CA
:10300000FEF77AFB05464FF0007393FAA3F3274BC4
:1030100019684FF0007393FAA3F3B3FA83F303F044
:103020001F03012202FA03F3194206D0FEF764FBE4
:10303000401B0228E7D9032057E01C494B6823F4C2
:103040007413626A206A024313434B604FF080732B
:1030500093FAA3F3B3FA83F303F1845303F58413D0
:103060009B0001221A60FEF747FB04464FF00073F5
:1030700093FAA3F30D4B19684FF0007393FAA3F37F
:10308000B3FA83F303F01F03012202FA03F3194298
:1030900006D1FEF731FB001B0228E7D9032024E00C
:1030A000002022E0002020E020819010001002404B
:1030B00000700040012B1AD00F4B5B6803F4803185
:1030C000226A914201D001200FE003F47013626A7A
:1030D00093420ED0012008E001207047012004E057
:1030E000032002E0032000E0002002B070BD0120B8
:1030F000FBE70020F9E700BF0010024010B4174BB7
:103100005C6804F00C03082B26D104F470124FF411
:10311000701393FAA3F3B3FA83F322FA03F310497B
:10312000C85C0E4BDB6A03F00F030F2292FAA2F287
:10313000B2FA82F2D3400B441A7C14F4803F05D1DA
:10314000084B03FB00F05DF8044B7047064BB3FBE4
:10315000F2F300FB03F0F6E70348F4E70010024047
:10316000A047000800093D0000127A00002800F086
:10317000C18070B50446614B1B6803F007038B42A6
:103180000CD25E4A136823F007030B4313601368E5
:1031900003F007038B4201D0012070BD236813F0B8
:1031A000020F06D0564A536823F0F003A068034389
:1031B00053600D46236813F0010F5AD06368012B4A
:1031C0002DD0022B40D0022292FAA2F24C4A106873
:1031D000022292FAA2F2B2FA82F202F01F02012156
:1031E00001FA02F2104200F0878045494A6822F055
:1031F000030213434B60FEF77FFA0646404B5B68C1
:1032000003F00C036268B3EB820F32D0FEF774FA5E
:10321000801B41F288339842F0D90320BDE74FF478
:10322000003292FAA2F2364A10684FF4003292FA53
:10323000A2F2B2FA82F202F01F02012101FA02F2B6
:103240000242D2D10120A8E74FF0007292FAA2F216
:103250002B4A10684FF0007292FAA2F2B2FA82F290
:1032600002F01F02012101FA02F21042BDD1012039
:1032700093E7224B1B6803F00703AB420CD91F4AAC
:10328000136823F007032B431360136803F007034D
:10329000AB4201D0012080E7236813F0040F06D071
:1032A000174A536823F4E063E1680B4353602368D3
:1032B00013F0080F07D0124A536823F460532169B2
:1032C00043EAC1035360FFF719FF0D4B5B6803F03E
:1032D000F003F02292FAA2F2B2FA82F2D340094A43
:1032E000D35CD840084B1860084B1868FEF7C2F949
:1032F000002052E70120704701204EE700200240E5
:10330000001002408847000800000020080000204C
:10331000014B1868704700BF0000002008B5FFF798
:10332000F7FF074B5B6803F4E0634FF4E06292FA47
:10333000A2F2B2FA82F2D340024AD35CD84008BD6E
:10334000001002409847000808B5FFF7E1FF074B5F
:103350005B6803F460534FF4605292FAA2F2B2FA3F
:1033600082F2D340024AD35CD84008BD001002402C
:1033700098470008F0B583B00446036813F4803F13
:1033800044D05F4BDB6913F0805F6ED15C4BDA6930
:1033900042F08052DA61DB6903F080530193019BB4
:1033A0000125584B1B6813F4807F60D0544B1B6A77
:1033B00013F4407321D0626802F440729A421CD028
:1033C0004F48016A21F440764FF4803393FAA3F218
:1033D000B2FA82F24C4F3A4492004FF0010CC2F81C
:1033E00000C093FAA3F3B3FA83F33B449B0000229B
:1033F0001A60066211F0010F4DD1414A136A23F49D
:10340000407361680B431362002D6FD1236813F082
:10341000010F06D03A4A136B23F00303A1680B4354
:103420001363236813F0200F06D0354A136B23F083
:103430001003E1680B431363236813F0800F06D079
:103440002F4AD36A23F4F87321690B43D3622368AC
:1034500013F4805F51D02A4A136B23F4807361699F
:103460000B431363002003B0F0BD002599E7254A04
:10347000136843F480731360FEF73EF90646214B50
:103480001B6813F4807F91D1FEF736F9801B642806
:10349000F5D90320E7E7FEF72FF9064614E0184BAD
:1034A000196A022393FAA3F3B3FA83F303F01F0319
:1034B000012202FA03F30B429FD1FEF71DF9801B94
:1034C00041F28833984216D8022393FAA3F293FA72
:1034D000A3F3B3FA83F35B0943F00203022BDED0BC
:1034E000022393FAA3F3064B596ADAE7D36923F070
:1034F0008053D3618AE70320B5E70020B3E700BF1C
:1035000000100240007000400081901010B5044689
:1035100083680269134342691343C2691343016814
:1035200008686C4A024013430B602268536823F416
:103530004053E1680B435360A269236A1A43216830
:103540008B6823F4306313438B602368624A934291
:1035500015D0624A934228D002F58062934220D06F
:103560001023E269B2F5004F21D0082B00F2AB80A6
:10357000DFE803F06C818BA996A9A9A9A000584B9C
:103580001B6B03F00303032B09D8DFE803F00204ED
:10359000060C0023E5E70423E3E70823E1E7102313
:1035A000DFE70023DDE70223DBE70023D9E7082B71
:1035B00049D8DFE803F0051E2948344848483F0051
:1035C000FFF7ACFE6268530803EB4003B3FBF2F372
:1035D0009BB20020A3F110014FF6EF72914275D813
:1035E0009AB222F00F02C3F3420313432268D3605E
:1035F0003DE0FFF7A9FE6268530803EB4003B3FB0D
:10360000F2F39BB20020E5E76268530803F5740308
:1036100003F51053B3FBF2F39BB20020DAE7FFF798
:103620006DFD6268530803EB4003B3FBF2F39BB2FA
:103630000020CFE76268530803F58033B3FBF2F351
:103640009BB20020C6E701200023C3E7FFF766FE18
:10365000626800EB5203B3FBF2F39BB20020A3F1CC
:1036600010014FF6EF72914232D82268D3600023E6
:103670002366636610BDFFF767FE626800EB5203C6
:10368000B3FBF2F39BB20020E9E76268530803F54D
:10369000F40303F59053B3FBF2F39BB20020DEE793
:1036A000FFF72CFD626800EB5203B3FBF2F39BB211
:1036B0000020D4E76268530803F50043B3FBF2F33C
:1036C0009BB20020CBE701200023C8E70120CEE712
:1036D0000120CCE7F369FFEF0038014000440040CF
:1036E00000100240436A13F0010F06D002685368CD
:1036F00023F40033816A0B435360436A13F0020FD3
:1037000006D00268536823F48033C16A0B435360C8
:10371000436A13F0040F06D00268536823F4802331
:10372000016B0B435360436A13F0080F06D0026825
:10373000536823F40043416B0B435360436A13F017
:10374000100F06D00268936823F48053816B0B43FB
:103750009360436A13F0200F06D00268936823F445
:103760000053C16B0B439360436A13F0400F0AD0C0
:103770000268536823F48013016C0B435360036C9D
:10378000B3F5801F0BD0436A13F0800F06D0026898
:10379000536823F40023816C0B4353607047026825
:1037A000536823F4C003416C0B435360EBE72DE9EE
:1037B000F04104460F4616469846069D2368DB698D
:1037C00037EA03030CBF01230023B3423AD1B5F11A
:1037D000FF3FF3D0FDF790FFA0EB0800A8421FD8F1
:1037E000F5B123681A6812F0040FE7D0DA6912F411
:1037F000006FE3D04FF400621A622268136823F46A
:10380000D07313602268936823F001039360202330
:103810006367A367E367002384F87030032012E036
:103820002268136823F4D07313602268936823F02E
:103830000103936020236367A367002384F870303B
:10384000032000E00020BDE8F0812DE9F04182B0C6
:103850001E46436F202B55D104460D469046002945
:1038600055D0002A55D090F87030012B53D0012349
:1038700080F870300023C36721234367FDF73CFFC6
:103880000746A4F85080A4F85280A368B3F5805F7F
:1038900002D04FF0000813E0236913B14FF0000885
:1038A0000EE0A84600250BE038F8023B2268C3F37F
:1038B00008031385B4F85230013B9BB2A4F8523090
:1038C000B4F852309BB273B100963B46002280217F
:1038D0002046FFF76CFF00BB002DE5D0236815F8EC
:1038E000012B1A85E6E700963B4600224021204640
:1038F000FFF75DFF034690B920226267002284F83B
:10390000702000E00223184602B0BDE8F0810123D8
:10391000F9E70123F7E70223F5E70323F3E703239E
:10392000F1E730B583B004460023C367FDF7E4FE3A
:10393000054623681B6813F0080F0CD123681B6829
:1039400013F0040F15D120236367A367002084F8C8
:10395000700003B030BD6FF07E4300930346002239
:103960004FF400112046FFF722FF0028E6D0032085
:10397000EFE76FF07E4300932B4600224FF4800167
:103980002046FFF714FF0028DDD00320E1E768B3ED
:1039900010B50446436F03B324236367226813689A
:1039A00023F0010313602046FFF7B0FD012813D078
:1039B000636ABBB92268536823F49043536022685A
:1039C000936823F02A0393602268136843F001038D
:1039D00013602046FFF7A5FF10BD80F87030FDF79B
:1039E000E9FDD9E72046FFF77DFEE3E701207047B8
:1039F000DFF834D0002103E00C4B5B584350043116
:103A00000B480C4B42189A42F6D30B4A02E00023B3
:103A100042F8043B094B9A42F9D3FDF71DFE00F032
:103A20007DFAFDF7E5FAFEE700300020AC4900081A
:103A3000000000207400002074000020900300208B
:103A4000FEE70000F0B52DED028B8BB055EC104B6E
:103A500000F07AF8364BB0EE408AF0EE608A93F9C7
:103A60000060731C0DD022462B4620462946FDF7E8
:103A700005F830B90022002320462946FCF7F4FF60
:103A800038B1B0EE480AF0EE680A0BB0BDEC028B1C
:103A9000F0BD284B0890CDE90245CDE904450193DE
:103AA000B6B9254F4FF06046204629460022002334
:103AB000CDE90667FCF7B0FF88B3022300936846A0
:103AC00000F01CFA98B1089BB3B99DED068BD8E7BE
:103AD0001A4B0022CDE90623204629460022002366
:103AE000FCF79AFF68B102239E420093E7D100F0F1
:103AF0000FFA22230360E6E700F00AFA089B03604E
:103B0000E3E70123022E00930BD100F001FA2123F9
:103B100003600B4800F0F4F98DED060BD3E70123A9
:103B20000093684600F0EAF90028F2D1EDE700BF03
:103B30000C0000206C490008FFFFEFC70000F0FFF9
:103B400068490008000000002DE9F04F51EC100B0F
:103B5000B1F5801F85B00B4680F2CE8021F0004287
:103B6000024300F0D8800029C0F2EA800022DE4B38
:103B7000FCF7EAFCDD4A0B4693426FF0350700F391
:103B8000C180C3F3130505F5152606F6647606F421
:103B9000801686F07F5282F4401242EA05011C151D
:103BA0000022D34BFCF718FBAB1CA4F2FF34C3F389
:103BB00013033C44022B04EB165482468B464FF011
:103BC000000240F3B3804FF08043FCF707FB02464E
:103BD0000B4650465946FCF7E1FD064620460F4687
:103BE000FCF748FC3246CDE902013B4630463946F7
:103BF000CDE90067FCF7A8FC02460B4680468946E3
:103C0000FCF7A2FCA2A3D3E9002306460F46FCF76B
:103C10009BFCA1A3D3E90023FCF7E0FA32463B4624
:103C2000FCF792FC9EA3D3E90023FCF7D7FA3246B7
:103C30003B46FCF789FC9CA3D3E90023FCF7CEFAB2
:103C400042464B46FCF780FC99A3D3E9002380460B
:103C5000894630463946FCF777FC97A3D3E9002321
:103C6000FCF7BCFA32463B46FCF76EFC94A3D3E962
:103C70000023FCF7B3FA32463B46FCF765FC0B46E3
:103C8000024649464046FCF7A9FAA5F5C223C5F508
:103C9000D725A3F27A4351351D43002D06460F4622
:103CA00040F38F800022934B50465946FCF74CFC62
:103CB00052465B46FCF748FC02460B468046894666
:103CC00030463946FCF78AFADDE90023FCF73CFC74
:103CD00006460F46002C40F08B8002460B464046BD
:103CE0004946FCF779FA02460B4650465946FCF71E
:103CF00073FA41EC100B0BE07C4A93424FF0000743
:103D00007FF73FAF02460B46FCF768FA41EC100B19
:103D100005B0BDE8F08F0022002300207649FCF7B3
:103D20003DFD41EC100B05B0BDE8F08F0023FCF722
:103D300073FE80B1002C40F084809FED630BE7E7B9
:103D400010EE102AFCF748FA00220023FCF726FDAB
:103D500041EC100BDCE75EA3D3E900235046594643
:103D6000FCF7F2FB02460B4600206249FCF734FAEE
:103D7000524606460F465B4650465946FCF7E4FB62
:103D800002460B4630463946FCF7DEFB06460F4638
:103D90002CB32046FCF76EFB4FA3D3E900238046EB
:103DA0008946FCF7D1FB4EA3D3E9002304460D4618
:103DB00040464946FCF7C8FB02460B4630463946AA
:103DC0002EE002460B4650465946FCF705FADDE95F
:103DD0000023FCF7B9FB06460F46002C4DD13246B6
:103DE0003B4650465946FCF7F7F941EC100B8FE77C
:103DF00039A3D3E90023DDE90201FCF7A5FB38A3D1
:103E0000D3E9002304460D46DDE90201FCF79CFBE3
:103E100032463B46FCF7E2F902460B46404649462D
:103E2000FCF7DAF952465B46FCF7D6F902460B4638
:103E300020462946FCF7D0F941EC100B05B0BDE84F
:103E4000F08F2046FCF716FB23A3D3E90023064698
:103E50000F46FCF779FB22A3D3E9002304460D4665
:103E600030463946FCF770FB02460B462046294691
:103E7000FCF7B4F941EC100B4AE7DDE9028916A31F
:103E8000D3E90023404649468BE700BFAFF30080EB
:103E900044523EDF12F1C23FDE03CB966446C73F79
:103EA000599322942449D23F935555555555E53F92
:103EB0009FC678D0099AC33FAF788E1DC571CC3F9D
:103EC00004FA97999999D93F00000000000000007A
:103ED000555555555555D53F0000E0FE422EE63F5D
:103EE000763C7935EF39EA3D00005043FFFFEF7F24
:103EF0000000F03F0000E03F000050C3002070478A
:103F00009FED010B704700BF000000000000F87F2C
:103F1000014B1868704700BF1000002070B50D4EAF
:103F20000D4CA41BA4100025A54209D10B4E0C4C2E
:103F300000F01EFCA41BA4100025A54205D170BDF5
:103F400056F8253098470135EEE756F82530984762
:103F50000135F2E7A4490008A4490008A449000873
:103F6000A84900080EB400B59CB01DAB02900690A5
:103F70006FF00041094807910491094953F8042B57
:103F800005910068019302A900F066F8029B0022E7
:103F90001A701CB05DF804EB03B0704710000020ED
:103FA0000802FFFF2DE9F0478E689E4282460C46CC
:103FB0009046994637D88A8912F4906F31D0256897
:103FC00009696F1A6569022305EB450595FBF3F551
:103FD00009F101033B449D4238BF1D46530530D5CE
:103FE000294600F02BFB064650B90C23CAF80030D6
:103FF000A38943F04003A3814FF0FF30BDE8F08771
:104000003A46216900F0A8FAA38923F4906343F0AB
:104010008003A381266165613E44ED1B2660A56097
:104020004E464E4500D94E4632464146206800F085
:104030009EFAA3689B1BA36023681E442660002091
:10404000DCE72A4600F054FB06460028E2D121694D
:10405000504600F0A5FAC8E72DE9F04F1D468B89C0
:104060001F069DB080460C4616460FD50B696BB9EE
:10407000402100F0E3FA2060206128B90C23C8F841
:1040800000304FF0FF30C8E0402363610023099304
:1040900020238DF8293030238DF82A3003954FF0F6
:1040A000010B37463D4615F8013B0BB1252B3ED1A0
:1040B000B7EB060A0BD05346324621464046FFF77F
:1040C00071FF013000F0A480099B534409933B78B1
:1040D000002B00F09D8000234FF0FF32CDE9052337
:1040E000049307938DF853301A932F46052217F83F
:1040F000011B5048FCF734FD049BD0B9D90644BFDE
:1041000020228DF853201A0744BF2B228DF853200C
:104110002A782A2A15D0079A2F4600200A253946E0
:1041200011F8013B303B092B4DD9B8B10FE02F46B8
:10413000B8E7404A801A0BFA00F0184304903D4655
:10414000D3E7039A111D12680391002A01DB07923D
:1041500004E0524243F00203079204933B782E2B73
:104160000CD17B782A2B33D1039B1A1D1B68039239
:10417000002BB8BF4FF0FF33023705932E4D39782F
:1041800003222846FCF7ECFC38B14023401B03FA1D
:1041900000F0049B034301370493397827488DF8D6
:1041A000281006227E1CFCF7DBFC002838D0244BAC
:1041B00013BB039B073323F0070308330393099BC7
:1041C0004B4409936DE705FB023201200F46A6E739
:1041D00000230137059319460A25384610F8012BAC
:1041E000303A092A03D9002BC8D00591C6E705FB50
:1041F000012101230746F0E703AB00932246114B50
:1042000004A94046AFF30080B0F1FF3F8146D6D10C
:10421000A3895B063FF535AF09981DB0BDE8F08F67
:1042200003AB00932246074B04A9404600F082F8F6
:10423000EAE700BF70490008764900087A4900089B
:1042400000000000A53F00082DE9F04791461F46F9
:104250008A680B69DDF820809342B8BF1346C9F81D
:10426000003091F8432006460C4612B10133C9F8DC
:1042700000302368990642BFD9F800300233C9F8EC
:104280000030256815F0060507D104F1190AE36826
:10429000D9F800209B1AAB4228DC94F843302268FE
:1042A000003318BF012392062DD404F1430239468E
:1042B0003046C047013020D02368E568D9F8002097
:1042C00003F00603042B08BFAD1AA36822690CBFD4
:1042D00025EAE57500259342C4BF9B1AED184FF0FF
:1042E00000091A344D451AD1002008E00123524636
:1042F00039463046C047013003D14FF0FF30BDE8AA
:10430000F0870135C3E7E1185A1C302081F84300DB
:10431000224494F8451082F843100233C5E7012384
:10432000224639463046C0470130E6D009F101093E
:10433000D8E700002DE9F04301F1430C0C46097E5B
:1043400085B06E291746064698460C9A00F0B38051
:1043500022D8632936D00AD8002900F0B98058291C
:1043600000F0838004F1420584F8421032E06429B1
:1043700001D06929F6D120681368050603F104010C
:104380002AD51B681160002B03DA2D225B4284F8CA
:1043900043206F480A2239E0732900F09D8008D835
:1043A0006F2920D07029DDD1236843F020032360DA
:1043B00003E0752917D07829D4D1782384F84530C3
:1043C000644855E01368191D1B68116004F142052B
:1043D00084F8423001238CE01B68116010F0400F1C
:1043E00018BF1BB2CFE713682568181D1060280698
:1043F00001D51B6802E06806FBD51B8854486F296D
:1044000014BF0A220822002184F843106568A560C1
:10441000002DC0F29580216821F004012160002B5D
:104420003DD1002D40F08E806546082A0BD12368CF
:10443000DB0708D5236962689A42DEBF302305F89E
:10444000013C05F1FF35ACEB05032361CDF800809D
:104450003B4603AA21463046FFF7F6FE01304DD118
:104460004FF0FF3005B0BDE8F083394884F84510BF
:10447000136821681D1D1B6815600A060BD5CA0745
:1044800044BF41F0200121601BB9226822F02002C4
:1044900022601022B7E74D0648BF9BB2EFE76546A2
:1044A000B3FBF2F102FB1133C35C05F8013D0B468F
:1044B0000029F5D1B9E7136825686169181D1060F6
:1044C00028061B6801D5196002E06A06FBD5198031
:1044D000002323616546B9E71368191D11601D6843
:1044E000626800212846FCF73BFB08B1401B606076
:1044F00063682361002384F84330A7E723692A46D1
:1045000039463046C0470130AAD023689B0713D4F0
:10451000E068039B9842B8BF1846A3E701234A46C8
:1045200039463046C04701309AD00135E368039AD6
:104530009B1AAB42F2DCEBE7002504F11909F5E721
:10454000002BACD1037884F8423004F142056CE7CB
:10455000814900089249000810B5431E0A4491425F
:1045600000D110BD11F8014B03F8014FF7E7884265
:1045700010B501EB020307D8421E99420AD011F888
:10458000014B02F8014FF8E78342F5D98118D21A9E
:10459000D34200D110BD13F8014D01F8014DF7E7EA
:1045A00038B50546002945D051F8043C0C1F002BB6
:1045B000B8BFE41800F0D2F81F4A1368104633B9A8
:1045C000636014602846BDE8384000F0C8B8A342D4
:1045D0000CD921686218934204BF1A685B68636053
:1045E00004BF521822600460ECE713465A680AB10F
:1045F000A242FAD919685818A0420BD12068014488
:10460000581882421960DDD1106852685A6001441E
:104610001960D7E702D90C232B60D3E72068211853
:104620008A4204BF11685268626004BF09182160A1
:104630005C60C7E738BD00BF6002002070B5CD1CCC
:1046400025F0030508350C2D38BF0C25002D064636
:1046500001DBA94203D90C233360002070BD00F0B8
:104660007DF8214A1468214691B9204C23681BB972
:10467000304600F063F820602946304600F05EF8CE
:10468000431C24D10C233360304600F068F8E4E783
:104690000B685B1B18D40B2B0FD90B60CD50CC18BB
:1046A000304600F05CF804F10B00231D20F00700F9
:1046B000C31AD3D05A42E250D0E78C424B6816BF9F
:1046C000636013600C46EBE70C464968CCE7C41CFA
:1046D00024F00304A04205D0211A304600F02EF841
:1046E0000130CFD02560DBE76002002064020020AB
:1046F000F8B5074614460E4621B91146BDE8F84004
:10470000FFF79CBF22B9FFF74BFF25462846F8BDAF
:1047100000F026F8A0420FD221463846FFF78EFF60
:1047200005460028F2D031462246FFF715FF3146F4
:104730003846FFF735FFE9E73546E7E738B5064C79
:104740000023054608462360FCF768FF431C02D19E
:10475000236803B12B6038BD8C030020704770477D
:1047600051F8043C181F002BBCBF0B58C0187047F1
:10477000F8B500BFF8BC08BC9E467047F8B500BF4E
:08478000F8BC08BC9E4670471E
:1047880000000000000000000102030406070809F9
:1047980000000000010203040203040506070809DB
:1047A8000A0B0C0D0E0F1010010203040506070872
:1047B800090A0B0C0D0E0F104144433120434831B8
:1047C8002020285041302D4130292053616D706CD4
:1047D800653A202030782578202054656D703A207D
:1047E80020307825780D0A0041444331204348326F
:1047F8002020285041312D4131292053616D706CA2
:10480800653A202030782578202054656D703A204C
:1048180020307825780D0A0041444331204348343C
:104828002020285041332D4132292053616D706C6E
:10483800653A202030782578202054656D703A201C
:1048480020307825780D0A0041444331204348310F
:104858003120285042302D4433292053616D706C2B
:10486800653A202030782578202054656D703A20EC
:1048780020307825780D0A0A0000000041444331B1
:10488800204348313220285042312D4436292053C4
:10489800616D706C653A2020307825782020566F3D
:1048A8006C743A2020307825780D0A004144433250
:1048B800204348312020285041342D4133292053AA
:1048C800616D706C653A2020307825782020566F0D
:1048D8006C743A2020307825780D0A004144433220
:1048E800204348322020285041352D413429205377
:1048F800616D706C653A2020307825782020566FDD
:104908006C743A2020307825780D0A0041444332EF
:10491800204348342020285041372D413629205340
:10492800616D706C653A2020307825782020566FAC
:104938006C743A2020307825780D0A0A00000000AF
:104948002D2D2D2D2D2D2D2D2D2D2D2D2D2D2D2D8F
:104958002D2D2D2D2D2D2D2D2D2D2D2D2D0D0A0AE5
:10496800000000006C6F6700232D302B2000686C5E
:104978004C0065666745464700303132333435367A
:1049880037383941424344454600303132333435B3
:0C499800363738396162636465660000E0
:0449A400B501000851
:0449A8009101000871
:1049AC0000127A000100000010000000010000005D
:1049BC0014000020000000000000000000000000B7
:1049CC0000000000000000000000000000000000DB
:1049DC0000000000000000000000000000000000CB
:1049EC0000000000000000000000000000000000BB
:1049FC0000000000000000000000000000000000AB
:104A0C00000000000000000000000000000000009A
:044A1C000000000096
:04000005080039F1C5
:00000001FF
