:020000040800F2
:100000000030002041290008E9280008EB280008FA
:10001000ED280008EF280008F12800080000000083
:10002000000000000000000000000000F3280008AD
:10003000F528000800000000F7280008F92800084B
:1000400091290008912900089129000891290008A8
:100050009129000891290008912900089129000898
:10006000912900089129000891290008FD2800081D
:100070000929000891290008912900089129000800
:100080009129000891290008912900089129000868
:100090002129000815290008912900089129000844
:1000A0009129000891290008912900089129000848
:1000B00091290008912900080000000091290008FA
:1000C00091290008000000000000000091290008AC
:1000D00000000000912900089129000891290008DA
:1000E000912900089129000800000000000000008C
:1000F0000000000000000000000000000000000000
:1001000000000000000000000000000000000000EF
:10011000000000000000000091290008912900085B
:1001200000000000000000000000000000000000CF
:1001300000000000000000000000000000000000BF
:10014000912900089129000800000000000000002B
:10015000000000000000000000000000000000009F
:10016000000000000000000000000000000000008F
:10017000000000000000000000000000000000007F
:080180000000000091290008B5
:1001880010B5054C237833B9044B13B10448AFF3C9
:1001980000800123237010BD7400002000000000BF
:1001A800C02E000808B5034B1BB103490348AFF341
:1001B800008008BD0000000078000020C02E000864
:1001C80081F0004102E000BF83F0004330B54FEA00
:1001D80041044FEA430594EA050F08BF90EA020F6D
:1001E8001FBF54EA000C55EA020C7FEA645C7FEA00
:1001F800655C00F0E2804FEA5454D4EB5555B8BF23
:100208006D420CDD2C4480EA020281EA030382EA93
:10021800000083EA010180EA020281EA0303362D25
:1002280088BF30BD11F0004F4FEA01314FF4801CF8
:100238004CEA113102D0404261EB410113F0004F0A
:100248004FEA03334CEA133302D0524263EB4303C1
:1002580094EA050F00F0A780A4F10104D5F1200E5F
:100268000DDB02FA0EFC22FA05F2801841F10001BA
:1002780003FA0EF2801843FA05F359410EE0A5F18E
:1002880020050EF1200E012A03FA0EFC28BF4CF0BF
:10029800020C43FA05F3C01851EBE37101F0004575
:1002A80007D54FF0000EDCF1000C7EEB00006EEB82
:1002B8000101B1F5801F1BD3B1F5001F0CD349080C
:1002C8005FEA30004FEA3C0C04F101044FEA445263
:1002D80012F5800F80F09A80BCF1004F08BF5FEAEA
:1002E800500C50F1000041EB045141EA050130BDCA
:1002F8005FEA4C0C404141EB010111F4801FA4F16D
:100308000104E9D191F0000F04BF01460020B1FAC1
:1003180081F308BF2033A3F10B03B3F120020CDAF9
:100328000C3208DD02F1140CC2F10C0201FA0CF0D7
:1003380021FA02F10CE002F11402D8BFC2F1200C3C
:1003480001FA02F120FA0CFCDCBF41EA0C019040F2
:10035800E41AA2BF01EB0451294330BD6FEA04043B
:100368001F3C1CDA0C340EDC04F11404C4F1200226
:1003780020FA04F001FA02F340EA030021FA04F338
:1003880045EA030130BDC4F10C04C4F1200220FA8F
:1003980002F001FA04F340EA0300294630BD21FACD
:1003A80004F0294630BD94F0000F83F4801306BF93
:1003B80081F480110134013D4EE77FEA645C18BF87
:1003C8007FEA655C29D094EA050F08BF90EA020F1E
:1003D80005D054EA000C04BF1946104630BD91EA16
:1003E800030F1EBF0021002030BD5FEA545C05D119
:1003F8004000494128BF41F0004130BD14F5800458
:100408003CBF01F5801130BD01F0004545F0FE41CB
:1004180041F470014FF0000030BD7FEA645C1ABF00
:10042800194610467FEA655C1CBF0B46024650EA37
:10043800013406BF52EA033591EA030F41F4002163
:1004480030BD00BF90F0000F04BF0021704730B5E9
:100458004FF4806404F132044FF000054FF00001BE
:1004680050E700BF90F0000F04BF0021704730B57F
:100478004FF4806404F1320410F0004548BF404254
:100488004FF000013EE700BF42004FEAE2014FEAA9
:1004980031014FEA02701FBF12F07F4393F07F4F84
:1004A80081F06051704792F0000F14BF93F07F4FB6
:1004B800704730B54FF4607401F0004521F00041F9
:1004C80020E700BF50EA010208BF704730B54FF07F
:1004D80000050AE050EA010208BF704730B511F084
:1004E800004502D5404261EB41014FF4806404F1BC
:1004F80032045FEA915C3FF4DCAE4FF003025FEA3E
:10050800DC0C18BF03325FEADC0C18BF033202EBC5
:10051800DC02C2F1200300FA03FC20FA02F001FA1F
:1005280003FE40EA0E0021FA02F11444C1E600BFBE
:1005380070B54FF0FF0C4CF4E06C1CEA11541DBF71
:100548001CEA135594EA0C0F95EA0C0F00F0DEF83C
:100558002C4481EA030621EA4C5123EA4C5350EA21
:10056800013518BF52EA033541F4801143F4801372
:1005780038D0A0FB02CE4FF00005E1FB02E506F003
:100588000042E0FB03E54FF00006E1FB03569CF058
:10059800000F18BF4EF0010EA4F1FF04B6F5007F5E
:1005A80064F5407404D25FEA4E0E6D4146EB0606D0
:1005B80042EAC62141EA55514FEAC52040EA5E5059
:1005C8004FEACE2EB4F1FD0C88BFBCF5E06F1ED803
:1005D800BEF1004F08BF5FEA500E50F1000041EB3A
:1005E800045170BD06F0004646EA010140EA0200E7
:1005F80081EA0301B4EB5C04C2BFD4EB0C0541EA09
:10060800045170BD41F480114FF0000E013C00F31D
:10061800AB8014F1360FDEBF002001F0004170BD41
:10062800C4F10004203C35DA0C341BDC04F114045A
:10063800C4F1200500FA05F320FA04F001FA05F2E6
:1006480040EA020001F0004221F0004110EBD370B3
:1006580021FA04F642EB06015EEA430E08BF20EADF
:10066800D37070BDC4F10C04C4F1200500FA04F382
:1006780020FA05F001FA04F240EA020001F0004114
:1006880010EBD37041F100015EEA430E08BF20EA87
:10069800D37070BDC4F1200500FA05F24EEA020ECF
:1006A80020FA04F301FA05F243EA020321FA04F0FE
:1006B80001F0004121FA04F220EA020000EBD370B5
:1006C8005EEA430E08BF20EAD37070BD94F0000FB5
:1006D8000FD101F00046400041EB010111F4801FE9
:1006E80008BF013CF7D041EA060195F0000F18BF9A
:1006F800704703F00046520043EB030313F4801FD6
:1007080008BF013DF7D043EA0603704794EA0C0F8F
:100718000CEA135518BF95EA0C0F0CD050EA4106A5
:1007280018BF52EA4306D1D181EA030101F0004122
:100738004FF0000070BD50EA410606BF104619464A
:1007480052EA430619D094EA0C0F02D150EA013656
:1007580013D195EA0C0F05D152EA03361CBF104697
:1007680019460AD181EA030101F0004141F0FE4136
:1007780041F470014FF0000070BD41F0FE4141F4BA
:10078800780170BD70B54FF0FF0C4CF4E06C1CEABA
:1007980011541DBF1CEA135594EA0C0F95EA0C0F6F
:1007A80000F0A7F8A4EB050481EA030E52EA03352A
:1007B8004FEA013100F088804FEA03334FF080554B
:1007C80045EA131343EA12634FEA022245EA111578
:1007D80045EA10654FEA00260EF000419D4208BF29
:1007E800964244F1FD0404F5407402D25B084FEAD6
:1007F8003202B61A65EB03055B084FEA32024FF482
:1008080080104FF4002CB6EB020E75EB030E22BFDE
:10081800B61A754640EA0C005B084FEA3202B6EB9E
:10082800020E75EB030E22BFB61A754640EA5C004D
:100838005B084FEA3202B6EB020E75EB030E22BFDD
:10084800B61A754640EA9C005B084FEA3202B6EBDE
:10085800020E75EB030E22BFB61A754640EADC009D
:1008680055EA060E18D04FEA051545EA16754FEAFF
:1008780006164FEAC30343EA52734FEAC2025FEA1D
:100888001C1CC0D111F4801F0BD141EA00014FF0AC
:1008980000004FF0004CB6E711F4801F04BF01437D
:1008A8000020B4F1FD0C88BFBCF5E06F3FF6AFAE99
:1008B800B5EB030C04BFB6EB020C5FEA500C50F129
:1008C800000041EB045170BD0EF0004E4EEA1131AC
:1008D80014EB5C04C2BFD4EB0C0541EA045170BDB3
:1008E80041F480114FF0000E013C90E645EA060EF7
:1008F8008DE60CEA135594EA0C0F08BF95EA0C0F25
:100908003FF43BAF94EA0C0F0AD150EA01347FF46C
:1009180034AF95EA0C0F7FF425AF104619462CE743
:1009280095EA0C0F06D152EA03353FF4FDAE1046A6
:10093800194622E750EA410618BF52EA43067FF4F7
:10094800C5AE50EA41047FF40DAF52EA43057FF487
:10095800EBAE12E74FF0FF3C06E000BF4FF0010C92
:1009680002E000BF4FF0010C4DF804CD4FEA410CF6
:100978007FEA6C5C4FEA430C18BF7FEA6C5C1BD0C3
:1009880001B050EA410C0CBF52EA430C91EA030F44
:1009980002BF90EA020F0020704710F1000F91EAA1
:1009A800030F58BF994208BF90422CBFD8176FEA6F
:1009B800E37040F0010070474FEA410C7FEA6C5C3D
:1009C80002D150EA013C07D14FEA430C7FEA6C5C44
:1009D800D6D152EA033CD3D05DF8040B704700BF70
:1009E8008446104662468C461946634600E000BFBE
:1009F80001B5FFF7B7FF002848BF10F1000F01BD90
:100A08004DF808EDFFF7F4FF0CBF012000205DF85A
:100A180008FB00BF4DF808EDFFF7EAFF34BF0120DF
:100A280000205DF808FB00BF4DF808EDFFF7E0FF78
:100A380094BF012000205DF808FB00BF4DF808EDC9
:100A4800FFF7CEFF94BF012000205DF808FB00BF30
:100A58004DF808EDFFF7C4FF34BF012000205DF812
:100A680008FB00BF4FEA410C7FEA6C5C02D150EAF8
:100A7800013C0AD14FEA430C7FEA6C5C02D152EA8E
:100A8800033C02D14FF0000070474FF0010070475F
:100A98004A0011D212F5001211D20DD56FF47873F5
:100AA800B3EB62520ED44FEAC12343F0004343EA4A
:100AB800505323FA02F070474FF00000704750EA95
:100AC800013002D14FF0FF3070474FF000007047FF
:100AD80038B50E4A0E4B054618784FF47A73B3FBB7
:100AE800F0F31068B0FBF3F000F0AEFE044658B91E
:100AF8000F2D09D8024629464FF0FF3000F062FE5C
:100B0800044B20461D6038BD012038BD0800002078
:100B18000000002004000020074A08B5136843F0CD
:100B280010031360032000F03BFE0020FFF7D0FF06
:100B380001F0FCFD002008BD00200240034A044BE0
:100B480011681B780B441360704700BF94000020A5
:100B580000000020014B1868704700BF9400002077
:100B680038B50446FFF7F6FF631C1CBF054B1B781E
:100B7800054618BFE418FFF7EDFF401B8442FAD87A
:100B880038BD00BF0000002070477047704738B577
:100B980003680446986800F00300012801D000208B
:100BA80038BD1A68D207FAD59A6802F00D02012AF0
:100BB8001BD19A6842F002029A6003221A60FFF77A
:100BC800C9FF054623689B68DB07E8D5FFF7C2FF26
:100BD800401B0228F6D9236C43F010032364636C8E
:100BE80043F001036364012038BD236C43F0100314
:100BF8002364636C43F00103636438BD38B503684C
:100C08009A6802F00302012A044604D11A68D2073E
:100C180001D5002038BD99680E4A11420FD19A6853
:100C280042F001029A60FFF795FF054623681B68AA
:100C3800DB07EED4FFF78EFF401B0228F6D9236CA2
:100C480043F010032364636C43F0010363640120E1
:100C580038BD00BF3F000080406A036C43F040038A
:100C68000364436C43F004034364FFF78FBF406A97
:100C7800FFF78BBF436A1A6C12F0500F18D11A6C29
:100C880042F400721A641A68D26812F4406F0CD1E8
:100C98005A7E52B91A6C22F480721A641A6CD20401
:100CA8005EBF1A6C42F001021A641846FFF76CBF67
:100CB8009B6B1B6B1847000070B596B0002301931F
:100CC8000446002800F0E580026CD50600F1CE80CD
:100CD800036C002B00F09480002023689A68D200EF
:100CE80002D59B689B000AD5236C23F0120343F0BE
:100CF80010032364636C43F0010363640120236CD5
:100D0800DE0600F1C080002840F0BD8023689968A5
:100D180011F0040140F0B780226C22F4817242F095
:100D28000202B3F1A04F22640CBF5B4A4FF0A0420D
:100D380002929A6802F00302012A02D11A68D507C2
:100D480010D4029A3AB1956805F00305012D02D135
:100D58001268D20706D4514D6668AA6822F4403258
:100D68003243AA60626BA668657E012AE26842EA9D
:100D7800060218BF4FF4805142EA45320A4394F8FC
:100D88002010012907D1002D72D1616A013942EA88
:100D9800414242F48032A16A01291EBFE56A294313
:100DA8000A43996811F00C0F0CD1D968257E21F4FB
:100DB800804121F00201D96094F83010490041EADD
:100DC80085310A43DD68364929400A43DA602269D9
:100DD800012A05BF196BE2691A6B02F1FF3206BFDF
:100DE80021F00F010A4322F00F021A630023636403
:100DF800236C23F0030343F00103236416B070BD92
:100E08004364C364836480F83C3001F0A7FC236822
:100E18009B68D8003FF560AF2046FFF7B8FE226C0C
:100E2800D1063FF55AAF00287FF457AF236C23F45F
:100E3800885323F0020343F00203236423689A686B
:100E480022F040529A609A6842F080529A60154B9C
:100E5800154A1B68B3FBF2F20A2353430193019B23
:100E6800002B3FF439AF019B013BF7E7184646E7F3
:100E7800216C21F0220141F020012164616C41F0D4
:100E88000101616487E7236C23F0120343F0100328
:100E980023640120B2E700BF0001005000030050A6
:100EA80007C0F0FF0800002040420F0038B5036873
:100EB8009D6815F0040504466DD190F83C30012B6F
:100EC80069D0012380F83C30FFF798FE00285FD1F5
:100ED800236C23F4706323F0010343F480732364C9
:100EE8002E4B9B68226C13F01F0F236802D0B3F1BE
:100EF800A04F43D122F480122264DA68950141BFE1
:100F0800226C22F4405242F480522264226C12F481
:100F180080521CBF626C22F006026264002284F8D0
:100F28003C201C221A606269082A5A6803BF22F012
:100F380004025A605A6842F00C0208BF42F00802E4
:100F48005A60626B012A02BF5A6822F010025A6086
:100F5800124A9168C9060CD0916801F01F01052951
:100F680007D0926802F01F02092A02D0B3F1A04FFD
:100F780012D19A6842F004029A6038BD42F4801295
:100F88002264074A9342C1D14FF0A042D268B5E724
:100F980084F83C5038BD022038BD00BF0003005023
:100FA800000100502DE9F84303689B6813F004031F
:100FB80004460F46904671D190F83C20012A6DD026
:100FC800DFF8EC90D9F80850012615F01F0580F8D5
:100FD8003C6060D1FFF712FE0646002858D1206C0D
:100FE800216820F4706020F0010040F480702064D3
:100FF800D9F8083013F01F0F236C02D0B1F1A04FBD
:1010080034D123F480132364CB689A0105D5236C6B
:1010180023F4405343F480532364236CA06B13F4EC
:1010280080531CBF636C23F006036364002384F8B9
:101038003C301B4B83621B4BC3621B4B03631C235B
:101048000B604B6843F010034B60CB6843F001031F
:10105800CB603A464346403100F03CFC2268936836
:1010680043F0040393603046BDE8F88343F48013EB
:1010780023640E4B9942D0D14FF0A043DB689B010B
:1010880041BF206C20F4405040F480502064C4E7F5
:1010980084F83C50E7E780F83C30E4E70226E2E7D2
:1010A8007D0C0008770C0008610C00080001005056
:1010B80000030050F0B597B00023019390F83C303E
:1010C800012B054600F051812B68CE689A680120F3
:1010D800540785F83C0000F1438148680C680428EF
:1010E8004FF0060231D842431F6B1F20904027EA79
:1010F800000004FA02F202431A639A6812F00C0F15
:1011080062D1092C4FEA44028F6846D92244986973
:101118001E3A4FF0070E0EFA02FE20EA0E0007FAFA
:1011280002F202439A61DA68C2F3C10E4A694FEAD1
:101138004E0E02FA0EFE0A69013A4FEA846C032A3F
:1011480073D8DFE802F037515C6709280BD84243AF
:101158005F6B1E3A1F20904027EA000004FA02F253
:1011680002435A63C9E70E280BD842439F6B3C3AA7
:101178001F20904027EA000004FA02F202439A6313
:10118800BBE74243DF6B5A3A1F20904027EA000032
:1011980004FA02F20243DA63AFE7586922444FF0D7
:1011A800070E0EFA02FE20EA0E0007FA02F20243C8
:1011B8005A61B8E71A6E7A4F174047EA0C0242F0B4
:1011C800004242EA0E021A669A6802F00302012AF5
:1011D80040F0CD801A68D00740F1C9800020002374
:1011E80085F83C3017B0F0BD5A6E6D4F174047EA8E
:1011F8000C0242F0004242EA0E025A66E4E79A6E96
:101208006748104040EA0C0242F0004242EA0E02EF
:101218009A66D9E7D86E624A024042EA0C0242F066
:10122800004242EA0E02DA66CEE71A6E02F0F8428F
:10123800624502BF1A6E22F000421A665A6E02F028
:10124800F842944502BF5A6E22F000425A669A6EDE
:1012580002F0F842944502BF9A6E22F000429A6664
:10126800DA6E02F0F8429445AED1DA6E22F000420E
:10127800D9E7D3F8B0200121A14022EA0102C3F83E
:10128800B020102C43D1474A926812F4000FA5D120
:10129800B3F1A04F0CBF444A4FF0A04202929A68A3
:1012A80002F00302012A02D11A68D10752D4029A25
:1012B8003AB1916801F00301012902D11268D207FD
:1012C80048D4102C32D1B3F1A04F87D1354A936856
:1012D80043F400039360354B354A1B68B3FBF2F2C5
:1012E8000A2353430193019B002B3FF477AF019BE3
:1012F800013BF7E7601C596900EB40000722824078
:1013080021EA020106FA00F20A435A61B9E7112CF0
:1013180004D1244A926812F0807FB8E7122C7FF437
:101328005DAF204A926812F4800FB0E7112C09D102
:10133800B3F1A04F7FF452AF1A4A936843F0807319
:1013480093604BE7122C7FF449AF164A936843F435
:101358008003F5E72B6C43F020032B6401203EE764
:101368002B6C43F020032B6439E702203AE7012E67
:101378007FF47FAFD3F8B020A6401643092CC3F8FA
:10138800B0608E68B6D904EB440299691B3A07200D
:10139800904021EA000106FA02F20A439A6170E7D6
:1013A80000F0FF83000300500001005008000020F7
:1013B80040420F00F0B505680C6895B0B5F1A04F34
:1013C8000CBF324A4FF0A042009203460098002812
:1013D80045D093F83C20012A43D0012283F83C20D1
:1013E800AA68570731D4826856072ED4284EB268A7
:1013F80022F4604284B14F683A4393F8307042EA6D
:101408004732B260AA6802F00302012A2BD12A6887
:10141800D50728D500201DE0B260AA6802F00302B3
:10142800012A02D12A68D107F4D4826802F00302A3
:10143800012A02D10268D207ECD415498A6822F43D
:10144800716222F00F028A60E4E71A6C42F020020F
:101458001A640120002283F83C2015B0F0BD012059
:10146800FBE70220F9E7826802F00302012A02D1B1
:101478000268D007CED406488968826822F471626F
:101488000C4322F00F0214438460C3E700010050AC
:101498000003005038B5044600286ED090F820307C
:1014A8000BB901F0DBF92268136823F0020313601B
:1014B800FFF750FB054623685A68910751D41A680C
:1014C80042F001021A60FFF745FB054623685A6897
:1014D800D20754D5227E012A1A680CBF42F0800236
:1014E80022F080021A60627E012A1A680CBF42F05C
:1014F800400222F040021A60A27E012A1A680CBF3C
:1015080042F0200222F020021A60E27E012A1A68C4
:101518000CBF22F0100242F010021A60227F012A4A
:101528001A680CBF42F0080222F008021A60627FB3
:10153800012A1A680CBF42F0040222F004021A6061
:10154800E168A2680A4321690A4361690A4361683C
:1015580001390A43DA6100200123606284F82030EF
:1015680038BDFFF7F7FA401B0A28A4D9636A43F489
:1015780000336362052384F82030012038BDFFF76B
:10158800E9FA401B0A28A1D9F0E77047704770476D
:10159800704770477047704770477047704770478B
:1015A800704770472DE9F84F03685E69D3F80490D7
:1015B8009F68D3F80CB0D3F810A0D3F8188016F0B1
:1015C8000104054622D017F0010407D00122B9070B
:1015D8009A6040F1A380FFF7D8FF0024FB0509D5E6
:1015E8002B684FF48072B8059A6040F1A5802846B0
:1015F800FFF7CCFFFB0309D52B684FF48032B80303
:101608009A6040F1A7802846FFF7C1FF330707D546
:101618001BF0100F1FBF2B68102244F40074DA600F
:10162800770708D51BF0080F05D02B680822DA6069
:101638002846FFF7B1FFB00706D52B68DB68990786
:1016480002D02846FFF7A7FF720607D51AF0100F39
:101658001FBF2B68102244F480641A61B30608D5B2
:101668001AF0080F05D02B6808221A612846FFF7E0
:1016780095FFF70606D52B681B69980702D0284600
:10168800FFF78BFFB10308D519F0100F05D02B68B1
:1016980010225A602846FFF782FFF20308D519F096
:1016A800080F05D02B6808225A602846FFF778FFF4
:1016B80033042AD519F0040F2A6824D0F70504D575
:1016C80018F0010F18BF44F00104B00504D518F054
:1016D800020F18BF44F00204710504D518F0040F76
:1016E80018BF44F0040433050DD518F070030AD070
:1016F800302B4CD03CD8102B43D0202B44D09369AE
:1017080023F070039361042353602CB16B6A1C436C
:101718006C622846FFF745FFBDE8F88F7A0705D4C5
:1017280017F0080405D1FFF733FF57E74FF40064BB
:1017380054E74FF4805451E7790502D544F4005436
:1017480058E73A0502D544F4804453E72846FFF7A2
:1017580020FF4FE7790302D544F4004456E73A03E3
:1017680002D544F4803451E72846FFF713FF4DE7CC
:10177800502B0FD0602B10D0402BC0D144F0400428
:10178800BDE744F00804BAE744F01004B7E744F0B2
:101798002004B4E744F08004B1E744F48074AEE771
:1017A800074AD36823F4E0631B041B0C43F0BF63B0
:1017B800000243F4003300F4E0600343D360704751
:1017C80000ED00E0174B30B5DC68C4F30224C4F127
:1017D8000703251D042B28BF0423062D4FF0010500
:1017E80005FA03F303F1FF338CBF033C00241940CF
:1017F800A14005FA04F4013C2240002842EA010213
:101808004FEA0212ADBF00F1604000F00F00064B36
:1018180000F56140B5BFD2B2D2B21A5480F80023A5
:1018280030BD00BF00ED00E014ED00E0002808DB4B
:101838004209012300F01F0003FA00F0014B43F8AE
:101848002200704700E100E00138B0F1807F0AD241
:10185800064B074A5860F02182F82310002007221F
:1018680098601A6070470120704700BF10E000E0E0
:1018780000ED00E010B530B3846843680168234385
:10188800C4680A6823430469234344692343846979
:101898002343C46922F47F5222F0300223431343C6
:1018A8000B600A4B14220B44B3FBF2F39B00036456
:1018B800074BC36301220023836380F8212080F84B
:1018C8002030184610BD012010BD00BFF8FFFDBF35
:1018D80000000240F0B590F82040012C35D090F877
:1018E80021500124A54280F820404FF000064FF017
:1018F800020428D180F82140046886632668076CB2
:1019080026F001062660C66BBD40756063604368BB
:101918000568102BC36A0BBFA260A160E160E2609A
:101928004BB1236843F00E0323602B6843F0010397
:101938002B600020F0BD236843F00A03236023686E
:1019480023F00403F0E780F820600220F0BDC16BAB
:10195800026C036870B40E681D6804249440264223
:101968000ED015F0040F0BD01A6892065EBF1A68E5
:1019780022F004021A60C36A4C6073B370BC184743
:1019880002249440264212D015F0020F0FD01A6894
:10199800950606D41A6822F00A021A60012380F814
:1019A800213000234C6080F82030836AE5E7082462
:1019B8009440344211D02C070FD51C6824F00E0433
:1019C8001C60012303FA02F24A60836380F8213025
:1019D800002380F82030036BCFE770BC704700000D
:1019E8002DE9F04F85B00B68DFF86481564A019302
:1019F8004FF00F090023019CDC4002D105B0BDE87F
:101A0800F08F012404FA03FA019C14EA0A0500F095
:101A180093804C6824F0100BBBF1020F11D1DF0842
:101A280000EB870703F0070E3E6A4FEA8E0E09FAAD
:101A38000EFC26EA0C0C0E6906FA0EF646EA0C06AF
:101A48003E624FEA430C0327066807FA0CF7FF4388
:101A580004F0030E3E400EFA0CFE0BF1FF3B4EEA7B
:101A68000606BBF1010F066011D8866806EA070B67
:101A7800CE6806FA0CFE4EEA0B068660466826EA31
:101A88000A0AC4F300169E4046EA0A064660C6687B
:101A980037408E6806FA0CF63743E600C7604BD528
:101AA800D8F8186046F00106C8F81860D8F8186029
:101AB80023F0030707F1804706F0010607F5803792
:101AC800039603F0030E039EBE684FEA8E0E09FAD2
:101AD8000EFCB0F1904F26EA0C0C2FD01B4EB042F2
:101AE8002ED006F58066B0422CD006F58066B0424E
:101AF80014BF0526032606FA0EF646EA0C06BE6053
:101B08001668EF4314F4803F0CBF3E402E43166026
:101B1800566814F4003F0CBF3E402E43566096684A
:101B280014F4801F0CBF3E402E439660D668A40272
:101B380054BF3E402E43D66001335CE70026DAE707
:101B48000126D8E70226D6E7000401400004004831
:101B5800001002400AB1816170478162704700003D
:101B68002DE9F347054608B901205FE00368DA0765
:101B780011D42B689B0700F187802B681C0700F1A4
:101B8800F8802B68580700F14181E869002840F087
:101B9800D88100204AE0BB4C636803F00C03042B97
:101BA80007D0636803F00C03082B16D16368DF03C2
:101BB80013D54FF4003393FAA3F2216893FAA3F3F1
:101BC800B3FA83F303F01F03012202FA03F30B4273
:101BD800CFD06B68002BCCD1C6E76A68B2F5803FDE
:101BE80027D1236843F480332360E36AA96823F08C
:101BF8000F030B43E36262B3FEF7ACFF4FF400360A
:101C08008046012796FAA6F3226896FAA6F3B3FA55
:101C180083F303F01F0307FA03F31342A9D1FEF776
:101C280099FFA0EB08006428ECD9032002B0BDE8B6
:101C3800F087236832B923F480332360236823F4C0
:101C48008023D1E7B2F5A02FF5D143F48023236098
:101C5800C7E7FEF77FFF4FF400368046012796FA64
:101C6800A6F3226896FAA6F3B3FA83F303F01F03E8
:101C780007FA03F313423FF47CAFFEF76BFFA0EBC8
:101C880008006428EBD9D0E77E4C636813F00C0F8A
:101C980007D0636803F00C03082B22D16368DE03C6
:101CA8001FD4022393FAA3F2216893FAA3F3B3FA99
:101CB80083F303F01F03012202FA03F30B4203D05C
:101CC8002B6993427FF450AF2168F82393FAA3F36A
:101CD800B3FA83F26B69934021F0F802134323604F
:101CE8004BE72A6901260AB396FAA6F3B3FA83F3F7
:101CF80003F1845303F584139B0002271E60FEF74B
:101D080029FF804697FAA7F3226897FAA7F3B3FA50
:101D180083F303F01F0306FA03F31342D4D1FEF74B
:101D280019FFA0EB08000228ECD97EE796FAA6F383
:101D3800B3FA83F303F1845303F584139B0002275A
:101D48001A60FEF707FF804697FAA7F3226897FA0A
:101D5800A7F3B3FA83F303F01F0306FA03F313425E
:101D68003FF40BAFFEF7F6FEA0EB08000228EBD914
:101D78005BE7AA69434E444901241AB394FAA4F3D1
:101D8800B3FA83F30B449B0002271C60FEF7E2FEC4
:101D9800804697FAA7F397FAA7F397FAA7F3726A18
:101DA80097FAA7F3B3FA83F303F01F0304FA03F3D4
:101DB80013427FF4E6AEFEF7CDFEA0EB0800022842
:101DC800E7D932E794FAA4F3B3FA83F30B449B0000
:101DD80002271A60FEF7BEFE804697FAA7F397FA25
:101DE800A7F397FAA7F3726A97FAA7F3B3FA83F3FC
:101DF80003F01F0304FA03F313423FF4C2AEFEF7E5
:101E0800A9FEA0EB08000228E7D90EE71D4CE369FC
:101E1800D90034D4E36943F08053E361E36903F004
:101E280080530193019B0126184F3B68DA052FD593
:101E3800EB68012B3DD1236A43F001032362FEF7CF
:101E480089FE02278246B9464FF0010897FAA7F3A0
:101E580097FAA7F3002B6CD0226A99FAA9F3B3FA80
:101E680083F303F01F0308FA03F3134258D0002E3C
:101E78003FF48BAEE36923F08053E36185E60026E7
:101E8800D2E700BF0010024020819010007000408F
:101E98003B6843F480733B60FEF75CFE80463B681A
:101EA800DB05C5D4FEF756FEA0EB08006428F6D97A
:101EB800BBE63BBB236A23F001032362236A23F0BA
:101EC80004032362FEF746FE02278246B9464FF016
:101ED800010897FAA7F397FAA7F373B3226A99FA56
:101EE800A9F3B3FA83F303F01F0308FA03F31342C9
:101EF800BDD0FEF72FFE41F28833A0EB0A009842CE
:101F0800E7D992E6052B236A03D143F00403236241
:101F180091E723F001032362236A23F004038DE78A
:101F2800FEF718FE41F28833A0EB0A0098428DD9DB
:101F38007BE697FAA7F3626A8FE797FAA7F3626AD4
:101F4800CDE74A4B5A6802F00C02082A1C467BD09F
:101F580002284FF0807352D193FAA3F3B3FA83F3B4
:101F680003F1845303F584139B0000221A60FEF7E3
:101F7800F1FD4FF000778046012697FAA7F3226813
:101F880097FAA7F3B3FA83F303F01F0306FA03F3F0
:101F980013422DD162686B6A296A22F474120B43CA
:101FA800134363604FF0807393FAA3F3B3FA83F398
:101FB80003F1845303F584139B004FF000751E60F2
:101FC800FEF7C8FD0126074695FAA5F3226895FA9B
:101FD800A5F3B3FA83F303F01F0306FA03F31342DE
:101FE8007FF4D7ADFEF7B6FDC01B0228ECD91CE67E
:101FF800FEF7B0FDA0EB08000228BED915E693FA5B
:10200800A3F3B3FA83F303F1845303F584139B001A
:1020180000221A60FEF79EFD4FF000750746012664
:1020280095FAA5F3226895FAA5F3B3FA83F303F0BA
:102038001F0306FA03F313423FF4ABADFEF78AFD24
:10204800C01B0228ECD9F0E501283FF4EFAD586831
:102058002B6A00F480329A427FF486AD6B6A00F4F2
:102068007010C01A18BF0120E0E500BF0010024040
:1020780010B5134C616801F00C03082B1ED14FF406
:10208800701393FAA3F301F47012B3FA83F322FAEC
:1020980003F30C4AD05CE36A0F2292FAA2F2B2FA76
:1020A80082F203F00F03D340074AD25CCB034ABF46
:1020B800064B074BB3FBF2F3584310BD034810BD62
:1020C80000100240D82E0008E82E000800127A00FE
:1020D80000093D002DE9F0410D46044610B90120E4
:1020E800BDE8F0814D4A136803F007038B422FD3F4
:1020F8002268910737D4D2073DD4484A136803F0C1
:1021080007039D4276D32268454D12F0040F7DD116
:10211800130706D56B68226923F4605343EAC203A8
:102128006B60FFF7A5FF6B68F02292FAA2F2B2FA91
:1021380082F203F0F003D3403A4AD35CD8403A4BDA
:1021480018603A4B1868FEF7C3FC0020BDE8F08120
:10215800136823F007030B431360136803F00703A6
:102168009942BCD1C4E72E49A0684B6823F0F0031C
:1021780003434B60BFE76268294E012A27D14FF419
:10218800003393FAA3F1316893FAA3F3B3FA83F314
:1021980003F01F0302FA03F30B42A0D0736823F085
:1021A80003031A437260FEF7D5FC41F288380746EC
:1021B8007368626803F00C03B3EB820F9DD0FEF7DF
:1021C800C9FCC01B4045F3D90320BDE8F081022AB1
:1021D8000CBF4FF00073022393FAA3F1306893FA0F
:1021E800A3F3B3FA83F303F01F03012101FA03F306
:1021F8000342D2E7136823F007032B4313601368E5
:1022080003F007039D427FF46AAF7CE76B68E168DF
:1022180023F4E0630B436B607AE700BF00200240C1
:1022280000100240F82E00080800002004000020DA
:1022380003682DE9F3470546D80320D5504CE369D8
:10224800D90044D4E36943F08053E361E36903F0C0
:1022580080530193019B01264A4F3B68DA0538D524
:10226800236A13F4407348D1236A6A6823F44073DD
:10227800134323621EB1E36923F08053E3612868A6
:10228800C10706D53E4AA968136B23F003030B4325
:102298001363820606D53A4AE968136B23F01003E4
:1022A8000B431363030606D5354A2969D36A23F419
:1022B800F8730B43D36210F480501BD0304A69691D
:1022C800136B23F480730B431363002012E0002682
:1022D800C2E73B6843F480733B60FEF73BFC8046F3
:1022E8003B68DB05BCD4FEF735FCA0EB080064288E
:1022F800F6D9032002B0BDE8F0876A6802F440729C
:102308009342B1D0216A4FF4803321F4407093FA9C
:10231800A3F2DFF874E0B2FA82F272449200012765
:10232800176093FAA3F3B3FA83F373449B00002274
:102338001A602062C80797D5FEF70CFC4FF0020818
:102348008246C14698FAA8F398FAA8F39BB1226A84
:1023580099FAA9F3B3FA83F303F01F0307FA03F317
:10236800134281D1FEF7F6FB41F28833A0EB0A0055
:102378009842E7D9BDE798FAA8F3626AE8E700BF90
:102388000010024000700040008190100000000022
:102398002DE9F0471EA7D7E900671FA5D5E9004535
:1023A800DFF87C904FF0000A4FF00008164B53F806
:1023B8002A00FEF747F842464B46FEF7B9F8324680
:1023C8003B46FEF7B5F841EC100B00F011FB224636
:1023D80051EC100B2B46FEF7ABF809A3D3E9002309
:1023E800FDF7F4FEFEF754FB084B03F80A000AF168
:1023F800010ABAF1040FD9D1BDE8F087AFF3008024
:102408000AD7A3703D0AE73F1001002020010020F1
:102418006666666666660A40295C8FC2F5A83EC095
:102428000000303F000000002DE9F84F14A7D7E95D
:102438000067DFF85CB0DFF85CA0DFF85C90002490
:102448004FF000085AF82400FDF7FCFF42464B46BF
:10245800FEF76EF832463B46FEF76AF80AA3D3E960
:102468000023FEF765F8FEF713FB04EB0B0500EB02
:10247800800001344000042C2871E3D1BDE8F88FB6
:102488006666666666660A406666666666661840DA
:1024980020010020780100200000303F00B597B0EF
:1024A800282200210CA800F09BFA1422002101A880
:1024B80000F096FA182200210DEB020000F090FAC5
:1024C800022301220C931092139310224FF400233D
:1024D8000CA811921593FFF743FB00210F2301A8C5
:1024E80001930291039104910591FFF7F3FD802375
:1024F800069306A84FF480730A93FFF799FE17B066
:102508005DF804FB80B57F4D7F4E8CB0FEF704FB71
:10251800FFF7C4FF1422002106A800F061FA6B69D6
:102528007A4843F480036B616B6903F48003019379
:10253800019B6B6943F400336B616B6903F40033EF
:1025480000220293012100240127029BFFF702FBCE
:1025580006A96E480697079708940994FFF740FA6A
:102568006B693B436B616B69694D3B402246214671
:1025780000930B20009BFFF725F90B20FFF756F976
:10258800224621460C20FFF71DF90C20FFF74EF9D3
:1025980018220DEB020021464FF00408039404941E
:1025A800059400F01DFA4FF0A043284685E818006E
:1025B800AC602F616F7685F82040EC62AF62EC600A
:1025C800C5F81C8085F83040C5F814802C766C63FB
:1025D800FEF772FB03A928460394FEF7EBFE06A953
:1025E80028464FF0020A06970797099408940A9418
:1025F8000B94FEF75FFD06A928464FF00309CDF8B6
:1026080018A0CDF81CA0FEF755FD06A92846CDF860
:102618001890CDF81C90FEF74DFD06A92846CDF878
:102628001880CDF81C80FEF745FD18220DEB02003E
:10263800214600F0D5F9374BB460304686E81800DB
:102648003761777686F82040F462B762F460C6F89E
:102658001C8086F83040C6F8148034767463FEF720
:102668002BFB06A9304606970797099408940A9405
:102678000B94FEF71FFD06A93046CDF818A0CDF83B
:102688001CA0FEF717FD06A93046CDF81890CDF826
:102698001C90FEF70FFD06A93046CDF81880CDF83E
:1026A8001C80FEF707FD1C481C4A8460102380E844
:1026B8000C00C46004614461047644768476C47670
:1026C80004774477FEF7E6FE424615492846FEF7AA
:1026D80069FC2846FEF7EAFB424612493046FEF7F7
:1026E80061FC3046FEF7E2FB2846FEF7DFFB30468A
:1026F800FEF7DCFBFFF74CFEFFF796FE6420FEF7C3
:102708002FFAF1E70010024098000020001400485A
:102718002801002000010050E8000020006400406B
:102728001001002078010020704700000A4B9A69C8
:1027380042F001029A619A6982B002F001020092A5
:10274800009ADA6942F08052DA61DB6903F080535B
:102758000193019B02B070470010024030B514226B
:102768008BB0054600210DEB020000F039F92B680B
:10277800B3F1A04F3CD1324A13680133012B1360E7
:10278800304B08D15A6942F080525A615A6902F0B6
:1027980080520192019A5A692B4C42F400325A61D4
:1027A8005B6903F400330293029B0F23059305A989
:1027B80003234FF090400693FFF712F9234B236051
:1027C8008022E2604FF4007222614FF4006200231D
:1027D800626120226360A360A261E3612046FFF783
:1027E80049F808B1FFF7A0FFAC6365620BB030BDD4
:1027F800174A9342FAD1124A13680133012B136026
:10280800104B08D15A6942F080525A615A6902F055
:1028180080520392039A5A690E4C42F400325A616C
:102828005B6903F400330493049BF023059305A923
:1028380003234FF090400693FFF7D2F8064BBEE70C
:10284800900000200010024088010020080002408B
:1028580000010050CC0100201C00024010B50446C5
:1028680088B01422002103A800F0BAF822681B4B94
:102878009A4231D103F5D63303A9DA6942F00072DE
:10288800DA61DA6902F000720192019A5A6942F437
:1028980000325A615B6903F400330293029B4FF4E0
:1028A800C053039302230493032306934FF09040ED
:1028B80009230793FFF794F8002211461420FEF726
:1028C80081FF1420FEF7B2FF002215201146FEF703
:1028D80079FF1520FEF7AAFF08B010BD006400407C
:1028E8007047FEE7FEE7FEE7FEE770477047704770
:1028F800FEF724B90148FFF72AB800BF8801002075
:102908000148FFF724B800BFCC0100200148FEF7BA
:1029180049BE00BFE8000020FFF7F8BF054BD3F819
:10292800882042F47002C3F888204FF000629A6051
:10293800704700BF00ED00E0DFF834D0002103E06D
:102948000C4B5B58435004310B480C4B42189A42CD
:10295800F6D30B4A02E0002342F8043B094B9A42A3
:10296800F9D3FFF7DBFF00F017F8FFF7CBFDFEE721
:1029780000300020142F0008000000207400002000
:102988007400002010020020FEE70000014B1868C8
:10299800704700BF0C00002070B50D4E0D4CA41BF5
:1029A800A4100025A54209D10B4E0C4C00F084FA66
:1029B800A41BA4100025A54205D170BD56F82530EA
:1029C80098470135EEE756F8253098470135F2E784
:1029D8000C2F00080C2F00080C2F0008102F0008DF
:1029E80002440346934200D1704703F8011BF9E7FC
:1029F80070B52DED028B8AB055EC104B00F078F8CD
:102A0800364BB0EE408AF0EE608A93F90060731C92
:102A18005BD022462B4620462946FEF723F800289D
:102A280053D10022002320462946FEF711F800283A
:102A38004BD12B4B01930890CDE90245CDE90445D4
:102A4800A6B9284B4FF06042CDE906232046002264
:102A580000232946FDF7D4FF40BB0123022E009333
:102A680019D1FFF793FF2123036019E01E4B0022C1
:102A7800CDE906232046002200232946FDF7C0FFA2
:102A88000028EAD002239E42009311D1FFF77EFF6F
:102A98002223036011E0684600F002FA0028E0D023
:102AA800124800F001FA8DED060B06E002230093B0
:102AB800684600F0F5F90028E8D0089B1BB1FFF73D
:102AC80065FF089B03609DED068BB0EE480AF0EEAB
:102AD800680A0AB0BDEC028B70BD00BF7000002010
:102AE800082F0008FFFFEFC70000F0FF0B2F0008BA
:102AF8002DE9F04F51EC100BB1F5801F87B010EEA7
:102B0800103A0D4627DA21F0004213430AD1CC4986
:102B1800002200230020FDF735FE41EC100B07B022
:102B2800BDE8F08F002907DA10EE102A0B46FDF7F2
:102B38004BFB00220023EEE7C24B0022FDF7F8FC16
:102B48006FF035030D46C04A954206DD02460B4636
:102B5800FDF73CFBE1E70023F5E72C15A4F2FF3471
:102B6800C5F313051C4405F5152303F6647303F434
:102B7800801383F07F5282F4401242EA050104EB8D
:102B880013540022B14BFDF71FFBAB1CC3F3130317
:102B9800022B82468B464FF000025BDC0023FDF7D8
:102BA8002FFFD0B1002C00F070812046FDF75AFCB1
:102BB8008FA3D3E9002306460F46FDF7B9FC8EA381
:102BC800D3E9002304460D4630463946FDF7B0FCEC
:102BD80002460B4620462946BAE789A3D3E90023D3
:102BE80050465946FDF7A4FC02460B46002098497A
:102BF800FDF7EAFA524606460F465B4650465946E6
:102C0800FDF796FC02460B4630463946FDF790FC28
:102C180006460F4634B902460B4650465946FDF75C
:102C2800D3FA7AE72046FDF71DFC71A3D3E9002308
:102C380080468946FDF77CFC6FA3D3E90023044650
:102C48000D4640464946FDF773FC02460B463046A2
:102C58003946B2E04FF08043FDF7B8FA02460B461A
:102C680050465946FDF78EFDCDE900012046FDF797
:102C7800F9FBDDE90023CDE9020110461946FDF70D
:102C880057FC02460B46CDE90401FDF751FC5EA353
:102C9800D3E9002306460F46FDF74AFC5CA3D3E9B7
:102CA8000023FDF793FA32463B46FDF741FC5AA351
:102CB800D3E90023FDF78AFA32463B46FDF738FC94
:102CC80057A3D3E90023FDF781FADDE90423FDF7D3
:102CD8002FFC55A3D3E90023CDE90401304639463A
:102CE800FDF726FC52A3D3E90023FDF76FFA32461D
:102CF8003B46FDF71DFC50A3D3E90023FDF766FA18
:102D080032463B46FDF714FCA5F5C22802460B46A1
:102D1800C5F5D725DDE90401FDF758FAA8F27A4888
:102D2800513545EA0805002D06460F4650DD0022BC
:102D3800474B50465946FDF7FBFB52465B46FDF7AD
:102D4800F7FB8046894694B902460B463046394619
:102D5800FDF73CFADDE90023FDF7EAFB02460B46E6
:102D680040464946FDF730FA02460B4655E720A390
:102D7800D3E90023DDE90201FDF7DAFB42464B46C1
:102D880004460D4630463946FDF720FADDE90023B2
:102D9800FDF7CEFB18A3D3E9002306460F46DDE96D
:102DA8000201FDF7C5FB02460B4630463946FDF7E2
:102DB8000DFA02460B4640464946FDF705FA5246CB
:102DC8005B46FDF701FA02460B462046294626E7F0
:102DD800002C3FD102460B4650465946FDF7F4F900
:102DE800DDE90023FDF7A4FBBEE700BFAFF30080D9
:102DF8000000E0FE422EE63F763C7935EF39EA3DA9
:102E0800555555555555D53F44523EDF12F1C23FF1
:102E1800DE03CB966446C73F599322942449D23F98
:102E2800935555555555E53F9FC678D0099AC33FE8
:102E3800AF788E1DC571CC3F04FA97999999D93FFF
:102E4800000050C300005043FFFFEF7F0000F03F39
:102E58000000E03F0EA3D3E90023DDE90201FDF7FE
:102E680067FB32463B4604460D4650465946FDF739
:102E7800ABF9DDE90023FDF75BFB07A3D3E90023EA
:102E880006460F46DDE90201DDE60020002144E6A2
:102E98000000E0FE422EE63F763C7935EF39EA3D08
:102EA80000207047000000009FED010B704700BF35
:102EB800000000000000F87FF8B500BFF8BC08BCAF
:102EC8009E467047F8B500BFF8BC08BC9E467047E0
:102ED80002030405060708090A0B0C0D0E0F101053
:102EE8000102030405060708090A0B0C0D0E0F1052
:102EF80000000000000000000102030406070809A2
:042F08006C6F670083
:042F0C00AD0100080B
:042F1000890100082B
:102F1400010000001000000000127A0010000020E0
:102F2400000000000000000000000000000000009D
:102F3400000000000000000000000000000000008D
:102F4400000000000000000000000000000000007D
:102F5400000000000000000000000000000000006D
:102F6400000000000000000000000000000000005D
:102F7400000000000000000000000000000000004D
:042F84000100000048
:040000050800294185
:00000001FF
