:020000040800F2
:10000000000002201D2100086D2100086D2100085C
:100010006D2100086D2100086D210008000000001E
:100020000000000000000000000000006D2100083A
:100030006D210008000000006D2100080505000882
:100040006D2100086D2100086D2100086D21000858
:100050006D2100086D2100086D2100086D21000848
:100060006D2100086D2100086D2100086D21000838
:100070006D2100086D2100086D2100086D21000828
:100080006D2100086D2100086D2100082105000880
:10009000310500086D210008410500086D210008A8
:1000A0006D2100086D2100086D2100086D210008F8
:1000B0006D2100086D2100086D2100086D210008E8
:1000C0006D2100086D2100086D2100086D210008D8
:1000D0006D2100086D2100086D2100086D210008C8
:1000E000510500086D2100086D2100086D210008F0
:1000F0006D2100086D2100086D2100086D210008A8
:100100006D2100086D2100086D2100086D21000897
:100110006D2100086D210008110500086D210008FF
:100120006D2100086D2100086D2100086D21000877
:100130006D21000800000000000000006D21000893
:100140006D2100086D2100086D2100086D21000857
:100150006D2100086D2100086D2100086D21000847
:100160006D2100086D2100086D2100086D21000837
:100170006D2100086D2100086D21000800000000BD
:10018000000000006D2100080000000000000000D9
:100190006D21000800000000000000006D21000833
:1001A0000000000000000000000000006D210008B9
:1001B0006D2100086D2100086D2100086D210008E7
:0401C0006D210008A5
:1001C40010B5054C237833B9044B13B10448AFF38D
:1001D40000800123237010BD1000002000000000E7
:1001E400B821000808B5034B1BB103490348AFF31A
:1001F400008008BD0000000014000020B8210008A1
:1002040053B94AB9002908BF00281CBF4FF0FF3179
:100214004FF0FF3000F072B9ADF1080C6DE904CE77
:1002240000F006F8DDF804E0DDE9022304B07047CD
:100234002DE9F047089E04468846002B4BD18A429C
:10024400154667D9B2FA82F24AB1C2F1200701FA1F
:1002540002F320FA07F7954047EA030894404FEA6F
:10026400154E230CB8FBFEF71FFA85FC0EFB17880E
:1002740043EA084307FB0CF1994209D9EB1807F14B
:10028400FF3080F01B81994240F21881023F2B44D9
:100294005B1AA4B2B3FBFEF00EFB103344EA034432
:1002A40000FB0CFCA44509D92C1900F1FF3380F0A4
:1002B4000781A44540F2048102382C4440EA0740F7
:1002C400A4EB0C0400271EB1D4400023C6E900436C
:1002D4003946BDE8F0878B4209D9002E00F0EB8047
:1002E4000027C6E9000138463946BDE8F087B3FA6D
:1002F40083F7002F47D18B4202D3824200F2FA8067
:10030400841A61EB030301209846002EE0D0C6E96D
:100314000048DDE702B9FFDEB2FA82F2002A40F0BB
:100324008F80491B4FEA154E1FFA85F80127B1FB50
:10033400FEFC230C0EFB1C1143EA014308FB0CF1E9
:10034400994207D9EB180CF1FF3002D2994200F21E
:10035400CD808446591AA3B2B1FBFEF00EFB1014F3
:1003640043EA044408FB00F8A04507D92C1900F11E
:10037400FF3302D2A04500F2B6801846A4EB08046D
:1003840040EA0C409FE7C7F1200CBB4022FA0CFE68
:100394004EEA030E01FA07F420FA0CF521FA0CF3E5
:1003A4004FEA1E482543B3FBF8F92C0C08FB19331C
:1003B4001FFA8EFA44EA034309FB0AF49C4202FA48
:1003C40007F200FA07F10BD91EEB030309F1FF3022
:1003D40080F087809C4240F28480A9F10209734432
:1003E4001B1BADB2B3FBF8F008FB103345EA034422
:1003F40000FB0AFAA24508D91EEB040400F1FF33FE
:100404006BD2A24569D90238744440EA0940A0FB82
:100414000289A4EB0A044C45C2464B4654D351D03E
:10042400002E69D0B1EB0A0564EB030404FA0CFC5A
:10043400FD40FC404CEA0505C6E90054002747E7A7
:10044400C2F1200320FA03F7954001FA02F021FAE1
:1004540003F34FEA154E3843010CB3FBFEF71FFAC2
:1004640085F80EFB173341EA034107FB08F38B427F
:1004740004FA02F407D9691807F1FF3C2FD28B4222
:100484002DD9023F2944CB1A81B2B3FBFEF00EFBF7
:10049400103341EA034100FB08F38B4207D9691882
:1004A40000F1FF3C17D28B4215D902382944C91AEE
:1004B40040EA07473BE73746304609E70746E7E6A1
:1004C4001846FBE64145ABD2B8EB020A69EB0E02D3
:1004D40001381346A4E76046E9E7184695E76746FE
:1004E400D1E781467CE702382C4447E7ACF1020CA3
:1004F4002B442FE7384608E73746E9E6704700BF44
:1005040008B500F0E1FB01F020F808BD08B5024889
:1005140001F0C5FC08BD00BF8800002008B50248F2
:1005240000F07BFE08BD00BFC800002008B50248EB
:1005340000F073FE08BD00BFC800002008B50248E3
:1005440000F06BFE08BD00BFC800002008B50448D9
:1005540001F090FC4FF4005001F0EAF808BD00BF30
:10056400880000202DE9F04184B0002501952E4B30
:100574001A6B42F001021A631A6B02F00102019233
:10058400019A02951A6B42F004021A631A6B02F084
:1005940004020292029A03951A6B42F002021A6351
:1005A4001B6B03F002030393039B204C2023236063
:1005B40001266660A56021461D4800F0CBFF4FF47C
:1005C400007323606660A5601A4F2146384600F028
:1005D400C1FF4FF48078C4F800806660A5602146AE
:1005E400384600F0B7FF402323606660A5602146CB
:1005F400384600F0AFFFC4F800806660A56021466D
:100604000D4800F0A7FF4FF4005323600B4B6360C9
:10061400A5602146384600F09DFF282000F070FFB9
:1006240004B0BDE8F08100BF003802402C00002077
:1006340000000240000802400004024000002110B3
:1006440010B5013803281BD8DFE800F0021B344D35
:10065400314C01224FF40071204601F059F8002278
:100664004FF48071204601F053F800224FF480715A
:100674002A4801F04DF800224021204601F048F8B4
:1006840010BD254C00224FF40071204601F040F8C3
:1006940001224FF48071204601F03AF800224FF411
:1006A40080711E4801F034F800224021204601F0F8
:1006B4002FF8E5E7184C00224FF40071204601F0B2
:1006C40027F800224FF48071204601F021F801221E
:1006D4004FF48071114801F01BF80022402120469C
:1006E40001F016F8CCE70C4C00224FF400712046C0
:1006F40001F00EF800224FF48071204601F008F852
:1007040000224FF48071054801F002F801224021D3
:10071400204600F0FDFFB3E7000802400004024059
:10072400FEE7000000B583B000220092234B196C51
:1007340041F0805119641B6C03F080530093009BBB
:1007440001921F4B196841F4404119601B6803F47E
:1007540040430193019B1B48022343610121016231
:1007640010214162C362026308224263B42282639D
:10077400C36303644364143001F09AF9B8B900F018
:10078400E5FFB0B90F480F2383640223C364002339
:1007940003654FF4A05343654FF4805383650521EB
:1007A400483001F013F830B903B05DF804FBFFF7EB
:1007B400B7FFFFF7B5FFFFF7B3FF00BF00380240F4
:1007C400007000402C00002008B50848084BC365A1
:1007D4004FF47A7303664AF6A97383665C3001F0BA
:1007E4007FFC00B908BDFFF79BFF00BF2C00002071
:1007F4000010004008B51448144BC0F89C30002386
:10080400C0F8A430012280F8B52080F8B73080F811
:10081400B62080F8B83080F8B43080F8B9300622B9
:10082400C0F8A020C0F8A8304FF43023C0F8AC3092
:100834004FF48013C0F8B0309C3000F057FA00B980
:1008440008BDFFF76DFF00BF2C00002000640040CE
:1008540008B538480122C0F8E4200023C0F8D43099
:10086400C0F8DC30C0F8E020C0F8E830C0F8D83078
:100874004FF44062C0F8C420C0F8C8304FF6E072AC
:10088400C0F8CC20C0F8D03000F1C4019C3000F096
:10089400D3FA002845D127480123C0F8D8304FF4B3
:1008A4006063C0F8C4300023C0F8C8304FF6E0726B
:1008B400C0F8CC20C0F8D03000F1C4019C3000F066
:1008C400BBFA80BB1B480223C0F8D8304FF48053D6
:1008D400C0F8C4300023C0F8C8304FF6E072C0F846
:1008E400CC20C0F8D03000F1C4019C3000F0A4FA50
:1008F400D8B910480323C0F8D8304FF49053C0F847
:10090400C4300023C0F8C8304FF6E072C0F8CC20E1
:10091400C0F8D03000F1C4019C3000F08DFA30B939
:1009240008BDFFF7FDFEFFF7FBFEFFF7F9FEFFF73B
:10093400F7FE00BF2C00002008B500F0ABF9B4208E
:10094400FFF7F0FEFFF70EFEFFF73EFFFFF752FF43
:10095400FFF77EFF074800F005FB08B1FFF7E0FE54
:1009640040F20341034800F03AFC00B9FEE7FFF708
:10097400D7FE00BFC800002008B50A460138042885
:1009840010D8DFE800F0031A2B3C4D002D4B082152
:10099400C3F8FC101021C3F8EC100021C3F8F410C4
:1009A400C3F8F810274800F5827300F1EC019C307D
:1009B40000F006FB002843D108BD224B0821C3F8F0
:1009C400FC102021C3F8EC100021C3F8F41002211C
:1009D400C3F8F8101C4B03211970E3E7194B0821E5
:1009E400C3F8FC103021C3F8EC100021C3F8F41054
:1009F4000221C3F8F810144B04211970D2E7114BEB
:100A04000821C3F8FC104021C3F8EC100021C3F8FE
:100A1400F4100221C3F8F8100B4B05211970C1E73B
:100A2400084B0821C3F8FC105021C3F8EC10002136
:100A3400C3F8F4100221C3F8F810034B1970B1E79E
:100A4400FFF76EFE2C0000200000002000B583B0EC
:100A54006946054B1878FFF78FFF2021034800F003
:100A64005DFE03B05DF804FB0000002000000240BE
:100A740010B5264800F5847300F5887200219C3077
:100A840000F013FBB0B9214BD3F81031702B22D0F6
:100A940012D9802B2CD0902B1CD11C4C042084F810
:100AA4002C01FFF7CDFD04F58471194B5878FFF73D
:100AB40063FF0FE0FFF734FE602B0BD1134C0120D2
:100AC40084F82C01FFF7BCFD04F58471104B5878B1
:100AD400FFF752FF10BD0D4C022084F82C01FFF7E4
:100AE400AFFD04F584710A4B5878FFF745FFF1E731
:100AF400064C032084F82C01FFF7A2FD04F5847151
:100B0400034B5878FFF738FFE4E700BF2C000020C0
:100B14000000002008B52021024800F0FFFDFFF787
:100B2400A7FF08BD0000024008B5032000F0A2FCA6
:100B34000B4A536A43F4E0235362002211466FF0D8
:100B44000B0000F0A9FC002211466FF00A0000F02F
:100B5400A3FC002211466FF0090000F09DFC08BDC3
:100B640000ED00E010B582B000240194094B1A6C2A
:100B740042F010021A641B6C03F010030193019BF2
:100B8400362000F0BDFC22460F21362000F084FC04
:100B940002B010BD0038024010B588B000240194A2
:100BA400214B1A6C42F000721A641A6C02F0007243
:100BB4000192019A02941A6B42F001021A631B6BB0
:100BC40003F001030293029B4FF4C05303930223E7
:100BD4000493059406930923079303A9134800F08B
:100BE400B9FC22460F21132000F056FC22460F21A7
:100BF400142000F051FC22460F21152000F04CFC7B
:100C040022460F21162000F047FC132000F078FC48
:100C1400142000F075FC152000F072FC162000F082
:100C24006FFC08B010BD00BF003802400000024055
:100C3400054BD3F8882042F47002C3F888204FF0A3
:100C440000629A60704700BF00ED00E010B50446F2
:100C54000E4B18784FF47A73B3FBF0F30C4A106818
:100C6400B0FBF3F000F05AFC68B90F2C01D9012055
:100C74000AE0002221464FF0FF3000F00DFC034B48
:100C84005C60002000E0012010BD00BF08000020CF
:100C94000400002008B50B4B1A6842F400721A6075
:100CA4001A6842F480621A601A6842F480721A6008
:100CB400032000F0DFFB0020FFF7C8FFFFF734FF3D
:100CC400002008BD003C0240034A1168034B1B7816
:100CD4000B441360704700BF5C0100200800002033
:100CE400014B1868704700BF5C010020002800F029
:100CF400A18038B5044690F82030D3B12268136837
:100D040023F002031360FFF7EBFF054623685A68DC
:100D140012F0020F10D0FFF7E3FF401B0A28F5D9A9
:100D2400636A43F400336362052384F820300120AE
:100D340038BDFFF731FFE1E71A6842F001021A609B
:100D4400FFF7CEFF054623685A6812F0010F0DD154
:100D5400FFF7C6FF401B0A28F5D9636A43F4003342
:100D64006362052384F820300120E1E7227E012A12
:100D74003DD01A6822F080021A60637E012B3BD0BA
:100D84002268136823F040031360A37E012B39D03B
:100D94002268136823F020031360E37E012B37D00D
:100DA4002268136843F010031360237F012B35D0AE
:100DB4002268136823F008031360637F012B33D088
:100DC4002268136823F004031360A368E2681343E2
:100DD40022691343626913436268013A2168134329
:100DE400CB6100206062012384F82030A0E71A68F8
:100DF40042F080021A60C0E72268136843F040039F
:100E04001360C2E72268136843F020031360C4E749
:100E14002268136823F010031360C6E7226813687E
:100E240043F008031360C8E72268136843F004031F
:100E34001360CAE70120704790F82030013BDBB211
:100E4400012B05D9436A43F4802343620120704790
:100E540070B4434BD3F8002242F00102C3F80022DD
:100E6400D3F8002222F47C52C3F80022D3F80022E3
:100E7400486A42EA0022C3F800224A6902F01F02CB
:100E8400012000FA02F2D3F81C42D0430440C3F814
:100E94001C42CB69B3B9324BD3F80C420440C3F8BB
:100EA4000C42CE688D884C6945EA0645483443F8BF
:100EB40034508E680C884D6944EA0644483503EB87
:100EC400C5035C60CB69012B1DD08B69002B32D12B
:100ED400234CD4F804320340C4F804320B698BBBAE
:100EE4001F4BD3F814422040C3F814020B6A012BA1
:100EF4002FD01B4AD2F8003223F00103C2F800328B
:100F0400002070BC7047164BD3F80C421443C3F84E
:100F14000C420E688D884C6945EA0645483443F80E
:100F240034508E688C894D6944EA0644483503EB95
:100F3400C5035C60C9E70A4CD4F804321343C4F80F
:100F44000432CBE70648D0F814321343C0F8143205
:100F5400CCE70349D1F81C321A43C1F81C22C8E774
:100F64000064004038B590F82030DBB2012B05D086
:100F7400436A43F400234362012038BD044602233C
:100F840080F820300268136823F001031360FFF730
:100F9400A7FE054623685B6813F0010F0DD0FFF729
:100FA4009FFE401B0A28F5D9636A43F40033636249
:100FB400052384F820300120DFE700206062DCE7AD
:100FC40070B490F820400568AD68013CE4B2012C8F
:100FD40006D9436A43F480234362012070BC7047FE
:100FE40015F0E05F5BD0C5F30165022D3ED8012406
:100FF400AC401C608B68002B3ED10E68CB68046843
:1010040043EA465605F118031B01E65003680C69D0
:1010140005F1180603EB06135C600B7D012B36D03B
:10102400D17993791B0443EA0163517943EA01239B
:101034001479016823432C012144C1F88C31D178FF
:1010440093781B0443EA0163517843EA012311783E
:1010540002680B432244C2F88831026818352D0116
:10106400535943F0010353510020B7E7436A43F453
:10107400000343620120B1E74C6843EAC403CC682F
:101084000668234305F1180424013351BEE70368BD
:1010940003EB0613596841F480715960C0E7436A51
:1010A40043F400134362012098E730B490F82040E1
:1010B400013CE4B2012C06D9436A43F48023436221
:1010C400012030BC704700296FD10468E46814F033
:1010D400030F64D0056801F11B0424012C5904F0AA
:1010E40004049460002C6BD1056801F11B042401F5
:1010F4002C59640D1460056801F11B0424012D5959
:1011040005F00205D560056825446D6805F00F05F6
:101114001561056825446D68C5F307259561056863
:101124002C446468240C546104680A011444D4F8FF
:10113400B8411C7004681444D4F8B841C4F30724BB
:101144005C7004681444D4F8B841C4F307449C7038
:1011540004681444D4F8B841240EDC7004681444C0
:10116400D4F8BC411C7104681444D4F8BC41C4F3E1
:1011740007245C7104681444D4F8BC41C4F30744E4
:101184009C7104682244D2F8BC21120EDA71F9B9B8
:101194000268D36843F02003D360002091E7436AD8
:1011A40043F40013436201208BE70468246914F0BC
:1011B400030F8FD1436A43F400134362012080E795
:1011C400056801F11B0424012C59E408546092E7DA
:1011D4000268136943F020031361002071E790F85B
:1011E4002030013BDBB2012B05D9436A43F4802351
:1011F400436201207047026853691943516100201A
:101204007047704770477047704770477047704722
:10121400704770477047704770472DE9F84F05468F
:1012240003685C695F689E68D3F80C90D3F81080FB
:10123400D3F818A014F0010F5AD016F0010F17D0EC
:1012440001229A6016F0020F08D116F0040F30D173
:1012540016F0080F07D04FF4805B0BE0FFF7D1FFC7
:101264004FF0000B06E0FFF7CFFF4FF0000B01E05B
:101274004FF0000B16F4807F0BD02B684FF4807274
:101284009A6016F4007F17D116F4806F18D04BF4CF
:10129400005B16F4803F2DD02B684FF480329A60A7
:1012A40016F4003F16D116F4802F17D04BF4004BE0
:1012B40020E04FF4006BDDE72846FFF7A3FFE8E7E3
:1012C40016F4006F02D04BF4804BE2E72846FFF798
:1012D4009CFFDEE72846FFF796FF0BE016F4002F8D
:1012E40002D04BF4803B05E02846FFF78FFF01E076
:1012F4004FF0000B14F0080F07D019F0100F04D0B2
:101304004BF4007B2B681022DA6014F0040F02D037
:1013140019F0080F60D114F0020F04D02B68DB68B9
:1013240013F0030F5FD114F0400F07D018F0100F23
:1013340004D04BF4806B2B6810221A6114F0200F38
:1013440002D018F0080F52D114F0100F04D02B68FB
:101354001B6913F0030F51D114F4003F02D017F0AE
:10136400100F4FD114F4803F02D017F0080F50D162
:1013740014F4004F67D017F0040F61D014F4807F89
:1013840004D01AF0010F01D04BF0010B14F4007FCC
:1013940004D01AF0020F01D04BF0020B14F4806F4A
:1013A40004D01AF0040F01D04BF0040B14F4006FB6
:1013B40046D01AF0700A43D0BAF1300F48D02FD972
:1013C400BAF1500F47D0BAF1600F47D0BAF1400FCD
:1013D40031D14BF0400B2EE02B680822DA6028460E
:1013E400FFF715FF97E72846FFF794FB9BE72B6869
:1013F40008221A612846FFF70CFFA5E72846FFF7E5
:1014040007FFA9E72B6810225A602846FFF702FF5E
:10141400A8E72B6808225A602846FFF7FCFEA7E7D6
:10142400BAF1100F05D0BAF1200F04D14BF0100B14
:1014340001E04BF0080B2A68936923F07003936171
:101444002B6804225A60BBF1000F0AD1BDE8F88F63
:101454004BF0200BEFE74BF0800BECE74BF4807B79
:10146400E9E76B6A43EA0B036B622846FFF7D4FE95
:10147400ECE70000074AD36823F4E0631B041B0C69
:10148400000200F4E060184340F0BF6040F4003014
:10149400D060704700ED00E030B4174BDB68C3F355
:1014A4000223C3F10704042C28BF04241D1D062DA8
:1014B40018D9033B4FF0FF3505FA04F421EA04017F
:1014C400994005FA03F322EA0303194300280BDBCE
:1014D4000901C9B200F1604000F5614080F80013D1
:1014E40030BC70470023E5E700F00F000901C9B2E2
:1014F400024B1954F4E700BF00ED00E014ED00E0E6
:10150400002807DB00F01F02400901239340024A30
:1015140042F82030704700BF00E100E00138B0F12C
:10152400807F0AD2064B5860064AF02182F82310C5
:101534000020986007221A6070470120704700BF9E
:1015440010E000E000ED00E0704708B5FFF7FCFF95
:1015540008BD000000230F2B00F2D180F0B583B04A
:1015640039E0062200E00022AA403A430234644DE6
:1015740045F82420634A1468F24302EA04054F68DC
:1015840017F4803F01D046EA04055E4C2560646888
:1015940002EA04054F6817F4003F01D046EA040547
:1015A400584C6560A46802EA04054F6817F4801F6C
:1015B40001D046EA0405534CA560E46822404D6816
:1015C40015F4001F01D046EA04024E4CE2600133D8
:1015D4000F2B00F2928001229A400C6804EA020662
:1015E400B242F4D14C68651E012D03D9112C01D0EF
:1015F400122C12D185685F000324BC4025EA04053F
:10160400CC68BC402C438460456825EA02054C68DC
:10161400C4F300129A402A434260C4685F00032264
:10162400BA40D24314408D68BD402543C5604C6820
:10163400022C01D0122C13D1DD08083550F825E016
:1016440003F007044FEA840C0F2404FA0CF42EEA86
:10165400040E0C6904FA0CF444EA0E0440F8254024
:10166400046822404C6804F00304BC402243026036
:101674004A6812F0805FAAD000220192224A546C78
:1016840044F480445464526C02F480420192019AFE
:101694009C08A51C1A4A52F8257003F00302950011
:1016A4000F22AA4027EA0207184A90423FF45BAF90
:1016B40002F58062904216D002F58062904214D006
:1016C40002F58062904212D002F58062904210D0FE
:1016D40002F5806290420ED002F5806290423FF49F
:1016E40040AF072240E701223EE702223CE7032203
:1016F4003AE7042238E7052236E703B0F0BD704725
:1017040000380140003C0140003802400000024023
:1017140012B909048161704781617047436931EAF4
:10172400030301D0816170470904816170477047E8
:1017340008B5054B5B69034200D108BD024B5861F3
:10174400FFF7F5FFF9E700BF003C014010B582B098
:1017540000230193194B1A6C42F080521A641B6CDB
:1017640003F080530193019B154B01221A60FFF78C
:10177400B7FA0446134B5B6813F4803F08D1FFF7B4
:10178400AFFA001BB0F57A7FF4D9032002B010BD84
:101794000D4B01221A60FFF7A3FA0446094B5B685C
:1017A40013F4003F07D1FFF79BFA001BB0F57A7FD3
:1017B400F4D90320EAE70020E8E700BF003802403C
:1017C40040000E420070004044000E42002800F029
:1017D4009E8070B50446504B1B6803F00F038B4288
:1017E40009D2CBB24C4A1370136803F00F038B4237
:1017F40001D0012070BD236813F0020F17D013F03D
:10180400040F04D0454A936843F4E053936023687B
:1018140013F0080F04D0414A936843F46043936083
:101824003E4A936823F0F003A068034393600D4697
:10183400236813F0010F32D06368012B21D09A1E64
:10184400012A25D9354A126812F0020F61D03349B2
:101854008A6822F0030213438B60FFF741FA0646BD
:101864002E4B9B6803F00C036268B3EB820F16D017
:10187400FFF736FA801B41F288339842F0D90320EF
:10188400B8E7264A126812F4003FE0D10120B1E71C
:10189400224A126812F0007FD9D10120AAE71E4B18
:1018A4001B6803F00F03AB4209D9EAB21A4B1A7052
:1018B4001B6803F00F03AB4201D001209AE72368B1
:1018C40013F0040F06D0154A936823F4E053E1683B
:1018D4000B439360236813F0080F07D00F4A9368F3
:1018E40023F46043216943EAC103936000F01EF8C6
:1018F4000A4B9B68C3F30313094AD35CD840094BD2
:101904001860094B1868FFF7A1F9002072E701205D
:10191400704701206EE700BF003C024000380240DF
:10192400D0210008040000200C0000202DE9F04B19
:101934005C4B9B6803F00C03082B07D00C2B5BD08B
:10194400042B00F0AD805848BDE8F08B554B5A6825
:1019540002F03F025B6813F4800F2AD0514B5B689E
:10196400C3F388131E4600275C010025E41A65EBC7
:101974000705A90141EA9461A001001B61EB05017F
:10198400CB0043EA5073C400A01943EB07014B0298
:1019940043EAD0534402204619460023FEF730FCA4
:1019A400404B5B68C3F3014301335B00B0FBF3F0CE
:1019B400CAE73C4B5B68C3F388131E4600275C01EF
:1019C4000025E41A65EB0705A90141EA9461A00129
:1019D400001B61EB0501CB0043EA5073C400A0195E
:1019E40043EB07018B0243EA9053840220461946D5
:1019F4000023FEF705FCD3E72A4B5A6802F03F02A6
:101A04005B6813F4800F28D0264B5B68C3F38813FC
:101A14001E4600275C010025E41A65EB0705A901B1
:101A240041EA9461A001001B61EB0501CB0043EA8C
:101A34005073C400A01943EB07014B0243EAD0538F
:101A44004402204619460023FEF7DAFB154B5B6877
:101A5400C3F30273B0FBF3F076E7124B5B68C3F396
:101A640088131E4600275C010025E41A65EB070570
:101A7400A90141EA9461A001001B61EB0501CB00BF
:101A840043EA5073C400A01943EB07018B0243EAF5
:101A940090538402204619460023FEF7B1FBD5E794
:101AA400024851E7003802400024F40000127A0092
:101AB40070B582B00446036813F0010F41D0A64B01
:101AC4009B6803F00C03042B32D0A34B9B6803F0F8
:101AD4000C03082B27D0A04B9B6803F00C030C2BA2
:101AE40059D06368B3F5803F5BD0B3F5A02F5ED0C7
:101AF400994B1A6822F480321A601A6822F4802200
:101B04001A606368002B5CD0FFF7EAF80546924B35
:101B14001B6813F4003F14D1FFF7E2F8401B64285C
:101B2400F5D903209DE18C4B5B6813F4800FD2D070
:101B3400894B1B6813F4003F03D06368002B00F04B
:101B44008D81236813F0020F67D0834B9B6813F0D9
:101B54000C0F4AD0804B9B6803F00C03082B3FD03A
:101B64007D4B9B6803F00C030C2B48D0E368002BDF
:101B740074D07A4B01221A60FFF7B2F80546764B0F
:101B84001B6813F0020F60D1FFF7AAF8401B02286C
:101B9400F5D9032065E1704B5B6813F4800FA0D086
:101BA400C6E76D4A136843F480331360A9E76A4BB0
:101BB4001A6842F480221A601A6842F480321A6069
:101BC4009FE7FFF78DF80546634B1B6813F4003F4E
:101BD400B7D0FFF785F8401B6428F5D9032040E10E
:101BE4005D4B5B6813F4800FBAD15B4B1B6813F039
:101BF400020F0AD0E368012B07D0012031E1564BD4
:101C04005B6813F4800FB1D1EFE7534A136823F0F4
:101C1400F803216943EAC1031360236813F0080F32
:101C240040D0636963B34E4B01221A60FFF758F842
:101C34000546494B5B6F13F0020F33D1FFF750F8A1
:101C4400401B0228F5D903200BE1434A136823F013
:101C5400F803216943EAC1031360DEE73F4B002226
:101C64001A60FFF73DF805463B4B1B6813F0020F63
:101C7400D3D0FFF735F8401B0228F5D90320F0E054
:101C8400374B00221A60FFF72BF80546324B5B6F87
:101C940013F0020F06D0FFF723F8401B0228F5D9F2
:101CA4000320DEE0236813F0040F79D02A4B1B6C69
:101CB40013F0805F33D100230193274B1A6C42F059
:101CC40080521A641B6C03F080530193019B01251D
:101CD400244B1B6813F4807F23D0A368012B34D0DA
:101CE400052B41D01C4B1A6F22F001021A671A6FA0
:101CF40022F004021A67A368002B3FD0FEF7F0FF1E
:101D04000646154B1B6F13F0020F48D1FEF7E8FF90
:101D1400801B41F288339842F3D90320A1E00025C7
:101D2400D6E7104A136843F480731360FEF7D8FFB4
:101D340006460C4B1B6813F4807FCED1FEF7D0FF10
:101D4400801B0228F5D903208BE0034A136F43F06C
:101D540001031367CFE700BF003802400000474289
:101D6400800E474200700040404B1A6F42F004025C
:101D74001A671A6F42F001021A67BCE7FEF7B0FF58
:101D840006463A4B1B6F13F0020F08D0FEF7A8FF6C
:101D9400801B41F288339842F3D9032061E0E5B90E
:101DA400A369002B5CD0314A926802F00C02082A25
:101DB40059D0022B17D02E4B00221A60FEF790FF49
:101DC40004462A4B1B6813F0007F45D0FEF788FFBA
:101DD400001B0228F5D9032043E0244A136C23F0A6
:101DE40080531364DCE7224B00221A60FEF778FF6D
:101DF40005461E4B1B6813F0007F06D0FEF770FFEC
:101E0400401B0228F5D903202BE0E369226A13431F
:101E1400626A43EA8213A26A5208013A43EA02431D
:101E2400E26A43EA0263226B43EA02730F4A536095
:101E34000F4B01221A60FEF753FF04460B4B1B683D
:101E440013F0007F06D1FEF74BFF001B0228F5D9E3
:101E5400032006E0002004E0002002E0012000E06E
:101E6400002002B070BD0120FBE700BF0038024033
:101E7400600047420268D36843F00103D3600268FC
:101E8400936803F00703062B03D0136843F00103A0
:101E9400136000207047704770477047704710B553
:101EA400044603681A6912F0020F11D0DA6812F0BE
:101EB400020F0DD06FF002021A6101230377036849
:101EC4009B6913F0030F70D0FFF7E6FF002323771D
:101ED40023681A6912F0040F12D0DA6812F0040FA2
:101EE4000ED06FF004021A610223237723689B69E2
:101EF40013F4407F5FD02046FFF7CEFF0023237703
:101F040023681A6912F0080F12D0DA6812F0080F69
:101F14000ED06FF008021A61042323772368DB696B
:101F240013F0030F4ED02046FFF7B6FF00232377AC
:101F340023681A6912F0100F12D0DA6812F0100F29
:101F44000ED06FF010021A61082323772368DB692F
:101F540013F4407F3DD02046FFF79EFF00232377F4
:101F640023681A6912F0010F03D0DA6812F0010F26
:101F740036D123681A6912F0800F03D0DA6812F0A0
:101F8400800F34D123681A6912F0400F03D0DA6845
:101F940012F0400F32D123681A6912F0200F03D0D7
:101FA400DA6812F0200F30D110BDFFF774FF20461D
:101FB400FFF773FF8AE72046FFF76DFF2046FFF720
:101FC4006CFF9BE72046FFF766FF2046FFF765FF9F
:101FD400ACE72046FFF75FFF2046FFF75EFFBDE753
:101FE4006FF001021A612046FEF730FDC1E76FF081
:101FF40080021A61204600F08DF8C3E76FF04002BA
:102004001A612046FFF74AFFC5E76FF020021A6104
:10201400204600F07EF8C7E70368304A904212D0A9
:10202400B0F1804F0FD0A2F57C4290420BD002F564
:102034008062904207D002F58062904203D002F59C
:102044007842904203D123F070034A681343234A31
:1020540090422AD0B0F1804F27D0A2F57C42904222
:1020640023D002F5806290421FD002F58062904234
:102074001BD002F57842904217D002F5705290427C
:1020840013D002F5806290420FD002F58062904234
:102094000BD0A2F59832904207D002F580629042AC
:1020A40003D002F58062904203D123F44073CA68DE
:1020B400134323F080034A69134303608B68C362AC
:1020C4000B688362054B984203D003F58063984202
:1020D40001D10B6903630123436170470000014090
:1020E400A8B110B5044690F83D305BB1022384F8E2
:1020F4003D30211D2068FFF78FFF012384F83D3018
:10210400002010BD80F83C30FEF72CFDEEE70120E6
:102114007047704770470000DFF834D0002103E0B7
:102124000C4B5B58435004310B480C4B42189A42F9
:10213400F6D30B4A02E0002342F8043B094B9A42CF
:10214400F9D3FEF775FD00F011F8FEF7F5FB7047C3
:1021540000000220F82100080000002010000020E8
:102164001000002060010020FEE7000070B50D4E55
:102174000D4CA41BA4100025A54209D10B4E0C4CF8
:1021840000F018F8A41BA4100025A54205D170BDC9
:1021940056F8253098470135EEE756F8253098472C
:1021A4000135F2E7F0210008F0210008F0210008D1
:1021B400F4210008F8B500BFF8BC08BC9E4670477F
:0C21C400F8B500BFF8BC08BC9E46704790
:1021D00000000000000000000102030406070809D7
:0821E0000000000001020304ED
:0821E8004CE0FF7F0100000044
:0421F000E9010008F9
:0421F400C501000819
:1021F800020100000024F4000100000010000000AB
:040000050800211DB1
:00000001FF
